:100000000C9481060C94B9060C94B9060C946D2DD1
:100010000C94B9060C94B9060C94B9060C94B90664
:100020000C94B9060C94B9060C946C1B0C94281B08
:100030000C9414260C94B9060C94B9060C94B906C9
:100040000C94B9060C94B9060C94B9060C94B90634
:100050000C94B9060C943B170C94B9060C94B90691
:100060000C94B9060C94B9060C94B9060C94B90614
:100070000C94B9060C94B9060C94B9060C94B90604
:100080000C94B9060C94B9060C94B9060C94B906F4
:100090000C94B9060C94B9060C94B9060C94B906E4
:1000A0000C94B9060C94B9060C94B906504F5251F1
:1000B0004A4D4B4E2A4C2F30B6B7ABACBBBCA9AAAD
:1000C000BDBE0D0E0B0F1A05080509050718111303
:1000D0000408120C000000000000000000000000F6
:1000E000290014001A000800150017002B2104280D
:1000F0001624072109220A00E1001D001B0006004A
:100100001900050000000000E30021522C4300000C
:10011000000000000000000000000000797C1300D7
:1001200012000C0018001C002A0033380F340E3166
:100130000D320B00E50038003700360010001100CA
:10014000000000002452225228000000000000009D
:10015000000000000000000001001E021F0220023B
:100160002102220201002302240225022602270284
:1001700001002D0231002504260431020000000098
:10018000010001000100000000000000000000006C
:1001900000000000010000003002300034020000C6
:1001A00001003502350026062506340001002F0027
:1001B0002F02000000002D000000000001000100DF
:1001C000010000000000000000000000000000002E
:1001D0000100000000000000000000000100E70036
:1001E000E200E400E100010001001D081B08060810
:1001F00019081D0A000000000100010001000000B4
:1002000000000000000000000000000001000000ED
:100210004D0052004A004B00010000004F00510009
:1002200050004E00010000004F060000500630084C
:1002300000000000010001000100000000000000BB
:10024000000000000000000001001E001F00200050
:1002500021002200010023002400250026002700A1
:1002600001002E0038002E0224023700000000009A
:10027000010001000100000000000000000000007B
:10028000000000000100000000000000000000006D
:100290000100E700E600E400E500000001000000C6
:1002A000000000000000000000000000010001004C
:1002B000010000000000000000000000000000003D
:1002C00001003A003B003C003D003E000100207868
:1002D000237825782778BD000100217824782678B6
:1002E0002878BE00000000000100010001000000AD
:1002F00000000000000000000000000001004300BA
:100300004200410040003F0001004400AB00AE004D
:10031000AC00655201004500A900A800AA00000039
:1003200000000000010001000100000000000000CA
:1003300000000000000000002B000100010001008F
:1003400001000100E00004001600070009000100A0
:100350000100010001000100010001000000000097
:10036000E2002C00E300010000000000000000009B
:100370000000000065520000000052000000000074
:10038000000000004F00510050000000000000007D
:10039000000000000000000000000000010000005C
:1003A0002800000000DA0281FFD9F1DB20A4A62E8C
:1003B000AF00A0C0D30000A1C8D30000AED580A874
:1003C0001F408D142000556E6B6E6F776E00476175
:1003D0006D65005F41444A004E554D004E41560048
:1003E00053594D0044656661756C74004C617965C4
:1003F000723A200057696E004D6163004F533A20F6
:100400000043617073204C6F636B204F666600433E
:10041000617073204C6F636B204F6E000000000012
:1004200000000000000000000000000000000000CC
:1004300000000000000000000000000000000000BC
:1004400000000000000000000000000000000000AC
:10045000000000000000000000000000000000009C
:10046000000000000000000000000000000000008C
:10047000000000000000000000000000000000007C
:10048000000000000000000000000000000000006C
:1004900000000000000000000000000000041EFE3C
:1004A000FEFEFEFEFEFEFEFEFEFC3C0C0C3CFCFED8
:1004B000FEFEFEFEFEFEFEFEFE1E0600F8F0000042
:1004C000010303030303030381C0C0C0C0C0C0C154
:1004D00083830303030303010000E0F8033FFFFCF1
:1004E000F8F8F8F8FCFEFF8783C1E1E0E0E0E0C146
:1004F0008387FFFEFEFCF8F8FCFE3F0700000003C8
:10050000070F1F3F7FFFFFFFFFFFFFFFFFFFFFFF03
:10051000FFFFFFFF7F3F1F070300000000000000F8
:1005200000000000000001030307070F0F0F0F0773
:1005300007030100000000000000000000000000B0
:1005400000000000000000000000000000000000AB
:10055000000000000000000000000000000000009B
:10056000000000000000000000000000000000008B
:10057000000000000000000000000000000000007B
:10058000000000000000000000000000000000006B
:10059000000000000000000000000000000000005B
:1005A000000000000000000000000000000000004B
:1005B0000000000000000000000000004D61676FB7
:1005C0000000010101010101010101020202020218
:1005D00002020202030303030303030304040404EB
:1005E00004040405050505050606060606070707B3
:1005F000070708080808090909090A0A0A0B0B0B6A
:100600000C0C0C0D0D0D0E0E0E0F0F0F1010111106
:10061000111212131314141515161617171818198A
:10062000191A1A1B1B1C1D1D1E1E1F2020212222F1
:10063000232424252626272829292A2B2C2D2D2E34
:100640002F30313232333435363738393A3B3C3D4E
:100650003E3F404142434445464748494A4C4D4E3F
:100660004F50515354555658595A5B5D5E5F616205
:1006700064656668696B6C6D6F7072737577787A94
:100680007B7D7E8082838587888A8C8E8F919395EF
:1006900096989A9C9EA0A2A3A5A7A9ABADAFB1B313
:1006A000B5B7BABCBEC0C2C4C6C9CBCDCFD1D4D6F3
:1006B000D8DBDDDFE2E4E7E9EBEEF0F3F5F8FAFD95
:1006C000FF00AF00AE05010980A101850319012AD1
:1006D000B700150126B700950175108100C0050C03
:1006E0000901A101850419012AA002150126A00211
:1006F000950175108100C005010906A101050719C2
:10070000E029E7150025019508750181029501751D
:100710000881010507190029FF150026FF0095062D
:1007200075088100050819012905150025019505A1
:1007300075019102950175039101C009023B000208
:100740000100A0FA090400000103010100092111C0
:10075000010001224400070581030800010904018A
:1007600000010300000009211101000122320007ED
:100770000582032000011201000200000008D804D5
:100780002EEB00010102000116034C0069006C0011
:100790007900350038002000520032004700000088
:1007A0001C034D0065006300680062006F0061007B
:1007B000720064007300200055004B000000040329
:1007C00009040000000000003E5B4F5B3E003E6BF2
:1007D0004F6B3E001C3E7C3E1C00183C7E3C1800CB
:1007E0001C577D571C001C5E7F5E1C0000183C18C7
:1007F0000000FFE7C3E7FF00001824180000FFE730
:10080000DBE7FF0030483A060E002629792926004A
:10081000407F05050700407F05253F005A3CE73C27
:100820005A007F3E1C1C0800081C1C3E7F0014223E
:100830007F2214005F5F005F5F0006097F017F0079
:10084000006689956A0060606060600094A2FFA203
:10085000940008047E04080010207E201000080880
:100860002A1C0800081C2A0808001E10101010007E
:100870000C1E0C1E0C0030383E383000060E3E0EAA
:10088000060000000000000000005F0000000007FC
:1008900000070000147F147F1400242A7F2A12000E
:1008A00023130864620036495620500000080703ED
:1008B0000000001C224100000041221C00002A1CF4
:1008C0007F1C2A0008083E080800008070300000E5
:1008D00008080808080000006060000020100804F4
:1008E00002003E5149453E0000427F4000007249EF
:1008F000494946002141494D33001814127F100028
:100900002745454539003C4A4949310041211109F3
:100910000700364949493600464949291E0000006A
:1009200014000000004034000000000814224100C0
:10093000141414141400004122140800020159096F
:1009400006003E415D594E007C1211127C007F4929
:10095000494936003E41414122007F4141413E002C
:100960007F49494941007F09090901003E41415140
:1009700073007F0808087F0000417F41000020408D
:10098000413F01007F08142241007F404040400069
:100990007F021C027F007F0408107F003E4141411E
:1009A0003E007F09090906003E4151215E007F0992
:1009B0001929460026494949320003017F010300F5
:1009C0003F4040403F001F2040201F003F40384034
:1009D0003F006314081463000304780403006159A2
:1009E000494D4300007F41414100020408102000AE
:1009F000004141417F0004020102040040404040A8
:100A000040000003070800002054547840007F286D
:100A100044443800384444442800384444287F0083
:100A200038545454180000087E0902001824241C6D
:100A300078007F080404780000447D4000002040D6
:100A4000403D00007F102844000000417F4000002E
:100A50007C04780478007C0804047800384444441A
:100A600038007C1824241800182424187C007C08E2
:100A70000404080048545454240004043F4424004F
:100A80003C4040207C001C2040201C003C4030406A
:100A90003C004428102844004C9090907C00446412
:100AA000544C44000008364100000000770000006C
:100AB0000041360800000201020402003C26232601
:100AC0003C000000000000808080800000000000EA
:100AD00080E070180C1830E080000010F8901030A2
:100AE000783010B8FC3810000000000000F8FCF866
:100AF000000000000000000000000000001C9C1C22
:100B000000000000F8FCF80000000000001CFCF8E9
:100B1000C000000000000080E0F87C1C000000F035
:100B2000FCFCFC1C1C1C1C1C1C1C1C0000000000F1
:100B300000C0F0F8381C1C1C1C1C1C3CF8F0E00029
:100B4000E0F0F0F0E0ECEEF7F37020007C7C7C7ECF
:100B5000007E7E7E7F7F7F000080C0E07E5B4F5BFB
:100B6000FEC00000C000DCD7DEDEDED7DC00C00047
:100B70000000000000000000000000000000000075
:100B8000000000000000000FBCE0818181838382AF
:100B9000870C183060C000001FFE90B9FFBB919811
:100BA0003C1811133F1100000000000000FFFFFF80
:100BB00000000000000000000000000000FFFFFF38
:100BC00000000000FFFFFF00000000000000000325
:100BD0000F7FF8E080F0FC3F0F0100000000003FB5
:100BE0003F3F1C1C1C1C1C3C78F8F0E080000000FF
:100BF00000C3E7FF7E3C3878787070F8FFDF87002D
:100C00000F1F3F7F7F7F7F7F3F1E0C001F1F1F3FF7
:100C1000003F3F3F7F7F7F00307B7F783020203058
:100C2000787F3B0003000F7F0F0F0F7F0F00030043
:100C300000000000000000000000000000000000B4
:100C40000000183C24666341C181808080808080E0
:100C500081C14162386C4CC68181808080808081F6
:100C6000C14362361C1800000000000000FFFFFFB7
:100C7000C0C0C0C0C0C0C0C0C0800000007FFF7F37
:100C8000000000007FFFFFC080000000E0E0C0C067
:100C9000C0E0F97F1F0700000000000000000070A6
:100CA000F0E0E0C0C0C0C0E0F0F87F3F0F000000FF
:100CB0000F3F7FF9E0E0C0C0C0C0C0E0F97F3F1F38
:100CC0000000000000000000000000000000000024
:100CD0000000000000000000000000000000000014
:100CE0000000000000000000000000000000000004
:100CF00000000000000000000000000000000000F4
:100D0000000011241FBECFEFDAE0DEBFCDBF04B676
:100D100003FE18C08091DA079091DB07A091DC07F1
:100D2000B091DD078730904BA740B04B59F410923B
:100D3000DA071092DB071092DC071092DD07E0E083
:100D4000F8E3099512E0A0E0B1E0EEEAFFE502C0A9
:100D500005900D92A43FB107D9F727E0A4EFB2E0C8
:100D600001C01D92AA3DB207E1F70E943B260C94F8
:100D7000982F0C9400009091C705937061F0811139
:100D80000BC094609093C705109243018091C605F3
:100D900081608093C60508958B3010F09862F2CF81
:100DA000880F880F982BEECF482F209195059091B2
:100DB0004C0559E0291302C080E0089530E0529FAD
:100DC000F001539FF00D1124E35BFA4F818168130A
:100DD00006C08081481303C085818111EECF2F5F4B
:100DE0003F4F2770E7CFFC01AC014B5F5F4F8FEFA8
:100DF00091E32191822728E030E087FF09C0880F26
:100E0000892721503109C9F7E417F50791F70895AB
:100E1000880FF7CF9091C705937071F08093C80544
:100E20006093C905493708F048E74093CA058091A7
:100E3000C60581608093C6050895E8EDF0E08081E5
:100E40008E7F80831092E2001092DA001092E1000F
:100E5000A0EEB0E08C9181608C9380818F7780834D
:100E600019BCA7EDB0E08C918E7F8C9380818F7E32
:100E7000808310922A0508952091E4003091E500C6
:100E800095E6A9012091EC00822F817020FF06C019
:100E90008091E80080FF06C080E008952091E8007E
:100EA00022FD1AC080914205882389F0853089F09F
:100EB0008091EB0085FD0FC02091E4003091E500AA
:100EC00042175307F9F29150E1F684E0089582E069
:100ED000089583E0089581E008958091440587FF97
:100EE00013C08091E80082FF06C08091E8008B77F4
:100EF0008093E80004C0809142058111F2CF0895EB
:100F0000809142058823D9F38091E80080FFF8CFD3
:100F10008091E8008E77ECCF982F9093E900242FF2
:100F2000762F50E0891731F07091EC002091ED00A0
:100F30005091F00021FD07C09F5F973071F78093BB
:100F4000E90081E008953091EB003E7F3093EB00A3
:100F50003091ED003D7F3093ED003091EB0031603A
:100F60003093EB007093EC002093ED005093F00071
:100F70002091EE0027FDE0CF80E00895B0E0A0E0F2
:100F8000E4ECF7E00C94A72EC8EDD0E088818F7ECA
:100F90008883E7EDF0E080818160808384E082BF18
:100FA00081E080932A0588818E7F888302EE10E09D
:100FB000F80110821092DA0081EEC82ED12CF601D1
:100FC000108288818F778883888180688883888170
:100FD0008F7D888319BC10924205109243051092B0
:100FE00037051092360590EEE92EF12CF70180813D
:100FF0008B7F808388818160888342E060E080E02D
:101000000E948C07F60180818E7F8083F8018081A9
:1010100081608083808188608083F70180818E7FFA
:101020008083888180618883CDB7DEB7E8E00C9447
:10103000C32EFC0180914A0590914B0586179707B6
:10104000A0F06115710529F49091E8009E779093C6
:10105000E80090E06115710551F4911108C080918C
:10106000E80082FF34C080E00895BC01F2CF809197
:1010700042058823C1F18530C1F18091E80083FDEC
:1010800030C08091E80082FDEACF8091E80080FFC7
:10109000E1CF8091F3002091F200382F61157105A6
:1010A00019F02830310558F091E02830310509F069
:1010B00090E02091E8002E772093E800CBCF81913B
:1010C0008093F100615071092F5F3F4FE7CF80910E
:1010D0004205882341F0853041F08091E80083FF8C
:1010E000BECF81E0089582E0089583E008950895D9
:1010F000089580912D0508952FB7F89460912605E5
:101100007091270580912805909129052FBF08959A
:10111000A3E0B0E0EEE8F8E00C94AD2E20912305BA
:101120003091240528173907A1F090932405809366
:101130002305E0912105F0912205309751F024E03C
:1011400029839B838A830084F185E02DCE0101965B
:1011500009952396E2E00C94C92EA3E0B0E0E3EBFE
:10116000F8E00C94AD2E20911F0530912005281732
:101170003907A1F09093200580931F05E091210588
:10118000F0912205309751F023E029839B838A83D5
:101190000084F185E02DCE01019609952396E2E0C9
:1011A0000C94C92E80911D05882359F0E0912105EA
:1011B000F0912205309729F00190F081E02D0995FA
:1011C000089580E00895DC0130E020E0FD01E20FA9
:1011D000F31FE491E41307C0E1E0E227EA0FFB2FDD
:1011E000F11D849108952F5F3F4F261778F380E01B
:1011F000089590911C0589029001112437FF03C0C6
:1012000080931C0508952F3731051CF4980F909397
:101210001C050895CF93DF932091D8073091D9070B
:10122000225D3540A901460F571F4130524020F042
:1012300060E072E0621B730B4091D0055091D105C4
:10124000FC01C901620F731FC1E0D0E08617970748
:1012500038F05093D1054093D005DF91CF91089598
:101260002491DC01AE52BA4F3C91321781F02C939D
:101270009C01A5E036952795AA95E1F7DE0102C00D
:10128000AA0FBB1F2A95E2F79D014A2B532B01960B
:101290003196DCCFFA01811101C0FB010995089557
:1012A00030911E05311123C0853291051CF18597BF
:1012B000FC01EE0FFF1FDF01A80FB91FAC5CBB4F95
:1012C00011963C911197361307C03C91341304C01A
:1012D00012963C91321771F031E030933304E80FED
:1012E000F91FEC5CFB4F61834083228303C085328E
:1012F0009105F4F20895539A109233040895E7EC9F
:10130000F5E0248130E1231B08F420E02483809160
:10131000C60581608093C6050895E7ECF5E0248159
:1013200030E1230F08F42FEF24838091C6058160FC
:101330008093C6050895E7ECF5E0438120E1421B68
:1013400008F440E08181628190E00E940A070895DC
:10135000E7ECF5E0438120E1420F08F44FEF818193
:10136000628190E00E940A070895E7ECF5E062814F
:1013700020E1621B08F460E08181438190E00E94DB
:101380000A070895E7ECF5E0628120E1620F08F4B6
:101390006FEF8181438190E00E940A070895E7EC96
:1013A000F5E08181438162818850990B0E940A0790
:1013B0000895E7ECF5E0818190E043816281089631
:1013C0000E940A0708958091C705869586958150E9
:1013D00009F48AE00E94BB0608958091C7058695AE
:1013E00086958F5F8B3008F081E00E94BB060895E0
:1013F0009FE0899F802D1124980F9B3408F09AE478
:1014000020911E05222321F0963228F095E20895BE
:10141000853208F485E2089580933D018091C705E7
:10142000837080933C010E94061483E08093430103
:101430000895409520E4429F412D1124640F0895A2
:101440004095282F429F412D1124842F0895E42F89
:10145000F0E0EE0FFF1FEB5EFD4F9081921B97FDBA
:101460009195292F38E1239F212D1124620F089592
:10147000322F50E0FA01EE0FFF1FE752FE4F95ADFD
:10148000905297FD9195440F551FFA01EB5EFD4F69
:101490002081231B330B290F311D97FD3A95620FD5
:1014A00008950E9450090895FF920F931F93CF93C0
:1014B000DF93182F062FF42ED0E0C0E02F2D402F01
:1014C000612FCE010E94510A2196CA34D105B1F78D
:1014D000CDB7DEB7E5E00C94C62E0F931F93522FC5
:1014E00010E0F801EE0FFF1FE752FE4FA5ADA0522E
:1014F000BB0B9D015203F001539FF00D1124000F0F
:10150000111FD801AB5EBD4F0C910057110B40036A
:101510009001419F300D11242E0F3F1F37FF02C055
:10152000215C3F4F96E0359527959A95E1F7620F3C
:101530001F910F910895E82F86FDE0952E2F2F70B3
:1015400086FD2F5FE695E695E695E670F0E0EF52B2
:10155000FE4F9181929F902D212D112492959F7085
:101560002295207F922B2081920F87FD919580E814
:10157000890F089530E020E0869F212D969F200D51
:10158000311D1124C9010895982F80911E058823CB
:1015900029F081E0953228F080E003C081E09A34A0
:1015A000D8F70895AF92BF92CF92DF92FF920F9338
:1015B0001F93CF93DF93362F472FE82FF0E0EF53A1
:1015C000FA4F71110FC0E4918E2F2E2F6E2F722FB4
:1015D000DF91CF911F910F91FF90DF90CF90BF903F
:1015E000AF900895C72FD0E02491F22E022F10E083
:1015F00056E0659FC0011124EFEFF0E0BF010E94AB
:10160000892E832F90E0880F991F35E5369FD001F2
:10161000379FB00D11248A1B9B0B982F990F980FA1
:101620006F01CC1ADD0AC09ED001C19EB00DD09EC4
:10163000B00D11248B2F499FA0011124452F552750
:101640006F01C41AD50AC09EA001C19E500DD09E44
:10165000500D11245F01A91AB108AC9E6001AD9E26
:10166000D00CBC9ED00C1124CD2CDD24EC19FD092E
:10167000E09FE001E19FD00DF09FD00D1124ED2FF0
:1016800062307105A1F050F46115710509F49ECF27
:101690006130710581F0EB2F852F98CF6430710593
:1016A00069F080F06630710509F490CFF4CFE22F35
:1016B0002B2F8D2F8BCFE22F252F88CFEB2F822F33
:1016C0002D2F84CF2B2F8F2DE52F80CFB0E0A0E0E2
:1016D000ECE6FBE00C94A82E8C01809140010E9466
:1016E000F809C82FD92E2091CB0531E0230F08F43B
:1016F0002FEF30E050E040E06FEF7FEF80E090E0D0
:101700000E94022F7901D0E02C2FCD1540F08D2DB5
:101710000E94C40ACDB7DEB7E7E00C94C42EFE01E8
:10172000E755FD4F808190914101892311F140914E
:101730009A054150042E000C550B47FF1CC0C701F1
:101740006091CB0521E0620F08F46FEF0E94BA0AA6
:10175000AC016091C8057091C9058091CA05F80176
:1017600009950E94D20A462F282F672FCE010E948A
:10177000510A2196C9CFFA01E656FA4F81898213A0
:101780000AC0FA01EE0FFF1FE656FA4F818D928DC7
:101790008E159F05A8F241505109CFCFEF92FF92CD
:1017A0000F931F93CF93DF937C01809140010E94A0
:1017B000F809C82F192F6091CB056695669521E031
:1017C000620F08F46FEF80919605909197050E9443
:1017D000BA0A082FD0E0C11740F0812F0E94C40A36
:1017E000CDB7DEB7E6E00C94C52EFE01E755FD4F00
:1017F000808190914101892391F06091C805709199
:10180000C9058091CA05202F4C2FF70109950E9428
:10181000D20A462F282F672FCE010E94510A219607
:10182000DACFB0E0A0E0E7E1FCE00C94A52E182FA1
:1018300080913D01811323C09091C7059370209141
:101840003C0130E081E09217130609F480E08170DA
:10185000809342018091CC0590914101981739F015
:101860008093410140E060E080E00E94540A1B3018
:1018700090F4E12FF0E0E656F04D0C94212F81E03A
:10188000E6CF80914201882309F479C040E060E00E
:1018900080E00E94540A80E072C0809140010E9462
:1018A000F809C82F092F6091C8057091C90580916A
:1018B000CA050E94D20AF62EE72ED82ED0E0C01715
:1018C00010F0802F5AC0FE01E755FD4F80819091A6
:1018D0004101892331F02D2D4F2D6E2DCE010E9417
:1018E000510A2196ECCF809140010E94F809C82F3F
:1018F000092FE090C905F090CA05D091C8056D2F59
:101900007E2D8F2D0E94D20AD62EC72EB82E609122
:10191000CB056D0F7E2D8F2D0E94D20AF62EE72E5D
:10192000A82ED0E0C01768F6FE01E755FD4F908164
:1019300080914101892359F02A2D4F2D6E2D90FD64
:1019400003C02B2D4D2D6C2DCE010E94510A2196E6
:10195000E9CF809140010E94F809F92EE090C90575
:10196000D090CA052091CB0500E4029F012D1124DF
:10197000C82FD0E0CF15D8F08F2D0E94C40A9091C7
:1019800040019F5F9093400181110CC082E08093E1
:10199000430180914201811105C0111103C083E010
:1019A00080934301CDB7DEB7EAE00C94C12EFE016F
:1019B000E755FD4F8081909141018923B9F0FE01E7
:1019C000EE0FFF1FE752FE4F85AD82958F7060913D
:1019D000C805809F600D11247E2D8D2D0E94D20A96
:1019E000462F282F672FCE010E94510A2196C2CF81
:1019F000809140010E94F809F92EE090C905D0902D
:101A0000CA052091CB0500E4029F012D1124C82FA7
:101A1000D0E0CF1508F0B0CFFE01E755FD4F808133
:101A2000909141018923D9F0FE01EE0FFF1FE7528B
:101A3000FE4F64AD069FB001112445E07595679592
:101A40004A95E1F78091C805680F7E2D8D2D0E9483
:101A5000D20A462F282F672FCE010E94510A2196C5
:101A6000D8CF809140010E94F809C82F092FF0902B
:101A7000C805D091C905E090CA056091CB0566956F
:101A80006695669580919605909197050E94BA0A91
:101A90000E949B0A805887FD8195880F382F2E2D34
:101AA000329F312D1124832F6F2D7D2F0E94D20A5A
:101AB000F62EE72ED82ED0E0C01708F002CFFE0198
:101AC000E755FD4F808190914101892331F02D2D03
:101AD0004F2D6E2DCE010E94510A2196EDCF88E345
:101AE0009AE00E94CE0B4BCF809140010E94F809F2
:101AF000C82FD92E6091CB05669566958091960585
:101B0000909197050E94BA0AF82E80E48F0D0E94EA
:101B10009B0A90E8C92EC80E8F2D0E949B0A20E8D0
:101B2000B22EB80ED0E0CD1510F08D2D26CFFE01CF
:101B3000E755FD4F8081909141018923A1F060918B
:101B4000C8057091C9058091CA05EF2C0C2F2B2D6B
:101B50004C2D0E946D0A0E94D20A462F282F672F13
:101B6000CE010E94510A2196DECF87E29AE0B9CFDA
:101B700080E29AE00E94660B02CF89E19AE0FACFF8
:101B800080E00895F894E82FE295EF70F0E031A13D
:101B9000282F2F7081E090E001C0880F2A95EAF786
:101BA000982F9095932391A392A1892B82A3789447
:101BB00008950F931F9380911D05882329F00E949B
:101BC0007C081F910F9108950E947C080091850365
:101BD000109186032091870330918803600F711F55
:101BE000821F931FEECFCF92DF92EF92FF926B0195
:101BF0007C0180911D058823A1F02FB7F894609196
:101C000026057091270580912805909129052FBF01
:101C10006C197D098E099F09FF90EF90DF90CF909E
:101C200008950E94D90DF4CF9091960392FF10C0B1
:101C300041E0282F2471243009F040E031E0282FC2
:101C40002871283009F030E0431711F02CE082278A
:101C500093FF10C041E0282F2471243109F040E0A7
:101C600031E0282F2871283109F030E0431711F0B6
:101C70002CE082273091970330FF10C051E0282FCD
:101C80002171213009F050E041E0282F28712830DF
:101C900009F040E0541711F029E0822731FF10C00D
:101CA00041E0282F2171213109F040E031E0282F57
:101CB0002871283109F030E0431711F029E082271C
:101CC00094FD877E089582389105B9F1B0F481338F
:101CD000910509F47DC048F48932910509F46DC07D
:101CE0008A32910509F47BC008958533910509F482
:101CF0005FC08933910509F10895833E9105D9F1BB
:101D000038F4803E910529F1823E910579F10895DC
:101D1000863E9105D9F1873E910509F43EC0843E87
:101D2000910541F52091970321FF24C080919603EE
:101D300084FD19C087EE90E00895209196032370EA
:101D400009F05AC02091970323FF14C089E290E064
:101D500008952091960320FD38C03091970330FFFD
:101D600009C024FF43C090E080E0089520919603CD
:101D700022FDF7CF08952091960322FD3AC03091BD
:101D8000970330FD39C024FFF5CFEDCF20919603A6
:101D900023FFF0CF24FDE7CFCDCF2091960323FD85
:101DA0002EC03091970331FFEECF84EE90E008957E
:101DB0002091960325FFDECFC9CF2091960325FD04
:101DC00021C02091970323FFD5CF89E390E0D2CFA4
:101DD0002091960326FFCECF8AE290E008952091CD
:101DE000960326FFC7CF81E390E0089583EE90E04D
:101DF000089582EE90E0089580EE90E0089586EEDA
:101E000090E0089585E390E00895972F7A30B8F434
:101E10006630A8F48630B0F470E026E0929F600D42
:101E2000711D1124FB019CE3899FE00DF11D11241C
:101E3000EE0FFF1FEC52FF4F85919491089580E0C3
:101E400090E0089581E0FCCF1F93CF93DF930E9431
:101E5000630EEC01C11580E5D807F0F5C11580E4EB
:101E6000D80708F09CC0C03ED10520F5CD3CD10577
:101E700008F082C0C83AD10578F4C53AD10508F017
:101E800073C0C130D10519F1209709F1C430D105D3
:101E9000F0F4D0E0C0E01BC0C33CD105D0F7C85A75
:101EA000D0E0CC0FDD1FCA57DE4F0990D881C02D7E
:101EB000D4640DC0C11580E2D80708F0D1C0C115A7
:101EC00081E0D80708F05AC0C83ED10510F7CE010E
:101ED000DF91CF911F910895C03682E5D80718F59C
:101EE000C03482E5D80708F06BC0C03282E5D8075D
:101EF00008F05FC0C11582E5D80708F497C02C2F01
:101F00002695269580E2289F900111248C2F8370BE
:101F1000C1E0D0E002C0CC0FDD1F8A95E2F7C22BF2
:101F2000D32BDD68D4CFC03A82E5D80760F4C0383F
:101F300082E5D80708F459C0CF71D0E0DC2FCC2758
:101F4000C46FD06AC4CFC03C82E5D80708F462C031
:101F5000C03E82E5D80708F09CCFDC2FCC27CC27E9
:101F6000DF71C06FD06AB3CFC55AD0E0CD57DE4F16
:101F7000C881D0E0D064ABCFD065A9CF8D2F0E94AF
:101F8000140E182FCE0199270E94630EC12FD0E0A6
:101F9000DC2FCC27CC27DF71C82BD92B98CFCE01D3
:101FA00099270E94630ECC27DF70C82BD92BD06AEB
:101FB0008ECFCF71D0E0DC2FCC27C16FD06A87CF16
:101FC0002C2F26952695277080E2289F90011124BA
:101FD0008C2F8370C1E0D0E002C0CC0FDD1F8A954A
:101FE000E2F7C22BD32BDC6872CF2C2F26952695D7
:101FF000277080E2289F900111248C2F8370C1E00C
:10200000D0E002C0CC0FDD1F8A95E2F7C22BD32BA4
:10201000DA685DCF8C2F8F710E94140EC82FD0E02C
:10202000DC2FCC27CC27DF71D06251CF8C2F8F7162
:102030000E94140E55E0D695C7955A95E1F7CF70DA
:10204000D0E0DC2FCC27282F30E084FF05C044E00F
:10205000220F331F4A95E1F7C22BD32BD06937CF1C
:102060008D2F8F710E94140E182FCE0199270E9478
:10207000630EC12FD0E0DC2FCC27CC27DF71C82B1B
:10208000D92BD2CF80914A03811110924A0308952F
:10209000809590912B05982390932B05089580911E
:1020A000950590914C05981301C008958F5F877036
:1020B000FACFCF92DF92FF920F931F93CF93DF93CC
:1020C0006C010091DA0380919503082BC7E0D0E002
:1020D00010E0FC2EC8010C2E02C0959587950A943D
:1020E000E2F780FD0CC02197A0F7F12C8F2DDF9136
:1020F000CF911F910F91FF90DF90CF900895B6017F
:102100008C2F0E94050F0E94240F019761F3EECFE0
:10211000CF93DF93EC010E945910BE010E94050F7E
:102120000E94240FDF91CF910895292F9A3078F5DE
:10213000863068F590E036E0239F800D911D1124D4
:10214000682F677023E0969587952A95E1F7FC0143
:10215000EE0FFF1FE80FF91FE05EFC4F50E040E07C
:1021600080E0219130E0062E02C0369527950A9432
:10217000E2F721703327042E01C0220F0A94EAF7F8
:10218000822B4F5F5F4F4330510559F7089580E030
:102190000895292F9A3098F5863088F590E036E03A
:1021A000239F800D911D1124282F277041E001C02D
:1021B000440F2A95EAF723E0969587952A95E1F74B
:1021C000FC01EE0FFF1FE80FF91FE05EFC4F30E04F
:1021D00020E070E05191DF011197CB01022E02C087
:1021E000969587950A94E2F78170819585278423D7
:1021F00085278C932F5F3F4F2330310559F7089582
:102200008093DA0308959091DA0321E030E0F90138
:1022100001C0EE0F8A95EAF7D90102C0AA0FBB1FD1
:102220006A95E2F7EA2B01C0220F4A95EAF7892F57
:102230008E23E81305C0292B822F0E9400110895D8
:1022400020952923F9CF21E030E001C0220F8A95A3
:10225000EAF720958091DA0382230E940011089505
:10226000909141038095892380934103282F277003
:1022700069F4891759F09091970392FF07C08695EA
:10228000869586950E94231110924103089521E0BE
:1022900030E001C0220F8A95EAF78091DA03822BA1
:1022A0000E9400110895809395030895FC01848194
:1022B0008823F9F087819085009791F00E94240F80
:1022C00092959F709630B9F080F4925F9F70923033
:1022D00080F4803F19F058F4883E58F481E0089566
:1022E000808191810E948810EBCF9A5FEFCF843F6D
:1022F000A9F380E00895883E88F3813FD1F7EECFBF
:10230000982F92959F7011F0892F94E0282F269591
:10231000269511F09E5F822F869509F09F5F892F89
:102320000895A6E0B0E0E7E9F1E10C94AC2E9C0141
:10233000FC01878190850097E1F486E0DE0111962B
:1023400001900D928A95E1F7F901258189819A81A1
:10235000222399F0662389F00E945910182F682FC4
:1023600089819A810E94C91069817A81812F0E9496
:10237000050F2696E3E00C94C82E0E949510182FA6
:10238000F3CFCF93DF93682F81E06A3019F06D307F
:1023900031F480E00E944F12DF91CF910895809137
:1023A000D8079091D90726E0FC01A2EDB7E0019093
:1023B0000D922A95E1F7603E08F458C026E0FC0132
:1023C00011922A95E9F7C091D807D091D90746E034
:1023D00050E0BE0182ED97E00E94302F9E01225D09
:1023E0003540892B41F1C90145E0969587954A957D
:1023F000E1F741E050E0BA0102C0660F771F8A950D
:10240000E2F7CB016091D0057091D105862B972B17
:10241000B9016B5F7F4FE5E076956795EA95E1F747
:1024200002C0440F551F6A95E2F7842B952B9093B9
:10243000D1058093D0052A5F3F4F4091CF05642F8F
:1024400070E0C9010E94892E481B463010F4240F09
:10245000311D211572E0370710F030E020E02E52D8
:102460003A4F3093D9072093D80796CFF6E06F9F65
:10247000B00111246E53784F46E050E00E94272FA0
:10248000A2CFCF93DF93EC01FE018491811103C0B1
:10249000DF91CF9108950E94C1112196F5CFCF937E
:1024A000382FE091D807F091D907E25DF5402091EF
:1024B000CF05622F70E0CF010E94892E281B822F4A
:1024C000332361F066E00E94D42EC82FC15010F46F
:1024D000CF91089580E20E94C111F8CF9F01280F8B
:1024E000311D2115324018F080E0F0E0E0E08E0F61
:1024F0009F2F911D8E529A4F9093D9078093D807A2
:10250000E7CF0E94411281E00E944F120895CF93BD
:10251000C0912B0580911A05C82B80914A0388230E
:1025200081F0C82B20E088EF92E0FC013191CF01CF
:1025300031112F5FF2E08E3F9F07B9F721110E9402
:102540004210C093F60248E050E062E473E086EF88
:1025500092E00E94302F892BA9F088E0E6EFF2E0AC
:10256000A2E4B3E001900D928A95E1F7E091210594
:10257000F0912205309731F00280F381E02D86EF53
:1025800092E00995CF910895E8EFF2E086E0DF014F
:102590001D928A95E9F790E080E00E94AD0890E0F6
:1025A00080E00E94880810921A050E948712089500
:1025B00080911B05882349F080911A058D7D8093B9
:1025C0001A050E94871210921B050895882321F096
:1025D0000E9448100E9487120895882339F0909134
:1025E0002B05982B90932B050E9487120895882322
:1025F00091F19CEF980F913A80F4E8EFF2E02EEF22
:1026000032E09191891303C0DF0111971C922E17BC
:102610003F07B9F70E948712089590E2980F98300B
:1026200050F4877091E001C0990F8A95EAF7892FDD
:102630000E944810EFCF9BE5980F933028F490E06C
:1026400080E00E94AD080895885A8B3120F490E014
:1026500080E00E94880808950F931F93CF93C82F9E
:10266000882349F18CEF8C0F813AB8F508EF12E01E
:102670008EEF92E0F8012191C21709F122E0EE3FBE
:10268000F207C9F7EFEF80E0D8019D918D01C917DE
:1026900081F0EF3F19F4911101C0E82F8F5F863070
:1026A00099F7EF3F31F00E2E000CFF0BEA50FD4F73
:1026B000C2830E948712CF911F910F910895E8EF76
:1026C000F2E02191C21303C0DF0111971C928E1713
:1026D0009F07B9F70E948712D5CF80E28C0F883010
:1026E00068F4C77021E030E001C0220FCA95EAF714
:1026F00080912B05822B80932B05DBCFEBE5EC0F34
:10270000E33040F4F0E0ED57FE4F808190E00E940E
:10271000AD08D1CFC85ACB3170F6EC2FF0E0EE0FF8
:10272000FF1FEA57FE4F808191810E948808C3CF26
:102730000F931F93CF93DF93EC01FC0101900020D6
:10274000E9F78F0101501109C017D10728F0DF9177
:10275000CF911F910F91089589910E94C111F4CFDB
:102760000F931F93CF93DF938B01EA019091420562
:10277000943061F58093E9008FEF9091E8008150EB
:1027800095FD06C095ED9A95F1F700008111F5CF02
:102790008091E80085FF1AC00E943C07811111C09A
:1027A0008091E80085FD06C08091E8008E778093D7
:1027B000E800F2CFF80181918F018093F100219719
:1027C00079F78091E8008E778093E800DF91CF91D0
:1027D0001F910F91089543E050E0BC0182E00E94F8
:1027E000B0130895CF93DF93EC0148E050E0BC01B3
:1027F00081E00E94B01388E0FE01AEE2B5E00190F6
:102800000D928A95E1F7DF91CF910895809133047D
:10281000882339F13BB1377F2BB128604FB7F8944B
:1028200084E394E0FC015191CF0168E02BB90000F2
:1028300000C057FF3BB9550F000000C000C000C0EA
:102840003BB900C06A9591F7F5E082319F0751F7D7
:102850004FBF8FE594E00197F1F700C000001092A0
:1028600033040895B0E0A0E0E8E3F4E10C94A52E71
:102870007C015B016A018091840301E010E08A30F1
:1028800010F40AE010E0C1E0D0E0B501C701F601A4
:102890000995811104C021960C171D072CF4CDB7A2
:1028A000DEB7EAE00C94C12ECC9F9001CD9F300D95
:1028B000300D112490E080E045E34A95F1F70000E7
:1028C000019682179307C1F7E0CF10922B050E9463
:1028D000C4122FEF84E39CE0215080409040E1F748
:1028E00000C0000088E19CE00FB6F894A8958093A2
:1028F00060000FBE90936000FFCFAB0124E630E094
:10290000BC0188E70E943D2C21E0892B09F020E0E2
:10291000822F08958091160590911705911103C09B
:1029200091E089270895882369F062E070E083ECE4
:1029300096E00E947D14811103C0809116050895D0
:102940001092160580911605EBCFCF93C091160516
:10295000809117058823D1F00E947C08605A754148
:102960008F4F9F4F6093120570931305809314054A
:1029700090931505C11108C062E070E081EC96E00B
:102980000E947D14811105C0C09116058C2FCF9136
:10299000089581E080931605F7CF4F925F926F9272
:1029A0007F928F929F92AF92BF92CF92DF92EF92DF
:1029B000FF92CF9360912E0470912F048091300488
:1029C000909131040E94F30D6B017C010E94D90D9E
:1029D0004B015C0180922E0490922F04A09230044F
:1029E000B0923104A0910504E5E0F4E08A2F90E074
:1029F0004FEF5FEF60E070E04C195D096E097F09F1
:102A0000A9132AC08093050480913204C0E081118B
:102A100008C08091C705C82FC37019F0C82FC6958C
:102A2000C69580914301813009F440C0882339F173
:102A3000823009F446C0833009F447C0CF91FF903B
:102A4000EF90DF90CF90BF90AF909F908F907F904E
:102A50006F905F904F900895218D328D2901712CD8
:102A6000612C441555056605770520F481509F5F5C
:102A70003296C6CF2C0D3D1D328F218FF8CF10928C
:102A800040018092960590929705A0929805B09289
:102A9000990589E2E5E0F4E0AAE9B5E001900D923C
:102AA0008A95E1F781E080934301C8CF8C2F0E9483
:102AB000110CCC2319F28091400181500E94F80939
:102AC000BDCF8C2F0E940C0AB9CF8091C6058823F8
:102AD00051F048E050E067E170E087EC95E00E943B
:102AE000642F1092C60560919605709197058091AC
:102AF0009805909199050E94F30D6031710581054B
:102B0000910508F49BCF1092430198CF90919703C1
:102B100092FB222720F9281779F080FB92F99093F5
:102B20009703609196037091970384E090E00E9470
:102B3000922F82E00E9430110895A4E0B0E0E3EA11
:102B4000F5E10C94AC2E40917C0350917D03609193
:102B50007E0370917F032FB7F894809126059091A2
:102B60002705A0912805B09129052FBF841B950B3F
:102B7000A60BB70B11E084369105A105B10570F1E4
:102B80000E94D90D6E5F7F4F8F4F9F4F69837A836D
:102B90008B839C838091190190911A018C599C4FD1
:102BA0004091180150E04530510510F044E050E0EC
:102BB000BE016F5F7F4F0E943D2F83E090E00E9437
:102BC000132E182F882351F00E947C0860937C03F9
:102BD00070937D0380937E0390937F03812F2496CF
:102BE000E3E00C94C82EEF92FF921F93CF93DF93F4
:102BF00000D000D000D0CDB7DEB77B0190E080E000
:102C00000E94132E182F882309F480C040910301DD
:102C100050E04115510511F041E050E06091040190
:102C2000709105016C597C4FCE0106960E943D2F94
:102C300040915C0350915D0360915E0370915F036E
:102C40002FB7F8948091260590912705A09128052B
:102C5000B09129052FBF841B950BA60BB70B8436AB
:102C60009105A105B10540F485E693E00E94F306C5
:102C70009E81891709F44AC081E090E00E94132EDA
:102C8000811116C010E085E0E7E5F3E0D70101907F
:102C90000D928A95E1F7812F26960FB6F894DEBF44
:102CA0000FBECDBFDF91CF911F91FF90EF900895A0
:102CB00040910B0150E04630510510F045E050E0E6
:102CC00060910C0170910D016C597C4FCE01019601
:102CD0000E943D2F85E693E00E94F3069E818913B2
:102CE000D1CF0E947C0860935C0370935D03809356
:102CF0005E0390935F0385E0FE013196A7E5B3E0A4
:102D000001900D928A95E1F711E0BDCF85E0E5E6EF
:102D1000F3E0DE01119601900D928A95E1F7111111
:102D2000EACFB1CF4F925F926F927F928F929F9234
:102D3000AF92BF92EF92FF920F931F93CF93DF93C7
:102D40007B01FB0140805180628073809FB7F894C3
:102D50008090260590902705A0902805B090290521
:102D60009FBF84189508A608B708F4E68F1691044B
:102D7000A104B10418F4C1E0442329F1C82F880F3D
:102D8000DD0BFE0183E0EE0FFF1F8A95E1F7E050B7
:102D9000FF4F818192818C599C4F408150E00417F4
:102DA000150708F4A801B9010E943D2FCE010E9429
:102DB000132EC82F882339F00E947C08F701608306
:102DC0007183828393838C2FDF91CF911F910F9119
:102DD000FF90EF90BF90AF909F908F907F906F90FB
:102DE0005F904F900895A9E0B0E0E9EFF6E10C9410
:102DF000AB2E88E0E7ECF5E0DE01119601900D9234
:102E00008A95E1F780913204898749E050E063E7D1
:102E100073E0CE0101960E94302F41E0892B09F426
:102E200040E009E010E09E012F5F3F4F60E873E053
:102E300084E00E9492162996E4E00C94C72E0F932A
:102E40001F93CF93DF93EC0145E050E06AE673E017
:102E50000E94302F41E0892B09F440E005E010E0AA
:102E60009E0160E673E082E00E949216DF91CF91AE
:102E70001F910F91089578941F921FB61F921124ED
:102E80008F939F93AF93BF938091260590912705D1
:102E9000A0912805B09129050196A11DB11D80932F
:102EA000260590932705A0932805B0932905BF9187
:102EB000AF919F918F911F901FBE1F9018959C01FD
:102EC0004FB7F8948091260590912705A091280589
:102ED000B09129054FBF821B930B08952FB7F8942B
:102EE0008091260590912705A0912805B09129058C
:102EF0002FBF08950F931F93CF93DF93C62FD42F27
:102F0000022FFC0185818823A9F06093C5050E94EA
:102F10006E179093C4058093C305C77081E001C00C
:102F2000880FCA95EAF70E94ED12DF91CF911F91A9
:102F30000F9108958091C505681335C08091C30530
:102F40009091C4050E945F17843B910560F510E2E3
:102F50001D0FCD17B9F080E28C0F883040F4C77098
:102F600081E001C0880FCA95EAF70E94E612183086
:102F700048F481E09D2F977001C0880F9A95EAF779
:102F80000E94ED12802F0E942C13802F0E94F712B6
:102F9000183058F6D77081E001C0880FDA95EAF74B
:102FA0000E94E612C2CFC77081E001C0880FCA95A7
:102FB000EAF7F6CF80933E010E946E1790933A0590
:102FC0008093390581E0809338050895AAE2B0E046
:102FD000ECEEF7E10C94A92E84E495E02091F10049
:102FE000FC012193CF01F5E08C349F07B9F7809164
:102FF0004505833009F470C0B8F4813009F447C046
:10300000823009F4B3C08091E80083FF3BC1809116
:103010004405909145059A3008F034C1E92FF0E05D
:10302000EB55F04D0C94212F8A3009F48EC08B3073
:1030300009F46FC0893039F780914405813219F75E
:1030400080914805909149050297E8F68091E80043
:10305000877F8093E8008091E80082FF38C09091DC
:10306000F3008091F200029731F48091F1008130F9
:1030700011F0863021F48091F10080932D0580912C
:10308000E8008B778093E8000E946D07BCCF8091A9
:103090004405813A09F0B7CF8091E800877F80939B
:1030A000E8008091480590914905892B61F468E01A
:1030B0008EE295E070E00E9419088091E8008B771D
:1030C0008093E800A0CF60E090E080E0F3CF8091B3
:1030D00042058111C0CF97CF80914405813A09F014
:1030E00092CF8091480590914905892B09F08BCFAB
:1030F0008091E800877F8093E8008091E80080FF5E
:10310000FCCF80913F018093F1008091E8008E77A1
:10311000B9CF80914405813209F075CF809148057F
:1031200090914905892B09F06ECF8091E800877F47
:103130008093E8000E946D078091460580933F01CF
:1031400010922B050E94C4125ECF809144058132FB
:1031500009F059CF8091E800877F8093E8000E94B2
:103160006D078091470580932C054DCF80914405D4
:10317000813A09F048CF8091E800877F8093E8008A
:103180008091E80080FFFCCF80912C05BCCF803877
:1031900099F0823809F076C0809148058F708730A9
:1031A00008F070C08093E9008091EB0085FB8827D0
:1031B00080F91092E90006C080913605909137059C
:1031C000911182609091E800977F9093E80080933E
:1031D000F1001092F1008091E8008E7734C28823CC
:1031E00009F421C2823009F04DC080914605811159
:1031F00025C2809148058F702FEF280F263008F0E8
:1032000041C08093E9002091EB0020FF17C293306A
:1032100031F48091EB0080628093EB000FC29091BB
:10322000EB0090619093EB0021E030E001C0220FB1
:103230008A95EAF72093EA001092EA008091EB0069
:103240008860EACF81111EC0109146051F778091DA
:10325000E3008078812B8093E3008091E800877FF2
:103260008093E8000E946D078091E80080FFFCCF0A
:103270008091E30080688093E30082E0111183E095
:10328000809342058091E80083FF0AC08091E800A6
:10329000877F8093E8008091EB0080628093EB0051
:1032A000AA96E6E00C94C52E8058823058F780919B
:1032B0004605909147058C3D23E09207A1F583E0F8
:1032C0008A838AE289834FB7F894DE01139620E05F
:1032D0003EE051E2E32FF0E050935700E49120FFED
:1032E00003C0E295EF703F5FEF708E2F90E0EA3001
:1032F000C0F0C7968D939D932F5F243159F74FBF30
:103300008091E800877F8093E8006AE270E0CE0158
:1033100001960E9419088091E8008B778093E8005D
:10332000B1CFC096E7CF4091480550914905292F6C
:1033300033272330310539F178F42130310509F490
:10334000EEC02230310509F09DCF0BE310E03BE3E6
:10335000E32E37E0F32EA9C02132310509F4D1C0A4
:103360002232310509F08ECF4115510509F4E5C02F
:103370004130510509F086CF02E310E055ECE52E0F
:1033800056E0F52E92C099278130910509F448C086
:103390000097E1F1029709F44DC010E000E0F12C34
:1033A000E12C40914A0550914B0580913C058F5F7F
:1033B00080933C05509341054093400542305105B0
:1033C00009F042C090913D059F5F90933D05833089
:1033D00008F45EC020913F05223038F090913E0500
:1033E00091118DC0821709F488C090913D058530F8
:1033F00009F03DC04F3F510509F042C0213009F0AE
:103400003FC0923009F075C083E037C0EEEBF7E0C3
:10341000E4910E2F10E0EEEBEE2EE7E0FE2EC1CF92
:10342000E0EAF7E0E4910E2F10E070EAE72E77E093
:10343000F72EB7CFE8E8F7E0E4910E2F10E068E848
:10344000E62E67E0F62EADCF4430510531F4909171
:103450003E059F5F90933E05BACF4F3F510509F05F
:10346000B6CF90913F059F5F90933F05B0CF8430DA
:1034700039F421113EC0923029F480933B0508C0F5
:10348000211137C0933021F480913E058130A9F39A
:103490000E946E1790933A058093390581E08093DE
:1034A00038050115110509F4EDCE8091E800877FFC
:1034B0008093E80080914A0590914B050817190701
:1034C00008F4C80140E0009709F03EC041113CC03B
:1034D0008091E80082FD1FCF80914205882309F486
:1034E0001ACF853009F417CF8091E80083FFF0CF21
:1034F00012CF80913E05982B59F681E0BECF82E035
:10350000BCCF4115510591F04130510509F0BACEBB
:1035100009E010E096E6E92E97E0F92EC6CF02E129
:1035200010E046E7E42E47E0F42EBFCF09E010E0BC
:103530002DE4E22E27E0F22EB8CF04E410E087EF6E
:10354000E82E86E0F82EB1CF20914205222309F41F
:10355000E2CE253009F4DFCE2091E80023FDDBCE5A
:103560002091E80022FDB4CF2091E80020FFABCFEE
:103570003091F3002091F200009719F028303105C6
:1035800058F041E02830310509F040E02091E80092
:103590002E772093E80097CFF70144914093F100F4
:1035A000FFEFEF1AFF0A01972F5F3F4FE5CF8038FB
:1035B00009F068CE8091E800877F8093E8008091D1
:1035C00043058093F10007CE81115CCE1091460532
:1035D000123008F057CE8091E800877F8093E80092
:1035E000109343050E946D07112311F084E005C07C
:1035F0008091E30087FDFACF81E08093420542E0AD
:1036000061EC81E00E948C0742E261EC82E00E9462
:103610008C0780914205843021F081E00E94DA1706
:1036200031CE82E0FBCF80914605813009F02ACE71
:1036300081E0933009F080E0809337051092E90033
:103640008091E800877F8093E8000E946D071ACE82
:103650001F920F920FB60F9211242F933F934F9307
:103660005F936F937F938F939F93AF93BF93CF930A
:10367000DF93EF93FF93D091E900DF708091EC002E
:10368000C82FC17080FDC0E81092E9008091F00061
:10369000877F8093F00078940E94E6171092E900EB
:1036A0008091F00088608093F000CD2BCF70C093A4
:1036B000E900FF91EF91DF91CF91BF91AF919F9181
:1036C0008F917F916F915F914F913F912F910F90CB
:1036D0000FBE0F901F9018951F920F920FB60F926A
:1036E00011242F933F934F935F936F937F938F9307
:1036F0009F93AF93BF93EF93FF938091E10082FF7D
:1037000009C08091E20082FF05C08091E1008B7FBB
:103710008093E1008091DA0080FF24C08091D8007E
:1037200080FF20C08091DA008E7F8093DA00809144
:10373000D90080FFA8C080E189BD82E189BD09B4BC
:1037400000FEFDCF81E08093420580912A05811122
:1037500009C00E941D070E94BE078091E20084609C
:103760008093E2008091E10080FF1AC08091E20026
:1037700080FF16C08091E2008E7F8093E2008091EE
:10378000E20080618093E2008091D80080628093A3
:10379000D80019BC85E08093420583E00E94DA17C7
:1037A0008091E10084FF30C08091E20084FF2CC052
:1037B00080E189BD82E189BD99B5892F817090FF33
:1037C000FBCF9091D8009F7D9093D8009091E1001D
:1037D0009F7E9093E1009091E2009F7E9093E200A3
:1037E0009091E20091609093E200909143059923BB
:1037F00009F44FC094E090934205909142059430B3
:1038000009F482E00E94DA178091E10083FF2AC068
:103810008091E20083FF26C08091E100877F809342
:10382000E10082E080934205109243058091E1001F
:103830008E7F8093E1008091E2008E7F8093E20092
:103840008091E20080618093E20042E060E080E0ED
:103850000E948C078091F00088608093F00081E0E6
:103860000E94DA17FF91EF91BF91AF919F918F91D5
:103870007F916F915F914F913F912F910F900FBE6C
:103880000F901F90189519BC1092420510922A05AE
:1038900069CF9091E30097FD02C0982FACCF93E0E1
:1038A000AACF80911B0581110FC010922B050E9499
:1038B00042100E946E1788579C4E90931905809372
:1038C000180581E080931B050895AFE0B0E0EBE6BA
:1038D000FCE10C94A22E8E010F5F1F4F8AE0F801CD
:1038E00011928A95E9F78EEBC82E81E0D82EF12C43
:1038F000E12CAA24A394B12C29EC822E21E0922E53
:10390000F60181916F018F3F09F442C0F894E82FCE
:10391000E295EF70F0E021A18F70A50102C0440F85
:10392000551F8A95E2F7CA01922F982B91A392A175
:103930008095892382A3789400C0E3ECF1E0712C98
:1039400031E021912F3F09F49EC0A22FA295AF70C4
:10395000B0E090968C9190E02F7002C0959587957D
:103960002A95E2F780FD8FC0832F782A330F8E16B9
:103970009F0639F7F601319780818F3F11F00E9441
:10398000C20D50EA5A95F1F7F801EE0DFF1D708255
:103990008FEFE81AF80A95E0E916F10409F0B0CFC4
:1039A0004AE050E0B80189E893E00E94302F009788
:1039B00041F02AE0F801A9E8B3E001900D922A95C0
:1039C000E1F70091940310E008561C4F892B09F48D
:1039D0005CC081E080934F030E946E1790934E036A
:1039E00080934D03D12CC0901D05CC2009F4A4C0B8
:1039F0007E01EBE0EE0EF11C85E0F70111928A9555
:103A0000E9F7809184038A3008F063C043EF55E101
:103A1000B701C8010E943214882309F47CC04FE129
:103A200057E1B701C8010E943214882309F473C01A
:103A30004DE955E1B701C8010E943214882309F409
:103A40006AC043EF56E1B701C8010E9432148823CF
:103A500009F461C0109284038091930390E045E0E3
:103A600050E0B70188569C4F0E94302F21E02093F0
:103A70005603892B09F042C0C12C8C2D8D292F961D
:103A8000EDE00C94BE2E80E070CFD0904F03DD208F
:103A900009F4A8CF80914D0390914E030E945F17C7
:103AA000059708F49FCF45E050E069E873E0C8014E
:103AB0000E94302F892B59F085E0E9E8F3E0D80126
:103AC00001900D928A95E1F710924F038CCFD12C83
:103AD000FBCF80915003909151030E945F17843F68
:103AE000914008F093CF80915603882329F285E016
:103AF000F70111928A95E9F710925603A09193036A
:103B0000B0E0A856BC4F85E0FE013B9601900D92B7
:103B10008A95E1F7B2CF809184038F3F31F08F5FB8
:103B2000809384038A3008F497CF0E946E17909395
:103B3000510380935003D7CFE0909303F12CA7015A
:103B400048565C4F7A0185E0F801A5E6B3E00190A4
:103B50000D928A95E1F785E693E00E94F306809343
:103B6000640385E0EAE6F3E0D70101900D928A95BF
:103B7000E1F780906F0390907003A0907103B09074
:103B800072038091520390915303A0915403B0911A
:103B9000550388169906AA06BB06B1F08092520317
:103BA00090925303A0925403B09255030E947C0854
:103BB000861A970AA80AB90A80928503909286030A
:103BC000A0928703B092880388E0E3E7F3E0A7ECD4
:103BD000B5E001900D928A95E1F710917B031123D6
:103BE00049F080913204811105C00E94110C80E0DF
:103BF0000E940C0A1093320440CFB0E0A0E0E3E052
:103C0000FEE10C94A62E8C01DC0114968C91882385
:103C100009F462C061E0C8010E949111EC01909129
:103C20001C03911150C5F80185818823B9F0C11595
:103C3000F0E5DF0708F093C0C11520E2D20708F0D5
:103C4000A6C0C11537E0D30749F008F04AC09E016D
:103C5000205E31092830310508F048C0C937BCE77B
:103C6000DB0709F09AC02091100330911103232B38
:103C700021F1811158C086E0F801AFEFB2E0019068
:103C80000D928A95E1F78091FE0280931C038FEFDD
:103C900092E00E94FD1D10921C03F80185818111A4
:103CA0000CC080910803882341F0809590911A05FB
:103CB000892380931A050E9487128091410387709F
:103CC00059F0F8018581882339F08091970382FFAC
:103CD00003C082E00E943011CDB7DEB7E9E00C945A
:103CE000C22EC115BFE0DB0709F4B8CF40912B0508
:103CF00080911A0530914A0329E0F801A9E0B3E068
:103D000001900D922A95E1F7D0931103C09310030F
:103D100010921C05842B832B80930803C937BCE7C2
:103D2000DB0709F0CBC481E00E94F90890910803F9
:103D3000992339F080911A05892B80931A050E94E6
:103D4000871289E0E9E0F3E0AFEFB2E001900D9275
:103D50008A95E1F780911C058093FE028CCFC03ECE
:103D6000E2E5DE0760F4C036F2E5DF0708F076CF63
:103D70009E0132552034310508F0B8CF6FCF9E0137
:103D800027573C472430310508F0B0CF67CFD80122
:103D900016962C91207F09F0A9CFCA37FCE7DF07E0
:103DA00009F091C4882381F180910803282F207F96
:103DB00009F090E14091100350911103C82FC29572
:103DC000CF70C82BCF70C92B411520E4520708F0E3
:103DD00040C0411530E2530708F03FC0411581E073
:103DE000580708F053C04F3F5105C1F1B8F190E0BA
:103DF00080E027E0E3E1F3E0DF011D922A95E9F797
:103E000090931B0380931A0380911A0390911B03D4
:103E1000892B09F452CFF8018581882339F08FEF7F
:103E20000E94F90880911C058093120386E0F80136
:103E3000A3E1B3E001900D928A95E1F7809112031E
:103E400080931C0383E193E00E94FD1D10921C03EC
:103E500034CF411590E5590730F65527D42F8C2FD4
:103E60008D70B1F06AE08AEC90E00E94E30890E087
:103E7000009751F44D2F66E18CEA90E00E94E30830
:103E800090E0009709F4B3CF9C2BB3CFC52BE5CFBF
:103E900068E082EC90E0E9CFCC33D10508F02CC487
:103EA000FE01E95BFE4F80818093330125C4D093EE
:103EB0001E03C0931D033BC40E94511CFECE0E94F2
:103EC0006E1788579C4E9093190580931805D8015A
:103ED00015968C91882309F4DAC38F2D8D7909F01A
:103EE0005DC0C034B2E5DB0778F5C115E2E5DE0759
:103EF00008F0CDC3C115F0E4DF0758F4C11520E286
:103F0000D20708F03FC0C63ED10509F4C0C3CE01B8
:103F10000BC0C11530E5D307D0F7F8018681807F4B
:103F200009F4B5C3CE01992710921A05883291057C
:103F300008F03FC08E31910508F041C0049770F140
:103F400082E080931A053BC0C03E82E5D807A0F40A
:103F5000C03C92E5D90708F09AC3C036A2E5DA075B
:103F6000B0F2C03AB2E5DB0708F491C3C43BE2E526
:103F7000DE0709F48CC3CBCFCE0187579C4702974D
:103F800030F685C3D80116968C91807F59F68D2F17
:103F90008F71823159F028F4823041F00E94D8129A
:103FA00076C3843109F473C38631C1F710921A05C0
:103FB000F5CF8D32910521F228F48A9779F70E9486
:103FC000871265C38C349105D1F38D329240B9F3D9
:103FD000E5CF26E241EE61EEC8010E947A176DCE70
:103FE00027E245EE65EEF8CF26E241EE60EEF4CF33
:103FF00027E245EE64EEF0CF26E241EE62EEECCF32
:1040000027E245EE66EEE8CF28E241E0EBCFD801AB
:1040100015968C91882309F417C31092C505C737EC
:10402000BCE7DB0709F4B0C082E0C837ECE7DE0785
:1040300009F4ABC0C3303CE7D30709F4F5C008F07E
:10404000B2C0C1159CE7D90709F4BDC0C130DC4737
:1040500009F053C00E9465148091C70591E089273B
:104060008093C705109243018091C60581608093BB
:10407000C60523CE43EE59E06DEE79E00E944A0971
:104080001CCE4DEE59E063EE79E0F8CF4FEC59E0ED
:1040900069ED79E0F3CF49ED59E06FEC79E0EECFCF
:1040A00045EB59E062EC79E0E9CF42EC59E065EB91
:1040B00079E0E4CF4BE959E068EA79E0DFCF48EAFC
:1040C00059E06BE979E0DACF4FE759E06DE879E044
:1040D000D5CF4DE859E06FE779E0D0CF81E00E947D
:1040E000BB06EBCD85E0FBCFC737FCE7DF0709F464
:1040F00054C0C837DC4709F454C0D80117968D91D5
:104100009C91009709F4A3C00E94240FD82FC92FB7
:10411000D8011596BC9015971696EC90E2943FE066
:10412000E32280914103877001F1DB2CBB20F1F089
:10413000892F807F803461F080E28D0F8830A8F075
:10414000892F807E803221F4D23078F0EE2069F021
:104150008091970382FF09C082E00E943011809114
:1041600041038770DD24D3948111D12CCC2EC294CD
:104170002FE0C222BBE0BC1508F4E1C0EC2DF0E05A
:10418000E155F04D0C94212F81E00E94471143E04E
:1041900062E081E00E94031190CD81E00E94231132
:1041A000F6CF82E0FBCFCB35BCE7DB0709F44DC08F
:1041B000CC35ECE7DE0709F43EC0CA35DC4709F030
:1041C0009CCF81E03FC010922B050E94C4122FEFBC
:1041D00034E38CE0215030408040E1F700C0000023
:1041E00081E08093E00080E28093D8001092C900C3
:1041F000AFE1BEE41197F1F700C0000087E090EB5B
:10420000DC018093DA079093DB07A093DC07B0937F
:10421000DD0788E19CE00FB6F894A89580936000D4
:104220000FBE90936000FFCF6FEF7FEF90E080E0D4
:104230000E94922F0FCF8091970382FB882780F9ED
:1042400091E089270E94861558CF80E0FBCFF801C6
:104250008581C081D181882369F0CE010E945910E7
:10426000F82E682FCE010E94C910BE018F2D0E942A
:10427000050F4ACFCE010E949510F82EF6CFEC2FF5
:10428000EF70FE2EC07F19F0F29490EFF922BB2060
:10429000B9F0FF2069F080E28D0F883010F0D11165
:1042A00009C080912B05F82AF0922B050E948712F5
:1042B0008D2F43C080911A05F82AF0921A05F6CF87
:1042C0008D2F0E94F712FF20D1F180E28D0F8830F0
:1042D00010F0D11104C08F2D0E94481006C0F09438
:1042E00080911A05F822F0921A050E94871227C0C1
:1042F000FC2FFF70FF2EC07FC03219F0F29480EFC8
:10430000F822DD2351F0D13009F473C0BB2009F449
:104310007FC0EE2009F442C0CBCF8091970382FD8D
:1043200039C0BB2089F1FF2039F080912B05F82A94
:10433000F0922B050E94871280E00E942C132C2DF6
:104340002850330B2430310510F40E94D208DD20B0
:10435000B1F08091410380FD12C0D80115961C92E6
:104360008695869586950E944711C8010E94FD1D7D
:10437000809141038695869586950E94231160E081
:10438000C8010E949111A8CC80E00E94F712FF2082
:10439000B1F2A1CFBB2099F0E11004C08F2D0E9493
:1043A000ED12CDCF21E0E212CACF80914A039F2DBA
:1043B0009823F91621F2F82AF0924A03C0CFE110AF
:1043C000BECF8F2D0E94E61290914A038F2D892334
:1043D00029F08F2D8095892380934A0380911F03B4
:1043E0009F2D982309F4ABCFF094F822F0921F038D
:1043F000A6CFBB2029F035E03E1508F4A0CFCECFE4
:1044000084E08E1508F49BCF8F2D0E94E61297CF83
:10441000EE20D1F3D93349F49FEFA7EEB3E09150EA
:10442000A040B040E1F700C000008D2F0E94F712BD
:1044300086CF8C2F86958695837069F0813009F040
:104440007ECF8D2F9C2F9370B11002C080E090E042
:104450000E94880874CF8D2F9C2F9370B11002C0DA
:1044600080E090E00E94AD086ACF8C2F837089F5C0
:10447000B11065CF4D2F429546954770440F440FBC
:104480008D2F8F70042E01C0880F0A94EAF72D2F0C
:104490002071D4FF07C02FE030E001C0220F4A9501
:1044A000EAF72095C695C695C370C23069F050F4FE
:1044B00030919503C13029F0822B83230E94531140
:1044C0003ECF832B822BFACF282B80919503822716
:1044D000F5CF8695BB2011F08C2F8170882309F4CD
:1044E0002ECF4D2F429546954770440F440F8D2F88
:1044F0008F70042E01C0880F0A94EAF72D2F2071C7
:10450000D4FF07C02FE030E001C0220F4A95EAF740
:104510002095C695C695C370C23069F050F43091AD
:10452000DA03C13029F0822B83230E94001107CFC8
:10453000832B822BFACF282B8091DA038227F5CFA9
:10454000CF70BB2029F08C2F0E9447118D2F27CFD1
:104550008D2F0E94E6128C2F0E942311F0CED23FA5
:1045600081F160F4D03FB9F0D13F81F0BB2009F474
:1045700053C0E1109DCE8C2F8F7127C0D33F41F1E6
:10458000D43FA1F79091970392FD2DC08C2F8F718E
:10459000BB2011F31AC0BB2079F0E4E0EE1508F45B
:1045A000CECECF7181E090E001C0880FCA95EAF7C6
:1045B0009091DA038927B9CFF5E0FE1508F4BFCE54
:1045C000F0CF8C2F8F71B110C7CF0E944711B7CE9B
:1045D00080E0BB2009F4A9CFCF7181E001C0880F32
:1045E000CA95EAF7A2CFBB2061F08C2F8F7192FFA2
:1045F000ECCF98E0899F9001112423602093410320
:10460000E4CF81E00E943011A1E0AE1508F097CE12
:1046100082E00E94301193CEEE2059F0D93309F098
:1046200004CFBFEFE7EEF3E0B150E040F040E1F738
:10463000FACE8C2F8F7190CFCA32D10599F4809128
:104640001D030E94F71239CB80912B058272FE0167
:10465000E052F847E531F10508F046CDE554F04D5C
:104660000C94212FC337ECE7DE0709F426CBF0903A
:104670004A0380912B05F82A80911B0581111FCCDC
:10468000F2E2FF1204C00E94511C1092C505FE0107
:10469000E851FC47E730F10508F0B9CCE053F04DA4
:1046A0000C94212FC337FCE7DF0709F780911B0526
:1046B000882309F401CC0E94D812FFCACA372CE71C
:1046C000D20709F471CBD80115968C91882309F48F
:1046D000B3CF80E280933301D093DC03C093DB033C
:1046E000CE0190528115904308F0D6CBCE01992788
:1046F0009093DC038093DB03F80181818093DE03D8
:1047000080818093DD03CA32D10561F6F0902B05DC
:104710008F2D827209F4CBCB2CE430E030931E0352
:1047200020931D03823219F082E20E94E6128091EA
:104730001D030E942C13F0922B05BFCACF93DF9369
:1047400080913E03807F09F04DC080913D03882316
:1047500009F448C0E091950550914C05C09139038A
:10476000D091380360913A0370913B0349E05E17A2
:10477000C9F18E2F90E0E49FF0011124E35BFA4F22
:104780002481222391F1489FF001499FF00D1124CB
:10479000DF01A35BBA4F11962C9111972C1325C002
:1047A0002C912D1322C015962C91159721111DC007
:1047B00012962D913C91261B370B243B3105A8F412
:1047C00080913E038F70806180933E03ED5AFA4FD3
:1047D00080818F708061808388E393E00E94FD1D5B
:1047E0000E944F10DF91CF910895FC013196E77040
:1047F000BECFA8E1B0E0EFEFF3E20C94A32E8C0162
:1048000086E0F801DE01539601900D928A95E1F75A
:10481000D80114968C9114971596EC90159798E3FF
:10482000A92E93E0B92E90913C03911128C08823C2
:1048300019F1EE20F1F0C8010E945611F82E8823DC
:10484000C1F089E0F801D50101900D928A95E1F758
:1048500080913C03813031F4809138039091390389
:104860000E9488100E949E238F2D6896ECE00C9485
:10487000BF2EC8010E94FD1DFF24F394F5CFF8015F
:10488000D080C18082809380F0903D0320913A03D4
:1048900030913B03A401421B530BFF2009F4F5C0E8
:1048A000443B510508F0A6C08823F1F290913903EA
:1048B00080913E03282F207F09F057C0C91215C0F0
:1048C00090913803D91211C0E11049C08F708061F6
:1048D00080933E0388E393E00E94FD1D80913E0398
:1048E000D80116968C93F12CBFCFE11038C06C2DF7
:1048F0008D2D0E94D4066C2D8D2D0E94D406E82E9D
:104900008111F1CFDB8ACC8A8B899C890E94881027
:10491000292F22952F70243058F49F70223088F070
:10492000992399F0F8019681907F79F4FE2C9CCF21
:104930002A5F2F70223068F0C8010E94FD1DEF2C05
:10494000F5CF992311F0882389F3805E883070F3C6
:10495000F3CF803F58F3815F833070F7E7CF8091CA
:104960003E03816080933E03BECFC91214C0909174
:104970003803D91210C0E1100EC016968C93C801EE
:104980000E94FD1D89E0F801A8E3B3E001900D92BB
:104990008A95E1F769CFC8010E945611882309F46E
:1049A00068CFEE2009F465CF80913E038032B8F0E5
:1049B000FE013E9695E0DF011D929A95E9F7209160
:1049C0003803309139033B872A879D868C869091E6
:1049D0003C039E87888BCE010A960E94FD1D89E0CC
:1049E000F801A8E3B3E001900D928A95E1F70E94E7
:1049F0009E2342CF90913E03292F207F51F488E3DC
:104A000093E00E94FD1D89E0F50111928A95E9F776
:104A10006ACF882309F428CF809139038C1111C003
:104A200080913803D8120DC0E1100BC016969C93EC
:104A3000C8010E94FD1D89E0F50111928A95E9F7F0
:104A400013CFC8010E945611882309F412CFEE201B
:104A500009F40FCF80913E03803208F4C0CFFE01ED
:104A6000359695E0DF011D929A95E9F7209138037C
:104A7000309139033A8329839C828B8290913C0345
:104A80009D838F83CE010196A8CF443B510598F6B4
:104A9000882309F4F1CEFE2CEE2009F4EACE8091B1
:104AA00039038C1105C080913803D81609F46ACFF8
:104AB000C8010E945611811192CF80913E038160FE
:104AC00080933E03C8010E94FD1DCECEA1E2B0E05E
:104AD000ECE6F5E20C94AC2E4C8F5D8F6E8F7F8FE1
:104AE00088A399A3911110921A05198E1A8E1B8E04
:104AF00086E0FE017C96DE01539601900D928A9528
:104B0000E1F78F89882329F061E0CE0143960E9466
:104B1000911189E0FE017396DE011A9601900D92C3
:104B20008A95E1F7CE010A960E94F92381110CC003
:104B300089E0FE013A96DE01119601900D928A9568
:104B4000E1F78E8581110BC019E080919505909158
:104B50004C05891333C0A196E3E00C94C82E209134
:104B60004C0530E0C9010196877099274091950561
:104B70004817190699F099E0929FD001939FB00DC4
:104B80001124A35BBA4FFE01319601900D929A95C4
:104B9000E1F780934C050E944F10D6CF10922B0561
:104BA0000E94C41210924C051092950589E0E8E32A
:104BB000F3E0DF011D928A95E9F7C6CF819FC0011E
:104BC0001124835B9A4F0E94F923882321F280915C
:104BD000950590E001968770992780939505B5CF4C
:104BE000A6E0B0E0E6EFF5E20C94AB2E0E946E1763
:104BF0008C0180914B0390914C038017910781F0B9
:104C000019821A820E946E17682F49815A81792F62
:104C100080E090E00E94662510934C0300934B03C4
:104C20002696E4E00C94C72E1F921FB61F92112403
:104C30008F939F93AF93BF9380912505811113C0EC
:104C40008091260590912705A0912805B09129050E
:104C50004196A11DB11D8093260590932705A09331
:104C60002805B0932905BF91AF919F918F911F9017
:104C70001FBE1F901895CDB7DEB72C970FB6F894CE
:104C8000DEBF0FBECDBF85B7806885BF85B78068A2
:104C900085BF84B7877F84BF0FB6F894A8958091AD
:104CA0006000886180936000109260000FBE80E811
:104CB00090E00FB6F89480936100909361000FBE6E
:104CC00081E00E94DA1780EC9DE09093F5028093DA
:104CD000F4020E941D070E94BE078091E2008460DA
:104CE0008093E2007894809142058823A1F010918E
:104CF000E9001F709091EC00892F817090FD80E891
:104D0000182B1092E9008091E80083FD0E94E617BD
:104D10001F701093E90082E084BD93E095BD9AEF87
:104D200097BD80936E0010928503109286031092B7
:104D30008703109288038091D80080618093D80007
:104D40002AE12A95F1F700C08091D900182F11703F
:104D500080FD04C00E941D071092420510931D059E
:104D600010931E051093280111110E94272D809188
:104D700028018091280195E0811190E0909394039F
:104D800085E0891B809393030EEB11E0D8018D9190
:104D90008D018F3F11F00E94C20DB1E0033C1B0753
:104DA000A9F703EC11E099ECE92E91E0F92EF80156
:104DB00081918F018F3F11F00E94C20DE016F10624
:104DC000B1F78AE0E8E9F3E0DF01282F1D922A9588
:104DD000E9F7E9E8F3E0DF011D928A95E9F790E051
:104DE00080E00E945E2F853E9E4F09F45EC065EE16
:104DF0007EEF90E080E00E94922F60E082E090E001
:104E00000E94742F81E08093950361E083E090E03D
:104E10000E94742F60E074E184E090E00E94922F81
:104E200060E086E090E00E94742F60E087E090E010
:104E30000E94742F40E050E0BA0188E090E00E94A8
:104E4000862F60E083E290E00E94742F60E08CE0A7
:104E500090E00E94742F60E08DE090E00E94742F3B
:104E600019821A821B821C821D821E821F82188652
:104E700048E050E067E170E0CE0101960E94642FA7
:104E800040E050E0BA018FE190E00E94862F40E0C0
:104E900050E0BA018FE090E00E94862F40E050E0A1
:104EA000BA0183E190E00E94862F82E090E00E94A8
:104EB000562F8093A20384E090E00E945E2F90938F
:104EC00097038093960383E090E00E94562F0E9400
:104ED00053110E947B0910929A058FEF9FEF9093D8
:104EE000B4058093B3059093B6058093B505909370
:104EF000B8058093B7059093BA058093B905909350
:104F0000BC058093BB059093BE058093BD0590932F
:104F1000C0058093BF059093C2058093C105109290
:104F2000050490931F0480931E04909321048093A2
:104F3000200490932304809322049093250480936B
:104F4000240490932704809326049093290480934B
:104F5000280490932B0480932A0490932D0480932B
:104F60002C0481E08093C60548E050E067E170E0E2
:104F700087EC95E00E94462F1092C6058091C705E8
:104F80008C7FF9F485E08093C7058091440190916E
:104F90004501A09146018093C8059093C905A0934F
:104FA000CA058FE78093CB058FEF8093CC0548E04F
:104FB00050E067E170E087EC95E00E94642F10926A
:104FC000C60580911D05882309F426C180E08093E1
:104FD000FF0380FD23C180E88093CF050E94C52B8D
:104FE0006BE070E08BEB93E00E947D148823E9F185
:104FF0008091FF0365E070E081FD12C186EB93E0D4
:105000000E947D14882389F16DE070E084EA93E0CA
:105010000E947D14882349F10E947C08605A7541E2
:105020008F4F9F4F60931205709313058093140563
:1050300090931505E2EDF5E080E092E0DF019C0140
:105040001D9221503040E1F7F093D907E093D80743
:105050008FEF9FEF9093D1058093D00581E08093EF
:105060001705809316051092000480911D0581118B
:1050700002C00E942A2D89E291E09093220580933C
:10508000210580914205853089F410E400E182E138
:10509000F82E80914205853009F4C5C010922B0589
:1050A0000E94C4120E94D208109232040E94651C11
:1050B00023EA33E03A87298788E993E09C878B8746
:1050C000DC01F90191918D912DEA33E02E173F0714
:1050D00009F4EDC09817B1F360901D05B9ED8B2E62
:1050E000B1E09B2EE12CAB85BC85CD90BC87AB8716
:1050F000E985FA852190FA87E9872C1409F480C0A4
:105100002C242401712C33243394822D832109F41F
:105110006BC0FC2CF3206620A1F07982EA820E9409
:105120006E179C838B83F1E0FD8391E0F11001C049
:1051300090E09E8349815A816B817C818D810E94A0
:105140006625F11011C1D2018C918F3F09F00EC17B
:105150000F2D10E080910504800F912F911D09976C
:105160006CF1E8E0AE2EB12CA01AB10AB8016A5F6A
:105170007B4FA50186E094E00E943D2FB801625F5D
:105180007B4FA5018EE094E00E943D2FA501440FC6
:10519000551FB801660F771F625E7B4F8EE194E06A
:1051A0000E943D2FB8016A5E7B4FA50186E194E025
:1051B0000E943D2F88E08F1980930504809105049B
:1051C00090E0AD2DB0E09D01220F331F2B5E3D4FCF
:1051D000AA0FBB1FBD016A5E7D4F41E0480F9F15BE
:1051E00008F4C8C0809305047394330CBFEF4B1AC6
:1051F0005B0AE6E07E1289CFE985FA853197C082A5
:10520000E394F6E08F0E911C2AE0E2126CCF0E942C
:10521000D90DCC24C39450C083E0D9CE80E2DCCE3B
:1052200081EB93E0EDCE80914205843009F433C0E8
:105230000E94CD1480913204811105C00E94110C8E
:1052400080E00E940C0A31E0309332040E948A14FC
:105250001092250588E190E00FB6F894A895809308
:1052600060000FBE1093600083B7817F846083BFAE
:1052700083B7816083BF7894889583B78E7F83BF1F
:105280000FB6F894A89580916000886180936000C3
:10529000109260000FBE0E94651CE8E9F3E0819166
:1052A0008111FBC193E0E23AF907C9F7F2CE9813F6
:1052B00013CF0E94F025C12C80911D05882389F011
:1052C00080911B05882369F00E946E1720911805B4
:1052D00030911905821B930B8F3F9F4710F40E945A
:1052E000D8120E94CD1480911705882309F4A0C01C
:1052F00080910104909102040E945F17C29708F404
:1053000077C00E946E17909302048093010482ED8F
:1053100095E09093D9078093D80780911D05882345
:1053200009F4CEC010913B058CEF93E00E9441122E
:105330008DEF810F823098F588EF93E00E94811203
:105340008CEE93E00E9441128091DA030E9480115A
:10535000823009F4A9C040F5882381F1813009F435
:10536000A0C086EC93E02CC0F12CF2CED82EFF2406
:10537000F394EECE90E0FC01EB5FFB4FD9015C9122
:105380005183DB015C915187D18A880F991FFC0101
:10539000EB5FFB4F128E118E91E0842F1ECF1230E7
:1053A00079F684EF93E0CACF843009F483C008F41F
:1053B0007EC08530B1F68EEC93E002C084EE93E0BF
:1053C0000E9481120E94D20881FD77C081E094E0A2
:1053D0000E9441128DEA93E00E94981381E00E949E
:1053E0004F1285EC93E00E94981381E00E944F12C7
:1053F0008091D0059091D105892B09F06CC08091E6
:1054000016058823A9F00E947C08009112051091CE
:1054100013052091140530911505601B710B820B4B
:10542000930B6F3F7F4F8F4F9F4710F40E948A145A
:10543000C1100E94A5140E94D208909103048917FC
:1054400021F0809303040E947C0880913E01823009
:1054500009F017CE80913805882309F412CE809187
:10546000390590913A050E945F17883C910508F430
:1054700008CE1092380580913E0190913B058091B5
:105480000404981305C080913B01882309F4F9CDE9
:1054900010923B0180913B058093040480913B0571
:1054A000F0CD80EE93E08CCF8CED93E089CF88ED4A
:1054B00093E086CF83ED93E083CF8FE094E088CFB5
:1054C0008CEB95E00E94811260EA71E08CE194E03F
:1054D0000E940A098DCF80911705882309F48FCF88
:1054E0008091000481118BCF0E94A5142091D005DA
:1054F0003091D1052115310509F481CF80E041E0DB
:1055000050E0082F10E07A01082E02C0EE0CFF1CBC
:105510000A94E2F7B70162237323672B11F48F5FBC
:10552000F0CF9091FF0390FF9FC0880F880F880FE6
:105530008093360110923901895F8093370183E0AF
:1055400080933A0124E630E047E050E064E371E004
:1055500088E70E94F92B892B09F051CFA80125E09B
:10556000440F551F2A95E1F78091FF0380FF8EC0FD
:10557000EFEDF3E080E2DF011D928A95E9F7EDECB3
:10558000F1E0FC87EB8709EC11E081ED282E81E04A
:10559000382E97E0A92E99249394AB85BC852D9144
:1055A000BC87AB87F80141908F01440E552E511CEA
:1055B000C2018E529A4F2C01E22FF0E0E152FC4FD3
:1055C00030E020E09A2D921B9987B92C022E01C061
:1055D000BB0C0A94EAF7320190E0D3018D913D01B2
:1055E0008B216985691B6770862E062E000C770B50
:1055F000B82F01C0BB0F8A94EAF78B2E7195619585
:1056000071096770772701C086956A95EAF7882A3D
:105610008081882A80829F5F9830F9F62F5F3F4F04
:1056200031962830310571F6EB85FC852E163F0644
:1056300009F0B3CF04E610E020E230E04FED53E094
:1056400060E488E70E94832C892B09F0D8CEE0948F
:10565000F0948091D0059091D105E822F922F09242
:10566000D105E092D005CBCE8295880F80768093CD
:10567000360198013695279536952795209339015F
:10568000815E8093370120933A015CCF4E525A4F8E
:1056900004E610E020E230E0D3CF80913705882384
:1056A00009F4F7CC09BDF9BC09B400FEFDCF809127
:1056B000D8008F7D8093D8008091E0008260809335
:1056C000E0008091E00081FDFCCF10922B050E944C
:1056D000C412AFEFB3ECE9E0A150B040E040E1F715
:1056E00000C00000D6CCEF92FF920F931F93CF9390
:1056F000DF93182FEB011092BC0084EA8093BC006A
:105700000E946E177C018091BC0087FF27C08091AA
:10571000B900887F883029F08091B900887F803176
:1057200089F51093BB0084E88093BC000E946E173B
:105730008C018091BC0087FF1EC02091B900287F9A
:1057400090E080E0283191F081E090E0203411F485
:1057500090E080E091958195910908C0C7010E9471
:105760005F17C817D90778F68EEF9FEFCDB7DEB772
:10577000E6E00C94C52EC8010E945F17C817D90730
:10578000C0F6F2CF8FEF9FEFF1CF1092B9008CE00F
:105790008093B80008950F931F93CF93DF93EB018D
:1057A0008093BB0084E88093BC000E946E178C013C
:1057B0008091BC0087FF11C02091B900287F81E053
:1057C00090E0283211F490E080E091958195910964
:1057D000DF91CF911F910F910895CF3FDC0741F3E7
:1057E000C8010E945F17C817D90710F78EEF9FEF07
:1057F000EFCFB0E0A0E0EFEFFBE20C94A22E782E0A
:105800005B016A0189010E946E174C01C1E0D0E082
:105810000431110558F0C5E0D0E00F3F100731F01A
:10582000C80164E170E00E94892EEB01BE01872D62
:105830000E94732B7C0197FF09C00F3F1007B1F343
:10584000C4010E945F170817190780F7E501CA0C09
:10585000DB1CCC15DD0511F0F7FE09C084E980934F
:10586000BC00C701CDB7DEB7EDE00C94BE2EB80189
:1058700089910E94CB2B7C01ECCFB0E0A0E0E3E467
:10588000FCE20C94A22E782E5B016A0189010E9431
:105890006E174C01C1E0D0E00431110558F0C5E0AD
:1058A000D0E00F3F100731F0C80164E170E00E94C2
:1058B000892EEB01BE01872D0E94732B7C0197FF7F
:1058C00009C00F3F1007B1F3C4010E945F1708170A
:1058D000190780F7E501CA0CDB1CCC15DD0511F0BA
:1058E000F7FE09C084E98093BC00C701CDB7DEB7DD
:1058F000EDE00C94BE2EFE018491B8010E94CB2BEA
:105900007C012196EACFB0E0A0E0E9E8FCE20C944B
:10591000A12E682E762E5A0169010E946E174C0145
:10592000C1E0D0E00431110558F0C5E0D0E00F3FF0
:10593000100731F0C80164E170E00E94892EEB018C
:10594000BE01862D0E94732B7C0197FF1DC00F3F67
:105950001007B1F3C4010E945F170817190780F7F9
:1059600084E98093BC00C701CDB7DEB7EEE00C94AC
:10597000BD2EB80189910E94CB2B7C01CC16DD068F
:1059800079F3F7FEF6CFECCFB801872D0E94CB2B31
:105990007C01E501CA0CDB1CF1CF8EE14A9B02C001
:1059A0008150E1F74A9BFECF08955A9880E28A958C
:1059B000F1F75A9A0895FC013BE03A95F1F798E027
:1059C00020E080E031E040E14A95F1F7880F4A9B02
:1059D00002C08160232742E04A95F1F7000040E1D0
:1059E0004A95F1F7915079F790E19A95F1F799B1CD
:1059F00032E03A95F1F7000040E14A95F1F792FB69
:105A0000992790F992272081920F90830895A1E021
:105A1000B0E0EDE0FDE20C94A92E19828C017C012E
:105A2000E60EF11C0E151F0541F481E099819111DC
:105A300080E02196E6E00C94C52E0E94CD2CCE018C
:105A400001960E94DB2CF80181938F01EBCF529AD3
:105A50005A9A089552985A9AEA9AE9E6F0E08081B3
:105A60008F7C808308956150770B91E001C0990F7E
:105A70006A95EAF720E031E0911108C0222391F005
:105A80005A9A80E28A95F1F75A980895492F482347
:105A900039F05A9A232740E24A95F1F79695ECCFD0
:105AA0005A98F9CF5A98EDCFFF920F931F93CF9347
:105AB000DF93EC018C01060F111DC017D10729F4EB
:105AC000CDB7DEB7E5E00C94C62EF9900E94D52C38
:105AD00068E08F2D0E94332DF0CF1F920F920FB6EA
