:100000000C9474060C94AC060C94AC060C94D32D92
:100010000C94AC060C94AC060C94AC060C94AC0698
:100020000C94AC060C94AC060C94CE1C0C948A1C5C
:100030000C94BE270C94AC060C94AC060C94AC0645
:100040000C94AC060C94AC060C94AC060C94AC0668
:100050000C94AC060C94A71D0C94AC060C94AC0646
:100060000C94AC060C94AC060C94AC060C94AC0648
:100070000C94AC060C94AC060C94AC060C94AC0638
:100080000C94AC060C94AC060C94AC060C94AC0628
:100090000C94AC060C94AC060C94AC060C94AC0618
:1000A0000C94AC060C94AC060C94AC06000000005A
:1000B0000000000000000000000000000000000040
:1000C0000000000000000000000000000000000030
:1000D0007E0F00D4FFFFFFC7000000780000000083
:1000E000000000002A2B2800000000000000000093
:1000F0000000000000000029000000002C1E342039
:10010000212224342627252E362D3738271E1F205E
:100110002122232425263333362E37381F040506A3
:100120000708090A0B0C0D0E0F10111213141516E7
:100130001718191A1B1C1D2F3130232D35040506E5
:100140000708090A0B0C0D0E0F10111213141516C7
:100150001718191A1B1C1D2F3130354C29001E0091
:100160001F002000210022002B0014001A000800AC
:1001700015001700E10004001600070009000A003E
:10018000E0001D001B000600190005000000E20051
:10019000E300777C2C0064522D0027002600250008
:1001A000240023002E00130012000C0018001C0075
:1001B0002A0033000F000E000D000B00E500380090
:1001C00037003600100011000000E600E700787CE0
:1001D000280000003A003B003C003D003E003F008C
:1001E00001001E001F00200021002200010030003D
:1001F000300234003402010001002F001F042004EB
:100200003100310200000100010001000100010085
:100210004500440043004200410040000100270027
:1002200026002500240023004C002D002604250470
:100230003502350001002D022606250601000100C9
:1002400000000100010001000100010000000000A9
:10025000000000000000000000000000000052024A
:100260000000000001003008500651024F06000057
:10027000010000000000000000000000000001007C
:10028000010001000100010000000000000000006A
:10029000000000000100000000005200000000000B
:1002A00001004F044F0051005000500401000000B5
:1002B000000000004D004A000000010001000100A4
:1002C000010001000000000000000000000000002C
:1002D00000000000000000000000000020782378EB
:1002E000257827780000BD002178247826782878A2
:1002F0000000BE000000010001000100010000003C
:1003000000000000000000000000000000000000ED
:10031000AA00A800A900000000000000AB00AE0089
:10032000AC00000000000000000000000000000021
:1003300000000100010001000100000001000100B7
:1003400001000100010001000100010001000100A5
:100350000100010001000100010001000100010095
:100360000100010001000100010001000000010086
:100370002C000100E300010000000000000000006C
:10038000000000000000000000000000000000006D
:10039000000000000000000000000000000000005D
:1003A000000000000000000000000000000000004D
:1003B0000000000000DA0281FFD9F1DB20A4A62EA4
:1003C000AF00A0C0D30000A1C8D30000AED580A864
:1003D0001F408D142000556E6B6E6F776E00476165
:1003E0006D650041646A75737400526169736500DC
:1003F0004C6F7765720044656661756C74004C6182
:100400007965723A20000000000000000000000042
:1004100000000000000000000000000000000000DC
:1004200000000000000000000000000000000000CC
:1004300000000000000000000000000000000000BC
:1004400000000000000000000000000000000000AC
:10045000000000000000000000000000000000009C
:10046000000000000000000000000000000000008C
:10047000000000000000000000000000000000007C
:1004800000000000000000041EFEFEFEFEFEFEFE58
:10049000FEFEFEFC3C0C0C3CFCFEFEFEFEFEFEFEE8
:1004A000FEFEFE1E0600F8F0000001030303030336
:1004B000030381C0C0C0C0C0C0C183830303030362
:1004C00003010000E0F8033FFFFCF8F8F8F8FCFE39
:1004D000FF8783C1E1E0E0E0E0C18387FFFEFEFC2F
:1004E000F8F8FCFE3F0700000003070F1F3F7FFFE7
:1004F000FFFFFFFFFFFFFFFFFFFFFFFFFFFF7F3F4C
:100500001F070300000000000000000000000000C2
:1005100001030307070F0F0F0F0707030100000078
:1005200000000000000000000000000000000000CB
:1005300000000000000000000000000000000000BB
:1005400000000000000000000000000000000000AB
:10055000000000000000000000000000000000009B
:10056000000000000000000000000000000000008B
:10057000000000000000000000000000000000007B
:10058000000000000000000000000000000000006B
:10059000000000000000000000000000000000005B
:1005A0000000000000004D61676F000001010101C3
:1005B000010101010102020202020202020203031E
:1005C00003030303030304040404040404050505EE
:1005D00005050606060606070707070708080808B0
:1005E000090909090A0A0A0B0B0B0C0C0C0D0D0D5D
:1005F0000E0E0E0F0F0F10101111111212131314F3
:1006000014151516161717181819191A1A1B1B1C6A
:100610001D1D1E1E1F2020212222232424252626C4
:10062000272829292A2B2C2D2D2E2F3031323233F9
:100630003435363738393A3B3C3D3E3F4041424302
:100640004445464748494A4C4D4E4F5051535455E6
:100650005658595A5B5D5E5F616264656668696B96
:100660006C6D6F7072737577787A7B7D7E80828314
:100670008587888A8C8E8F91939596989A9C9EA058
:10068000A2A3A5A7A9ABADAFB1B3B5B7BABCBEC065
:10069000C2C4C6C9CBCDCFD1D4D6D8DBDDDFE2E42E
:1006A000E7E9EBEEF0F3F5F8FAFDFF00AF00AE0579
:1006B000010980A101850319012AB700150126B798
:1006C00000950175108100C0050C0901A101850488
:1006D00019012AA002150126A002950175108100BA
:1006E000C005010906A101050719E029E715002544
:1006F00001950875018102950175088101050719A9
:100700000029FF150026FF009506750881000508E1
:10071000190129059505750191029501750391014E
:10072000C009023B00020100A0FA09040000010315
:100730000101000921110100012240000705810388
:100740000800010904010001030000000921110152
:10075000000122320007058203200001120100027D
:1007600000000008D8042EEB00010102000116036E
:100770004C0069006C007900350038002000520000
:100780003200470000001C034D0065006300680054
:1007900062006F0061007200640073002000550069
:1007A0004B000000040309040000000000003E5B51
:1007B0004F5B3E003E6B4F6B3E001C3E7C3E1C0080
:1007C000183C7E3C18001C577D571C001C5E7F5E49
:1007D0001C0000183C180000FFE7C3E7FF000018EA
:1007E00024180000FFE7DBE7FF0030483A060E0060
:1007F000262979292600407F05050700407F052529
:100800003F005A3CE73C5A007F3E1C1C0800081C75
:100810001C3E7F0014227F2214005F5F005F5F0098
:1008200006097F017F00006689956A00606060604C
:10083000600094A2FFA2940008047E040800102027
:100840007E20100008082A1C0800081C2A0808003E
:100850001E10101010000C1E0C1E0C0030383E38FC
:100860003000060E3E0E06000000000000000000F2
:100870005F000000000700070000147F147F1400D1
:10088000242A7F2A12002313086462003649562066
:100890005000000807030000001C22410000004136
:1008A000221C00002A1C7F1C2A0008083E080800A1
:1008B0000080703000000808080808000000606030
:1008C00000002010080402003E5149453E0000424D
:1008D0007F4000007249494946002141494D33009B
:1008E0001814127F10002745454539003C4A4949F4
:1008F000310041211109070036494949360046496E
:1009000049291E00000014000000004034000000CF
:10091000000814224100141414141400004122147D
:1009200008000201590906003E415D594E007C1243
:1009300011127C007F49494936003E414141220065
:100940007F4141413E007F49494941007F090909F2
:1009500001003E41415173007F0808087F000041BB
:100960007F4100002040413F01007F0814224100E8
:100970007F40404040007F021C027F007F0408103F
:100980007F003E4141413E007F09090906003E418A
:1009900051215E007F091929460026494949320044
:1009A00003017F0103003F4040403F001F204020E3
:1009B0001F003F4038403F006314081463000304E5
:1009C000780403006159494D4300007F41414100D3
:1009D000020408102000004141417F00040201028E
:1009E000040040404040400000030708000020543D
:1009F000547840007F284444380038444444280058
:100A0000384444287F0038545454180000087E09A4
:100A100002001824241C78007F0804047800004495
:100A20007D4000002040403D00007F102844000031
:100A300000417F4000007C04780478007C080404B6
:100A400078003844444438007C18242418001824C2
:100A500024187C007C0804040800485454542400E2
:100A600004043F4424003C4040207C001C204020E3
:100A70001C003C4030403C004428102844004C906E
:100A800090907C004464544C4400000836410000BF
:100A90000000770000000041360800000201020457
:100AA00002003C2623263C000000000000808080DD
:100AB00080000000000080E070180C1830E080001A
:100AC0000010F8901030783010B8FC38100000009A
:100AD000000000F8FCF8000000000000000000002A
:100AE0000000001C9C1C00000000F8FCF800000046
:100AF0000000001CFCF8C000000000000080E0F8CE
:100B00007C1C000000F0FCFCFC1C1C1C1C1C1C1CA5
:100B10001C000000000000C0F0F8381C1C1C1C1C4D
:100B20001C3CF8F0E000E0F0F0F0E0ECEEF7F370E1
:100B300020007C7C7C7E007E7E7E7F7F7F0000802C
:100B4000C0E07E5B4F5BFEC00000C000DCD7DEDE95
:100B5000DED7DC00C0000000000000000000000044
:100B6000000000000000000000000000000FBCE0DA
:100B7000818181838382870C183060C000001FFE52
:100B800090B9FFBB91983C1811133F110000000071
:100B9000000000FFFFFF0000000000000000000058
:100BA000000000FFFFFF00000000FFFFFF0000004B
:100BB0000000000000030F7FF8E080F0FC3F0F0111
:100BC00000000000003F3F3F1C1C1C1C1C3C78F830
:100BD000F0E08000000000C3E7FF7E3C38787870CA
:100BE00070F8FFDF87000F1F3F7F7F7F7F7F3F1EF3
:100BF0000C001F1F1F3F003F3F3F7F7F7F00307B68
:100C00007F7830202030787F3B0003000F7F0F0F6C
:100C10000F7F0F0003000000000000000000000034
:100C20000000000000000000183C24666341C18100
:100C300080808080808081C14162386C4CC6818117
:100C4000808080808081C14362361C1800000000D3
:100C5000000000FFFFFFC0C0C0C0C0C0C0C0C08057
:100C60000000007FFF7F000000007FFFFFC08000CA
:100C70000000E0E0C0C0C0E0F97F1F0700000000F6
:100C8000000000000070F0E0E0C0C0C0C0E0F0F87C
:100C90007F3F0F0000000F3F7FF9E0E0C0C0C0C001
:100CA000C0E0F97F3F1F00000000000000000000CE
:100CB0000000000000000000000000000000000034
:100CC0000000000000000000000000000000000024
:100CD0000000000000000000000000000000000014
:100CE000000000000000000011241FBECFEFDAE07A
:100CF000DEBFCDBF04B603FE18C08091C807909137
:100D0000C907A091CA07B091CB078730904BA74085
:100D1000B04B59F41092C8071092C9071092CA0735
:100D20001092CB07E0E0F8E3099512E0A0E0B1E013
:100D3000EAE7F0E602C005900D92A43FB107D9F7AB
:100D400027E0A4EFB2E001C01D92A83CB207E1F792
:100D50000E94E5270C94FE2F0C940000B0E0A0E068
:100D6000E4EBF6E00C94092F20914301309144010B
:100D70002817390721F42091BC052032A9F190935E
:100D800044018093430120E22093BC056C01F12CC7
:100D9000E12C1092BB050BEB15E0D0E0C0E08AE03F
:100DA000882E912CA12CB12CC701B601A50194016C
:100DB0000E94462F605D603311F4209731F0C1141A
:100DC000D104E104F10409F460E2F80162938F01B7
:100DD000C701B601A50194010E94462F69017A015D
:100DE0002196C530D10501F786EB95E0CDB7DEB78A
:100DF000ECE00C94252F9091AE05937061F0811179
:100E00000BC094609093AE05109242018091AD05A5
:100E100081608093AD0508958B3010F09862F2CF19
:100E2000880F880F982BEECF482F20917B0590914B
:100E3000420557E0291302C080E0089530E0529F38
:100E4000F001539FF00D1124ED5BFA4F818168137F
:100E500006C08081481303C085818111EECF2F5FCA
:100E60003F4F2770E7CFFC01AC014B5F5F4F8FEF27
:100E700091E32191822728E030E087FF09C0880FA5
:100E8000892721503109C9F7E417F50791F708952B
:100E9000880FF7CF9091AE05937071F08093AF05F6
:100EA0006093B005493708F048E74093B105809159
:100EB000AD0581608093AD050895E8EDF0E0808197
:100EC0008E7F80831092E2001092DA001092E1008F
:100ED000A0EEB0E08C9181608C9380818F778083CD
:100EE00019BCA7EDB0E08C918E7F8C9380818F7EB2
:100EF000808310922A0508952091E4003091E50046
:100F000095E6A9012091EC00822F817020FF06C098
:100F10008091E80080FF06C080E008952091E800FD
:100F200022FD1AC080913805882389F0853089F028
:100F30008091EB0085FD0FC02091E4003091E50029
:100F400042175307F9F29150E1F684E0089582E0E8
:100F5000089583E0089581E0089580913A0587FF20
:100F600013C08091E80082FF06C08091E8008B7773
:100F70008093E80004C0809138058111F2CF089574
:100F8000809138058823D9F38091E80080FFF8CF5D
:100F90008091E8008E77ECCF982F9093E900242F72
:100FA000762F50E0891731F07091EC002091ED0020
:100FB0005091F00021FD07C09F5F973071F780933B
:100FC000E90081E008953091EB003E7F3093EB0023
:100FD0003091ED003D7F3093ED003091EB003160BA
:100FE0003093EB007093EC002093ED005093F000F1
:100FF0002091EE0027FDE0CF80E00895B0E0A0E072
:10100000E4E0F8E00C940D2FC8EDD0E088818F7EED
:101010008883E7EDF0E080818160808384E082BF97
:1010200081E080932A0588818E7F888302EE10E01C
:10103000F80110821092DA0081EEC82ED12CF60150
:10104000108288818F7788838881806888838881EF
:101050008F7D888319BC1092380510923905109243
:1010600037051092360590EEE92EF12CF7018081BC
:101070008B7F808388818160888342E060E080E0AC
:101080000E94CC07F60180818E7F8083F8018081E9
:1010900081608083808188608083F70180818E7F7A
:1010A0008083888180618883CDB7DEB7E8E00C94C7
:1010B000292FFC01809140059091410586179707E3
:1010C000A0F06115710529F49091E8009E77909346
:1010D000E80090E06115710551F4911108C080910C
:1010E000E80082FF34C080E00895BC01F2CF809117
:1010F00038058823C1F18530C1F18091E80083FD76
:1011000030C08091E80082FDEACF8091E80080FF46
:10111000E1CF8091F3002091F200382F6115710525
:1011200019F02830310558F091E02830310509F0E8
:1011300090E02091E8002E772093E800CBCF8191BA
:101140008093F100615071092F5F3F4FE7CF80918D
:101150003805882341F0853041F08091E80083FF15
:10116000BECF81E0089582E0089583E00895089558
:1011700080912D0508952FB7F89460912605709100
:10118000270580912805909129052FBF0895A3E098
:10119000B0E0EDECF8E00C94132F20912305309192
:1011A000240528173907A1F090932405809323057F
:1011B000E0912105F0912205309751F024E0298338
:1011C0009B838A830680F781E02DCE0101960995E5
:1011D0002396E2E00C942F2FA3E0B0E0E2EFF8E0DA
:1011E0000C94132F20911F053091200528173907E3
:1011F000A1F09093200580931F05E0912105F091C7
:101200002205309751F023E029839B838A8306804F
:10121000F781E02DCE01019609952396E2E00C942A
:101220002F2FCF93DF932091C6073091C707205C03
:101230003540A901460F571F4130524020F060E071
:1012400072E0621B730B4091BE055091BF05FC011B
:10125000C901620F731FC1E0D0E08617970738F00D
:101260005093BF054093BE05DF91CF91089524911F
:10127000DC01A054BA4F3C91321781F02C939C01B1
:10128000A5E036952795AA95E1F7DE0102C0AA0FE1
:10129000BB1F2A95E2F79D014A2B532B01963196ED
:1012A000DCCFFA01811101C0FB0109950895EEEA36
:1012B000F5E0248130E1231B08F420E024838091B1
:1012C000AD0581608093AD050895EEEAF5E02481D7
:1012D00030E1230F08F42FEF24838091AD05816066
:1012E0008093AD050895EEEAF5E0438120E1421BCD
:1012F00008F440E08181628190E00E944A070895ED
:10130000EEEAF5E0438120E1420F08F44FEF8181DE
:10131000628190E00E944A070895EEEAF5E062815A
:1013200020E1621B08F460E08181438190E00E942B
:101330004A070895EEEAF5E0628120E1620F08F4C1
:101340006FEF8181438190E00E944A070895EEEAA1
:10135000F5E08181438162818850990B0E944A07A0
:101360000895EEEAF5E0818190E04381628108967C
:101370000E944A0708958091AE0586958695815012
:1013800009F48AE00E94FB0608958091AE058695D7
:1013900086958F5F8B3008F081E00E94FB060895F0
:1013A00080933A018091AE058370809339010E9449
:1013B000FA1483E080934201089522E8241B08F484
:1013C00020E0620F08954095282F429F412D11245F
:1013D000842F0895E42FF0E0EE0FFF1FEA5EFD4F2B
:1013E0009081921B97FD9195292F38E1239F212D04
:1013F0001124620F0895322F50E0FA01EE0FFF1F03
:10140000E652FE4F95AD905297FD9195440F551FB2
:10141000FA01EA5EFD4F2081231B330B290F311D9A
:1014200097FD3A95620F08950E9488150895FF92DE
:101430000F931F93CF93DF93182F062FF42ED0E036
:10144000C0E02F2D402F612FCE010E94140A21965B
:10145000CA34D105B1F7CDB7DEB7E5E00C942C2F37
:101460000F931F93522F10E0F801EE0FFF1FE6526B
:10147000FE4FA5ADA052BB0B9D015203F001539F3F
:10148000F00D1124000F111FD801AA5EBD4F0C9161
:101490000057110B40039001419F300D11242E0F76
:1014A0003F1F37FF02C0215C3F4F96E035952795DF
:1014B0009A95E1F7620F1F910F910895E82F86FD2D
:1014C000E0952E2F2F7086FD2F5FE695E695E69529
:1014D000E670F0E0EE52FE4F9181929F902D212D0B
:1014E000112492959F702295207F922B2081920F3C
:1014F00087FD919580E8890F089530E020E0869F70
:10150000212D969F200D311D1124C9010895AF9200
:10151000BF92CF92DF92FF920F931F93CF93DF93EF
:10152000362F472FE82FF0E0E555FA4F71110FC025
:10153000E4918E2F2E2F6E2F722FDF91CF911F915E
:101540000F91FF90DF90CF90BF90AF900895C72F7D
:10155000D0E02491F22E022F10E056E0659FC001EA
:101560001124EFEFF0E0BF010E94EF2E832F90E0F7
:10157000880F991F35E5369FD001379FB00D112494
:101580008A1B9B0B982F990F980F6F01CC1ADD0ABD
:10159000C09ED001C19EB00DD09EB00D11248B2FE6
:1015A000499FA0011124452F55276F01C41AD50A60
:1015B000C09EA001C19E500DD09E500D11245F0110
:1015C000A91AB108AC9E6001AD9ED00CBC9ED00C97
:1015D0001124CD2CDD24EC19FD09E09FE001E19FF1
:1015E000D00DF09FD00D1124ED2F62307105A1F0C8
:1015F00050F46115710509F49ECF6130710581F0D9
:10160000EB2F852F98CF6430710569F080F066303C
:10161000710509F490CFF4CFE22F2B2F8D2F8BCFB4
:10162000E22F252F88CFEB2F822F2D2F84CF2B2F2A
:101630008F2DE52F80CF80E00895F894E82FE29574
:10164000EF70F0E031A1282F2F7081E090E001C011
:10165000880F2A95EAF7982F9095932391A392A14A
:10166000892B82A3789408959091740392FF06C009
:10167000282F28712830F9F4877F846093FF06C0F3
:10168000282F28712831F1F4877E84612091750319
:1016900020FF06C0382F38713830D9F4877F816039
:1016A00021FF06C0282F28712831D1F4877E81615F
:1016B00094FD877E0895282F24712430F9F68B7FBE
:1016C0008860DCCF282F2471243101F78B7E88615C
:1016D000DDCF382F3171313019F78E7F8860E0CF40
:1016E000282F2171213121F78E7E8861E1CF823848
:1016F0009105B9F1B0F48133910509F47DC048F446
:101700008932910509F46DC08A32910509F47BC0D4
:1017100008958533910509F45FC08933910509F176
:101720000895833E9105D9F138F4803E910529F161
:10173000823E910579F10895863E9105D9F1873E63
:10174000910509F43EC0843E910541F52091750351
:1017500021FF24C08091740384FD19C087EE90E0BE
:10176000089520917403237009F05AC020917503E5
:1017700023FF14C089E290E008952091740320FDB6
:1017800038C03091750330FF09C024FF43C090E09A
:1017900080E008952091740322FDF7CF08952091F1
:1017A000740322FD3AC03091750330FD39C024FF27
:1017B000F5CFEDCF2091740323FFF0CF24FDE7CFC9
:1017C000CDCF2091740323FD2EC03091750331FFDE
:1017D000EECF84EE90E008952091740325FFDECFD4
:1017E000C9CF2091740325FD21C02091750323FFEB
:1017F000D5CF89E390E0D2CF2091740326FFCECFDE
:101800008AE290E008952091740326FFC7CF81E318
:1018100090E0089583EE90E0089582EE90E00895C0
:1018200080EE90E0089586EE90E0089585E390E0E4
:101830000895972F7A30B8F46630A8F48530B0F464
:1018400070E026E0929F600D711D1124FB019CE366
:10185000899FE00DF11D1124EE0FFF1FE45AFE4F8A
:1018600085919491089580E090E0089581E0FCCF07
:101870001F93CF93DF930E94770BEC01C11580E596
:10188000D807F0F5C11580E4D80708F09CC0C03E29
:10189000D10520F5CD3CD10508F082C0C83AD1056C
:1018A00078F4C53AD10508F073C0C130D10519F1FB
:1018B000209709F1C430D105F0F4D0E0C0E01BC09E
:1018C000C33CD105D0F7C85AD0E0CC0FDD1FC957B3
:1018D000DE4F0990D881C02DD4640DC0C11580E2BF
:1018E000D80708F0D1C0C11581E0D80708F05AC068
:1018F000C83ED10510F7CE01DF91CF911F91089519
:10190000C03682E5D80718F5C03482E5D80708F05C
:101910006BC0C03282E5D80708F05FC0C11582E510
:10192000D80708F497C02C2F2695269580E2289F8B
:10193000900111248C2F8370C1E0D0E002C0CC0F45
:10194000DD1F8A95E2F7C22BD32BDD68D4CFC03AD6
:1019500082E5D80760F4C03882E5D80708F459C09A
:10196000CF71D0E0DC2FCC27C46FD06AC4CFC03C8D
:1019700082E5D80708F462C0C03E82E5D80708F0C7
:101980009CCFDC2FCC27CC27DF71C06FD06AB3CFC0
:10199000C55AD0E0CC57DE4FC881D0E0D064ABCF81
:1019A000D065A9CF8D2F0E94340B182FCE01992717
:1019B0000E94770BC12FD0E0DC2FCC27CC27DF7122
:1019C000C82BD92B98CFCE0199270E94770BCC2713
:1019D000DF70C82BD92BD06A8ECFCF71D0E0DC2F2F
:1019E000CC27C16FD06A87CF2C2F269526952770DC
:1019F00080E2289F900111248C2F8370C1E0D0E0F9
:101A000002C0CC0FDD1F8A95E2F7C22BD32BDC6816
:101A100072CF2C2F26952695277080E2289F900163
:101A200011248C2F8370C1E0D0E002C0CC0FDD1FE9
:101A30008A95E2F7C22BD32BDA685DCF8C2F8F719A
:101A40000E94340BC82FD0E0DC2FCC27CC27DF71CD
:101A5000D06251CF8C2F8F710E94340B55E0D695F8
:101A6000C7955A95E1F7CF70D0E0DC2FCC27282F0F
:101A700030E084FF05C044E0220F331F4A95E1F7B0
:101A8000C22BD32BD06937CF8D2F8F710E94340B8F
:101A9000182FCE0199270E94770BC12FD0E0DC2FA1
:101AA000CC27CC27DF71C82BD92BD2CF90917503CF
:101AB00092FF05C090912703981380932703089500
:101AC000809590912B05982390932B0508958091F4
:101AD0007B0590914205981301C008958F5F877030
:101AE000FACFCF92DF92FF920F931F93CF93DF93A2
:101AF0006C010091BF0380912803082BC7E0D0E060
:101B000010E0FC2EC8010C2E02C0959587950A9412
:101B1000E2F780FD0CC02197A0F7F12C8F2DDF910B
:101B2000CF911F910F91FF90DF90CF900895B60154
:101B30008C2F0E94190C0E94380C019761F3EECF94
:101B4000CF93DF93EC010E94710DBE010E94190C2E
:101B50000E94380CDF91CF910895292F9A3078F5A3
:101B6000863068F590E036E0239F800D911D1124AA
:101B7000682F677023E0969587952A95E1F7FC0119
:101B8000EE0FFF1FE80FF91FE150FD4F50E040E05E
:101B900080E0219130E0062E02C0369527950A9408
:101BA000E2F721703327042E01C0220F0A94EAF7CE
:101BB000822B4F5F5F4F4330510559F7089580E006
:101BC0000895292F9A3098F5863088F590E036E010
:101BD000239F800D911D1124282F277041E001C003
:101BE000440F2A95EAF723E0969587952A95E1F721
:101BF000FC01EE0FFF1FE80FF91FE150FD4F30E031
:101C000020E070E05191DF011197CB01022E02C05C
:101C1000969587950A94E2F78170819585278423AC
:101C200085278C932F5F3F4F2330310559F7089557
:101C30008093BF0308959091BF0321E030E0F90144
:101C400001C0EE0F8A95EAF7D90102C0AA0FBB1FA7
:101C50006A95E2F7EA2B01C0220F4A95EAF7892F2D
:101C60008E23E81305C0292B822F0E94180E089599
:101C700020952923F9CF21E030E001C0220F8A9579
:101C8000EAF720958091BF0382230E94180E0895E1
:101C900090911E038095892380931E03282F27701F
:101CA00069F4891759F09091750392FF07C08695E2
:101CB000869586950E943B0E10921E03089521E0A2
:101CC00030E001C0220F8A95EAF78091BF03822B92
:101CD0000E94180E0895809328030895FC01248122
:101CE0002223C1F0808191810E94A00D92959F7066
:101CF000963091F058F4925F9F70923058F4803F84
:101D000019F030F4883E30F481E008959A5FF4CF02
:101D1000843FD1F380E00895883EB0F3813FD1F74E
:101D2000F3CF982F92959F7011F0892F94E0282F70
:101D30002695269511F09E5F822F869509F09F5F6C
:101D4000892F0895A6E0B0E0E8EAFEE00C94122F97
:101D500049835A8349815A819923A1F0222391F022
:101D6000CA010E94710D182F682F89819A810E94E3
:101D7000E10D69817A81812F0E94190C2696E3E09A
:101D80000C942E2FCA010E94AD0D182FF2CF9C018A
:101D90003A9521153F4150F5FC01EE27F170BC0149
:101DA00066277270AC01442754709C01222738705A
:101DB00094FF0EC080E1EF2B09F480E0672B09F05F
:101DC0008062452B09F08064232B89F08068089598
:101DD00081E0EF2B09F480E0672B09F08260452B4E
:101DE00009F08460232B19F08860089580E008953D
:101DF000CF93DF93682F81E06A3019F06D3031F4B2
:101E000080E00E94860FDF91CF9108958091C607F0
:101E10009091C70726E0FC01A0ECB7E001900D927D
:101E20002A95E1F7603E08F458C026E0FC011192C3
:101E30002A95E9F7C091C607D091C70746E050E060
:101E4000BE0180EC97E00E94962F9E01205C3540F9
:101E5000892B41F1C90145E0969587954A95E1F7AF
:101E600041E050E0BA0102C0660F771F8A95E2F7A1
:101E7000CB016091BE057091BF05862B972BB901F0
:101E80006B5F7F4FE5E076956795EA95E1F702C0D5
:101E9000440F551F6A95E2F7842B952B9093BF054D
:101EA0008093BE052A5F3F4F4091BD05642F70E0CF
:101EB000C9010E94EF2E481B463010F4240F311D3B
:101EC000211572E0370710F030E020E020543A4F3F
:101ED0003093C7072093C60796CFF6E06F9FB001F7
:101EE00011246855784F46E050E00E948D2FA2CF14
:101EF000CF93DF93EC01FE018491811103C0DF9148
:101F0000CF9108950E94F80E2196F5CFCF93382FE8
:101F1000E091C607F091C707E05CF5402091BD0550
:101F2000622F70E0CF010E94EF2E281B822F3323F7
:101F300061F066E00E943A2FC82FC15010F4CF9193
:101F4000089580E20E94F80EF8CF9F01280F311DFE
:101F50002115324018F080E0F0E0E0E08E0F9F2F76
:101F6000911D80549A4F9093C7078093C607E7CF7F
:101F70000E94780F81E00E94860F089580912B05C2
:101F80009091A905892B8093F602909127039923BC
:101F900091F0892B8093F60220E088EF92E0FC011B
:101FA0003191CF0131112F5FF2E08E3F9F07B9F7DA
:101FB00021111092270348E050E06FE173E086EFB3
:101FC00092E00E94962F892BA9F088E0E6EFF2E0DC
:101FD000AFE1B3E001900D928A95E1F7E091210520
:101FE000F0912205309731F00280F381E02D86EFE9
:101FF00092E00995089580913D01877F80933D018E
:102000009091A9059D7F9093A90584FF08C08F7EBC
:1020100080933D0180912B05826080932B058091F8
:102020003D0185FF08C08F7D80933D0180912B0588
:10203000806280932B050E94BE0F0895E8EFF2E0C6
:1020400086E0DF011D928A95E9F790E080E00E942A
:10205000EC0890E080E00E94C7081092A9050E9459
:10206000BE0F0895AAE2B0E0E8E3F0E10C94122F6D
:102070008AE395E02091F100FC012193CF01F5E086
:1020800082349F07B9F780913B05833009F470C013
:10209000B8F4813009F447C0823009F4B3C08091AC
:1020A000E80083FF80C280913A0590913B059A3009
:1020B00008F079C2E92FF0E0E050F04D0C94872F42
:1020C0008A3009F48EC08B3009F46FC0893039F73B
:1020D00080913A05813219F780913E0590913F0534
:1020E0000297E8F68091E800877F8093E80080916E
:1020F000E80082FF38C09091F3008091F2000297CF
:1021000031F48091F100813011F0863021F480911A
:10211000F10080932D058091E8008B778093E80093
:102120000E94AD07BCCF80913A05813A09F0B7CF44
:102130008091E800877F8093E80080913E05909130
:102140003F05892B61F468E08EE295E070E00E9423
:1021500059088091E8008B778093E800A0CF60E079
:1021600090E080E0F3CF809138058111C0CF97CF08
:1021700080913A05813A09F092CF80913E05909185
:102180003F05892B09F08BCF8091E800877F8093F2
:10219000E8008091E80080FFFCCF80913E018093B1
:1021A000F1008091E8008E77B9CF80913A058132B5
:1021B00009F075CF80913E0590913F05892B09F07C
:1021C0006ECF8091E800877F8093E8000E94AD0782
:1021D00080913C0580933E0110922B050E941E10B9
:1021E0005ECF80913A05813209F059CF8091E800A5
:1021F000877F8093E8000E94AD0780913D05809322
:102200002C054DCF80913A05813A09F048CF809155
:10221000E800877F8093E8008091E80080FFFCCF92
:1022200080912C05BCCF803899F0823809F0BBC171
:1022300080913E058F70873008F0B5C18093E9002A
:102240008091EB0085FB882780F91092E90006C099
:102250008091360590913705911182609091E80048
:10226000977F9093E8008093F1001092F1008091A5
:10227000E8008E7794C1882309F482C1823009F086
:1022800092C180913C05811185C180913E058F707E
:102290002FEF280F263008F086C18093E9002091A7
:1022A000EB0020FF77C1933031F48091EB00806226
:1022B0008093EB006FC19091EB0090619093EB00E5
:1022C00021E030E001C0220F8A95EAF72093EA006E
:1022D0001092EA008091EB008860EACF811163C11F
:1022E00010913C051F778091E3008078812B8093CB
:1022F000E3008091E800877F8093E8000E94AD07AB
:102300008091E80080FFFCCF8091E300806880939B
:10231000E30082E0111183E08093380544C18058C6
:10232000823008F040C180913C0590913D058C3D84
:1023300023E09207A1F583E08A838AE289834FB77D
:10234000F894DE01139620E03EE051E2E32FF0E046
:1023500050935700E49120FF03C0E295EF703F5F78
:10236000EF708E2F90E0EA30C0F0C7968D939D936A
:102370002F5F243159F74FBF8091E800877F80930A
:10238000E8006AE270E0CE0101960E94590880914F
:10239000E8008B778093E80006C1C096E7CF4091B4
:1023A0003E0550913F05292F33272330310509F48D
:1023B00044C078F52130310509F46FC08BE390E01B
:1023C000E1E2F7E02230310509F0EDC02091E800AC
:1023D000277F2093E8002091400530914105821726
:1023E000930708F49C0140E02115310509F064C011
:1023F000411162C08091E80082FDC9CF809138050B
:10240000882329F2853019F28091E80083FFF2CF0A
:10241000BECF21323105A9F12232310509F0C3C006
:102420004115510509F443C04130510509F0BBC0C5
:1024300082E390E0EFEAF6E0C9CF99278130910579
:10244000C1F0009759F0029709F0ADC0EEE6F7E051
:10245000E4918E2F90E0EEE6F7E007C0E4EAF7E0C3
:10246000E4918E2F90E0E4EAF7E0009709F49BC036
:10247000ADCFE6E8F7E0E4918E2F90E0E6E8F7E0F4
:10248000F4CF4115510571F04130510509F08BC071
:1024900089E090E0ECE4F7E099CF82E190E0ECE5B0
:1024A000F7E094CF89E090E0E3E3F7E08FCF80E4BA
:1024B00090E0E1EEF6E08ACF80913805882309F4B8
:1024C00066CF853009F463CF8091E80083FD5FCF4C
:1024D0008091E80082FD8ECF8091E80080FF84CF5C
:1024E0009091F3008091F2002115310519F08830A8
:1024F000910550F041E0089709F040E08091E80034
:102500008E778093E80070CF44914093F10031962C
:10251000215031090196E8CF803809F044C08091FC
:10252000E800877F8093E800809139058093F1006F
:102530009ECE811138C010913C051230A0F58091DB
:10254000E800877F8093E800109339050E94AD076B
:10255000112311F084E005C08091E30087FDFACFDC
:1025600081E08093380542E061EC81E00E94CC0775
:1025700042E261EC82E00E94CC078091380513C0F2
:1025800080913C05813079F481E0933009F080E05E
:10259000809337051092E9008091E800877F80934F
:1025A000E8000E94AD078091E80083FF0AC0809197
:1025B000E800877F8093E8008091EB008062809341
:1025C000EB00AA96E3E00C942E2F882341F080952F
:1025D0009091A90589238093A9050E94BE0F0895B3
:1025E000882339F09091A905982B9093A9050E9412
:1025F000BE0F0895882321F00E94600D0E94BE0F37
:102600000895882339F090912B05982B90932B05F2
:102610000E94BE0F0895882391F19CEF980F913A84
:1026200080F4E8EFF2E02EEF32E09191891303C0DD
:10263000DF0111971C922E173F07B9F70E94BE0FBA
:10264000089590E2980F983050F4877091E001C09F
:10265000990F8A95EAF7892F0E94600DEFCF9BE5CD
:10266000980F933028F490E080E00E94EC080895E1
:10267000885A8B3120F490E080E00E94C7080895CA
:10268000CF93DF93EC010E940B13CE010E94C70E83
:102690009E01205E31092830310510F0CD2B29F440
:1026A0000E94FA12DF91CF9108950E94E512FACFAD
:1026B0000F931F93CF93C82F882349F18CEF8C0F72
:1026C000813AB8F508EF12E08EEF92E0F80121911F
:1026D000C21709F122E0EE3FF207C9F7EFEF80E001
:1026E000D8019D918D01C91781F0EF3F19F4911127
:1026F00001C0E82F8F5F863099F7EF3F31F00E2E43
:10270000000CFF0BEA50FD4FC2830E94BE0FCF9119
:102710001F910F910895E8EFF2E02191C21303C0D9
:10272000DF0111971C928E179F07B9F70E94BE0F09
:10273000D5CF80E28C0F883068F4C77021E030E09C
:1027400001C0220FCA95EAF780912B05822B809356
:102750002B05DBCFEBE5EC0FE33040F4F0E0EC577A
:10276000FE4F808190E00E94EC08D1CFC85ACB3157
:1027700070F6EC2FF0E0EE0FFF1FE957FE4F80815F
:1027800091810E94C708C3CFCF93DF93EC016623EA
:1027900029F08091A90582608093A905CE0190520D
:1027A0008115904308F4DD27CE010E94C70E9E01DB
:1027B000205E31092830310510F0209741F40E9445
:1027C00001138C2F0E945813DF91CF9108950E941E
:1027D000F012F7CFB0E0A0E0E0EFF3E10C940D2FA2
:1027E0006C018B01E42E80913D0182FF7AC0C09183
:1027F0001D05D0911E05CC15DD0521F0C114D104B5
:1028000009F06FC080913D018B7F80933D0181FD78
:1028100061C080911B0590911C05A801481B590BB4
:1028200081E020913B0130913C014217530708F4AD
:1028300080E08170F82E80913D01F0FA81F980935B
:102840003D01FE0183E0F695E7958A95E1F7EE718B
:10285000FF27E550FB4F20813181AE014F70552796
:1028600081E090E002C0880F991F4A95E2F7FF20AF
:1028700099F1822B932B9183808380912B0581FF8B
:1028800008C080913D01806180933D0182E00E94FB
:10289000600D80912B0585FF08C080913D0180620D
:1028A00080933D0180E20E94600D6F2DCE010E9459
:1028B000C413E1102AC080911D0590911E059C0152
:1028C00030522115304308F499270E9440130E948A
:1028D000FB0F17C081E0ADCF8095909582239323A5
:1028E000CACFC601905281159043A0F4C601992722
:1028F0000E94401380911D0590911E058C159D0529
:1029000031F310931C0500931B05CDB7DEB7E8E04B
:102910000C94292FC601ECCF0F931F93CF93DF9315
:10292000EC01FC0101900020E9F78F010150110931
:10293000C017D10728F0DF91CF911F910F91089513
:1029400089910E94F80EF4CF0F931F93CF93DF93DA
:102950008B01EA0190913805943061F58093E9008C
:102960008FEF9091E800815095FD06C095ED9A9506
:10297000F1F700008111F5CF8091E80085FF1AC0C2
:102980000E947C07811111C08091E80085FD06C07E
:102990008091E8008E778093E800F2CFF801819172
:1029A0008F018093F100219779F78091E8008E776D
:1029B0008093E800DF91CF911F910F91089543E03C
:1029C00050E0BC0182E00E94A4140895CF93DF93ED
:1029D000EC0148E050E0BC0181E00E94A41488E0D2
:1029E000FE01AEE2B5E001900D928A95E1F7DF912C
:1029F000CF910895539A3BB1377F2BB128604FB7E1
:102A0000F89487E194E0FC015191CF0168E02BB983
:102A1000000000C057FF3BB9550F000000C000C0C8
:102A200000C03BB900C06A9591F7F4E0853F9F076D
:102A300051F74FBF8FE594E00197F1F700C0000018
:102A40000895B0E0A0E0E7E2F5E10C940B2F7C01E3
:102A50005B016A018091630301E010E08A3010F4A9
:102A60000AE010E0C1E0D0E0B501C701F601099528
:102A7000811104C021960C171D072CF4CDB7DEB7C9
:102A8000EAE00C94272FCC9F9001CD9F300D300DA4
:102A9000112490E080E045E34A95F1F700000196AB
:102AA00082179307C1F7E0CF80913503811110C0E1
:102AB0008091D80080618093D8008AE18A95F1F7EF
:102AC00000C08091D90080FF0AC081E08093350367
:102AD00081E090913503913009F080E0089582E023
:102AE000809335030E945D0710923805F1CF0E9454
:102AF0005415882359F0E0912105F0912205309773
:102B000029F00190F081E02D0995089580E0089565
:102B1000FF920F931F93CF93DF93EC01F62E042FB8
:102B2000122F0E94541581110FC0C532D1057CF0BF
:102B3000A597FE01EE0FFF1FEC0FFD1FE95EFB4F97
:102B4000F1820083128303C0C532D10594F3CDB75F
:102B5000DEB7E5E00C942C2FCF93C82F0E945415BC
:102B6000882329F081E0C53228F080E003C081E0AD
:102B7000CA34D8F7CF910895B0E0A0E0E2ECF5E1D7
:102B80000C940D2F7C01C0913F018FE0C89FC02D98
:102B900011241FE01C0F1B3408F01AE40E94541586
:102BA000882319F0163208F015E20E94541581119D
:102BB00003C0C53208F4C5E22091B20531E0230F0D
:102BC00008F42FEF30E050E040E06FEF7FEF80E05F
:102BD00090E00E94682F6901D0E001E02C2FC1171E
:102BE00040F0812F0E94AC15CDB7DEB7E8E00C9421
:102BF000292FFE01E655FD4F8081909140018923E8
:102C000009F1409180054150042E000C550B47FFFF
:102C10001BC0C6016091B205600F08F46FEF0E94FF
:102C20007D0AAC016091AF057091B0058091B1054E
:102C3000F70109950E94870A462F282F672FCE019A
:102C40000E94140A2196CACFFA01E058FA4F8189EE
:102C500082130AC0FA01EE0FFF1FE058FA4F818D70
:102C6000928D8C159D05B0F241505109D0CFEF9255
:102C7000FF920F931F93CF93DF937C01C0913F018D
:102C80008FE0C89FC02D11241FE01C0F1B3408F0DB
:102C90001AE40E945415882319F0163208F015E240
:102CA0000E945415811103C0C53208F4C5E2609139
:102CB000B2056695669521E0620F08F46FEF80918A
:102CC0007C0590917D050E947D0A082FD0E0C117F8
:102CD00040F0812F0E94AC15CDB7DEB7E6E00C9432
:102CE0002B2FFE01E655FD4F8081909140018923F5
:102CF00091F06091AF057091B0058091B105202FE2
:102D00004C2FF70109950E94870A462F282F672F1D
:102D1000CE010E94140A2196DACFB0E0A0E0E3E9E8
:102D2000F6E10C940B2F182F80913A01811323C0E8
:102D30009091AE0593702091390130E081E09217B7
:102D4000130609F480E08170809341018091B305FE
:102D500090914001981739F08093400140E060E085
:102D600080E00E94170A1B3088F4E12FF0E0E65F54
:102D7000FF4C0C94872F81E0E6CF8091410188239E
:102D800089F140E060E080E00E94170A80E02AC0FC
:102D9000C0913F018FE0C89FC02D11240FE00C0FA0
:102DA0000B3408F00AE40E945415882319F0063207
:102DB00008F005E20E945415811103C0C53208F4E1
:102DC000C5E26091AF057091B0058091B1050E9498
:102DD000870AF62EE72ED82ED0E0C017D8F0802F25
:102DE0000E94AC1590913F019F5F90933F0181112C
:102DF0000CC082E08093420180914101811105C0A5
:102E0000111103C083E080934201CDB7DEB7EAE041
:102E10000C94272FFE01E655FD4F808190914001D3
:102E2000892331F02D2D4F2D6E2DCE010E94140AD5
:102E30002196D3CFC0913F018FE0C89FC02D1124B0
:102E40000FE00C0F0B3408F00AE40E94541588239D
:102E500019F0063208F005E20E945415811103C0F2
:102E6000C53208F4C5E2E090B005F090B105D0910C
:102E7000AF056D2F7E2D8F2D0E94870AD62EC72E6F
:102E8000B82E6091B2056D0F7E2D8F2D0E94870A9E
:102E9000F62EE72EA82ED0E0C01708F0A0CFFE0136
:102EA000E655FD4F908180914001892359F02A2DEC
:102EB0004F2D6E2D90FD03C02B2D4D2D6C2DCE0171
:102EC0000E94140A2196E8CFC0913F018FE0C89F6D
:102ED000C02D11240FE00C0F0B3408F00AE40E94FF
:102EE0005415882319F0063208F005E20E945415A3
:102EF000811103C0C53208F4C5E2E090B005D0905E
:102F0000B1052091B205B0E4FB2E3F2D329F312D4B
:102F10001124F32ED0E0C01708F061CFFE01E65572
:102F2000FD4F8081909140018923B9F0FE01EE0FA1
:102F3000FF1FE652FE4F85AD82958F706091AF0501
:102F40008F9D600D11247E2D8D2D0E94870A462FA6
:102F5000282F672FCE010E94140A2196DCCFC09142
:102F60003F018FE0C89FC02D11240FE00C0F0B34E0
:102F700008F00AE40E945415882319F0063208F07C
:102F800005E20E945415811103C0C53208F4C5E260
:102F9000D090B005E090B1052091B205F0E4FF2E8D
:102FA0003F2D329F312D1124F32ED0E0C01708F0B1
:102FB00016CFFE01E655FD4F808190914001892397
:102FC000D9F0FE01EE0FFF1FE652FE4F64ADF69EF4
:102FD000B0011124E5E075956795EA95E1F78091D8
:102FE000AF05680F7D2D8E2D0E94870A462F282F52
:102FF000672FCE010E94140A2196D8CFC0913F01BD
:103000008FE0C89FC02D11240FE00C0F0B3408F087
:103010000AE40E945415882319F0063208F005E2EC
:103020000E945415811103C0C53208F4C5E2F09026
:10303000AF05D091B005E090B1056091B2056695FD
:103040006695669580917C0590917D050E947D0A2C
:103050000E945E0A805887FD8195880F282F3E2D9B
:10306000239F212D1124822F6F2D7D2F0E94870AEF
:10307000F62EE72ED82ED0E0C01708F0B0CEFE0115
:10308000E655FD4F808190914001892331F02D2D2F
:103090004F2D6E2DCE010E94140A2196EDCF8BEF9D
:1030A00099E00E9437169ECEC0913F018FE0C89FE5
:1030B000C02D11245FE0F52EFC0E2AE42F1510F42C
:1030C0004AE4F42E0E945415882329F035E23F1576
:1030D00010F435E2F32E0E945415811103C0C5325D
:1030E00008F4C5E26091B2056695669580917C050D
:1030F00090917D050E947D0AD82E80E48D0D0E945E
:103100005E0A90E8C92EC80E8D2D0E945E0A20E846
:10311000B22EB80ED0E0CF1510F08F2D61CEFE018B
:10312000E655FD4F8081909140018923A1F0609187
:10313000AF057091B0058091B105ED2C0C2F2B2DB2
:103140004C2D0E94300A0E94870A462F282F672F95
:10315000CE010E94140A2196DECF8AEE99E0A1CF1B
:1031600083EE99E00E94BC153DCE8DED99E0FACF3B
:103170000F931F930E945415882329F00E94BB08C7
:103180001F910F9108950E94BB0800916403109154
:1031900065032091660330916703600F711F821FE2
:1031A000931FEECFCF92DF92EF92FF926B017C01E3
:1031B0000E9454158823A1F02FB7F894609126053A
:1031C0007091270580912805909129052FBF6C19D2
:1031D0007D098E099F09FF90EF90DF90CF900895B1
:1031E0000E94B818F4CF1F93CF93DF93182FD0E02D
:1031F000C0E0893311F4C0E5D0E0812F0E9458135C
:10320000209739F4812F0E940B13DF91CF911F91EA
:1032100008958FE99FE00197F1F700C00000219722
:10322000EFCF10922B050E941E102FEF84E39CE03D
:10323000215080409040E1F700C0000088E19CE010
:103240000FB6F894A895809360000FBE909360002D
:10325000FFCFB0E0A0E0EFE2F9E10C940D2F6C019C
:103260007B0164E670E088E70E944D2C8C01E6014A
:10327000EC0CFD1C17FD0BC0FE01849164E670E0B0
:103280000E94B92C8C012196CE15DF0599F70E947A
:103290002F2D81E00115110509F080E0CDB7DEB7D3
:1032A000E8E00C94292F8091F9049091FA0491118F
:1032B00003C091E089270895882369F062E070E0F7
:1032C0008DEA96E00E942919811103C08091F904CA
:1032D00008951092F9048091F904EBCFCF93C09137
:1032E000F9048091FA048823D1F00E94BB08605A47
:1032F00075418F4F9F4F6093F5047093F604809350
:10330000F7049093F804C11108C062E070E08BEA02
:1033100096E00E942919811105C0C091F9048C2FF3
:10332000CF91089581E08093F904F7CF4F925F9297
:103330006F927F928F929F92AF92BF92CF92DF92C5
:10334000EF92FF92CF9360911204709113048091D9
:103350001404909115040E94D2186B017C010E9404
:10336000B8184B015C018092120490921304A09251
:103370001404B0921504A091E903E9EEF3E08A2F5A
:1033800090E04FEF5FEF60E070E04C195D096E096F
:103390007F09A9132AC08093E90380911604C0E035
:1033A000811108C08091AE05C82FC37019F0C82FD5
:1033B000C695C69580914201813009F440C08823AA
:1033C00039F1823009F445C0833009F446C0CF9109
:1033D000FF90EF90DF90CF90BF90AF909F908F9035
:1033E0007F906F905F904F900895218D328D2901CD
:1033F000712C612C441555056605770520F4815024
:103400009F5F3296C6CF2C0D3D1D328F218FF8CF96
:1034100010923F0180927C0590927D05A0927E05DE
:10342000B0927F0589E2E9EEF3E0A0E8B5E0019013
:103430000D928A95E1F781E080934201C8CF8C2FED
:103440000E948D16CC2319F20E9454150E94541527
:10345000BECF8C2F0E94D009BACF8091AD058823B2
:1034600051F048E050E068E170E08EEA95E00E949B
:10347000CA2F1092AD0560917C0570917D058091F9
:103480007E0590917F050E94D218603171058105FB
:10349000910508F49CCF1092420199CFEEEAF5E035
:1034A00085E080838091450190914601A09147017C
:1034B00081839283A3838FE784838FEF858348E0A2
:1034C00050E068E170E0CF010E94CA2F1092AD0574
:1034D0000895A4E0B0E0EFE6FAE10C94122F4091D9
:1034E0005B0350915C0360915D0370915E032FB7A5
:1034F000F8948091260590912705A0912805B09118
:1035000029052FBF841B950BA60BB70B11E0843642
:103510009105A105B10570F10E94B8186E5F7F4F4B
:103520008F4F9F4F69837A838B839C83809119018E
:1035300090911A018D5B9C4F4091180150E04530ED
:10354000510510F044E050E0BE016F5F7F4F0E94D4
:10355000A32F83E090E00E94792E182F882351F04A
:103560000E94BB0860935B0370935C0380935D03D0
:1035700090935E03812F2496E3E00C942E2FEF921C
:10358000FF921F93CF93DF9300D000D000D0CDB730
:10359000DEB77B0190E080E00E94792E182F88230F
:1035A00009F480C04091030150E04115510511F02C
:1035B00041E050E060910401709105016D5B7C4F2A
:1035C000CE0106960E94A32F40913B0350913C03ED
:1035D00060913D0370913E032FB7F89480912605CA
:1035E00090912705A0912805B09129052FBF841B34
:1035F000950BA60BB70B84369105A105B10540F4D8
:1036000084E493E00E9433079E81891709F44AC03D
:1036100081E090E00E94792E811116C010E085E0D3
:10362000E6E3F3E0D70101900D928A95E1F7812F4F
:1036300026960FB6F894DEBF0FBECDBFDF91CF91B7
:103640001F91FF90EF90089540910B0150E046309C
:10365000510510F045E050E060910C0170910D01B2
:103660006D5B7C4FCE0101960E94A32F84E493E012
:103670000E9433079E818913D1CF0E94BB086093BB
:103680003B0370933C0380933D0390933E0385E09E
:10369000FE013196A6E3B3E001900D928A95E1F721
:1036A00011E0BDCF85E0E4E4F3E0DE011196019086
:1036B0000D928A95E1F71111EACFB1CF4F925F9247
:1036C0006F927F928F929F92AF92BF92EF92FF92F2
:1036D0000F931F93CF93DF937B01FB0140805180B9
:1036E000628073809FB7F89480902605909027059C
:1036F000A0902805B09029059FBF84189508A608BA
:10370000B708F4E68F169104A104B10418F4C1E0DF
:10371000442329F1C82F880FDD0BFE0183E0EE0F53
:10372000FF1F8A95E1F7E050FF4F818192818D5B09
:103730009C4F408150E00417150708F4A801B90117
:103740000E94A32FCE010E94792EC82F882339F022
:103750000E94BB08F70160837183828393838C2F5F
:10376000DF91CF911F910F91FF90EF90BF90AF909D
:103770009F908F907F906F905F904F900895A9E0F9
:10378000B0E0E5ECFBE10C94112F88E0EEEAF5E007
:10379000DE01119601900D928A95E1F78091160451
:1037A000898749E050E062E573E0CE0101960E940E
:1037B000962F41E0892B09F440E009E010E09E01DA
:1037C0002F5F3F4F6FE573E084E00E945E1B2996F8
:1037D000E4E00C942D2F0F931F93CF93DF93EC0114
:1037E00045E050E069E473E00E94962F41E0892BA8
:1037F00009F440E005E010E09E016FE373E082E031
:103800000E945E1BDF91CF911F910F910895A8E058
:10381000B0E0EDE0FCE10C94132F66EE7EEF90E05B
:1038200080E00E94F82F60E082E090E00E94DA2FB2
:1038300060E083E090E00E94DA2F1092280360E0BD
:1038400074E184E090E00E94F82F60E086E090E070
:103850000E94DA2F6FEF87E090E00E94DA2F40E0BD
:1038600050E0BA0188E090E00E94EC2F60E084E232
:1038700090E00E94DA2F60E087E190E00E94DA2F6A
:1038800060E08CE090E00E94DA2F60E08DE090E054
:103890000E94DA2F19821A821B821C821D821E82CC
:1038A0001F82188648E050E068E170E0CE01019682
:1038B0000E94CA2F40E050E0BA0180E290E00E94EE
:1038C000EC2F40E050E0BA018FE090E00E94EC2F36
:1038D00040E050E0BA0183E190E00E94EC2F28968E
:1038E000E2E00C942F2F9091750392FB222720F990
:1038F000281779F080FB92F9909375036091740317
:103900007091750384E090E00E94F82F82E00E949D
:10391000480E08951F920F920FB60F9211242F9305
:103920003F934F935F936F937F938F939F93AF9347
:10393000BF93CF93DF93EF93FF93D091E900DF70B4
:103940008091EC00C82FC17080FDC0E81092E900A2
:103950008091F000877F8093F00078940E9432106D
:103960001092E9008091F00088608093F000CD2BE8
:10397000CF70C093E900FF91EF91DF91CF91BF919C
:10398000AF919F918F917F916F915F914F913F91F7
:103990002F910F900FBE0F901F9018951F920F92AE
:1039A0000FB60F9211242F933F934F935F936F9312
:1039B0007F938F939F93AF93BF93EF93FF938091E8
:1039C000E10082FF09C08091E20082FF05C0809182
:1039D000E1008B7F8093E1008091DA0080FF24C0BA
:1039E0008091D80080FF20C08091DA008E7F809384
:1039F000DA008091D90080FF9DC080E189BD82E11D
:103A000089BD09B400FEFDCF81E080933805809127
:103A10002A05811109C00E945D070E94FE0780915E
:103A2000E20084608093E2008091E10080FF17C093
:103A30008091E20080FF13C08091E2008E7F80932E
:103A4000E2008091E20080618093E2008091D800E2
:103A500080628093D80019BC85E0809338058091FE
:103A6000E10084FF2BC08091E20084FF27C080E149
:103A700089BD82E189BD89B5982F917080FFFBCF08
:103A80008091D8008F7D8093D8008091E1008F7E57
:103A90008093E1008091E2008F7E8093E20080912C
:103AA000E20081608093E20080913905882309F467
:103AB00047C084E080933805809138058091E1000B
:103AC00083FF27C08091E20083FF23C08091E10043
:103AD000877F8093E10082E080933805109239055A
:103AE0008091E1008E7F8093E1008091E2008E7FE3
:103AF0008093E2008091E20080618093E20042E0E6
:103B000060E080E00E94CC078091F00088608093A4
:103B1000F000FF91EF91BF91AF919F918F917F91B5
:103B20006F915F914F913F912F910F900FBE0F902A
:103B30001F90189519BC1092380510922A0574CF61
:103B40008091E30087FD93E090933805B5CF78949A
:103B50001F921FB61F9211248F939F93AF93BF9311
:103B60008091260590912705A0912805B0912905FF
:103B70000196A11DB11D8093260590932705A09362
:103B80002805B0932905BF91AF919F918F911F9008
:103B90001FBE1F9018959C014FB7F8948091260581
:103BA00090912705A0912805B09129054FBF821B50
:103BB000930B08952FB7F8948091260590912705CF
:103BC000A0912805B09129052FBF08950F931F9349
:103BD000CF93DF93C62FD42F022FFC01858188233A
:103BE000A9F06093AC050E94DA1D9093AB05809319
:103BF000AA05C77081E001C0880FCA95EAF70E9444
:103C00000113DF91CF911F910F9108958091AC0521
:103C1000681332C08091AA059091AB050E94CB1D1C
:103C20008639910548F510E21D0FCD17B9F080E2F5
:103C30008C0F883040F4C77081E001C0880FCA95AE
:103C4000EAF70E94FA12183048F481E09D2F97702D
:103C500001C0880F9A95EAF70E940113802F0E94F5
:103C6000F318183070F6D77081E001C0880FDA952C
:103C7000EAF70E94FA12C5CFC77081E001C0880F31
:103C8000CA95EAF7F6CFAFE0B0E0E9E4FEE10C94C4
:103C9000082F8E010F5F1F4F8AE0D8011D928A9571
:103CA000E9F78FEBC82E81E0D82EF12CE12CAA2465
:103CB000A394B12C2AEC822E21E0922EF601819160
:103CC0006F018F3F09F442C0F894E82FE295EF703E
:103CD000F0E021A18F70A50102C0440F551F8A9505
:103CE000E2F7CA01922F982B91A392A18095892384
:103CF00082A3789400C0E4ECF1E0712C31E02191D2
:103D00002F3F09F46BC0A22FA295AF70B0E0909640
:103D10008C9190E02F7002C0959587952A95E2F7D7
:103D200080FD5CC0832F782A330F8E169F0639F7EB
:103D3000F601319780818F3F11F00E941D0B50EAF0
:103D40005A95F1F7F801EE0DFF1D70828FEFE81A1A
:103D5000F80AA5E0EA16F10409F0B0CF4AE050E015
:103D6000B80188E693E00E94962F009741F02AE080
:103D7000F801A8E6B3E001900D922A95E1F70091D1
:103D80007303892B69F181E080932D030E94DA1D72
:103D900090932C0380932B0380912B0390912C0301
:103DA0000E94CB1D059700F110E00A581C4F45E01A
:103DB00050E068E673E0C8010E94962FD12C892B51
:103DC00051F085E0E8E6F3E0D80101900D928A9584
:103DD000E1F7DD24D39410922D0307C080E0A3CF38
:103DE00080912D038111D8CFD12C0E945415C82E5B
:103DF000E0917303882309F47FC07E01BBE0EB0EE2
:103E0000F11C85E0D7011D928A95E9F70E2F10E08D
:103E10000A581C4F809163038A30D8F54FEB5AE162
:103E2000B701C8010E942115882309F454C04BEE44
:103E30005BE1B701C8010E942115882309F44BC03A
:103E400049E65AE1B701C8010E942115882309F407
:103E500042C04FEB5BE1B701C8010E9421158823E6
:103E6000D1F1109263038091720390E045E050E03D
:103E7000B7018A589C4F0E94962F21E0209334036B
:103E8000892BE1F4C12C8C2D8D292F96EDE00C941B
:103E9000242F80912E0390912F030E94CB1D843FED
:103EA000914008F0BBCF80913403882359F385E01B
:103EB000F70111928A95E9F710923403A0917203E9
:103EC000B0E0AA58BC4F85E0FE013B9601900D92F0
:103ED0008A95E1F7D8CF809163038F3F31F08F5FF0
:103EE000809363038A3008F4BECF0E94DA1D90935A
:103EF0002F0380932E03D7CF0091720310E00A584E
:103F00001C4FF0E0EA58FC4F85E0A4E4B3E00190D8
:103F10000D928A95E1F784E493E00E943307809341
:103F2000430385E0E9E4F3E0D80101900D928A951E
:103F3000E1F780904E0390904F03A0905003B09013
:103F400051038091300390913103A0913203B091DD
:103F5000330388169906AA06BB06D1F08092300377
:103F600090923103A0923203B09233030E94541511
:103F700081110EC00E94BB08861A970AA80AB90AC6
:103F80008092640390926503A0926603B0926703E7
:103F900088E0E2E5F3E0AEEAB5E001900D928A95A3
:103FA000E1F710915A03112349F080911604811111
:103FB00005C00E948D1680E00E94D009109316045F
:103FC00062CFB0E0A0E0E7EEFFE10C94052F8C019A
:103FD000FC018481882309F41DC221E040815181C4
:103FE0006281738195810E94A20EEC01F8018581A6
:103FF0008823D1F080E280933101D093C103C09334
:10400000C003CE0190528115904308F065C0CE01E7
:1040100099279093C1038093C003F8018181809315
:10402000C30380818093C2030E94DA1D4C01F80112
:104030008581882309F435C180913D0182FF08C044
:104040002BE833E040E0B40190E080E00E94EA1306
:10405000C231FCE7DF0709F473C008F048C0C03183
:104060003CE7D30709F462C080913B0190913C0189
:104070000596C1316CE7D60709F45DC0CE019052B8
:104080008115904308F01BC110921E0510921D056A
:10409000F8018581882309F4EFC41092AC05C73775
:1040A000FCE7DF0709F490C282E0C8372CE7D207AB
:1040B00009F48BC2C3307CE7D70709F4D5C208F0F6
:1040C00092C2C1159CE7D90709F49DC2C130DC47F3
:1040D00009F02BC20E941119CC33D10508F09DCFF5
:1040E000FE01E85BFE4F80818093310196CFC431A1
:1040F0007CE7D707B9F080F090913D01892F8E7F42
:1041000090FF8160C5319CE7D90709F0B7CF809354
:104110003D010E94FB0FB2CF80913D0181608093F1
:104120003D01ACCF80913D018E7FF1CF80913B016D
:1041300090913C01059790933C0180933B019ECF69
:1041400080913B0190913C010E94AE067C01FC01F4
:104150002191CF012032D1F36AE0462EF701208170
:10416000222309F48BCF213009F046C0918182814E
:10417000913031F4F2E0EF0EF11C0E94F31807C009
:10418000923049F422E0E20EF11C0E9458133FEFF6
:10419000E31AF30AE3CF933031F432E0E30EF11C7B
:1041A0000E940B13F4CF943021F06FEFE61AF60A59
:1041B000EECF72E0E70EF11C30E020E0A7014F5F88
:1041C0005F4F8053990B8A30910550F0215031098F
:1041D000F0F28FE99FE00197F1F700C00000F6CF01
:1041E000429EB001439E700D11249C01260F371F83
:1041F000F70181817A01E2CFE22FF0E0E452FF4F34
:104200005490822F86958695869590E0FC01E45324
:10421000FF4F64902770712C022E02C07594679432
:104220000A94E2F7E1E06E227724FC01E454FF4FA8
:10423000A490B12C022E02C0B594A7940A94E2F780
:10424000F1E0AF22BB24FC01E455FF4FC490D12C18
:1042500002C0D594C7942A95E2F721E0C222DD245A
:104260006114710419F081EE0E945813A114B10475
:1042700019F086EE0E945813852D0E94F318A114A0
:10428000B10419F086EE0E940B136114710419F049
:1042900081EE0E940B13C114D10409F478CF8CE293
:1042A0006CCF80913D018F7EC13ED10531F0C53E7E
:1042B000D105D1F480913D018F7D80933D018091A6
:1042C0003D0180FF16C0F80185819E01245031090F
:1042D00024323105C8F481111EC0980140E0B401B8
:1042E000CE010E94EA1387C0CE01905281159043FF
:1042F00030F7FE01E851FC47E730F10508F0C8CE81
:10430000EB5EFF4C0C94872F882399F310921E05C7
:1043100010921D05EECF30912B0580912703282F99
:10432000232B922F9D7F69F110921E0510921D057F
:10433000FE0144E0F695E7954A95E1F7EE0FFF1F81
:10434000E550FB4F9E012F70332781E090E002C0C3
:10435000880F991F2A95E2F78095909520813181E9
:10436000822393239183808360E0CE010E94C41353
:10437000809127038D7F0E94560D82E00E94480E97
:104380003AC097E0ABE8B3E001900D929A95E1F75F
:104390001092900310928E0310928D03E0901D05F1
:1043A000F0901E05CE15DF05D1F590913D0191FDF0
:1043B00036C040911B0550911C05B401641B750B60
:1043C0006639710560F531FF06C0906190933D013B
:1043D00082E00E94600D80912B0585FF08C08091CE
:1043E0003D01806280933D0180E20E94600D60E0AB
:1043F000C7010E94C41380911E03877059F0F80111
:104400008581882339F08091750382FF03C082E0A3
:104410000E94480ECDB7DEB7E0E10C94212F9091B9
:104420003D0121FB91F990933D018D7F0E94560D36
:10443000D0931E05C0931D0590921C0580921B050C
:1044400080913D01846080933D0197CF26E241EE4B
:1044500061EEC8010E94E61DCECF27E245EE65EE73
:10446000F8CF26E241EE60EEF4CF27E245EE64EEAF
:10447000F0CF26E241EE62EEECCF27E245EE66EEAB
:10448000E8CF28E241E0EBCF8091AE0591E08927AB
:104490008093AE05109242018091AD0581608093BA
:1044A000AD05A9CF4BEB59E065EC79E00E945109CD
:1044B000A2CF45EC59E06BEB79E0F8CF47EA59E041
:1044C00061EB79E0F3CF41EB59E067EA79E0EECFB9
:1044D0004DE859E06AE979E0E9CF4AE959E06DE849
:1044E00079E0E4CF43E759E060E879E0DFCF40E8E6
:1044F00059E063E779E0DACF47E559E065E679E02E
:10450000D5CF45E659E067E579E0D0CF81E00E945C
:10451000FB0671CF85E0FBCFC7373CE7D30709F433
:104520005CC0C837DC4709F45CC0F8018581C081F4
:10453000D181882309F4ABC0CE010E94710DF82E01
:10454000682FCE010E94E10DBE018F2D0E94190C33
:104550000E94380CD82FC92FA82EF801C580B6802C
:10456000B2943FE0B32280911E038770F1F0EC2CEF
:10457000CC20E1F0892F807F803451F080E28D0FD4
:10458000883098F0B11004C0892F807E803269F0A5
:104590008091750382FF09C082E00E94480E8091DD
:1045A0001E038770EE24E3948111E12CDC2ED2945B
:1045B0002FE0D222FBE0FD1508F4CEC0ED2DF0E097
:1045C000E45EFF4C0C94872F81E00E945F0E43E075
:1045D00062E081E00E941B0E0ECF81E00E943B0E44
:1045E000F6CF82E0FBCFCB35FCE7DF0709F44DC007
:1045F000CC352CE7D20709F43EC0CA35DC4709F0B8
:1046000094CF81E03FC010922B050E941E106FEFE7
:1046100074E38CE0615070408040E1F700C000001E
:1046200081E08093E00080E28093D8001092C9007E
:10463000EFE1FEE43197F1F700C0000087E090EB76
:10464000DC018093C8079093C907A093CA07B09371
:10465000CB0788E19CE00FB6F894A89580936000A2
:104660000FBE90936000FFCF6FEF7FEF90E080E090
:104670000E94F82F2FCD8091750382FB882780F947
:1046800091E089270E94731C50CF80E0FBCFCE01C0
:104690000E94AD0DF82E58CF2C2F2F70F22EC07F18
:1046A00019F0F29490EFF922CC20B9F0FF2069F0D4
:1046B00080E28D0F883010F0A11009C080912B0589
:1046C000F82AF0922B050E94BE0F8D2F43C08091D7
:1046D000A905F82AF092A905F6CF8D2F0E940B1399
:1046E000FF20D1F1D05ED83010F0A11004C08F2D82
:1046F0000E94600D06C0F0948091A905F822F09206
:10470000A9050E94BE0F28C03C2F3F70F32EC07F2A
:10471000C03219F0F29480EFF822AA2059F061E03B
:10472000A61609F479C0CC2009F485C0BB2009F491
:1047300047C0CBCF8091750382FD3EC0CC20B1F144
:10474000FF2039F080912B05F82AF0922B050E946A
:10475000BE0F80E00E9458132D2D2850330B2430BB
:10476000310510F40E947715EE20A9F080911E0308
:1047700080FD11C0F80115828695869586950E9468
:104780005F0EC8010E94E11F80911E0386958695E9
:1047900086950E943B0E20E0F801408151816281A4
:1047A0007381848195810E94A20E34CE80E00E94A4
:1047B0000B13FF2089F29BCFCC20A1F0B11004C0D5
:1047C0008F2D0E940113C8CF71E0B712C5CF809121
:1047D00027039F2D9823F91609F4BECFF82AF092EB
:1047E0002703BACFB110B8CF8F2D0E94FA12909143
:1047F00027038F2D892329F08F2D8095892380937E
:1048000027038091FE029F2D982309F4A5CFF094F1
:10481000F822F092FE02A0CFCC2029F085E08B1583
:1048200008F49ACFCDCF94E09B1508F495CF8F2D47
:104830000E94FA1291CFBB20D1F3E9E3AE1209C076
:10484000FFEF27EE33E0F15020403040E1F700C0A9
:1048500000008D2F0E940B137FCF8C2F869586959D
:10486000837069F0813009F077CF8D2F9C2F937082
:10487000C11002C080E090E00E94C7086DCF8D2F6C
:104880009C2F9370C11002C080E090E00E94EC0861
:1048900063CF8C2F837089F5C1105ECF4D2F429569
:1048A00046954770440F440F8D2F8F70042E01C022
:1048B000880F0A94EAF72D2F2071D4FF07C02FE04C
:1048C00030E001C0220F4A95EAF72095C695C695BB
:1048D000C370C23069F050F430912803C13029F020
:1048E000822B83230E946B0E37CF832B822BFACF30
:1048F000282B809128038227F5CF8695CC2011F0B4
:104900008C2F8170882309F427CF4D2F429546952F
:104910004770440F440F8D2F8F70042E01C0880FF5
:104920000A94EAF72D2F2071D4FF07C02FE030E062
:1049300001C0220F4A95EAF72095C695C695C37027
:10494000C23069F050F43091BF03C13029F0822B9E
:1049500083230E94180E00CF832B822BFACF282BA3
:104960008091BF038227F5CFCF70CC2029F08C2F08
:104970000E945F0E8D2F25CF8D2F0E94FA128C2F53
:104980000E943B0EE9CE8D2F62EFA616A9F16A15A3
:1049900070F070EFA716D1F091EFA91691F0CC202E
:1049A00009F45AC0B11091CE8C2F8F7129C0E3EF5A
:1049B000AE1649F1F4EFAF12F2CF8091750382FD8C
:1049C0002DC08C2F8F71CC20D9F21AC0CC2079F059
:1049D00024E02B1508F4C0CECF7181E090E001C037
:1049E000880FCA95EAF79091BF038927B2CF35E0C7
:1049F0003B1508F4B1CEF0CF8C2F8F71C110C0CF12
:104A00000E945F0EA9CE80E0CC2009F4A2CFCF7126
:104A100081E001C0880FCA95EAF79BCFCC2089F0CE
:104A2000CF718C2F0E945F0E8091750382FF07C0AB
:104A300068E0C69FC0011124836080931E038C2F01
:104A4000DFCF81E00E94480E71E07B1508F084CE34
:104A500082E00E94480E80CEBB2059F0893309F0D5
:104A6000F8CE8FEF97EEE3E081509040E040E1F721
:104A7000EECE8C2F8F7184CF80912B058272FE0138
:104A8000E052F847E531F10508F046CDE85DFF4C0E
:104A90000C94872FCF93DF9380911D03807F09F0C3
:104AA0004DC080911C03882309F448C0E0917B0528
:104AB00050914205C0911803D091170360911903DA
:104AC00070911A0347E05E17C9F18E2F90E0E49FC2
:104AD000F0011124ED5BFA4F2481222391F1489FCC
:104AE000F001499FF00D1124DF01AD5BBA4F119623
:104AF0002C9111972C1325C02C912D1322C01596A3
:104B00002C91159721111DC012962D913C91261BB9
:104B1000370B26393105A8F480911D038F70806111
:104B200080931D03E75BFA4F80818F7080618083E3
:104B300087E193E00E94E11F0E94670DDF91CF9112
:104B40000895FC013196E770BECFA4E1B0E0EBEA36
:104B5000F5E20C94092F8C0186E0F801DE011F9626
:104B600001900D928A95E1F7F8018481E58097E143
:104B7000A92E93E0B92E90911B03911128C0882390
:104B800019F1EE20F1F0C8010E946E0EF82E882374
:104B9000C1F087E0F801D50101900D928A95E1F707
:104BA00080911B03813031F4809117039091180399
:104BB0000E94A00D0E944A258F2D6496ECE00C9473
:104BC000252FC8010E94E11FFF24F394F5CFD08068
:104BD000C18082809380F0901C0320911903309152
:104BE0001A03A401421B530BFF2009F4D9C0463914
:104BF000510508F092C08823F9F290911803809132
:104C00001D03282F207F09F056C0C91214C09091AF
:104C10001703D91210C0E11048C08F7080618093D3
:104C20001D0387E193E00E94E11F80911D03F801BD
:104C30008683F12CC1CFE11038C06C2D8D2D0E94E0
:104C400014076C2D8D2D0E941407E82E8111F1CFD1
:104C5000DF86C88A8F8598890E94A00D292F22950A
:104C60002F70243058F49F70223088F0992399F0E7
:104C7000F8019681907F79F4FE2C9ECF2A5F2F70E9
:104C8000223068F0C8010E94E11FEF2CF5CF992374
:104C900011F0882389F3805E883070F3F3CF803F72
:104CA00058F3815F833070F7E7CF80911D038160F7
:104CB00080931D03BECFC91207C090911703D9126C
:104CC00003C0EE2009F48DC0C8010E946E0E882337
:104CD00009F477CFEE2009F474CF80911D03803260
:104CE00088F02091170330911803398728879B8615
:104CF0008A8690911B039C871D868E87CE0108961D
:104D00000E94E11F87E0F801A7E1B3E001900D9256
:104D10008A95E1F70E944A2557CF90911D03292FCC
:104D2000207F51F487E193E00E94E11F87E0F501C5
:104D300011928A95E9F77DCF882309F43DCF8091C0
:104D400018038C1110C080911703D8120CC0E11009
:104D50000AC09683C8010E94E11F87E0F501119205
:104D60008A95E9F729CFC8010E946E0E882309F4BD
:104D700028CFEE2009F425CF80911D03803210F258
:104D800020911703309118033A8329839C828B82E8
:104D900090911B039D831E828F83CE010196B0CF1D
:104DA00046395105D0F6882309F40ECFFE2CEE20AB
:104DB00009F407CF809118038C1120C0809117034C
:104DC000D8121CC080911D0380FD0FC0982F907FCA
:104DD00061F08683903F31F0982F907F905F8F70C5
:104DE000892B8683C8010E94E11F87E0F801A7E1B3
:104DF000B3E001900D928A95E1F7DECEC8010E94E2
:104E00006E0E81117FCF80911D03816080931D0301
:104E1000C8010E94E11FD0CEABE1B0E0E2E1F7E2D1
:104E20000C94112F4E8B5F8B688F798F8A8F9B8F9D
:104E3000192F91111092A9051D8A86E0FE01769620
:104E4000DE011F9601900D928A95E1F70A8D0023ED
:104E500041F021E04F85588969897A89C8010E940B
:104E6000A20E0B8B1C8B87E0FE013F96DE0118968D
:104E700001900D928A95E1F7CE0108960E94A52532
:104E800081110CC087E0FE013896DE011196019079
:104E90000D928A95E1F78C8581110BC017E0809106
:104EA0007B0590914205891333C06B96E4E00C9426
:104EB0002D2F2091420530E0C90101968770992776
:104EC00040917B054817190699F097E0929FD00111
:104ED000939FB00D1124AD5BBA4FFE013196019046
:104EE0000D929A95E1F7809342050E94670DD6CF07
:104EF00010922B050E941E101092420510927B0505
:104F000087E0E7E1F3E0DF011D928A95E9F7C6CF7C
:104F1000819FC00111248D5B9A4F0E94A525882393
:104F200021F280917B0590E001968770992780930C
:104F30007B05B5CFA6E0B0E0E0EAF7E20C94112FD4
:104F40000E94DA1D8C018091290390912A03801719
:104F5000910781F019821A820E94DA1D682F498117
:104F60005A81792F80E090E00E940C2710932A0349
:104F7000009329032696E4E00C942D2F1F921FB670
:104F80001F9211248F939F93AF93BF938091250518
:104F9000811113C08091260590912705A0912805C5
:104FA000B09129054196A11DB11D809326059093CE
:104FB0002705A0932805B0932905BF91AF919F9134
:104FC0008F911F901FBE1F901895CDB7DEB72B97FE
:104FD0000FB6F894DEBF0FBECDBF85B7806885BF22
:104FE00085B7806885BF84B7877F84BF0FB6F89484
:104FF000A8958091600088618093600010926000A5
:105000000FBE80E890E00FB6F89480936100909313
:1050100061000FBE8BE19BE09093F5028093F40258
:105020000E945D070E94FE078091E20084608093E9
:10503000E2007894809138058823A1F01091E9006E
:105040001F709091EC00892F817090FD80E8182BE3
:105050001092E9008091E80083FD0E9432101F70D9
:105060001093E90082E084BD93E095BD9AEF97BD6F
:1050700080936E0010926403109265031092660391
:10508000109267030E945415809328010E945415C2
:1050900081110E948D2D809128018091280195E039
:1050A000811190E09093730385E0891B80937203D4
:1050B0000FEB11E0D8018D918D018F3F11F00E940F
:1050C0001D0BB1E0043C1B07A9F704EC11E08AECCE
:1050D000E82E81E0F82EF80181918F018F3F11F0C9
:1050E0000E941D0BE016F106B1F78AE0E6E7F3E057
:1050F000DF01282F1D922A95E9F7E8E6F3E0DF01AA
:105100001D928A95E9F790E080E00E94C42F863EC8
:105110009E4F11F00E94071C82E090E00E94BC2F7D
:105120008093800384E090E00E94C42F90937503E5
:105130008093740383E090E00E94BC2F0E946B0E6A
:10514000109280058FEF9FEF90939A0580939905B9
:1051500090939C0580939B0590939E0580939D055D
:105160009093A00580939F059093A2058093A1053D
:105170009093A4058093A3059093A6058093A5051D
:105180009093A8058093A7051092E90390930304D8
:105190008093020490930504809304049093070481
:1051A00080930604909309048093080490930B0461
:1051B00080930A0490930D0480930C0490930F0441
:1051C00080930E04909311048093100490E080E08B
:1051D0000E94C42F863E9E4F21F00E94071C0E9411
:1051E0004E1A81E08093AD0548E050E068E170E040
:1051F0008EEA95E00E94AC2F1092AD058091AE052D
:105200008C7F11F40E944E1A0E94541512E08111F5
:1052100010E00E945415811101C013E01093E403C3
:1052200080E810FD80E28093BD050E94472C6BE072
:1052300070E08BEC93E00E9429198823E9F18091BA
:10524000E40365E070E081FD02C186EC93E00E941A
:105250002919882389F16DE070E084EB93E00E94C6
:105260002919882349F10E94BB08605A75418F4F64
:105270009F4F6093F5047093F6048093F704909326
:10528000F804E0ECF5E080E092E0DF019C011D9283
:1052900021503040E1F7F093C707E093C6078FEF46
:1052A0009FEF9093BF058093BE0581E08093FA0441
:1052B0008093F9041092E5030E945415811102C0F5
:1052C0000E94902D89E291E0909322058093210520
:1052D000222423948091380500E112E1853009F4FD
:1052E00000C10E94431EE1E8F3E0F887EF8326E760
:1052F00033E03A872987D90191918D912BE833E0EA
:105300002E173F0709F4FBC09817B1F30E945415FC
:105310008B87BAEDAB2EB1E0BB2EE12CA985BA8507
:105320009D90BA87A987EF81F8856190F887EF8310
:10533000691409F480C069242501812C77247394B1
:10534000862D872109F46BC0F92CF720FB85FF23FC
:1053500099F08982EA820E94DA1D9C838B832D82D8
:1053600091E0F11001C090E09E8349815A816B81E8
:105370007C818D810E940C27F1101DC1D2018C917E
:105380008F3F09F01AC10F2D10E08091E903800FC3
:10539000912F911D09976CF1E8E0CE2ED12CC01A07
:1053A000D10AB80166517C4FA6018AEE93E00E94B3
:1053B000A32FB8016E507C4FA60182EF93E00E94AC
:1053C000A32FA601440F551FB801660F771F6E5F0C
:1053D0007B4F82E094E00E94A32FB80166507C4F7F
:1053E000A6018AEF93E00E94A32F88E08F19809393
:1053F000E9038091E90390E0A32DB0E09D01220F25
:10540000331F2A5E3D4FAA0FBB1FBD01695E7D4F52
:1054100041E0480F9F1508F4D4C08093E9038394BA
:10542000770CBFEF4B1A5B0AE6E08E1289CFEF8153
:10543000F88531979082E394F6E0AF0EB11C2AE034
:10544000E2126CCF0E94B818DD24D3945DC081ECC9
:1054500093E0FDCE80913805843009F433C00E947A
:10546000961980911604811105C00E948D1680E066
:105470000E94D009209216040E945319109225050B
:1054800088E190E0A0E40FB6F894A89580936000BE
:105490000FBEA093600083B7817F846083BF83B712
:1054A000816083BF7894889583B78E7F83BF0FB662
:1054B000F894A895809160008861809360001092B4
:1054C00060000FBE80913705882359F00E94431E6B
:1054D000E6E7F3E081918111C2C1B3E0E038FB0758
:1054E000C9F780913805853009F4B4CF10922B05A7
:1054F0000E941E100E94771510921604F2CE981387
:1055000005CF0E949A27D12C0E9454158823F1F0D0
:1055100080913D0182FF1AC00E94DA1D20911B0577
:1055200030911C05AC01421B530B20913B01309183
:105530003C014217530750F02BE833E041E0BC0137
:1055400080911D0590911E050E94EA130E949619F4
:105550008091FA04882309F482C08091E603909137
:10556000E7030E94CB1DC29708F45AC00E94DA1DBF
:105570009093E7038093E60380EC95E09093C70750
:105580008093C6070E945415882309F480C08EEFCB
:1055900093E00E94780F8091BF030E94910E8230A9
:1055A00009F46FC018F5882349F1813009F466C009
:1055B00086ED93E025C0F12CE6CE382EFF24F3943F
:1055C000E2CE90E0FC01E751FC4FD9015C915183A0
:1055D000DB015C915187318A880F991FFC01E751EB
:1055E000FC4F128E118E91E0842F12CF833009F47C
:1055F0004BC08430E9F68EED93E002C086EF93E075
:105600000E94B80F82E993E00E948C1481E00E940E
:10561000860F8AEA93E00E948C1481E00E94860F34
:105620008091BE059091BF05892BE1F58091F90429
:105630008823A9F00E94BB080091F5041091F6049C
:105640002091F7043091F804601B710B820B930BCF
:105650006F3F7F4F8F4F9F4710F40E945319D11017
:105660000E946E190E9477159091E803891709F43A
:1056700031CE8093E8030E94BB082CCE80EF93E0EC
:10568000BFCF8AEE93E0BCCF83EE93E0B9CF86EA3A
:1056900095E00E94B80F60EA71E086E094E00E9415
:1056A0001109BECF8091FA04882309F4BFCF8091FD
:1056B000E5038111BBCF0E946E192091BE05309188
:1056C000BF052115310509F4B1CF80E041E050E07C
:1056D000082F10E07A01082E02C0EE0CFF1C0A947D
:1056E000E2F7B70162237323672B11F48F5FF0CFCA
:1056F0009091E40390FF9AC0880F880F880F8093E1
:10570000340110923701895F8093350183E08093E3
:10571000380124E630E047E050E062E371E088E7DA
:105720000E94E72C892B09F081CFA80195E0440F56
:10573000551F9A95E1F78091E40380FF89C0E4EC5E
:10574000F3E080E2DF011D928A95E9F7EEECF1E0EB
:10575000F887EF830AEC11E087E0982E8824839481
:10576000AF81B8852D91B887AF83F80141908F0143
:10577000440E552E511CC20180549A4F2C01E22F29
:10578000F0E0EC53FC4F30E020E0692C621AC82CAA
:10579000022E01C0CC0C0A94EAF7520190E0D50128
:1057A0008D915D018C21662D691B6770762E062E0A
:1057B000000C770BB82F01C0BB0F7A94EAF77B2E51
:1057C0007195619571096770772701C086956A9513
:1057D000EAF7782A8081782A70829F5F9830F9F6FC
:1057E0002F5F3F4F31962830310579F6EF81F885EC
:1057F000E25DF14009F0B4CF04E610E020E230E0D1
:1058000044EC53E060E488E70E94082D892B09F0FE
:105810000DCFE094F0948091BE059091BF05E822F1
:10582000F922F092BF05E092BE0500CF8295880F65
:105830008076809334019801369527953695279583
:1058400020933701815E809335012093380161CF29
:1058500040545A4F04E610E020E230E0D3CF09BDB7
:1058600019BD09B400FEFDCF8091D8008F7D8093D3
:10587000D8008091E00082608093E0008091E00099
:1058800081FDFCCF10922B050E941E102ACE109293
:10589000B9008CE08093B8000895B0E0A0E0E3E5A3
:1058A000FCE20C940A2FB82EEB010E94DA1D6C0169
:1058B000EE24E394F12CC431D10560F025E0E22E12
:1058C000F12CCF3FDC0731F0CE0164E170E00E94A3
:1058D000EF2E7B0184EAA82E94E8992E1092BC004A
:1058E000A092BC000E94DA1D8C018091BC0087FF51
:1058F0000DC08091B900887F8830F9F08091B9009F
:10590000887F8031D1F00FEF1FEF08C0C8010E94DF
:10591000CB1DE816F90648F70EEF1FEFCF3FDC0767
:10592000E9F2C6010E94CB1DC817D907B8F6C80115
:10593000CDB7DEB7EBE00C94262FB092BB0090926F
:10594000BC000E94DA1D8C018091BC0087FF0AC058
:105950008091B900887F883111F08034A1F610E081
:1059600000E0E5CFC8010E94CB1DE816F90660F7FC
:10597000D3CF0F931F93CF93DF93EB018093BB00A3
:1059800084E88093BC000E94DA1D8C018091BC00E9
:1059900087FF11C02091B900287F81E090E0283274
:1059A00011F490E080E0919581959109DF91CF917C
:1059B0001F910F910895CF3FDC0741F3C8010E946A
:1059C000CB1DC817D90710F78EEF9FEFEFCFB0E0D0
:1059D000A0E0EDEEFCE20C940D2F6B018A01790141
:1059E000B9010E944D2CE6010C0D1D1DC017D107F9
:1059F00011F097FF08C024E92093BC00CDB7DEB7B3
:105A0000E8E00C94292FB70189910E94B92CEECFC0
:105A1000B0E0A0E0EEE0FDE20C940D2FC62F6A018D
:105A20007901B8010E944D2C97FD0CC0B8018C2F54
:105A30000E94B92CE601EC0CFD1CCE15DF0511F01F
:105A400097FF08C024E92093BC00CDB7DEB7E8E09B
:105A50000C94292FB80189910E94B92CEECF84E9CA
:105A60008093BC0008958EE14A9B02C08150E1F70B
:105A70004A9BFECF08955A9880E28A95F1F75A9A88
:105A80000895FC013BE03A95F1F798E020E080E0D2
:105A900031E040E14A95F1F7880F4A9B02C08160EE
:105AA000232742E04A95F1F7000040E14A95F1F7DB
:105AB000915079F790E19A95F1F799B132E03A95E2
:105AC000F1F7000040E14A95F1F792FB992790F930
:105AD00092272081920F90830895A1E0B0E0E3E740
