:100000000C94F5040C942D050C942D050C94B02B38
:100010000C942D050C942D050C942D050C942D0598
:100020000C942D050C942D050C944D1A0C94091A62
:100030000C9498250C942D050C942D050C942D05ED
:100040000C942D050C942D050C942D050C942D0568
:100050000C942D050C94261B0C942D050C942D0549
:100060000C942D050C942D050C942D050C942D0548
:100070000C942D050C942D050C942D050C942D0538
:100080000C942D050C942D050C942D050C942D0528
:100090000C942D050C942D050C942D050C942D0518
:1000A0000C942D050C942D050C942D0529001E0093
:1000B0001F002000210022002B0014001A0008005D
:1000C00015001700005704001600070009000A0079
:1000D000E0001D001B000600190005000000E20002
:1000E000E30021522C0035002D00270026002500BA
:1000F000240023002E00130012000C0018001C0026
:100100002A0033000F000E000D000B0001573800CD
:1001100037003600100011000000E600E700225210
:100120002800300001000100010001000100010071
:100130000100BE00BD00AA00A90001000100A80046
:10014000AC00AE00AB0001000100010001000100A5
:100150000100010000000100010001000100010098
:100160000100010001000100010001000100010087
:100170000100010001000100010034002F003100E6
:100180000100010001000100010001000100010067
:1001900000000100010001000100010001003B001E
:1001A0003C003D003E003F003A000100010001001C
:1001B0000100010001004D004A004E004B0001000B
:1001C0000100010001000100010001000000010028
:1001D0000100010001000100010044004300420051
:1001E00041004000450001000000520000000100F5
:1001F000010000004F00510050000000010001000C
:1002000001000100010001000000010001000100E7
:1002100001000100000000000000000000000000DC
:10022000000000000000000000000000207823789B
:10023000257827780000000021782478267828780F
:1002400000000000000001000100010001000000AA
:10025000000000000000000000000000000000009E
:10026000000000000000000000000000000000008E
:10027000000000000000000000000000000000007E
:1002800000000100010001000100000000DA02810D
:10029000FFD9F1DB20A4A62EAF00A0C000A1C800AA
:1002A000AED580A81FD300408D14200000010101AD
:1002B0000101010101010202020202020202020323
:1002C00003030303030303040404040404040505F3
:1002D00005050506060606060707070707080808B6
:1002E00008090909090A0A0A0B0B0B0C0C0C0D0D65
:1002F0000D0E0E0E0F0F0F101011111112121313FD
:100300001414151516161717181819191A1A1B1B75
:100310001C1D1D1E1E1F20202122222324242526D1
:1003200026272829292A2B2C2D2D2E2F3031323209
:10033000333435363738393A3B3C3D3E3F40414215
:10034000434445464748494A4C4D4E4F50515354FB
:10035000555658595A5B5D5E5F61626465666869AF
:100360006B6C6D6F7072737577787A7B7D7E80822F
:10037000838587888A8C8E8F91939596989A9C9E78
:10038000A0A2A3A5A7A9ABADAFB1B3B5B7BABCBE88
:10039000C0C2C4C6C9CBCDCFD1D4D6D8DBDDDFE255
:1003A000E4E7E9EBEEF0F3F5F8FAFDFF00AF00AE9D
:1003B00005010980A101850319012AB7001501264D
:1003C000B700950175108100C0050C0901A10185D8
:1003D0000419012AA002150126A0029501751081B9
:1003E00000C005010906A101050719E029E715006C
:1003F00025019508750181029501750881010507A0
:10040000190029FF150026FF0095067508810005D3
:10041000081901290595057501910295017503914A
:1004200001C009023B00020100A0FA09040000011A
:10043000030101000921110100012240000705818B
:100440000308000109040100010300000009211153
:100450000100012232000705820320000112010081
:100460000200000008D8042EEB0001010200011672
:10047000034C0069006C0079003500380020005200
:10048000003200470000001C034D00650063006857
:100490000062006F0061007200640073002000556C
:1004A000004B000000040309040000000000003EAF
:1004B0005B4F5B3E003E6B4F6B3E001C3E7C3E1C28
:1004C00000183C7E3C18001C577D571C001C5E7FAA
:1004D0005E1C0000183C180000FFE7C3E7FF0000A7
:1004E0001824180000FFE7DBE7FF0030483A060E4B
:1004F00000262979292600407F05050700407F0551
:10050000253F005A3CE73C5A007F3E1C1C0800086F
:100510001C1C3E7F0014227F2214005F5F005F5F7F
:100520000006097F017F00006689956A00606060AF
:1005300060600094A2FFA2940008047E04080010EA
:10054000207E20100008082A1C0800081C2A080821
:10055000001E10101010000C1E0C1E0C0030383E37
:10056000383000060E3E0E060000000000000000BD
:10057000005F000000000700070000147F147F14D4
:1005800000242A7F2A120023130864620036495689
:10059000205000000807030000001C22410000005A
:1005A00041221C00002A1C7F1C2A0008083E080863
:1005B0000000807030000008080808080000006093
:1005C0006000002010080402003E5149453E000032
:1005D000427F4000007249494946002141494D335C
:1005E000001814127F10002745454539003C4A4940
:1005F0004931004121110907003649494936004671
:100600004949291E00000014000000004034000089
:100610000000081422410014141414140000412294
:100620001408000201590906003E415D594E007C44
:100630001211127C007F49494936003E4141412256
:10064000007F4141413E007F49494941007F0909FE
:100650000901003E41415173007F0808087F0000F6
:10066000417F4100002040413F01007F08142241AA
:10067000007F40404040007F021C027F007F040852
:10068000107F003E4141413E007F09090906003EBE
:100690004151215E007F0919294600264949493206
:1006A0000003017F0103003F4040403F001F204006
:1006B000201F003F4038403F0063140814630003CC
:1006C00004780403006159494D4300007F414141D2
:1006D00000020408102000004141417F0004020193
:1006E0000204004040404040000003070800002092
:1006F00054547840007F2844443800384444442807
:1007000000384444287F0038545454180000087EB0
:100710000902001824241C78007F080404780000D3
:10072000447D4000002040403D00007F10284400F0
:100730000000417F4000007C04780478007C0804BD
:100740000478003844444438007C182424180018E5
:100750002424187C007C08040408004854545424C1
:100760000004043F4424003C4040207C001C204006
:10077000201C003C4030403C004428102844004CE1
:100780009090907C004464544C4400000836410032
:10079000000000770000000041360800000201025E
:1007A0000402003C2623263C00000000000080805C
:1007B0008080000000000080E070180C1830E0809D
:1007C000000010F8901030783010B8FC381000009D
:1007D00000000000F8FCF80000000000000000002D
:1007E000000000001C9C1C00000000F8FCF8000049
:1007F000000000001CFCF8C000000000000080E0C9
:10080000F87C1C000000F0FCFCFC1C1C1C1C1C1CCC
:100810001C1C000000000000C0F0F8381C1C1C1C50
:100820001C1C3CF8F0E000E0F0F0F0E0ECEEF7F338
:100830007020007C7C7C7E007E7E7E7F7F7F00003F
:1008400080C0E07E5B4F5BFEC00000C000DCD7DEF6
:10085000DEDED7DC00C00000000000000000000069
:1008600000000000000000000000000000000FBCBD
:10087000E0818181838382870C183060C000001F73
:10088000FE90B9FFBB91983C1811133F1100000076
:1008900000000000FFFFFF0000000000000000005B
:1008A00000000000FFFFFF00000000FFFFFF00004E
:1008B000000000000000030F7FF8E080F0FC3F0F15
:1008C0000100000000003F3F3F1C1C1C1C1C3C782A
:1008D000F8F0E08000000000C3E7FF7E3C38787845
:1008E0007070F8FFDF87000F1F3F7F7F7F7F7F3FA4
:1008F0001E0C001F1F1F3F003F3F3F7F7F7F0030C8
:100900007B7F7830202030787F3B0003000F7F0F03
:100910000F0F7F0F00030000000000000000000028
:10092000000000000000000000183C24666341C184
:100930008180808080808081C14162386C4CC6811A
:1009400081808080808081C14362361C1800000055
:1009500000000000FFFFFFC0C0C0C0C0C0C0C0C0DA
:10096000800000007FFF7F000000007FFFFFC0804D
:10097000000000E0E0C0C0C0E0F97F1F07000000F9
:1009800000000000000070F0E0E0C0C0C0C0E0F077
:10099000F87F3F0F0000000F3F7FF9E0E0C0C0C0CC
:1009A000C0C0E0F97F3F1F00000000000000000011
:1009B0000000000000000000000000000000000037
:1009C0000000000000000000000000000000000027
:1009D0000000000000000000000000000000000017
:1009E0000000000000000000000011241FBECFEF37
:1009F000DAE0DEBFCDBF04B603FE18C08091A508C3
:100A00009091A608A091A708B091A8088730904BB4
:100A1000A740B04B59F41092A5081092A608109266
:100A2000A7081092A808E0E0F8E3099513E0A0E019
:100A3000B1E0E4ECF1E602C005900D92A63EB107EC
:100A4000D9F728E0A6EEB3E001C01D92A53AB2079F
:100A5000E1F70E94BF250C9481300C940000909126
:100A60009406937061F081110BC09460909394068A
:100A70001092A1018091930681608093930608955E
:100A80008B3010F09862F2CF880F880F982BEECF42
:100A9000FC01AC014B5F5F4F8FEF91E32191822707
:100AA00028E030E087FF09C0880F892721503109ED
:100AB000C9F7E417F50791F70895880FF7CF9091DC
:100AC0009406937071F0809395066093960649376B
:100AD00008F048E7409397068091930681608093E1
:100AE00093060895E8EDF0E080818E7F8083109278
:100AF000E2001092DA001092E100A0EEB0E08C91DA
:100B000081608C9380818F77808319BCA7EDB0E0E2
:100B10008C918E7F8C9380818F7E808310924C0687
:100B200008952091E4003091E50095E6A901209117
:100B3000EC00822F817020FF06C08091E80080FFCA
:100B400006C080E008952091E80022FD1AC080913F
:100B50005906882389F0853089F08091EB0085FD66
:100B60000FC02091E4003091E50042175307F9F2DD
:100B70009150E1F684E0089582E0089583E00895BD
:100B800081E0089580915B0687FF13C08091E800A3
:100B900082FF06C08091E8008B778093E80004C054
:100BA000809159068111F2CF0895809159068823CA
:100BB000D9F38091E80080FFF8CF8091E8008E772C
:100BC000ECCF982F9093E900242F762F50E08917CF
:100BD00031F07091EC002091ED005091F00021FD7A
:100BE00007C09F5F973071F78093E90081E0089517
:100BF0003091EB003E7F3093EB003091ED003D7F74
:100C00003093ED003091EB0031603093EB00709346
:100C1000EC002093ED005093F0002091EE0027FDB2
:100C2000E0CF80E00895B0E0A0E0E9E1F6E00C94C8
:100C3000EA2CC8EDD0E088818F7E8883E7EDF0E074
:100C400080818160808384E082BF81E080934C0654
:100C500088818E7F888302EE10E0F8011082109266
:100C6000DA0081EEC82ED12CF601108288818F77B0
:100C7000888388818068888388818F7D888319BC78
:100C80001092590610925A06109258061092570662
:100C900090EEE92EF12CF70180818B7F8083888193
:100CA0008160888342E060E080E00E94E105F60117
:100CB00080818E7F8083F801808181608083808144
:100CC00088608083F70180818E7F80838881806146
:100CD0008883CDB7DEB7E8E00C94062DFC01809147
:100CE00061069091620686179707A0F0611571055D
:100CF00029F49091E8009E779093E80090E06115C8
:100D0000710551F4911108C08091E80082FF34C050
:100D100080E00895BC01F2CF809159068823C1F18B
:100D20008530C1F18091E80083FD30C08091E800FA
:100D300082FDEACF8091E80080FFE1CF8091F3004F
:100D40002091F200382F6115710519F02830310516
:100D500058F091E02830310509F090E02091E8004A
:100D60002E772093E800CBCF81918093F1006150E2
:100D700071092F5F3F4FE7CF80915906882341F0DB
:100D8000853041F08091E80083FFBECF81E0089577
:100D900082E0089583E00895089580914E060895B5
:100DA0002FB7F894609148067091490680914A06E1
:100DB00090914B062FBF08959C01FC0132969FEF46
:100DC00080E04191461751F09F3F19F4411101C055
:100DD000982F8F5F8630A9F79F3F09F40895290F58
:100DE000311D97FD3A95F90162830895A3E0B0E0C3
:100DF000ECEFF6E00C94F02C20914506309146067D
:100E000028173907A1F09093460680934506E09194
:100E10004306F0914406309751F024E029839B83E8
:100E20008A830680F781E02DCE01019609952396ED
:100E3000E2E00C940C2DA3E0B0E0E1E2F7E00C94CA
:100E4000F02C209141063091420628173907A1F075
:100E50009093420680934106E0914306F091440648
:100E6000309751F023E029839B838A830680F781A2
:100E7000E02DCE01019609952396E2E00C940C2D0D
:100E8000FA01811101C0FB0109950895E4E9F6E03A
:100E9000248130E1231B08F420E024838091930611
:100EA0008160809393060895E4E9F6E0248130E1BF
:100EB000230F08F42FEF24838091930681608093A1
:100EC00093060895E4E9F6E0438120E1421B08F42B
:100ED00040E08181628190E00E945F050895E4E92D
:100EE000F6E0438120E1420F08F44FEF81816281F7
:100EF00090E00E945F050895E4E9F6E0628120E158
:100F0000621B08F460E08181438190E00E945F05EC
:100F10000895E4E9F6E0628120E1620F08F46FEFE2
:100F20008181438190E00E945F050895E4E9F6E045
:100F30008181438162818850990B0E945F050895E9
:100F4000E4E9F6E0818190E04381628108960E94A5
:100F50005F0508958091940686958695815009F4E1
:100F60008AE00E942F0508958091940686958695C3
:100F70008F5F8B3008F081E00E942F0508958093E9
:100F80009C0180919406837080939B010E94AF1214
:100F900083E08093A101089522E8241B08F420E057
:100FA000620F08954095282F429F412D1124842FD0
:100FB0000895E42FF0E0EE0FFF1FE95FFC4F9081F2
:100FC000921B97FD9195292F38E1239F212D112404
:100FD000620F0895322F50E0FA01EE0FFF1FE55324
:100FE000FD4F95AD905297FD9195440F551FFA0115
:100FF000E95FFC4F2081231B330B290F311D97FD27
:101000003A95620F08950E943D130895FF920F9341
:101010001F93CF93DF93182F062FF42ED0E0C0E05C
:101020002F2D402F612FCE010E9403082196CA3434
:10103000D105B1F7CDB7DEB7E5E00C94092D0F93DC
:101040001F93522F10E0F801EE0FFF1FE553FD4FE5
:10105000A5ADA052BB0B9D015203F001539FF00DB3
:101060001124000F111FD801A95FBC4F0C9100572C
:10107000110B40039001419F300D11242E0F3F1F93
:1010800037FF02C0215C3F4F96E0359527959A9532
:10109000E1F7620F1F910F910895E82F86FDE0950B
:1010A0002E2F2F7086FD2F5FE695E695E695E6706C
:1010B000F0E0ED53FD4F9181929F902D212D112451
:1010C00092959F702295207F922B2081920F87FD11
:1010D000919580E8890F089530E020E0869F212DCA
:1010E000969F200D311D1124C9010895AF92BF9222
:1010F000CF92DF92FF920F931F93CF93DF93362F00
:10110000472FE82FF0E0E455FD4F71110FC0E49137
:101110008E2F2E2F6E2F722FDF91CF911F910F9157
:10112000FF90DF90CF90BF90AF900895C72FD0E091
:101130002491F22E022F10E056E0659FC001112489
:10114000EFEFF0E0BF010E94CC2C832F90E0880FDE
:10115000991F35E5369FD001379FB00D11248A1BAA
:101160009B0B982F990F980F6F01CC1ADD0AC09E28
:10117000D001C19EB00DD09EB00D11248B2F499F80
:10118000A0011124452F55276F01C41AD50AC09E0E
:10119000A001C19E500DD09E500D11245F01A91ACF
:1011A000B108AC9E6001AD9ED00CBC9ED00C112449
:1011B000CD2CDD24EC19FD09E09FE001E19FD00D6D
:1011C000F09FD00D1124ED2F62307105A1F050F485
:1011D0006115710509F49ECF6130710581F0EB2F27
:1011E000852F98CF6430710569F080F06630710505
:1011F00009F490CFF4CFE22F2B2F8D2F8BCFE22F3E
:10120000252F88CFEB2F822F2D2F84CF2B2F8F2DA3
:10121000E52F80CF80E00895F894E82FE295EF70F5
:10122000F0E031A1282F2F7081E090E001C0880FFD
:101230002A95EAF7982F9095932391A392A1892B51
:1012400082A3789408959091A20492FF06C0282F5B
:1012500028712830F9F4877F846093FF06C0282F17
:1012600028712831F1F4877E84612091A30420FF46
:1012700006C0382F38713830D9F4877F816021FF5C
:1012800006C0282F28712831D1F4877E816194FD12
:10129000877E0895282F24712430F9F68B7F88608B
:1012A000DCCF282F2471243101F78B7E8861DDCFBC
:1012B000382F3171313019F78E7F8860E0CF282FB9
:1012C0002171213121F78E7E8861E1CF823891052D
:1012D000B9F1B0F48133910509F47DC048F4893245
:1012E000910509F46DC08A32910509F47BC0089517
:1012F0008533910509F45FC08933910509F108959B
:10130000833E9105D9F138F4803E910529F1823E62
:10131000910579F10895863E9105D9F1873E9105B1
:1013200009F43EC0843E910541F52091A30421FFBC
:1013300024C08091A20484FD19C087EE90E0089536
:101340002091A204237009F05AC02091A30423FF26
:1013500014C089E290E008952091A20420FD38C0D5
:101360003091A30430FF09C024FF43C090E080E027
:1013700008952091A20422FDF7CF08952091A204A0
:1013800022FD3AC03091A30430FD39C024FFF5CFCF
:10139000EDCF2091A20423FFF0CF24FDE7CFCDCFE6
:1013A0002091A20423FD2EC03091A30431FFEECF83
:1013B00084EE90E008952091A20425FFDECFC9CFEE
:1013C0002091A20425FD21C02091A30423FFD5CFA5
:1013D00089E390E0D2CF2091A20426FFCECF8AE20B
:1013E00090E008952091A20426FFC7CF81E390E00A
:1013F000089583EE90E0089582EE90E0089580EEE7
:1014000090E0089586EE90E0089585E390E00895D9
:10141000972F7A30B8F46630A8F48430B0F470E0D6
:1014200026E0929F600D711D1124FB019CE3899FB2
:10143000E00DF11D1124EE0FFF1FE455FF4F8591C4
:101440009491089580E090E0089581E0FCCF1F938F
:10145000CF93DF930E946609EC01C11580E5D807A0
:10146000F0F5C11580E4D80708F09CC0C03ED10556
:1014700020F5CD3CD10508F082C0C83AD10578F4FA
:10148000C53AD10508F073C0C130D10519F12097D4
:1014900009F1C430D105F0F4D0E0C0E01BC0C33C7A
:1014A000D105D0F7C85AD0E0CC0FDD1FC858DD4FAA
:1014B0000990D881C02DD4640DC0C11580E2D80731
:1014C00008F0D1C0C11581E0D80708F05AC0C83E65
:1014D000D10510F7CE01DF91CF911F910895C0364D
:1014E00082E5D80718F5C03482E5D80708F06BC04C
:1014F000C03282E5D80708F05FC0C11582E5D80781
:1015000008F497C02C2F2695269580E2289F9001FD
:1015100011248C2F8370C1E0D0E002C0CC0FDD1FFE
:101520008A95E2F7C22BD32BDD68D4CFC03A82E58F
:10153000D80760F4C03882E5D80708F459C0CF71E5
:10154000D0E0DC2FCC27C46FD06AC4CFC03C82E58A
:10155000D80708F462C0C03E82E5D80708F09CCFE7
:10156000DC2FCC27CC27DF71C06FD06AB3CFC55A30
:10157000D0E0CB58DD4FC881D0E0D064ABCFD06590
:10158000A9CF8D2F0E942309182FCE0199270E94E1
:101590006609C12FD0E0DC2FCC27CC27DF71C82B08
:1015A000D92B98CFCE0199270E946609CC27DF70EE
:1015B000C82BD92BD06A8ECFCF71D0E0DC2FCC27AF
:1015C000C16FD06A87CF2C2F26952695277080E291
:1015D000289F900111248C2F8370C1E0D0E002C0BD
:1015E000CC0FDD1F8A95E2F7C22BD32BDC6872CFBC
:1015F0002C2F26952695277080E2289F9001112494
:101600008C2F8370C1E0D0E002C0CC0FDD1F8A9523
:10161000E2F7C22BD32BDA685DCF8C2F8F710E943B
:101620002309C82FD0E0DC2FCC27CC27DF71D06274
:1016300051CF8C2F8F710E94230955E0D695C79505
:101640005A95E1F7CF70D0E0DC2FCC27282F30E07F
:1016500084FF05C044E0220F331F4A95E1F7C22BF7
:10166000D32BD06937CF8D2F8F710E942309182F6C
:10167000CE0199270E946609C12FD0E0DC2FCC272C
:10168000CC27DF71C82BD92BD2CF80915604811182
:10169000109256040895809590913D06982390935A
:1016A0003D060895809590913E06982390933E06BE
:1016B000089520914C0490911B0456E0291302C018
:1016C00080E0089530E0529FF001539FF00D112407
:1016D000E45EFB4F7181761306C07081781303C0FE
:1016E0007281741304C02F5F3F4F2770E7CF81E0F2
:1016F000089580914C0490911B04981301C00895A3
:101700008F5F8770FACFB0E0A0E0E9E8FBE00C94CF
:10171000E92C7C010091000510910105809157048E
:1017200090915804082B192BCFE0D0E0CC24C3941F
:10173000D12CBC2EC6010C2E02C0880F991F0A9412
:10174000E2F780239123892B49F4219790F7B12C5C
:101750008B2DCDB7DEB7E9E00C94052DB7018C2FAA
:101760000E94080A0E94270A019779F3F1CFCF93CC
:10177000DF93EC010E94830BBE010E94080A0E94C5
:10178000270ADF91CF9108959A3078F5863068F571
:10179000E82FF0E086E0989FE00DF11D11249E2FC8
:1017A000977083E0F695E7958A95E1F7EE0FFF1FB6
:1017B000EE0FFF1FEB50FC4F50E040E080E0219126
:1017C00030E0092E02C0369527950A94E2F7217081
:1017D0003327042E01C0220F0A94EAF7822B4F5FB1
:1017E0005F4F4430510559F7089580E008959A30CD
:1017F00098F5863088F5E82FF0E086E0989FE00DB8
:10180000F11D11248E2F877041E001C0440F8A958D
:10181000EAF783E0F695E7958A95E1F7EE0FFF1F6B
:10182000EE0FFF1FEB50FC4F30E020E070E05191D5
:10183000DF011197CB01022E02C0969587950A947D
:10184000E2F7817081958527842385278C932F5F0C
:101850003F4F2430310559F708959C0126703327F6
:101860002630310531F4886090930105809300059E
:101870000895877FF9CF21E030E002C0220F331FA7
:101880008A95E2F7209530958091000590910105A9
:10189000822393230E942D0C089590914D048095EE
:1018A000892380934D04282F277091F4282F082E28
:1018B000000C330B9217130659F09091A30492FF7A
:1018C00007C08595859585950E943B0C10924D0427
:1018D000089521E030E002C0220F331F8A95E2F71D
:1018E0008091000590910105822B932B0E942D0C75
:1018F000089590935804809357040895FC018381C0
:101900009481892B29F08081918189238F3F51F423
:1019100080E00895843FE1F717C0883EA8F0813F3A
:10192000B9F712C0808191810E94B70B92959F7088
:10193000963099F358F4925F9F70923048F7803F49
:1019400019F040F7883E20F781E008959A5FF4CFC0
:10195000A5E0B0E0EEEAFCE00C94EF2C49835A835A
:1019600089819A81662399F0222389F00E94830B52
:10197000182F682F89819A810E94F70B69817A81DB
:10198000812F0E94080A2596E3E00C940B2D0E94FB
:10199000C40B182FF3CF9C013A9521153F4150F508
:1019A000FC01EE27F170BC0166277270AC01442780
:1019B00054709C012227387094FF0EC080E1EF2BF9
:1019C00009F480E0672B09F08062452B09F0806400
:1019D000232B89F08068089581E0EF2B09F480E0E3
:1019E000672B09F08260452B09F08460232B19F0E6
:1019F0008860089580E00895CF93DF93682F81E099
:101A00006A3019F06D3031F480E00E947C0DDF9176
:101A1000CF9108958091A3089091A40826E0FC013D
:101A2000ADE9B8E001900D922A95E1F7603E08F427
:101A300058C026E0FC0111922A95E9F7C091A3084D
:101A4000D091A40846E050E0BE018DE998E00E94E4
:101A5000732D9E012D593640892B41F1C90145E076
:101A6000969587954A95E1F741E050E0BA0102C0AA
:101A7000660F771F8A95E2F7CB0160919B06709104
:101A80009C06862B972BB9016B5F7F4FE5E076951F
:101A90006795EA95E1F702C0440F551F6A95E2F792
:101AA000842B952B90939C0680939B062A5F3F4F37
:101AB00040919A06642F70E0C9010E94CC2C481B0B
:101AC000463010F4240F311D211572E0370710F055
:101AD00030E020E02356394F3093A4082093A30828
:101AE00096CFF6E06F9FB001112467557B4F46E01B
:101AF00050E00E946A2DA2CFCF93382FE091A30827
:101B0000F091A408ED59F64020919A06622F70E0FA
:101B1000CF010E94CC2C281B822F332361F066E07A
:101B20000E94172DC82FC15010F4CF91089580E264
:101B30000E94FC0CF8CF9F01280F311D2115324067
:101B400018F080E0F0E0E0E08E0F9F2F911D8356AB
:101B5000994F9093A4088093A308E7CF80913E0605
:101B600090913D06892B8093E80390915604992328
:101B700091F0892B8093E80320E08AEE93E0FC014A
:101B80003191CF0131112F5FF3E0803F9F07B9F70B
:101B900021110E94450B48E050E06EE474E088EEAD
:101BA00093E00E94732D892BA9F088E0E8EEF3E022
:101BB000AEE4B4E001900D928A95E1F7E09143061E
:101BC000F0914406309731F00280F381E02D88EEE9
:101BD00093E009950895CF93DF93EC01EA85FB85A7
:101BE000309719F06C857D8509958B810E944B0B90
:101BF0008C810E94520B0E94AE0D86E0FE01119274
:101C00008A95E9F7DF91CF910895CF93DF93EC01A7
:101C10008D8181FD18C082608D8380913D069B81FE
:101C2000892B80933D0680913E069C81892B809371
:101C30003E060E94AE0DE885F985309721F06C854F
:101C40007D85CE0109951092400610923F068D8148
:101C500080FD03C0CE010E94EB0DDF91CF9108956E
:101C600010923E06EAEEF3E086E0DF011D928A95CF
:101C7000E9F790E080E00E941B0790E080E00E947E
:101C8000F60610923D060E94AE0D0895AAE2B0E05D
:101C9000ECE4FEE00C94EF2C8BE596E02091F10053
:101CA000FC012193CF01F6E083369F07B9F78091BD
:101CB0005C06833009F470C0B8F4813009F447C081
:101CC000823009F4B1C08091E80083FF7EC2809128
:101CD0005B0690915C069A3008F077C2E92FF0E03D
:101CE000ED57FF4C0C94642D8A3009F48CC08B3076
:101CF00009F46FC0893039F780915B06813219F79A
:101D000080915F06909160060297E8F68091E80066
:101D1000877F8093E8008091E80082FF38C090912F
:101D2000F3008091F200029731F48091F10081304C
:101D300011F0863021F48091F10080934E0680915D
:101D4000E8008B778093E8000E94C205BCCF8091A9
:101D50005B06813A09F0B7CF8091E800877F8093D6
:101D6000E80080915F0690916006892B61F468E03D
:101D70008FE496E070E00E946E068091E8008B7719
:101D80008093E800A0CF60E090E080E0F3CF809106
:101D900059068111C0CF97CF80915B06813A09F037
:101DA00092CF80915F0690916006892B09F08BCFCE
:101DB0008091E800877F8093E8008091E80080FFB1
:101DC000FCCF80919D018093F1008091E8008E7797
:101DD000B9CF80915B06813209F075CF80915F06A3
:101DE00090916006892B09F06ECF8091E800877F83
:101DF0008093E8000E94C20580915D0680939D015A
:101E00000E94300E60CF80915B06813209F05BCF7B
:101E10008091E800877F8093E8000E94C20580914E
:101E20005E0680934D064FCF80915B06813A09F0A4
:101E30004ACF8091E800877F8093E8008091E80096
:101E400080FFFCCF80914D06BECF803899F082385C
:101E500009F0BBC180915F068F70873008F0B5C173
:101E60008093E9008091EB0085FB882780F9109230
:101E7000E90006C080915706909158069111826042
:101E80009091E800977F9093E8008093F100109282
:101E9000F1008091E8008E7794C1882309F482C113
:101EA000823009F092C180915D06811185C18091D7
:101EB0005F068F702FEF280F263008F086C18093C1
:101EC000E9002091EB0020FF77C1933031F480913D
:101ED000EB0080628093EB006FC19091EB0090610A
:101EE0009093EB0021E030E001C0220F8A95EAF7E1
:101EF0002093EA001092EA008091EB008860EACF1C
:101F0000811163C110915D061F778091E300807895
:101F1000812B8093E3008091E800877F8093E80025
:101F20000E94C2058091E80080FFFCCF8091E30011
:101F300080688093E30082E0111183E0809359066A
:101F400044C18058823008F040C180915D06909174
:101F50005E068C3D23E09207A1F583E08A838AE246
:101F600089834FB7F894DE01139620E03EE051E2FA
:101F7000E32FF0E050935700E49120FF03C0E29577
:101F8000EF703F5FEF708E2F90E0EA30C0F0C796A1
:101F90008D939D932F5F243159F74FBF8091E800B7
:101FA000877F8093E8006AE270E0CE0101960E948C
:101FB0006E068091E8008B778093E80006C1C0969A
:101FC000E7CF40915F0650916006292F33272330D9
:101FD000310509F444C078F52130310509F46FC0AA
:101FE0008BE390E0E2E2F4E02230310509F0EDC04D
:101FF0002091E800277F2093E8002091610630912E
:1020000062068217930708F49C0140E02115310510
:1020100009F064C0411162C08091E80082FDC9CF1F
:1020200080915906882329F2853019F28091E800C1
:1020300083FFF2CFBECF21323105A9F12232310523
:1020400009F0C3C04115510509F443C041305105A1
:1020500009F0BBC082E390E0E0EBF3E0C9CF992741
:1020600081309105C1F0009759F0029709F0ADC099
:10207000EFE6F4E0E4918E2F90E0EFE6F4E007C0A5
:10208000E5EAF4E0E4918E2F90E0E5EAF4E00097D1
:1020900009F49BC0ADCFE7E8F4E0E4918E2F90E027
:1020A000E7E8F4E0F4CF4115510571F041305105F6
:1020B00009F08BC089E090E0EDE4F4E099CF82E193
:1020C00090E0EDE5F4E094CF89E090E0E4E3F4E023
:1020D0008FCF80E490E0E2EEF3E08ACF8091590662
:1020E000882309F466CF853009F463CF8091E80036
:1020F00083FD5FCF8091E80082FD8ECF8091E80064
:1021000080FF84CF9091F3008091F200211531057A
:1021100019F08830910550F041E0089709F040E04F
:102120008091E8008E778093E80070CF44914093CF
:10213000F1003196215031090196E8CF803809F03D
:1021400044C08091E800877F8093E80080915A0620
:102150008093F1009ECE811138C010915D0612303F
:10216000A0F58091E800877F8093E80010935A06DD
:102170000E94C205112311F084E005C08091E300A4
:1021800087FDFACF81E08093590642E061EC81E05F
:102190000E94E10542E261EC82E00E94E10580914B
:1021A000590613C080915D06813079F481E0933047
:1021B00009F080E0809358061092E9008091E800D1
:1021C000877F8093E8000E94C2058091E80083FF2A
:1021D0000AC08091E800877F8093E8008091EB003F
:1021E00080628093EB00AA96E3E00C940B2D882389
:1021F00021F00E944B0B0E94AE0D0895882339F008
:1022000090913D06982B90933D060E94AE0D089547
:10221000882321F00E94520B0E94AE0D089588235E
:1022200039F090913E06982B90933E060E94AE0D99
:102230000895882391F19CEF980F913A80F4EAEE8B
:10224000F3E020EF33E09191891303C0DF01119790
:102250001C922E173F07B9F70E94AE0D089590E229
:10226000980F983050F4877091E001C0990F8A95CB
:10227000EAF7892F0E94520BEFCF9BE5980F93301E
:1022800028F490E080E00E941B070895885A8B3163
:1022900020F490E080E00E94F6060895CF93DF934B
:1022A000EC010E941911CE010E94CB0C9E01205E10
:1022B00031092830310510F0CD2B29F40E94081186
:1022C000DF91CF9108950E94F710FACF8091040119
:1022D000909105018130910539F0029751F01092EB
:1022E00005011092040108958FE494E00E944E11BC
:1022F000F6CF85EE0E941911F2CF809101019091E5
:1023000002018130910539F0029751F010920201DB
:1023100010920101089580E594E00E944E11F6CFDD
:1023200081EE0E941911F2CFCF93C82F8823B1F00C
:102330008CEF8C0F813A00F5EAEEF3E080EF93E04A
:10234000DF012D91C21761F08A179B07D1F76C2F1F
:1023500088EE93E00E94DC060E94AE0DCF910895B6
:102360002191C21303C0DF0111971C928E179F07A2
:10237000B9F70E94AE0DEBCF80E28C0F883068F485
:10238000C77021E030E001C0220FCA95EAF78091C2
:102390003E06822B80933E06DFCFEBE5EC0FE33069
:1023A00040F4F0E0EB58FD4F808190E00E941B0765
:1023B000D5CFC85ACB3190F6EC2FF0E0EE0FFF1FCF
:1023C000E858FD4F808191810E94F606C7CFCF93D8
:1023D000DF93EC010E94CB0C9E01205E3109283076
:1023E000310510F0209741F40E940F118C2F0E94AC
:1023F0009411DF91CF9108950E94FE10F7CFFC0158
:102400002281213029F010920501109204010895D3
:10241000858180FD0BC081E090E090930501809361
:1024200004018FE494E00E94E711089582E090E0B7
:10243000909305018093040185EE0E949411089504
:10244000FC012281213029F0109202011092010139
:102450000895858180FD0BC081E090E0909302019A
:102460008093010180E594E00E94E711089582E0E5
:1024700090E0909302018093010181EE0E949411FB
:1024800008950F931F93CF93DF93EC01FC0101900C
:102490000020E9F78F0101501109C017D10728F07A
:1024A000DF91CF911F910F91089589910E94FC0CAB
:1024B000F4CF0F931F93CF93DF938B01EA01909199
:1024C0005906943061F58093E9008FEF9091E80010
:1024D000815095FD06C095ED9A95F1F700008111A8
:1024E000F5CF8091E80085FF1AC00E949105811107
:1024F00011C08091E80085FD06C08091E8008E77CC
:102500008093E800F2CFF80181918F018093F10070
:10251000219779F78091E8008E778093E800DF912A
:10252000CF911F910F91089543E050E0BC0182E0EC
:102530000E9459120895CF93DF93EC0148E050E0D8
:10254000BC0181E00E94591288E0FE01AFE4B6E0D0
:1025500001900D928A95E1F7DF91CF910895539AFA
:102560003BB1377F2BB128604FB7F89489E595E0F0
:10257000FC015191CF0168E02BB9000000C057FF6A
:102580003BB9550F000000C000C000C03BB900C0FF
:102590006A9591F7F6E087339F0751F74FBF8FE5B4
:1025A00094E00197F1F700C000000895B0E0A0E0CA
:1025B000ECEDF2E10C94E82C7C015B016A01809166
:1025C000910401E010E08A3010F40AE010E0C1E06C
:1025D000D0E0B501C701F6010995811104C021962B
:1025E0000C171D072CF4CDB7DEB7EAE00C94042DD0
:1025F000CC9F9001CD9F300D300D112490E080E0F4
:1026000045E34A95F1F70000019682179307C1F759
:10261000E0CF80916504811110C08091D800806165
:102620008093D8008AE18A95F1F700C08091D900A3
:1026300080FF0AC081E08093650481E09091650489
:10264000913009F080E0089582E0809365040E9453
:10265000720510925906F1CF0E940913882359F090
:10266000E0914306F0914406309729F00190F08103
:10267000E02D0995089580E00895FF920F931F9330
:10268000CF93DF93EC01F62E042F122F0E94091333
:1026900081110FC0C532D1057CF0A597FE01EE0F68
:1026A000FF1FEC0FFD1FE75AFA4FF18200831283E0
:1026B00003C0C532D10594F3CDB7DEB7E5E00C9485
:1026C000092DCF93C82F0E940913882329F081E098
:1026D000C53228F080E003C081E0CA34D8F7CF913A
:1026E0000895B0E0A0E0E7E7F3E10C94EA2C7C0168
:1026F000C0919E018FE0C89FC02D11241FE01C0FC8
:102700001B3408F01AE40E940913882319F01632CA
:1027100008F015E20E940913811103C0C53208F4C4
:10272000C5E22091980631E0230F08F42FEF30E046
:1027300050E040E06FEF7FEF80E090E00E94452D99
:102740006901D0E001E02C2FC11740F0812F0E94D9
:102750006113CDB7DEB7E8E00C94062DFE01E55617
:10276000FC4F808190919F01892309F14091670678
:102770004150042E000C550B47FF1BC0C601609151
:102780009806600F08F46FEF0E946C08AC0160912E
:1027900095067091960680919706F70109950E941B
:1027A0007608462F282F672FCE010E940308219616
:1027B000CACFFA01E959F94F818982130AC0FA0197
:1027C000EE0FFF1FE959F94F818D928D8C159D05F4
:1027D000B0F241505109D0CFEF92FF920F931F9367
:1027E000CF93DF937C01C0919E018FE0C89FC02DE5
:1027F00011241FE01C0F1B3408F01AE40E94091377
:10280000882319F0163208F015E20E94091381118D
:1028100003C0C53208F4C5E26091980666956695D6
:1028200021E0620F08F46FEF8091630690916406D7
:102830000E946C08082FD0E0C11740F0812F0E9441
:102840006113CDB7DEB7E6E00C94082DFE01E55626
:10285000FC4F808190919F01892391F060919506B2
:102860007091960680919706202F4C2FF7010995BD
:102870000E947608462F282F672FCE010E9403085A
:102880002196DACFB0E0A0E0E8E4F4E10C94E82C83
:10289000182F80919C01811323C09091940693700E
:1028A00020919B0130E081E09217130609F480E04B
:1028B00081708093A0018091990690919F01981753
:1028C00039F080939F0140E060E080E00E940608BC
:1028D0001B3088F4E12FF0E0E357FF4C0C94642D9B
:1028E00081E0E6CF8091A001882389F140E060E09B
:1028F00080E00E94060880E02AC0C0919E018FE01F
:10290000C89FC02D11240FE00C0F0B3408F00AE40F
:102910000E940913882319F0063208F005E20E948C
:102920000913811103C0C53208F4C5E26091950610
:1029300070919606809197060E947608F62EE72EF3
:10294000D82ED0E0C017D8F0802F0E94611390914C
:102950009E019F5F90939E0181110CC082E0809345
:10296000A1018091A001811105C0111103C083E074
:102970008093A101CDB7DEB7EAE00C94042DFE01EF
:10298000E556FC4F808190919F01892331F02D2DD8
:102990004F2D6E2DCE010E9403082196D3CFC091FA
:1029A0009E018FE0C89FC02D11240FE00C0F0B3447
:1029B00008F00AE40E940913882319F0063208F08F
:1029C00005E20E940913811103C0C53208F4C5E273
:1029D000E0909606F0909706D09195066D2F7E2D8B
:1029E0008F2D0E947608D62EC72EB82E609198069D
:1029F0006D0F7E2D8F2D0E947608F62EE72EA82EC5
:102A0000D0E0C01708F0A0CFFE01E556FC4F908142
:102A100080919F01892359F02A2D4F2D6E2D90FD15
:102A200003C02B2D4D2D6C2DCE010E940308219645
:102A3000E8CFC0919E018FE0C89FC02D11240FE008
:102A40000C0F0B3408F00AE40E940913882319F0D4
:102A5000063208F005E20E940913811103C0C53255
:102A600008F4C5E2E0909606D0909706209198066B
:102A7000B0E4FB2E3F2D329F312D1124F32ED0E0F8
:102A8000C01708F061CFFE01E556FC4F80819091A0
:102A90009F018923B9F0FE01EE0FFF1FE553FD4FA3
:102AA00085AD82958F70609195068F9D600D112484
:102AB0007E2D8D2D0E947608462F282F672FCE0160
:102AC0000E9403082196DCCFC0919E018FE0C89F31
:102AD000C02D11240FE00C0F0B3408F00AE40E9403
:102AE0000913882319F0063208F005E20E94091341
:102AF000811103C0C53208F4C5E2D0909606E0907B
:102B0000970620919806F0E4FF2E3F2D329F312D3D
:102B10001124F32ED0E0C01708F016CFFE01E556C1
:102B2000FC4F808190919F018923D9F0FE01EE0F27
:102B3000FF1FE553FD4F64ADF69EB0011124E5E0A3
:102B400075956795EA95E1F780919506680F7D2D5B
:102B50008E2D0E947608462F282F672FCE010E94C7
:102B600003082196D8CFC0919E018FE0C89FC02D49
:102B700011240FE00C0F0B3408F00AE40E94091333
:102B8000882319F0063208F005E20E94091381112A
:102B900003C0C53208F4C5E2F0909506D0919606C0
:102BA000E090970660919806669566956695809187
:102BB0006306909164060E946C080E944D0880583C
:102BC00087FD8195880F282F3E2D239F212D1124CD
:102BD000822F6F2D7D2F0E947608F62EE72ED82E9D
:102BE000D0E0C01708F0B0CEFE01E556FC4F808162
:102BF00090919F01892331F02D2D4F2D6E2DCE0107
:102C00000E9403082196EDCF8AEE97E00E94EC1314
:102C10009ECEC0919E018FE0C89FC02D11245FE021
:102C2000F52EFC0E2AE42F1510F44AE4F42E0E942F
:102C30000913882329F035E23F1510F435E2F32E0D
:102C40000E940913811103C0C53208F4C5E26091E6
:102C500098066695669580916306909164060E9439
:102C60006C08D82E80E48D0D0E944D0890E8C92E86
:102C7000C80E8D2D0E944D0820E8B22EB80ED0E06F
:102C8000CF1510F08F2D61CEFE01E556FC4F8081EF
:102C900090919F018923A1F060919506709196060D
:102CA00080919706ED2C0C2F2B2D4C2D0E941F0888
:102CB0000E947608462F282F672FCE010E94030816
:102CC0002196DECF89ED97E0A1CF82ED97E00E94BB
:102CD00071133DCE8CEC97E0FACF0F931F930E94B7
:102CE0000913882329F00E94D0061F910F9108959F
:102CF0000E94D006009192041091930420919404B4
:102D000030919504600F711F821F931FEECFCF92F9
:102D1000DF92EF92FF926B017C010E9409138823DE
:102D2000A1F02FB7F8946091480670914906809100
:102D30004A0690914B062FBF6C197D098E099F0999
:102D4000FF90EF90DF90CF9008950E946D16F4CF22
:102D50000E94300E2FEF84E39CE021508040904091
:102D6000E1F700C0000088E19CE00FB6F894A89558
:102D7000809360000FBE90936000FFCFB0E0A0E0B2
:102D8000E4ECF6E10C94EA2C6C017B0164E670E063
:102D900088E70E942A2AEC0197FD12C010E000E0AB
:102DA000F601E00FF11F849164E670E00E94962A1C
:102DB000EC01892B29F40F5F1F4F0E151F0581F7BA
:102DC0000E940C2BCE01CDB7DEB7E8E00C94062DA7
:102DD00080913B0690913C06911103C091E08927B8
:102DE0000895882369F062E070E08EEA93E00E9423
:102DF000BE16892B19F080913B06089510923B0670
:102E000080913B06EBCFCF93C0913B0680913C066F
:102E10008823D1F00E94D006605A75418F4F9F4F92
:102E200060933706709338068093390690933A067C
:102E3000C11108C062E070E08CEA93E00E94BE1607
:102E4000892B29F0C0913B068C2FCF91089581E00A
:102E500080933B06F7CF4F925F926F927F928F9253
:102E60009F92AF92BF92CF92DF92EF92FF926091CA
:102E700054057091550580915605909157050E9413
:102E800087166B017C010E946D164B015C018092DC
:102E9000540590925505A0925605B0925705A09101
:102EA0002B05EBE2F5E08A2F90E04FEF5FEF60E05B
:102EB00070E04C195D096E097F09A91328C0809341
:102EC0002B0580915805811135C090919406892F6A
:102ED000837019F0892F869586959091A101913084
:102EE00009F441C0992341F1923009F43FC0933075
:102EF00009F43FC0FF90EF90DF90CF90BF90AF906C
:102F00009F908F907F906F905F904F900895218D4C
:102F1000328D2901712C612C441555056605770504
:102F200020F481509F5F3296C8CF2C0D3D1D328F0B
:102F3000218FF8CF80E0D1CF10929E01809263065E
:102F400090926406A0926506B092660689E2EBE272
:102F5000F5E0A7E6B6E001900D928A95E1F781E0F1
:102F60008093A101C7CF0E944214C4CF0E94BF0723
:102F7000C1CF80919306882351F046E050E06CE188
:102F800070E084E996E00E944D30109293066091C3
:102F900063067091640680916506909166060E94B2
:102FA0008716603171058105910508F4A3CF109251
:102FB000A101A0CFE4E9F6E085E080838091A20141
:102FC0009091A301A091A40181839283A3838FE7B1
:102FD00084838FEF858346E050E06CE170E0CF01A1
:102FE0000E944D30109293060895A4E0B0E0EBEFFC
:102FF000F7E10C94EF2C4091890450918A04609180
:103000008B0470918C042FB7F894809148069091AE
:103010004906A0914A06B0914B062FBF841B950B21
:10302000A60BB70B11E084369105A105B10570F12F
:103030000E946D166E5F7F4F8F4F9F4F69837A831B
:103040008B839C8380911F01909120018D589B4F11
:1030500040911E0150E04530510510F044E050E031
:10306000BE016F5F7F4F0E94802D83E090E00E9441
:10307000562C182F882351F00E94D00660938904A3
:1030800070938A0480938B0490938C04812F2496F0
:10309000E3E00C940B2DEF92FF921F93CF93DF93FD
:1030A00000D000D000D0CDB7DEB77B0190E080E04B
:1030B0000E94562C182F882309F480C040910901E2
:1030C00050E04115510511F041E050E060910A01D6
:1030D00070910B016D587B4FCE0106960E94802D9A
:1030E00040916B0450916C0460916D0470916E047A
:1030F0002FB7F8948091480690914906A0914A060E
:10310000B0914B062FBF841B950BA60BB70B8436D3
:103110009105A105B10540F484E794E00E944805BB
:103120009E81891709F44AC081E090E00E94562CE4
:10313000811116C010E085E0E6E6F4E0D7010190C9
:103140000D928A95E1F7812F26960FB6F894DEBF8F
:103150000FBECDBFDF91CF911F91FF90EF900895EB
:103160004091110150E04630510510F045E050E02B
:1031700060911201709113016D587B4FCE01019641
:103180000E94802D84E794E00E9448059E81891367
:10319000D1CF0E94D00660936B0470936C0480932F
:1031A0006D0490936E0485E0FE013196A6E6B4E0CE
:1031B00001900D928A95E1F711E0BDCF85E0E4E73B
:1031C000F4E0DE01119601900D928A95E1F711115C
:1031D000EACFB1CF4F925F926F927F928F929F9280
:1031E000AF92BF92EF92FF920F931F93CF93DF9313
:1031F0007B01FB0140805180628073809FB7F8940F
:103200008090480690904906A0904A06B0904B06E0
:103210009FBF84189508A608B708F4E68F16910496
:10322000A104B10418F4C1E0442329F1C82F880F88
:10323000DD0BFE0183E0EE0FFF1F8A95E1F7EA5FE9
:10324000FE4F818192818D589B4F408150E0041741
:10325000150708F4A801B9010E94802DCE010E9433
:10326000562CC82F882339F00E94D006F7016083BE
:103270007183828393838C2FDF91CF911F910F9164
:10328000FF90EF90BF90AF909F908F907F906F9046
:103290005F904F900895A7E0B0E0E1E5F9E10C946C
:1032A000EE2C86E0E4E9F6E0DE01119601900D9245
:1032B0008A95E1F7809158058F8347E050E062E8F6
:1032C00074E0CE0101960E94732D41E0892B09F430
:1032D00040E007E010E09E012F5F3F4F6DE874E093
:1032E00084E00E94EA182796E4E00C940A2D0F93DC
:1032F0001F93CF93DF93EC0145E050E069E774E062
:103300000E94732D41E0892B09F440E005E010E0B4
:103310009E016FE674E082E00E94EA18DF91CF918F
:103320001F910F9108959091A30492FB222720F9F9
:10333000281779F080FB92F99093A3046091A2047E
:103340007091A30484E090E00E947B3082E00E94B0
:103350004D0C089567EE7EEF90E080E00E947B3098
:1033600060E082E090E00E945D3060E083E090E009
:103370000E945D30109258041092570460E074E18E
:1033800084E090E00E947B3060E086E090E00E9464
:103390005D306FEF87E090E00E945D3040E050E0EC
:1033A000BA0188E090E00E946F3060E08DE090E02C
:1033B0000E945D3040E050E0BA0188E190E00E9458
:1033C0006F3060E087E190E00E945D3040E050E0C7
:1033D000BA018CE190E00E946F3070E060E080E222
:1033E00090E00E947B3040E050E0BA0188E190E03C
:1033F0000E946F3040E050E0BA018FE090E00E9400
:103400006F3040E050E0BA0183E190E00E946F30FD
:1034100008951F920F920FB60F9211242F933F938E
:103420004F935F936F937F938F939F93AF93BF93CC
:10343000CF93DF93EF93FF93D091E900DF708091FA
:10344000EC00C82FC17080FDC0E81092E9008091A7
:10345000F000877F8093F00078940E94460E1092CF
:10346000E9008091F00088608093F000CD2BCF7050
:10347000C093E900FF91EF91DF91CF91BF91AF91A0
:103480009F918F917F916F915F914F913F912F917C
:103490000F900FBE0F901F9018951F920F920FB6AE
:1034A0000F9211242F933F934F935F936F937F93CA
:1034B0008F939F93AF93BF93EF93FF938091E1001E
:1034C00082FF09C08091E20082FF05C08091E10087
:1034D0008B7F8093E1008091DA0080FF24C080918F
:1034E000D80080FF20C08091DA008E7F8093DA00C0
:1034F0008091D90080FF9DC080E189BD82E189BDB6
:1035000009B400FEFDCF81E08093590680914C06FE
:10351000811109C00E9472050E9413068091E20089
:1035200084608093E2008091E10080FF17C0809169
:10353000E20080FF13C08091E2008E7F8093E20062
:103540008091E20080618093E2008091D8008062E7
:103550008093D80019BC85E0809359068091E100E2
:1035600084FF2BC08091E20084FF27C080E189BDE9
:1035700082E189BD89B5982F917080FFFBCF809142
:10358000D8008F7D8093D8008091E1008F7E80935A
:10359000E1008091E2008F7E8093E2008091E20062
:1035A00081608093E20080915A06882309F447C025
:1035B00084E080935906809159068091E10083FF51
:1035C00027C08091E20083FF23C08091E100877FC4
:1035D0008093E10082E08093590610925A06809110
:1035E000E1008E7F8093E1008091E2008E7F8093E6
:1035F000E2008091E20080618093E20042E060E0BE
:1036000080E00E94E1058091F00088608093F000E6
:10361000FF91EF91BF91AF919F918F917F916F91AA
:103620005F914F913F912F910F900FBE0F901F9080
:10363000189519BC1092590610924C0674CF8091BF
:10364000E30087FD93E090935906B5CF78941F92DD
:103650001FB61F9211248F939F93AF93BF938091B6
:10366000480690914906A0914A06B0914B060196F2
:10367000A11DB11D8093480690934906A0934A0668
:10368000B0934B06BF91AF919F918F911F901FBE3A
:103690001F9018959C014FB7F8948091480690911F
:1036A0004906A0914A06B0914B064FBF821B930B6F
:1036B00008952FB7F8948091480690914906A091FB
:1036C0004A06B0914B062FBF08951F93CF93DF9307
:1036D000C62FD42F122FFC0182818823A1F0609382
:1036E00092060E94591B9093910680939006C77092
:1036F00081E001C0880FCA95EAF70E940F11DF919F
:10370000CF911F91089580919206681342C08091D5
:103710009006909191060E944A1B86399105C8F542
:10372000CD17C9F080E28C0F883040F4C77081E07B
:1037300001C0880FCA95EAF70E94081180E28D0F38
:10374000883048F481E09D2F977001C0880F9A95CA
:10375000EAF70E940F11812F0E9494118AE090E0F5
:10376000EFE9FFE03197F1F700C000000197C1F7E2
:10377000812F0E94191180E28D0F883008F0BFCF91
:10378000D77081E001C0880FDA95EAF70E9408112E
:10379000B6CFC77081E001C0880FCA95EAF7F6CFAF
:1037A000AFE0B0E0E6EDFBE10C94E52C8E010F5F9D
:1037B0001F4F8AE0D8011D928A95E9F780EBC82E49
:1037C00082E0D82EF12CE12CAA24A394B12C2BEB6F
:1037D000822E22E0922EF60181916F018F3F09F433
:1037E00042C0F894E82FE295EF70F0E021A18F70CD
:1037F000A50102C0440F551F8A95E2F7CA01922F16
:10380000982B91A392A18095892382A3789400C0DC
:10381000E5EBF2E0712C31E021912F3F09F46BC010
:10382000A22FA295AF70B0E090968C9190E02F708F
:1038300002C0959587952A95E2F780FD5CC0832F9D
:10384000782A330F8E169F0639F7F601319780815B
:103850008F3F11F00E940C0950EA5A95F1F7F801D8
:10386000EE0DFF1D70828FEFE81AF80AA5E0EA1648
:10387000F10409F0B0CF4AE050E0B80186E994E0E5
:103880000E94732D009741F02AE0F801A6E9B4E008
:1038900001900D922A95E1F70091A104892B69F11D
:1038A00081E080935D040E94591B90935C04809397
:1038B0005B0480915B0490915C040E944A1B059715
:1038C00000F110E00C551B4F45E050E066E974E054
:1038D000C8010E94732DD12C892B51F085E0E6E9B7
:1038E000F4E0D80101900D928A95E1F7DD24D3949C
:1038F00010925D0407C080E0A3CF80915D04811128
:10390000D8CFD12C0E940913C82EE091A10488239E
:1039100009F47FC07E01BBE0EB0EF11C85E0D7010E
:103920001D928A95E9F70E2F10E00C551B4F8091E0
:1039300091048A30D8F54BE458E1B701C8010E94E0
:10394000D612882309F454C047E759E1B701C801EA
:103950000E94D612882309F44BC045EF57E1B70106
:10396000C8010E94D612882309F442C04BE459E1F1
:10397000B701C8010E94D6128823D1F11092910498
:103980008091A00490E045E050E0B7018C559B4F3A
:103990000E94732D21E020936404892BE1F4C12C53
:1039A0008C2D8D292F96EDE00C94012D80915E04D5
:1039B00090915F040E944A1B843F914008F0BBCF66
:1039C00080916404882359F385E0F70111928A9568
:1039D000E9F710926404A091A004B0E0AC55BB4F8D
:1039E00085E0FE013B9601900D928A95E1F7D8CFD4
:1039F000809191048F3F31F08F5F809391048A30E2
:103A000008F4BECF0E94591B90935F0480935E041C
:103A1000D7CF0091A00410E00C551B4FF0E0EC55FF
:103A2000FB4F85E0A4E7B4E001900D928A95E1F7A1
:103A300084E794E00E9448058093730485E0E9E7F9
:103A4000F4E0D80101900D928A95E1F780907E0410
:103A500090907F04A0908004B090810480916004D5
:103A600090916104A0916204B09163048816990654
:103A7000AA06BB06D1F08092600490926104A092E5
:103A80006204B09263040E94091381110EC00E9467
:103A9000D006861A970AA80AB90A809292049092D0
:103AA0009304A0929404B092950486E0E2E8F4E0D6
:103AB000A4E9B6E001900D928A95E1F7109188048F
:103AC000112349F080915805811105C00E944214CC
:103AD00080E00E94BF071093580562CFB0E0A0E0DD
:103AE000E4E7FDE10C94E82C8C01DC0113968D9148
:103AF0009C911497892B41F04C9111965C91842FE5
:103B000085238F3F09F0C3C4CDB7DEB7EAE00C943C
:103B1000042DCC33D10508F00BC5FE01E350FE4F58
:103B200080818093930104C540E2F42ECC33D1050B
:103B300020F4FE01E75CFD4FF0801F92FF92DF93BF
:103B4000CF93D8018C911F928F9311968C911F92D5
:103B50008F9385EA91E09F938F931F9288E18F93D3
:103B600083ED94E09F938F930E94902DEDB7FEB765
:103B70003E960FB6F894FEBF0FBEEDBF8091F203E4
:103B80009091F303449709F479C08091F2039091E6
:103B9000F303FC01E551FB4FF08201969093F30390
:103BA0008093F203CE0197558F3F910511F008F0F5
:103BB0007EC06E01DD242EE0C29FF0011124CF01F2
:103BC000895C9E4F7C01D80112968C91E45CFE4F7B
:103BD000908180FB90F99083882309F460C00E9453
:103BE000591B9093BA048093B904F70182818F5FC7
:103BF000828380913D0690913E06892B838380913C
:103C0000560484830680F781E02D309731F0D70188
:103C10001C966D917C91C70109958EE08C9DF001F9
:103C20008D9DF00D1124E95CFE4F858181FF34C02C
:103C300090E080E090933F0680934006D801129672
:103C40008C91882309F4E1C410929206CE0190571A
:103C5000839708F0C4C484E090E00E9447309093BA
:103C6000A3048093A204FE01E150F047E232F10583
:103C700008F045C0E856FF4C0C94642D1092F303F5
:103C80001092F203EBEEF4E08FEF94E020E2219348
:103C90008E179F07E1F779CF9C2F8D2FCBCFF701A0
:103CA000858181FFCBCFC7010E94EB0DC7CFFE01FD
:103CB000E851FC47E730F10508F6E654FF4C0C9458
:103CC000642D26E241EE61EEC8010E94651B74C4BA
:103CD00027E245EE65EEF8CF26E241EE60EEF4CF46
:103CE00027E245EE64EEF0CF26E241EE62EEECCF45
:103CF00027E245EE66EEE8CF28E241E0EBCF809187
:103D0000A20481608093A20495C08091A30488607E
:103D10008093A3048FC08091A2048260F3CF80912E
:103D2000A2048460EFCF8091A2048860EBCF8091E1
:103D3000A3048160EDCF8091A3048260E9CF8091DC
:103D4000A2048061DFCF8091A2048062DBCF8091EA
:103D5000A2048064D7CF0E94300E8091A2048068B4
:103D6000D1CF8091A2048C60CDCF8091A3048360D9
:103D7000CFCF8091A2048E7FC5CF8091A304877F8F
:103D8000C7CF8091A2048D7FBDCF8091A2048B7F8D
:103D9000B9CF8091A204877FB5CF8091A3048E7F95
:103DA000B7CF8091A3048D7FB3CF8091A2048F7E83
:103DB000A9CF8091A2048F7DA5CF8091A2048F7B93
:103DC000A1CF0E94300E8091A2048F779BCF80916B
:103DD000A204837F97CF8091A3048C7F99CF809199
:103DE000A20482FB992790F921E0922790FB82F9A7
:103DF00090FB83F987CF8091A304982F90959170C1
:103E00008E7F892B90FB81F983CF9091A204892F1B
:103E10008F7B96FF806476CF0E94300E9091A20433
:103E2000892F97FB87F980586DCF61E08EE090E095
:103E30000E945D306091A2047091A30484E090E040
:103E40000E947B300E94300EB7C360E0EFCF9091AC
:103E5000A204892F8F7E94FF806154CF9091A20499
:103E6000892F8E7F90FF81604DCF9091A304892F81
:103E7000877F93FF88604CCF8091F40381110FC03E
:103E800089E2EAEEF3E020EF33E09191891303C079
:103E9000DF0111971C922E173F07B9F7B3C385E3D3
:103EA000F0CF8091940691E0892780939406109238
:103EB000A101809193068160809393067DC34AEAB5
:103EC00057E064EB77E00E94400776C344EB57E08D
:103ED0006AEA77E0F8CF46E957E060EA77E0F3CFA7
:103EE00040EA57E066E977E0EECF4CE757E069E853
:103EF00077E0E9CF49E857E06CE777E0E4CF42E6C6
:103F000057E06FE677E0DFCF4FE657E062E677E015
:103F1000DACF46E457E064E577E0D5CF44E557E0F3
:103F200066E477E0D0CF81E00E942F0545C385E0AD
:103F3000FBCF0E94300EBFEFE4E3FCE0B150E04065
:103F4000F040E1F700C0000081E08093E00080E2F3
:103F50008093D8001092C9008FE19EE40197F1F799
:103F600000C0000087E090EBDC018093A5089093EF
:103F7000A608A093A708B093A80888E19CE00FB614
:103F8000F894A895809360000FBE90936000FFCFD7
:103F90006FEF7FEF90E080E00E947B300E94A816D8
:103FA0008091A30482FB882780F991E089270E94F1
:103FB0009319F8018281C081D181882309F44DC011
:103FC000CE010E94830BF82E682FCE010E94F70BC2
:103FD000BE018F2D0E94080A0E94270AD82FC92FE0
:103FE000A82ED8011296FC9012971596DC90D294C8
:103FF0003FE0D32280914D048770F1F0CF2CFF2059
:10400000E1F0892F807F803451F080E28D0F88307D
:1040100098F0D11004C0892F807E803269F08091A1
:10402000A30482FF09C082E00E944D0C80914D04E0
:104030008770CC24C3948111C12CBC2EB2942FE084
:10404000B222BBE0BB1508F46FC0EB2DF0E0EF53DC
:10405000FF4C0C94642D80E0AACFCE010E94C40BCB
:10406000F82EB6CFEC2FEF70EE2EC07F19F0E29451
:1040700090EFE922FF20B9F0EE2069F080E28D0F89
:10408000883010F0A11009C080913E06E82AE09225
:104090003E060E94AE0D8D2F45C080913D06E82A58
:1040A000E0923D06F6CF8D2F0E941911EE20E1F12E
:1040B000D05E8E2DD83010F0A11003C00E94520B9C
:1040C00002C00E944B0B0E94AE0D2EC0FC2FFF7051
:1040D000EF2EC07FC03219F0E29480EFE822AA20D0
:1040E00089F021E0A21609F47DC0FF2009F487C001
:1040F000DD2009F47DC0F801858180FFCCCF8F7071
:10410000858376C02091A30422FD44C0FF20D9F10D
:10411000EE2039F080913E06E82AE0923E060E94A9
:10412000AE0D80E00E949411AB2DA850BB0B1497EC
:1041300010F40E942C13CC20A9F080914D0480FD36
:1041400011C0F80112828595859585950E94690CAC
:10415000C8010E946E1D80914D04859585958595B9
:104160000E943B0C20E0D8014C9111965C91119774
:1041700012966C91129713967C91139714968C91CA
:104180000E94A80CC1CC80E00E941911EE2061F2BF
:104190008E2D94CFFF20A1F0909156048E2D892B67
:1041A000D11003C00E940F11BFCF31E0D312FACF5C
:1041B00022FFBACF891709F4B7CF80935604B4CF42
:1041C000D11006C00E94450B8E2D0E940811ACCF65
:1041D00081E0D81609F4A8CF8E2D0E9408110E9404
:1041E000450BA2CFFF2031F095E09D1508F49CCF40
:1041F0008E2DD8CFA4E0AD1508F496CFE5CFDD2005
:1042000019F3F9E3AF120DC02FEF37EE83E0215021
:1042100030408040E1F700C000008D2F0E9419114E
:1042200083CFAFE3BCE91197F1F7F5CF8C2F8695DB
:104230008695837069F0813009F076CF8D2F9C2FA1
:104240009370F11002C080E090E00E94F6066CCFFF
:104250008D2F9C2F9370F11002C080E090E00E949F
:104260001B0762CF8C2F837009F03FC0F1105CCF29
:104270004D2F429546954770440F440F2D2F2F70B8
:1042800030E0042E02C0220F331F0A94E2F790E0C0
:1042900080E0D4FF09C08FE090E002C0880F991F32
:1042A0004A95E2F780959095C695C695C370C23041
:1042B00099F078F44091570450915804C13039F086
:1042C000822B932B842395230E94790C2DCF242BB2
:1042D000352B822B932BF8CF822B932B20915704D5
:1042E0003091580482279327EFCF8695FF2011F055
:1042F0008C2F8170882309F417CF4D2F4295469556
:104300004770440F440F2D2F2F7030E0042E02C051
:10431000220F331F0A94E2F790E080E0D4FF09C037
:104320008FE090E002C0880F991F4A95E2F78095D0
:104330009095C695C695C370C23099F078F44091B7
:10434000000550910105C13039F0822B932B842355
:1043500095230E942D0CE8CE242B352B822B932BFA
:10436000F8CF822B932B20910005309101058227F5
:104370009327EFCFCF70FF2029F08C2F0E94690C7C
:104380008D2F10CF8D2F0E9408118C2F0E943B0C77
:10439000CBCE8D2FB2EFAB1699F1BA1570F0E0EFDE
:1043A000AE16D1F0F1EFAF1691F0FF2009F45BC02B
:1043B000D11071CE8C2F8F7127C023EFA21639F147
:1043C00034EFA312F2CF8091A30482FD2EC08C2F74
:1043D0008F71FF20D9F218C0FF2069F084E08D159D
:1043E00008F4A2CECF7181E090E002C0880F991F3F
:1043F000CA95E2F7B8CF95E09D1508F495CEF2CFB7
:104400008C2F8F71F110C2CF0E94690C8DCE90E07D
:1044100080E0FF2009F49DCFCF7181E090E002C0E1
:10442000880F991FCA95E2F794CFFF2089F0CF71CA
:104430008C2F0E94690C8091A30482FF07C0A8E022
:10444000CA9FC0011124836080934D048C2FDCCF60
:1044500081E00E944D0CB1E0BD1508F065CE82E010
:104460000E944D0C61CEDD2079F0893341F4EFEFED
:10447000F7EE23E0E150F0402040E1F7CCCE8FE3AF
:104480009CE90197F1F7C7CE8C2F8F717FCF21E088
:10449000F8016281738184810E94A80CEC01D8012B
:1044A00012968C91882369F180913F069091400685
:1044B000009739F18C179D0721F1BEE08B9FC00159
:1044C0001124FC01E45CFE4F208124602083895C80
:1044D0009E4FFC01D183C0830E94050E10923D06C1
:1044E00021E0D8014C9111965C91119712966C9134
:1044F000129713967C91139714968C910E94A80C96
:10450000EC01F80182818823E1F080E2809393013D
:10451000D0930305C0930205CE01905281159043BC
:1045200008F0F7CACE0199279093030580930205FE
:10453000D80111968C911197809305058C918093E9
:1045400004058091F0039091F103009731F00E94EF
:104550004E111092F1031092F003F801828188232A
:1045600009F420CBE0903E06F090560480913D0681
:104570008E298F29827209F4D7CACA32D10509F06F
:10458000D3CA8CE490E09093F1038093F00382E22D
:104590000E944B0B8F2D827221F08F2D8D7D809389
:1045A000560482E20E9408118091F0039091F10379
:1045B0000E94E711E0923E0680914D04877009F455
:1045C000A3CAD80112968C91882309F49DCA8091C0
:1045D000A30482FF99CA82E00E944D0C95CAC6319D
:1045E000BCE7DB0729F580913E068A7A91E009F461
:1045F00090E09093F40369E2811165E388EE93E023
:104600000E94DC060E94AE0DD7CFC631ECE7DE0774
:1046100009F432CC80913E068272FE01E052F847E6
:10462000E531F10508F0C5CCE353FF4C0C94642D43
:10463000C330FCE7DF0709F4ABCC50F4C1153CE70D
:10464000D30709F476CCC130DC4709F4A7CCB1CC50
:10465000CB359CE7D90709F4FECCCC35ACE7DA07BB
:1046600009F49ECCCA35DC4709F0A3CC81E09FCC8D
:104670001F93CF93DF9380911A04807F09F04BC082
:1046800080911704882309F446C080914C04C0919E
:104690001B04409115045091160460911804709108
:1046A0001904D42FD52316E0C817A9F190E061159D
:1046B0007105A9F1DF3F99F1189FF001199FF00DE5
:1046C0001124DF01A45EBB4F11962C911197251385
:1046D00026C02C91241323C012962C9112972111DD
:1046E0001EC013962D913C91261B370B26393105A0
:1046F000B0F480911A048F70806180931A04EF5D8A
:10470000FB4F80818F708061808385E194E00E94FF
:104710006E1D0E94790BDF91CF911F910895019634
:104720008770C2CFA1E1B0E0E8E9F3E20C94E62C97
:104730008C0185E0F801DE011D9601900D928A95AD
:10474000E1F7F801E28085E1882E84E0982E40911F
:104750001804509119044115510509F421C1909193
:10476000150420911604892F82238F3F09F418C164
:10477000D080C180A380B480F0901704B501641B81
:10478000750BFF2009F4F3C080911A04382F307F95
:104790006639710508F0B7C0311178C0FE2C2C11B4
:1047A00014C09D1112C0E11010C08F708061809301
:1047B0001A04C4010E946E1D80911A04F8018583B9
:1047C0008F2D6196ECE00C94022DA114B104C9F177
:1047D0008D2D8C218F3FA9F181E08E2580FF05C0B2
:1047E0004E2D6C2D8D2D0E94590BA114B10459F141
:1047F0008D2D8C218F3F39F181E08E25F82FF170BE
:10480000BF2E80FF39C04E2D6C2D8D2D0E94590B6F
:10481000A82E811131C0DD86CE868D859E850E94B1
:10482000B70B292F22952F70243078F49F702230F7
:10483000A8F09923B9F0F8019581907F99F4FA2CAA
:10484000BFCF80E0CBCF80E0D9CF2A5F2F7022305E
:1048500068F0C8010E946E1DAB2CF1CF992311F0B6
:10486000882369F3805E883050F3F3CF803F38F3BC
:10487000815F833070F7E3CFEE2009F4A1CF809100
:104880001A04816080931A04F12C9ACF2C1111C064
:104890009D110FC0E1100DC08583C8010E946E1DDF
:1048A00086E0F801A5E1B4E001900D928A95E1F768
:1048B00087CFC8010E947E0C882309F1EE20F9F011
:1048C00080911A04803270F0209115043091160402
:1048D00038872F831986BB86AA868C87CE010796D8
:1048E0000E946E1D86E0F801A5E1B4E001900D92F2
:1048F0008A95E1F70E943823FF24F39461CFC80121
:104900000E946E1DF9CF31110AC085E194E00E942A
:104910006E1D86E0F40111928A95E9F7B5CF2C114E
:104920000EC09D110CC0E1100AC08583C8010E9411
:104930006E1D86E0F40111928A95E9F741CFC80116
:104940000E947E0C8823D9F2EE20C9F280911A04CD
:10495000803240F220911504309116043A83298365
:104960001B82BD82AC828E83CE010196B9CF66399F
:104970007105F8F6FE2CEE2011F22C1103C09D15E6
:1049800009F48ECFC8010E947E0C8111ABCF8091BB
:104990001A04816080931A04C8010E946E1D10CF12
:1049A000EE2009F4ACCFC8010E947E0CF82E8823BB
:1049B00009F4A5CF86E0F801A5E1B4E001900D92DD
:1049C0008A95E1F780911504909116040E94B70B27
:1049D0000E943823F5CEA7E1B0E0E1EFF4E20C94B9
:1049E000EF2C4B8B5C8B6D8B7E8B8F8B61111092C0
:1049F0003D061A8A198A85E0FE017396DE011D962E
:104A000001900D928A95E1F786E0FE013D96DE0168
:104A1000179601900D928A95E1F7CE0107960E94B4
:104A20009223882359F016E080914C0490911B0446
:104A3000891343C06796E3E00C940B2D86E0FE01DA
:104A40003796DE01119601900D928A95E1F78A85DD
:104A50009B85892B41F38F81988589238F3F19F39B
:104A600020911B0430E0C90101968770992740917D
:104A70004C044817190671F40E94300E10921B0462
:104A800010924C0486E0E5E1F4E0DF011D928A9586
:104A9000E9F7C9CF96E0929FD001939FB00D112402
:104AA000A45EBB4FFE01319601900D929A95E1F7FD
:104AB00080931B040E94790BB6CF819FC001112403
:104AC000845E9B4F0E949223882309F4B3CF809188
:104AD0004C0490E001968770992780934C04A4CFF2
:104AE000A5E0B0E0E6E7F5E20C94EE2C0E94591B3D
:104AF0008C018091590490915A0480179107A1F07C
:104B00008FEF89838A831B820E94591B8160782FD3
:104B10009D838C8349815A816B818D810E94EB2416
:104B200010935A04009359042596E4E00C940A2D3E
:104B30001F921FB61F9211248F939F93AF93BF9321
:104B400080914706811113C08091480690914906D3
:104B5000A0914A06B0914B064196A11DB11D8093CC
:104B6000480690934906A0934A06B0934B06BF911E
:104B7000AF919F918F911F901FBE1F901895CDB739
:104B8000DEB729970FB6F894DEBF0FBECDBF85B74D
:104B9000806885BF85B7806885BF84B7877F84BFFD
:104BA0000FB6F894A89580916000886180936000AA
:104BB000109260000FBE80E890E00FB6F8948093EA
:104BC0006100909361000FBE8AE099E09093E70343
:104BD0008093E6030E9472050E9413068091E20012
:104BE00084608093E2007894809159068823A1F034
:104BF0001091E9001F709091EC00892F817090FD59
:104C000080E8182B1092E9008091E80083FD0E9453
:104C1000460E1F701093E90082E084BD93E095BDBD
:104C20009AEF97BD80936E001092920410929304B5
:104C300010929404109295040E94091380932E01FF
:104C40000E94091381110E946A2B80912E0180918C
:104C50002E0195E0811190E09093A10485E0891BDD
:104C60008093A00400EB12E0D8018D918D018F3F5D
:104C700011F00E940C09B2E0053B1B07A9F705EBF8
:104C800012E05BEBE52E52E0F52EF80181918F01E9
:104C90008F3F11F00E940C09E016F106B1F78AE08F
:104CA000E4EAF4E0DF01282F1D922A95E9F7E6E90E
:104CB000F4E0DF011D928A95E9F790E080E00E9420
:104CC0004730873E9E4F11F00E94AA1982E090E083
:104CD0000E943F308093AE0484E090E00E94473011
:104CE0009093A3048093A20483E090E00E943F305D
:104CF00090E00E94790C109267068FEF9FEF9093DF
:104D00008106809380069093830680938206909319
:104D100085068093840690938706809386069093F9
:104D200089068093880690938B0680938A069093D9
:104D30008D0680938C0690938F0680938E0610923A
:104D40002B059093450580934405909347058093E8
:104D50004605909349058093480590934B058093B1
:104D60004A0590934D0580934C0590934F05809391
:104D70004E05909351058093500590935305809371
:104D8000520590E080E00E944730873E9E4F21F020
:104D90000E94AA190E94DA1781E08093930646E0E8
:104DA00050E06CE170E084E996E00E942F301092B0
:104DB0009306809194068C7F11F40E94DA170E946A
:104DC000091312E0811110E00E940913811101C042
:104DD00012E01093260580E880939A060E94242A08
:104DE0006DE070E08FE992E00E94BE16892BE9F534
:104DF0008091260563E070E081FDFEC08CE992E0C1
:104E00000E94BE16892B89F56DE070E08CE892E077
:104E10000E94BE16892B49F50E94D006605A754142
:104E20008F4F9F4F609337067093380680933906F3
:104E300090933A06EDE9F6E080E092E0DF019C0114
:104E40001D9221503040E1F7F093A408E093A308AD
:104E50008FEF9FEF90939C0680939B0681E0809359
:104E60003C0680933B06109227050E94091381118E
:104E700002C00E946D2B8FE291E0909344068093D4
:104E800043068091590600E112E1853009F4FFC024
:104E90000E94D01B4FEA242E44E0342EE4EAF4E0D2
:104EA000FF83EE83DF01F10191918D9124E0E93BD5
:104EB000F20709F4F8C09817B9F30E94091389871B
:104EC0003BECA32E32E0B32EE12CAE81BF819D904E
:104ED000BF83AE83F10151901F01591409F480C0C2
:104EE000592458862501812C77247394888587213D
:104EF00009F46BC0F92CF720F985FF2399F089821A
:104F0000EA8281E0F11001C080E08B830E94591B8E
:104F10008160782F9D838C8349815A816B818D813B
:104F20000E94EB24F1102CC1D2018C918F3F09F02B
:104F300029C10F2D10E080912B05800F912F911D1D
:104F400009976CF188E0C82ED12CC01AD10AB8019B
:104F5000645D7A4FA6018CE295E00E94802DB80135
:104F60006C5C7A4FA60184E395E00E94802DA60137
:104F7000440F551FB801660F771F6C5B7A4F84E4AE
:104F800095E00E94802DB801645C7A4FA6018CE305
:104F900095E00E94802D88E08F1980932B058091E9
:104FA0002B0590E0A62DB0E09D01220F331F295F55
:104FB0003C4FAA0FBB1FBD01685F7C4F41E0480F0B
:104FC0009F1508F4E3C080932B058394770CBFEF03
:104FD0004B1A5B0AE6E08E1289CFF101319790827D
:104FE000E394F6E0AF0EB11C2AE0E2126ECF0E940D
:104FF000D006DD24D3945CC089E992E001CF809192
:105000005906843009F434C00E942B17809158054A
:10501000811105C00E94421480E00E94BF0731E068
:10502000309358050E94E8161092470688E190E0F8
:10503000A0E40FB6F894A895809360000FBEA093EB
:10504000600083B7817F846083BF83B7816083BF43
:105050007894889583B78E7F83BF0FB6F894A89510
:1050600080916000886180936000109260000FBEA4
:1050700080915806882359F00E94D01BE4EAF4E09E
:1050800081918111CBC1B4E0EE3AFB07C9F7809161
:105090005906853009F4B3CF0E94300E0E942C13BC
:1050A00010925805F5CE981308CF0E947025D12C88
:1050B0000E9409138823F1F000913F0610914006E9
:1050C00001151105B9F08091B9049091BA040E94BC
:1050D0004A1B8739910570F03EE0039FC0011124FF
:1050E000FC01E45CFE4F208122FD04C0895C9E4FE0
:1050F0000E94050E0E942B1780913C06882309F41C
:105100009DC080912805909129050E944A1BC29755
:1051100008F475C00E94591B9093290580932805B7
:105120008DE996E09093A4088093A3080E94091348
:10513000882309F495C08091000590910105843081
:10514000910509F48AC0B8F50097F1F162ED71E0BC
:1051500082309105D9F19F938F938DEE91E09F93CB
:105160008F931F9288E18F938BEB94E09F938F93A3
:105170000E94902D0FB6F894DEBF0FBECDBF2AC09F
:10518000F12CD7CE682EFF24F394D3CE90E0FC010F
:10519000E55DFA4FD9015C915183DB015C91518748
:1051A000618A880F991FFC01E55DFA4F128E118EFE
:1051B00091E0842F03CF8830910519F08E3091054E
:1051C00051F66FED71E002C066EB71E08BEB94E09D
:1051D0000E94892D8BEB94E00E94411281E00E9495
:1051E0007C0D83ED94E00E94411281E00E947C0DD1
:1051F0008BEE94E00E94411281E00E947C0D809130
:105200009B0690919C06892B81F580913B06882313
:10521000A9F00E94D006009137061091380620911F
:10522000390630913A06601B710B820B930B6F3F6E
:105230007F4F8F4F9F4710F40E94E816D1100E94B5
:1052400003170E942C1390912A05891709F419CE8F
:1052500080932A050E94D00614CE65EC71E0B6CF8B
:1052600083E591E00E944112CACF80913C068823D9
:1052700061F2809127058111C8CF0E940317209108
:105280009B0630919C062115310509F4BECF80E0C4
:10529000082F10E0EE24E394F12C082E02C0EE0C4F
:1052A000FF1C0A94E2F7A70142235323452B11F474
:1052B0008F5FEECF9091260590FF97C0880F880FE3
:1052C000880F8093960110929901895F80939701CE
:1052D00083E080939A0124E630E047E050E064E9FF
:1052E00071E088E70E94C42A892B09F08ECFA801BB
:1052F00025E0440F551F2A95E1F78091260580FF90
:1053000086C0E6E0F5E080E2DF011D928A95E9F7CC
:105310008FEB282E82E0382E0BEB12E097E0992ECF
:10532000F10121911F01D8014D908D01440E552EA0
:10533000511CF201E356F94F2F01E22FF0E0EA5F32
:10534000FA4F30E020E0792C721ACC24C394022E5C
:1053500001C0CC0C0A94EAF7520190E0D5018D917E
:105360005D018C21672D691B6770862E062E000C4F
:10537000770BB82F01C0BB0F8A94EAF78B2E71957B
:10538000619571096770772701C086956A95EAF77C
:10539000882A8081882A80829F5F9830F9F62F5F63
:1053A0003F4F31962830310571F6E3EC2E16E2E0DE
:1053B0003E0609F0B5CF04E610E020E230E046E01A
:1053C00055E060E488E70E94E52A892B09F01DCFAB
:1053D000E094F09480919B0690919C06E822F9223B
:1053E000F0929C06E0929B0610CF8295880F807603
:1053F00080939601980136952795369527952093A9
:105400009901815E8093970110929A0164CF43566F
:10541000594F04E610E020E230E0D3CF09BD19BDBA
:1054200009B400FEFDCF8091D8008F7D8093D80015
:105430008091E00082608093E0008091E00081FD37
:10544000FCCF0E94300E23CE1092B9008CE08093E6
:10545000B8000895B0E0A0E0E0E3FAE20C94E72C95
:10546000B82EEB010E94591B6C01EE24E394F12C41
:10547000C431D10560F025E0E22EF12CCF3FDC07EE
:1054800031F0CE0164E170E00E94CC2C7B0184EA13
:10549000A82E94E8992E1092BC00A092BC000E9405
:1054A000591B8C018091BC0087FF0DC08091B90011
:1054B000887F8830F9F08091B900887F8031D1F001
:1054C0000FEF1FEF08C0C8010E944A1BE816F9063B
:1054D00048F70EEF1FEFCF3FDC07E9F2C6010E944D
:1054E0004A1BC817D907B8F6C801CDB7DEB7EBE03D
:1054F0000C94032DB092BB009092BC000E94591BEB
:105500008C018091BC0087FF0AC08091B900887F20
:10551000883111F08034A1F610E000E0E5CFC80139
:105520000E944A1BE816F90660F7D3CF0F931F932A
:10553000CF93DF93EB018093BB0084E88093BC00A2
:105540000E94591B8C018091BC0087FF11C02091E3
:10555000B900287F81E090E0283211F490E080E0EB
:10556000919581959109DF91CF911F910F910895A8
:10557000CF3FDC0741F3C8010E944A1BC817D90777
:1055800010F78EEF9FEFEFCFB0E0A0E0EAECFAE289
:105590000C94EA2C6B018A017901B9010E942A2A34
:1055A000E6010C0D1D1DC017D10711F097FF08C0B3
:1055B00024E92093BC00CDB7DEB7E8E00C94062DBB
:1055C000B70189910E94962AEECFB0E0A0E0EBEE01
:1055D000FAE20C94EA2CC62F6A017901B8010E9404
:1055E0002A2A97FD0CC0B8018C2F0E94962AE6014A
:1055F000EC0CFD1CCE15DF0511F097FF08C024E967
:105600002093BC00CDB7DEB7E8E00C94062DB801BE
:1056100089910E94962AEECF84E98093BC00089578
:105620008EE14A9B02C08150E1F74A9BFECF08956C
:105630005A9880E28A95F1F75A9A0895FC013BE066
:105640003A95F1F798E020E080E031E040E14A95BA
:10565000F1F7880F4A9B02C08160232742E04A95F8
:10566000F1F7000040E14A95F1F7915079F790E1A8
:105670009A95F1F799B132E03A95F1F7000040E1DF
:105680004A95F1F792FB992790F992272081920F82
:1056900090830895A1E0B0E0E0E5FBE20C94EC2CEF
:1056A00019828C017C01E60EF11C0E151F0541F4D8
:1056B00081E09981911180E02196E6E00C94082D1B
:1056C0000E94102BCE0101960E941E2BF80181939F
:1056D0008F01EBCF529A5A9A089552985A9AEA9AA1
:1056E000E9E6F0E080818F7C808308956150770B3C
:1056F00091E001C0990F6A95EAF720E031E091113D
:1057000008C0222391F05A9A80E28A95F1F75A98BC
:105710000895492F482339F05A9A232740E24A95A1
:10572000F1F79695ECCF5A98F9CF5A98EDCFFF92B2
:105730000F931F93CF93DF93EC018C01060F111D84
:10574000C017D10729F4CDB7DEB7E5E00C94092DD9
:10575000F9900E94182B68E08F2D0E94762BF0CFD5
:105760001F920F920FB60F9211240F931F932F9336
:105770003F934F935F936F937F938F939F93AF93D9
:10578000BF93EF93FF93CF93DF930F92CDB7DEB725
:1057900019820E94102BCE0101960E941E2B082F09
:1057A000069506950695282F22952570902F9570C1
:1057B000290F922F937026952695920F9827977010
:1057C0008981982B09F05CC0063008F059C080E14F
:1057D0008A95F1F75A9A529A82E08A95F1F700C0B9
:1057E0005A9888E0089F80011124D801AA5FBE4F13
:1057F0001696ED91FC9117973097A9F06091AE0243
:105800007091AF0214962D913C911597260F371F7A
:1058100011968D919C911297680F791F13964C9158
:1058200013978C910995F801EA5FFE4F6381662317
:1058300051F02091AE023091AF0284819581820FA8
:10584000931F0E94972B0E94182B80E18A95F1F7F5
:105850005A9852985A9A80E18A95F1F7F801EA5FCE
:10586000FE4F6081662351F02091AE023091AF026D
:1058700081819281820F931F0E944A2B0E94102BDC
:105880000F90DF91CF91FF91EF91BF91AF919F91D9
:105890008F917F916F915F914F913F912F911F91C8
:1058A0000F910F900FBE0F901F9018950F931F939D
:1058B000CF93DF93EC0106970CF04CC0F894529A0A
:1058C0005A9885E08A95F1F700009C2F969595707F
:1058D0008C2F8570980F892F83709695969523E06D
:1058E000CC0FDD1F2A95E1F7980F8E01092B0E943E
:1058F000182B00C068E0802F0E94762B80E18A95EB
:10590000F1F752985A9A4A9B1EC087E090E04A9954
:105910001CC0FE01EA5FFE4F63816623F9F020910F
:10592000AE023091AF0284819581820F931F0E9455
:105930004A2B811113C0529A5A9A7894DF91CF91D1
:105940001F910F91089500C0DECF019729F4529A5C
:105950005A9A789480E0F2CF00C0D9CF0E94102BE1
:1059600080E28A95F1F75A98529A80E18A95F1F788
:10597000CA5FDE4F6881662351F02091AE023091FC
:10598000AF0289819A81820F931F0E94972B0E94F8
:10599000182B789481E0D2CFAA1BBB1B51E107C022
:1059A000AA1FBB1FA617B70710F0A61BB70B881FAF
:1059B000991F5A95A9F780959095BC01CD0108953E
:1059C0002F923F924F925F926F927F928F929F920F
:1059D000AF92BF92CF92DF92EF92FF920F931F93FD
:1059E000CF93DF93CDB7DEB7CA1BDB0B0FB6F894AE
:1059F000DEBF0FBECDBF09942A88398848885F84EE
:105A00006E847D848C849B84AA84B984C884DF805E
:105A1000EE80FD800C811B81AA81B981CE0FD11D42
:105A20000FB6F894DEBF0FBECDBFED010895991BF0
:105A300079E004C0991F961708F0961B881F7A9585
:105A4000C9F780950895A1E21A2EAA1BBB1BFD0180
:105A50000DC0AA1FBB1FEE1FFF1FA217B307E4074D
:105A6000F50720F0A21BB30BE40BF50B661F771FA5
:105A7000881F991F1A9469F7609570958095909585
:105A80009B01AC01BD01CF010895052E97FB1EF4CB
:105A900000940E945C2D57FD07D00E94232D07FC27
:105AA00003D04EF40C945C2D509540953095219583
:105AB0003F4F4F4F5F4F089590958095709561953A
:105AC0007F4F8F4F9F4F0895EE0FFF1F0590F4916A
:105AD000E02D0994FB01DC0102C005900D924150BC
