:100000000C941C060C9454060C9454060C94D82999
:100010000C9454060C9454060C9454060C945406F8
:100020000C9454060C9454060C94B81A0C94741A3C
:100030000C94E6230C9454060C9454060C94540629
:100040000C9454060C9454060C9454060C945406C8
:100050000C9454060C94911B0C9454060C94540666
:100060000C9454060C9454060C9454060C945406A8
:100070000C9454060C9454060C9454060C94540698
:100080000C9454060C9454060C9454060C94540688
:100090000C9454060C9454060C9454060C94540678
:1000A0000C9454060C9454060C94540629001E001B
:1000B0001F002000210022002B0014001A0008005D
:1000C00015001700E10004001600070009000A00EF
:1000D000E0001D001B000600190005000000E20002
:1000E000E300777C2C0064522D00270026002500B9
:1000F000240023002E00130012000C0018001C0026
:100100002A0033000F000E000D000B00E500380040
:1001100037003600100011000000E600E700787C90
:10012000280000003A003B003C003D003E003F003C
:1001300001001E001F0020002100220001003000ED
:10014000300234003402000001002F001F0420049C
:100150003100310200000100010001000100010036
:1001600045004400430042004100400001002700D8
:1001700026002500240023004C002D002604250421
:100180003502350001002D0226062506010001007A
:10019000000001000100010001000100000000005A
:1001A00000000000000000000000000000005202FB
:1001B0000000000001003008500651024F06000008
:1001C000010000000000000000000000000001002D
:1001D000010001000100010000000000000000001B
:1001E00000000000010000000000520000000000BC
:1001F00001004F044F005100500050040100000066
:100200004F0150014D004A000000010001000100B3
:1002100001000100000000000000000000000000DC
:10022000000000000000000000000000207823789B
:10023000257827780000BD00217824782678287852
:100240000000BE00000001000100010001000000EC
:10025000000000000000000000000000000000009E
:10026000AA00A800A900000000000000AB00AE003A
:10027000AC000000000000000000000000000000D2
:100280000000010001000100010000000100010068
:100290000100010001000100010001000100010056
:1002A0000100010001000100010001000100010046
:1002B0000100010001000100010001000000010037
:1002C0002C000100E300010000000000000000001D
:1002D000000000000000000000000000000000001E
:1002E000000000000000000000000000000000000E
:1002F00000000000000000000000000000000000FE
:100300000000000000DA0281FFD9F1DB20A4A62E54
:10031000AF00A0C0D30000A1C8D30000AED580A814
:100320001F408D142000556E6B6E6F776E00476115
:100330006D650041646A757374005261697365008C
:100340004C6F7765720044656661756C74004C6132
:100350007965723A200000000000000000000000F3
:10036000000000000000000000000000000000008D
:10037000000000000000000000000000000000007D
:10038000000000000000000000000000000000006D
:10039000000000000000000000000000000000005D
:1003A000000000000000000000000000000000004D
:1003B000000000000000000000000000000000003D
:1003C000000000000000000000000000000000002D
:1003D00000000000000000041EFEFEFEFEFEFEFE09
:1003E000FEFEFEFC3C0C0C3CFCFEFEFEFEFEFEFE99
:1003F000FEFEFE1E0600F8F00000010303030303E7
:10040000030381C0C0C0C0C0C0C183830303030312
:1004100003010000E0F8033FFFFCF8F8F8F8FCFEE9
:10042000FF8783C1E1E0E0E0E0C18387FFFEFEFCDF
:10043000F8F8FCFE3F0700000003070F1F3F7FFF97
:10044000FFFFFFFFFFFFFFFFFFFFFFFFFFFF7F3FFC
:100450001F07030000000000000000000000000073
:1004600001030307070F0F0F0F0707030100000029
:10047000000000000000000000000000000000007C
:10048000000000000000000000000000000000006C
:10049000000000000000000000000000000000005C
:1004A000000000000000000000000000000000004C
:1004B000000000000000000000000000000000003C
:1004C000000000000000000000000000000000002C
:1004D000000000000000000000000000000000001C
:1004E000000000000000000000000000000000000C
:1004F0000000000000004D61676F00000101010174
:1005000001010101010202020202020202020303CE
:10051000030303030303040404040404040505059E
:100520000505060606060607070707070808080860
:10053000090909090A0A0A0B0B0B0C0C0C0D0D0D0D
:100540000E0E0E0F0F0F10101111111212131314A3
:1005500014151516161717181819191A1A1B1B1C1B
:100560001D1D1E1E1F202021222223242425262675
:10057000272829292A2B2C2D2D2E2F3031323233AA
:100580003435363738393A3B3C3D3E3F40414243B3
:100590004445464748494A4C4D4E4F505153545597
:1005A0005658595A5B5D5E5F616264656668696B47
:1005B0006C6D6F7072737577787A7B7D7E808283C5
:1005C0008587888A8C8E8F91939596989A9C9EA009
:1005D000A2A3A5A7A9ABADAFB1B3B5B7BABCBEC016
:1005E000C2C4C6C9CBCDCFD1D4D6D8DBDDDFE2E4DF
:1005F000E7E9EBEEF0F3F5F8FAFDFF00AF00AE052A
:10060000010980A101850319012AB700150126B748
:1006100000950175108100C0050C0901A101850438
:1006200019012AA002150126A0029501751081006A
:10063000C005010906A101050719E029E7150025F4
:100640000195087501810295017508810105071959
:100650000029FF150026FF00950675088100050892
:1006600019012905950575019102950175039101FF
:10067000C009023B00020100A0FA090400000103C6
:100680000101000921110100012240000705810339
:100690000800010904010001030000000921110103
:1006A000000122320007058203200001120100022E
:1006B00000000008D8042EEB00010102000116031F
:1006C0004C0069006C0079003500380020005200B1
:1006D0003200470000001C034D0065006300680005
:1006E00062006F006100720064007300200055001A
:1006F0004B000000040309040000000000003E5B02
:100700004F5B3E003E6B4F6B3E001C3E7C3E1C0030
:10071000183C7E3C18001C577D571C001C5E7F5EF9
:100720001C0000183C180000FFE7C3E7FF0000189A
:1007300024180000FFE7DBE7FF0030483A060E0010
:10074000262979292600407F05050700407F0525D9
:100750003F005A3CE73C5A007F3E1C1C0800081C26
:100760001C3E7F0014227F2214005F5F005F5F0049
:1007700006097F017F00006689956A0060606060FD
:10078000600094A2FFA2940008047E0408001020D8
:100790007E20100008082A1C0800081C2A080800EF
:1007A0001E10101010000C1E0C1E0C0030383E38AD
:1007B0003000060E3E0E06000000000000000000A3
:1007C0005F000000000700070000147F147F140082
:1007D000242A7F2A12002313086462003649562017
:1007E0005000000807030000001C224100000041E7
:1007F000221C00002A1C7F1C2A0008083E08080052
:1008000000807030000008080808080000006060E0
:1008100000002010080402003E5149453E000042FD
:100820007F4000007249494946002141494D33004B
:100830001814127F10002745454539003C4A4949A4
:10084000310041211109070036494949360046491E
:1008500049291E0000001400000000403400000080
:10086000000814224100141414141400004122142E
:1008700008000201590906003E415D594E007C12F4
:1008800011127C007F49494936003E414141220016
:100890007F4141413E007F49494941007F090909A3
:1008A00001003E41415173007F0808087F0000416C
:1008B0007F4100002040413F01007F081422410099
:1008C0007F40404040007F021C027F007F040810F0
:1008D0007F003E4141413E007F09090906003E413B
:1008E00051215E007F0919294600264949493200F5
:1008F00003017F0103003F4040403F001F20402094
:100900001F003F4038403F00631408146300030495
:10091000780403006159494D4300007F4141410083
:10092000020408102000004141417F00040201023E
:1009300004004040404040000003070800002054ED
:10094000547840007F284444380038444444280008
:10095000384444287F0038545454180000087E0955
:1009600002001824241C78007F0804047800004446
:100970007D4000002040403D00007F1028440000E2
:1009800000417F4000007C04780478007C08040467
:1009900078003844444438007C1824241800182473
:1009A00024187C007C080404080048545454240093
:1009B00004043F4424003C4040207C001C20402094
:1009C0001C003C4030403C004428102844004C901F
:1009D00090907C004464544C440000083641000070
:1009E0000000770000000041360800000201020408
:1009F00002003C2623263C0000000000008080808E
:100A000080000000000080E070180C1830E08000CA
:100A10000010F8901030783010B8FC38100000004A
:100A2000000000F8FCF800000000000000000000DA
:100A30000000001C9C1C00000000F8FCF8000000F6
:100A40000000001CFCF8C000000000000080E0F87E
:100A50007C1C000000F0FCFCFC1C1C1C1C1C1C1C56
:100A60001C000000000000C0F0F8381C1C1C1C1CFE
:100A70001C3CF8F0E000E0F0F0F0E0ECEEF7F37092
:100A800020007C7C7C7E007E7E7E7F7F7F000080DD
:100A9000C0E07E5B4F5BFEC00000C000DCD7DEDE46
:100AA000DED7DC00C00000000000000000000000F5
:100AB000000000000000000000000000000FBCE08B
:100AC000818181838382870C183060C000001FFE03
:100AD00090B9FFBB91983C1811133F110000000022
:100AE000000000FFFFFF0000000000000000000009
:100AF000000000FFFFFF00000000FFFFFF000000FC
:100B00000000000000030F7FF8E080F0FC3F0F01C1
:100B100000000000003F3F3F1C1C1C1C1C3C78F8E0
:100B2000F0E08000000000C3E7FF7E3C387878707A
:100B300070F8FFDF87000F1F3F7F7F7F7F7F3F1EA3
:100B40000C001F1F1F3F003F3F3F7F7F7F00307B18
:100B50007F7830202030787F3B0003000F7F0F0F1D
:100B60000F7F0F00030000000000000000000000E5
:100B70000000000000000000183C24666341C181B1
:100B800080808080808081C14162386C4CC68181C8
:100B9000808080808081C14362361C180000000084
:100BA000000000FFFFFFC0C0C0C0C0C0C0C0C08008
:100BB0000000007FFF7F000000007FFFFFC080007B
:100BC0000000E0E0C0C0C0E0F97F1F0700000000A7
:100BD000000000000070F0E0E0C0C0C0C0E0F0F82D
:100BE0007F3F0F0000000F3F7FF9E0E0C0C0C0C0B2
:100BF000C0E0F97F3F1F000000000000000000007F
:100C000000000000000000000000000000000000E4
:100C100000000000000000000000000000000000D4
:100C200000000000000000000000000000000000C4
:100C3000000000000000000011241FBECFEFDAE02A
:100C4000DEBFCDBF04B603FE18C08091920790911D
:100C50009307A0919407B09195078730904BA740D8
:100C6000B04B59F410929207109293071092940788
:100C700010929507E0E0F8E3099512E0A0E0B1E0FA
:100C8000E4E8F8E502C005900D92A03FB107D9F75E
:100C900027E0A0EFB2E001C01D92A239B207E1F750
:100CA0000E940D240C94032C0C94000090917F055D
:100CB000937061F081110BC0946090937F05109246
:100CC0003F0180917E05816080937E0508958B3081
:100CD00010F09862F2CF880F880F982BEECF482F34
:100CE00020914D059091140557E0291302C080E032
:100CF000089530E0529FF001539FF00D1124EB5EF8
:100D0000FA4F8181681306C08081481303C0858132
:100D10008111EECF2F5F3F4F2770E7CFFC01AC0171
:100D20004B5F5F4F8FEF91E32191822728E030E006
:100D300087FF09C0880F892721503109C9F7E417B7
:100D4000F50791F70895880FF7CF90917F0593707D
:100D500071F08093800560938105493708F048E77A
:100D60004093820580917E05816080937E05089581
:100D7000E8EDF0E080818E7F80831092E200109297
:100D8000DA001092E100A0EEB0E08C9181608C93CB
:100D900080818F77808319BCA7EDB0E08C918E7F26
:100DA0008C9380818F7E80831092FC040895209123
:100DB000E4003091E50095E6A9012091EC00822F36
:100DC000817020FF06C08091E80080FF06C080E0AF
:100DD00008952091E80022FD1AC080910A05882319
:100DE00089F0853089F08091EB0085FD0FC020915E
:100DF000E4003091E50042175307F9F29150E1F613
:100E000084E0089582E0089583E0089581E00895E4
:100E100080910C0587FF13C08091E80082FF06C017
:100E20008091E8008B778093E80004C080910A05E8
:100E30008111F2CF089580910A058823D9F380911A
:100E4000E80080FFF8CF8091E8008E77ECCF982FF4
:100E50009093E900242F762F50E0891731F070919C
:100E6000EC002091ED005091F00021FD07C09F5F44
:100E7000973071F78093E90081E008953091EB009D
:100E80003E7F3093EB003091ED003D7F3093ED00DD
:100E90003091EB0031603093EB007093EC002093C5
:100EA000ED005093F0002091EE0027FDE0CF80E0B0
:100EB0000895B0E0A0E0EFE5F7E00C94122BC8ED48
:100EC000D0E088818F7E8883E7EDF0E080818160CB
:100ED000808384E082BF81E08093FC0488818E7FE0
:100EE000888302EE10E0F80110821092DA0081EEA1
:100EF000C82ED12CF601108288818F778883888153
:100F00008068888388818F7D888319BC10920A0548
:100F100010920B05109209051092080590EEE92E2B
:100F2000F12CF70180818B7F8083888181608883A9
:100F300042E060E080E00E942707F60180818E7F1A
:100F40008083F801808181608083808188608083D4
:100F5000F70180818E7F8083888180618883CDB70F
:100F6000DEB7E8E00C942E2BFC01809112059091E5
:100F7000130586179707A0F06115710529F4909164
:100F8000E8009E779093E80090E06115710551F4B8
:100F9000911108C08091E80082FF34C080E008957C
:100FA000BC01F2CF80910A058823C1F18530C1F1DF
:100FB0008091E80083FD30C08091E80082FDEACF97
:100FC0008091E80080FFE1CF8091F3002091F20052
:100FD000382F6115710519F02830310558F091E06E
:100FE0002830310509F090E02091E8002E77209319
:100FF000E800CBCF81918093F100615071092F5FA0
:101000003F4FE7CF80910A05882341F0853041F0BA
:101010008091E80083FFBECF81E0089582E00895CB
:1010200083E0089508958091FF0408952FB7F89400
:101030006091F8047091F9048091FA049091FB0496
:101040002FBF0895A3E0B0E0E8E2F8E00C94182B7D
:101050002091F5043091F60428173907A1F09093F8
:10106000F6048093F504E091F304F091F4043097D2
:1010700051F024E029839B838A830680F781E02D49
:10108000CE01019609952396E2E00C94342BA3E05F
:10109000B0E0EDE4F8E00C94182B2091F1043091CD
:1010A000F20428173907A1F09093F2048093F10419
:1010B000E091F304F091F404309751F023E0298398
:1010C0009B838A830680F781E02DCE0101960995E6
:1010D0002396E2E00C94342BCF93DF93209190077A
:1010E000309191072A583540A901460F571F4130CA
:1010F000524020F060E072E0621B730B4091880563
:1011000050918905FC01C901620F731FC1E0D0E055
:101110008617970738F05093890540938805DF912B
:10112000CF9108952491DC01A657BA4F3C91321714
:1011300081F02C939C01A5E036952795AA95E1F7BF
:10114000DE0102C0AA0FBB1F2A95E2F79D014A2BC0
:10115000532B01963196DCCFFA01811101C0FB01BE
:1011600009950895EFE7F5E0248130E1231B08F4A9
:1011700020E0248380917E05816080937E05089520
:10118000EFE7F5E0248130E1230F08F42FEF24830B
:1011900080917E05816080937E050895EFE7F5E0FC
:1011A000438120E1421B08F440E08181628190E0AC
:1011B0000E94A5060895EFE7F5E0438120E1420F84
:1011C00008F44FEF8181628190E00E94A5060895A6
:1011D000EFE7F5E0628120E1621B08F460E08181C5
:1011E000438190E00E94A5060895EFE7F5E0628153
:1011F00020E1620F08F46FEF8181438190E00E944B
:10120000A5060895EFE7F5E081814381628188506A
:10121000990B0E94A5060895EFE7F5E0818190E023
:101220004381628108960E94A506089580917F05FA
:1012300086958695815009F48AE00E9456060895A5
:1012400080917F05869586958F5F8B3008F081E0D1
:101250000E945606089580933A0180917F0583701D
:10126000809339010E94021383E080933F01089527
:1012700022E8241B08F420E0620F08954095282FEF
:10128000429F412D1124842F0895E42FF0E0EE0FAA
:10129000FF1FEF5EFD4F9081921B97FD9195292FC7
:1012A00038E1239F212D1124620F0895322F50E041
:1012B000FA01EE0FFF1FEB52FE4F95AD905297FDD6
:1012C0009195440F551FFA01EF5EFD4F2081231BBE
:1012D000330B290F311D97FD3A95620F08950E9437
:1012E00090130895FF920F931F93CF93DF93182FBE
:1012F000062FF42ED0E0C0E02F2D402F612FCE011D
:101300000E946F092196CA34D105B1F7CDB7DEB777
:10131000E5E00C94312B0F931F93522F10E0F8014E
:10132000EE0FFF1FEB52FE4FA5ADA052BB0B9D0170
:101330005203F001539FF00D1124000F111FD8012B
:10134000AF5EBD4F0C910057110B40039001419FC0
:10135000300D11242E0F3F1F37FF02C0215C3F4F7D
:1013600096E0359527959A95E1F7620F1F910F91B9
:101370000895E82F86FDE0952E2F2F7086FD2F5FB4
:10138000E695E695E695E670F0E0E353FE4F918131
:10139000929F902D212D112492959F702295207F50
:1013A000922B2081920F87FD919580E8890F0895F7
:1013B00030E020E0869F212D969F200D311D1124C5
:1013C000C9010895AF92BF92CF92DF92FF920F931F
:1013D0001F93CF93DF93362F472FE82FF0E0E55090
:1013E000FB4F71110FC0E4918E2F2E2F6E2F722F95
:1013F000DF91CF911F910F91FF90DF90CF90BF9021
:10140000AF900895C72FD0E02491F22E022F10E064
:1014100056E0659FC0011124EFEFF0E0BF010E948C
:10142000F42A832F90E0880F991F35E5369FD0016D
:10143000379FB00D11248A1B9B0B982F990F980F83
:101440006F01CC1ADD0AC09ED001C19EB00DD09EA6
:10145000B00D11248B2F499FA0011124452F552732
:101460006F01C41AD50AC09EA001C19E500DD09E26
:10147000500D11245F01A91AB108AC9E6001AD9E08
:10148000D00CBC9ED00C1124CD2CDD24EC19FD0910
:10149000E09FE001E19FD00DF09FD00D1124ED2FD2
:1014A00062307105A1F050F46115710509F49ECF09
:1014B0006130710581F0EB2F852F98CF6430710575
:1014C00069F080F06630710509F490CFF4CFE22F17
:1014D0002B2F8D2F8BCFE22F252F88CFEB2F822F15
:1014E0002D2F84CF2B2F8F2DE52F80CF80E00895D7
:1014F000F894E82FE295EF70F0E031A1282F2F70DB
:1015000081E090E001C0880F2A95EAF7982F909526
:10151000932391A392A1892B82A37894089590910B
:10152000710392FF06C0282F28712830F9F4877FB5
:10153000846093FF06C0282F28712831F1F4877E3C
:1015400084612091720320FF06C0382F3871383033
:10155000D9F4877F816021FF06C0282F28712831A8
:10156000D1F4877E816194FD877E0895282F2471B0
:101570002430F9F68B7F8860DCCF282F247124314A
:1015800001F78B7E8861DDCF382F3171313019F74B
:101590008E7F8860E0CF282F2171213121F78E7E48
:1015A0008861E1CF82389105B9F1B0F481339105BA
:1015B00009F47DC048F48932910509F46DC08A327E
:1015C000910509F47BC008958533910509F45FC046
:1015D0008933910509F10895833E9105D9F138F4D5
:1015E000803E910529F1823E910579F10895863E6C
:1015F0009105D9F1873E910509F43EC0843E9105DD
:1016000041F52091720321FF24C08091710384FD74
:1016100019C087EE90E0089520917103237009F0BE
:101620005AC02091720323FF14C089E290E008950C
:101630002091710320FD38C03091720330FF09C042
:1016400024FF43C090E080E008952091710322FDC3
:10165000F7CF08952091710322FD3AC030917203B3
:1016600030FD39C024FFF5CFEDCF2091710323FF6A
:10167000F0CF24FDE7CFCDCF2091710323FD2EC005
:101680003091720331FFEECF84EE90E00895209107
:10169000710325FFDECFC9CF2091710325FD21C045
:1016A0002091720323FFD5CF89E390E0D2CF209120
:1016B000710326FFCECF8AE290E008952091710356
:1016C00026FFC7CF81E390E0089583EE90E0089570
:1016D00082EE90E0089580EE90E0089586EE90E02E
:1016E000089585E390E00895972F7A30B8F4663036
:1016F000A8F48530B0F470E026E0929F600D711D73
:101700001124FB019CE3899FE00DF11D1124EE0FD4
:10171000FF1FE455FF4F85919491089580E090E07C
:10172000089581E0FCCF1F93CF93DF930E94D20AEC
:10173000EC01C11580E5D807F0F5C11580E4D807A4
:1017400008F09CC0C03ED10520F5CD3CD10508F085
:1017500082C0C83AD10578F4C53AD10508F073C003
:10176000C130D10519F1209709F1C430D105F0F449
:10177000D0E0C0E01BC0C33CD105D0F7C85AD0E0D0
:10178000CC0FDD1FCE57DE4F0990D881C02DD46419
:101790000DC0C11580E2D80708F0D1C0C11581E0A5
:1017A000D80708F05AC0C83ED10510F7CE01DF9126
:1017B000CF911F910895C03682E5D80718F5C0343F
:1017C00082E5D80708F06BC0C03282E5D80708F080
:1017D0005FC0C11582E5D80708F497C02C2F269565
:1017E000269580E2289F900111248C2F8370C1E000
:1017F000D0E002C0CC0FDD1F8A95E2F7C22BD32BBD
:10180000DD68D4CFC03A82E5D80760F4C03882E5FD
:10181000D80708F459C0CF71D0E0DC2FCC27C46FB3
:10182000D06AC4CFC03C82E5D80708F462C0C03E8D
:1018300082E5D80708F09CCFDC2FCC27CC27DF71BE
:10184000C06FD06AB3CFC55AD0E0C158DE4FC8814F
:10185000D0E0D064ABCFD065A9CF8D2F0E948F0A86
:10186000182FCE0199270E94D20AC12FD0E0DC2F79
:10187000CC27CC27DF71C82BD92B98CFCE01992745
:101880000E94D20ACC27DF70C82BD92BD06A8ECF0A
:10189000CF71D0E0DC2FCC27C16FD06A87CF2C2F3F
:1018A00026952695277080E2289F900111248C2F81
:1018B0008370C1E0D0E002C0CC0FDD1F8A95E2F753
:1018C000C22BD32BDC6872CF2C2F26952695277040
:1018D00080E2289F900111248C2F8370C1E0D0E01A
:1018E00002C0CC0FDD1F8A95E2F7C22BD32BDA683A
:1018F0005DCF8C2F8F710E948F0AC82FD0E0DC2F14
:10190000CC27CC27DF71D06251CF8C2F8F710E94F2
:101910008F0A55E0D695C7955A95E1F7CF70D0E07C
:10192000DC2FCC27282F30E084FF05C044E0220FB5
:10193000331F4A95E1F7C22BD32BD06937CF8D2FB8
:101940008F710E948F0A182FCE0199270E94D20A08
:10195000C12FD0E0DC2FCC27CC27DF71C82BD92BAF
:10196000D2CF80959091FD0498239093FD04089523
:1019700080914D0590911405981301C008958F5FD3
:101980008770FACFCF92DF92FF920F931F93CF937E
:10199000DF936C010091B50380912503082BC7E00C
:1019A000D0E010E0FC2EC8010C2E02C09595879562
:1019B0000A94E2F780FD0CC02197A0F7F12C8F2D3F
:1019C000DF91CF911F910F91FF90DF90CF900895FD
:1019D000B6018C2F0E94740B0E94930B019761F348
:1019E000EECFCF93DF93EC010E94C20CBE010E94A8
:1019F000740B0E94930BDF91CF910895292F9A3099
:101A000078F5863068F590E036E0239F800D911DD3
:101A10001124682F677023E0969587952A95E1F742
:101A2000FC01EE0FFF1FE80FF91FE550FD4F50E0DE
:101A300040E080E0219130E0062E02C036952795E7
:101A40000A94E2F721703327042E01C0220F0A9472
:101A5000EAF7822B4F5F5F4F4330510559F70895E6
:101A600080E00895292F9A3098F5863088F590E027
:101A700036E0239F800D911D1124282F277041E00F
:101A800001C0440F2A95EAF723E0969587952A9599
:101A9000E1F7FC01EE0FFF1FE80FF91FE550FD4FC6
:101AA00030E020E070E05191DF011197CB01022E70
:101AB00002C0969587950A94E2F7817081958527F3
:101AC000842385278C932F5F3F4F2330310559F7AF
:101AD00008958093B50308959091B50321E030E017
:101AE000F90101C0EE0F8A95EAF7D90102C0AA0FE9
:101AF000BB1F6A95E2F7EA2B01C0220F4A95EAF76D
:101B0000892F8E23E81305C0292B822F0E94690D8F
:101B1000089520952923F9CF21E030E001C0220F5C
:101B20008A95EAF720958091B50382230E94690D7A
:101B3000089590911A038095892380931A03282F82
:101B4000277069F4891759F09091720392FF07C0CA
:101B50008695869586950E948C0D10921A0308959D
:101B600021E030E001C0220F8A95EAF78091B503A9
:101B7000822B0E94690D0895809325030895FC012E
:101B800024812223C1F0808191810E94F10C9295E1
:101B90009F70963091F058F4925F9F70923058F495
:101BA000803F19F030F4883E30F481E008959A5F68
:101BB000F4CF843FD1F380E00895883EB0F3813FB5
:101BC000D1F7F3CF982F92959F7011F0892F94E061
:101BD000282F2695269511F09E5F822F869509F075
:101BE0009F5F892F0895A6E0B0E0E9EFFDE00C9437
:101BF000172B49835A8349815A819923A1F02223C3
:101C000091F0CA010E94C20C182F682F89819A8115
:101C10000E94320D69817A81812F0E94740B269671
:101C2000E3E00C94332BCA010E94FE0C182FF2CF74
:101C3000CF93DF93682F81E06A3019F06D3031F473
:101C400080E00E94A60EDF91CF91089580919007C9
:101C50009091910726E0FC01AAE8B7E001900D926F
:101C60002A95E1F7603E08F458C026E0FC01119285
:101C70002A95E9F7C0919007D091910746E050E08E
:101C8000BE018AE897E00E949B2B9E012A583540AE
:101C9000892B41F1C90145E0969587954A95E1F771
:101CA00041E050E0BA0102C0660F771F8A95E2F763
:101CB000CB016091880570918905862B972BB9011E
:101CC0006B5F7F4FE5E076956795EA95E1F702C097
:101CD000440F551F6A95E2F7842B952B9093890545
:101CE000809388052A5F3F4F40918705642F70E0FD
:101CF000C9010E94F42A481B463010F4240F311DFC
:101D0000211572E0370710F030E020E026573A4FF7
:101D1000309391072093900796CFF6E06F9FB00124
:101D200011246850794F46E050E00E94922BA2CFD8
:101D3000CF93DF93EC01FE018491811103C0DF9109
:101D4000CF9108950E94180E2196F5CFCF93382F8A
:101D5000E0919007F0919107EA58F54020918705AE
:101D6000622F70E0CF010E94F42A281B822F3323B8
:101D700061F066E00E943F2BC82FC15010F4CF9154
:101D8000089580E20E94180EF8CF9F01280F311DA0
:101D90002115324018F080E0F0E0E0E08E0F9F2F38
:101DA000911D86579A4F9093910780939007E7CFA4
:101DB0000E94980E81E00E94A60E08958091FD0475
:101DC00090912403892B8093F2029091230399230D
:101DD00091F0892B8093F20220E084EF92E0FC01E5
:101DE0003191CF0131112F5FF2E08A3F9F07B9F7A0
:101DF00021111092230348E050E06BE173E082EF81
:101E000092E00E949B2B892BA9F088E0E2EFF2E0A0
:101E1000ABE1B3E001900D928A95E1F7E091F30414
:101E2000F091F404309731F00280F381E02D82EFDD
:101E300092E009950895E4EFF2E086E0DF011D925B
:101E40008A95E9F790E080E00E94470890E080E002
:101E50000E942208109224030E94DE0E0895AAE236
:101E6000B0E0E5E3FFE00C94172B8CE095E02091C7
:101E7000F100FC012193CF01F5E084319F07B9F710
:101E800080910D05833009F470C0B8F4813009F4F5
:101E900047C0823009F4B3C08091E80083FF80C25C
:101EA00080910C0590910D059A3008F079C2E92FC8
:101EB000F0E0EB5FF34D0C948C2B8A3009F48EC06C
:101EC0008B3009F46FC0893039F780910C0581326D
:101ED00019F780911005909111050297E8F680910D
:101EE000E800877F8093E8008091E80082FF38C097
:101EF0009091F3008091F200029731F48091F1000B
:101F0000813011F0863021F48091F1008093FF043C
:101F10008091E8008B778093E8000E940807BCCF8F
:101F200080910C05813A09F0B7CF8091E800877F56
:101F30008093E8008091100590911105892B61F440
:101F400068E080E095E070E00E94B4078091E800CE
:101F50008B778093E800A0CF60E090E080E0F3CF43
:101F600080910A058111C0CF97CF80910C05813AED
:101F700009F092CF8091100590911105892B09F0FD
:101F80008BCF8091E800877F8093E8008091E80004
:101F900080FFFCCF80913B018093F1008091E800AD
:101FA0008E77B9CF80910C05813209F075CF809181
:101FB000100590911105892B09F06ECF8091E800F2
:101FC000877F8093E8000E94080780910E05809328
:101FD0003B011092FD040E941B0F5ECF80910C0507
:101FE000813209F059CF8091E800877F8093E80023
:101FF0000E94080780910F058093FE044DCF8091C9
:102000000C05813A09F048CF8091E800877F8093E2
:10201000E8008091E80080FFFCCF8091FE04BCCFF7
:10202000803899F0823809F0BBC1809110058F701B
:10203000873008F0B5C18093E9008091EB0085FB03
:10204000882780F91092E90006C0809108059091D8
:102050000905911182609091E800977F9093E800C4
:102060008093F1001092F1008091E8008E7794C186
:10207000882309F482C1823009F092C180910E0553
:10208000811185C1809110058F702FEF280F2630A8
:1020900008F086C18093E9002091EB0020FF77C112
:1020A000933031F48091EB0080628093EB006FC13C
:1020B0009091EB0090619093EB0021E030E001C043
:1020C000220F8A95EAF72093EA001092EA008091A5
:1020D000EB008860EACF811163C110910E051F7774
:1020E0008091E3008078812B8093E3008091E80069
:1020F000877F8093E8000E9408078091E80080FFB6
:10210000FCCF8091E30080688093E30082E01111AE
:1021100083E080930A0544C18058823008F040C1B2
:1021200080910E0590910F058C3D23E09207A1F55B
:1021300083E08A838AE289834FB7F894DE0113969D
:1021400020E03EE051E2E32FF0E050935700E491AD
:1021500020FF03C0E295EF703F5FEF708E2F90E09D
:10216000EA30C0F0C7968D939D932F5F243159F7C5
:102170004FBF8091E800877F8093E8006AE270E0BB
:10218000CE0101960E94B4078091E8008B7780937E
:10219000E80006C1C096E7CF4091100550911105A7
:1021A000292F33272330310509F444C078F5213035
:1021B000310509F46FC08BE390E0E1E7F6E02230EF
:1021C000310509F0EDC02091E800277F2093E80059
:1021D00020911205309113058217930708F49C0192
:1021E00040E02115310509F064C0411162C08091C1
:1021F000E80082FDC9CF80910A05882329F2853045
:1022000019F28091E80083FFF2CFBECF2132310571
:10221000A9F12232310509F0C3C04115510509F475
:1022200043C04130510509F0BBC082E390E0EFEFBD
:10223000F5E0C9CF992781309105C1F0009759F099
:10224000029709F0ADC0EEEBF6E0E4918E2F90E03E
:10225000EEEBF6E007C0E4EFF6E0E4918E2F90E0BD
:10226000E4EFF6E0009709F49BC0ADCFE6EDF6E0B1
:10227000E4918E2F90E0E6EDF6E0F4CF41155105A4
:1022800071F04130510509F08BC089E090E0ECE934
:10229000F6E099CF82E190E0ECEAF6E094CF89E0B5
:1022A00090E0E3E8F6E08FCF80E490E0E1E3F6E051
:1022B0008ACF80910A05882309F466CF853009F416
:1022C00063CF8091E80083FD5FCF8091E80082FDBD
:1022D0008ECF8091E80080FF84CF9091F3008091B1
:1022E000F2002115310519F08830910550F041E0D8
:1022F000089709F040E08091E8008E778093E8002D
:1023000070CF44914093F1003196215031090196EC
:10231000E8CF803809F044C08091E800877F80933F
:10232000E80080910B058093F1009ECE811138C0AA
:1023300010910E051230A0F58091E800877F809300
:10234000E80010930B050E940807112311F084E0A8
:1023500005C08091E30087FDFACF81E080930A05F4
:1023600042E061EC81E00E94270742E261EC82E0FA
:102370000E94270780910A0513C080910E058130C5
:1023800079F481E0933009F080E0809309051092A0
:10239000E9008091E800877F8093E8000E940807A9
:1023A0008091E80083FF0AC08091E800877F8093D6
:1023B000E8008091EB0080628093EB00AA96E3E056
:1023C0000C94332B882321F00E94B10C0E94DE0E66
:1023D0000895882339F09091FD04982B9093FD0483
:1023E0000E94DE0E0895882391F19CEF980F913A98
:1023F00080F4E4EFF2E02AEF32E09191891303C018
:10240000DF0111971C922E173F07B9F70E94DE0ECD
:10241000089590E2980F983050F4877091E001C0D1
:10242000990F8A95EAF7892F0E94B10CEFCF9BE5AF
:10243000980F933028F490E080E00E9447080895B8
:10244000885A8B3120F490E080E00E9422080895A1
:102450000F931F93CF93C82F882349F18CEF8C0FD4
:10246000813AB8F504EF12E08AEF92E0F801219189
:10247000C21709F122E0EA3FF207C9F7EFEF80E067
:10248000D8019D918D01C91781F0EF3F19F4911189
:1024900001C0E82F8F5F863099F7EF3F31F00E2EA5
:1024A000000CFF0BEE50FD4FC2830E94DE0ECF9159
:1024B0001F910F910895E4EFF2E02191C21303C040
:1024C000DF0111971C928E179F07B9F70E94DE0E4D
:1024D000D5CF80E28C0F883068F4C77021E030E0FF
:1024E00001C0220FCA95EAF78091FD04822B8093E8
:1024F000FD04DBCFEBE5EC0FE33040F4F0E0E15816
:10250000FE4F808190E00E944708D1CFC85ACB315E
:1025100070F6EC2FF0E0EE0FFF1FEE57FE4F8081BC
:1025200091810E942208C3CF0F931F93CF93DF9313
:10253000EC01FC0101900020E9F78F010150110925
:10254000C017D10728F0DF91CF911F910F91089507
:1025500089910E94180EF4CF0F931F93CF93DF93AE
:102560008B01EA0190910A05943061F58093E900AE
:102570008FEF9091E800815095FD06C095ED9A95FA
:10258000F1F700008111F5CF8091E80085FF1AC0B6
:102590000E94D706811111C08091E80085FD06C018
:1025A0008091E8008E778093E800F2CFF801819166
:1025B0008F018093F100219779F78091E8008E7761
:1025C0008093E800DF91CF911F910F91089543E030
:1025D00050E0BC0182E00E94AC120895CF93DF93DB
:1025E000EC0148E050E0BC0181E00E94AC1288E0C0
:1025F000FE01A0E0B5E001900D928A95E1F7DF9130
:10260000CF910895539A3BB1377F2BB128604FB7D4
:10261000F8948DE094E0FC015191CF0168E02BB972
:10262000000000C057FF3BB9550F000000C000C0BC
:1026300000C03BB900C06A9591F7F4E08B3E9F075C
:1026400051F74FBF8FE594E00197F1F700C000000C
:102650000895B0E0A0E0EFE2F3E10C94102B7C01D0
:102660005B016A018091600301E010E08A3010F4A0
:102670000AE010E0C1E0D0E0B501C701F60109951C
:10268000811104C021960C171D072CF4CDB7DEB7BD
:10269000EAE00C942C2BCC9F9001CD9F300D300D97
:1026A000112490E080E045E34A95F1F7000001969F
:1026B00082179307C1F7E0CF80913203811110C0D8
:1026C0008091D80080618093D8008AE18A95F1F7E3
:1026D00000C08091D90080FF0AC081E0809332035E
:1026E00081E090913203913009F080E0089582E01A
:1026F000809332030E94B80610920A05F1CF0E941F
:102700005C13882359F0E091F304F091F4043097BE
:1027100029F00190F081E02D0995089580E0089559
:10272000FF920F931F93CF93DF93EC01F62E042FAC
:10273000122F0E945C1381110FC0C532D1057CF0AD
:10274000A597FE01EE0FFF1FEC0FFD1FE35FFB4F90
:10275000F1820083128303C0C532D10594F3CDB753
:10276000DEB7E5E00C94312BCF93C82F0E945C13A9
:10277000882329F081E0C53228F080E003C081E0A1
:10278000CA34D8F7CF910895B0E0A0E0EAECF3E1C5
:102790000C94122B7C01C0913C018FE0C89FC02D8E
:1027A00011241FE01C0F1B3408F01AE40E945C1374
:1027B000882319F0163208F015E20E945C1381118B
:1027C00003C0C53208F4C5E22091830531E0230F30
:1027D00008F42FEF30E050E040E06FEF7FEF80E053
:1027E00090E00E946D2B6901D0E001E02C2FC11711
:1027F00040F0812F0E94B413CDB7DEB7E8E00C940F
:102800002E2BFE01EB55FD4F808190913D018923D8
:1028100009F1409152054150042E000C550B47FF21
:102820001BC0C60160918305600F08F46FEF0E9422
:10283000D809AC0160918005709181058091820575
:10284000F70109950E94E209462F282F672FCE0134
:102850000E946F092196CACFFA01EE5AFA4F818978
:1028600082130AC0FA01EE0FFF1FEE5AFA4F818D54
:10287000928D8C159D05B0F241505109D0CFEF9249
:10288000FF920F931F93CF93DF937C01C0913C0184
:102890008FE0C89FC02D11241FE01C0F1B3408F0CF
:1028A0001AE40E945C13882319F0163208F015E22E
:1028B0000E945C13811103C0C53208F4C5E2609127
:1028C00083056695669521E0620F08F46FEF8091AD
:1028D0004E0590914F050E94D809082FD0E0C117EE
:1028E00040F0812F0E94B413CDB7DEB7E6E00C9420
:1028F000302BFE01EB55FD4F808190913D018923E6
:1029000091F0609180057091810580918205202F62
:102910004C2FF70109950E94E209462F282F672FB7
:10292000CE010E946F092196DACFB0E0A0E0EBE97A
:10293000F4E10C94102B182F80913A01811323C0DD
:1029400090917F0593702091390130E081E09217DA
:10295000130609F480E0817080933E018091840524
:1029600090913D01981739F080933D0140E060E07F
:1029700080E00E9472091B3088F4E12FF0E0E15FF3
:10298000F34D0C948C2B81E0E6CF80913E0188239F
:1029900089F140E060E080E00E94720980E02AC096
:1029A000C0913C018FE0C89FC02D11240FE00C0F97
:1029B0000B3408F00AE40E945C13882319F00632F5
:1029C00008F005E20E945C13811103C0C53208F4CF
:1029D000C5E26091800570918105809182050E9419
:1029E000E209F62EE72ED82ED0E0C017D8F0802FBF
:1029F0000E94B41390913C019F5F90933C01811120
:102A00000CC082E080933F0180913E01811105C09E
:102A1000111103C083E080933F01CDB7DEB7EAE038
:102A20000C942C2BFE01EB55FD4F808190913D01C4
:102A3000892331F02D2D4F2D6E2DCE010E946F096F
:102A40002196D3CFC0913C018FE0C89FC02D1124A7
:102A50000FE00C0F0B3408F00AE40E945C1388238B
:102A600019F0063208F005E20E945C13811103C0E0
:102A7000C53208F4C5E2E0908105F0908205D0915E
:102A800080056D2F7E2D8F2D0E94E209D62EC72E38
:102A9000B82E609183056D0F7E2D8F2D0E94E20967
:102AA000F62EE72EA82ED0E0C01708F0A0CFFE012A
:102AB000EB55FD4F908180913D01892359F02A2DDE
:102AC0004F2D6E2D90FD03C02B2D4D2D6C2DCE0165
:102AD0000E946F092196E8CFC0913C018FE0C89F0A
:102AE000C02D11240FE00C0F0B3408F00AE40E94F3
:102AF0005C13882319F0063208F005E20E945C138B
:102B0000811103C0C53208F4C5E2E0908105D09080
:102B1000820520918305B0E4FB2E3F2D329F312D9D
:102B20001124F32ED0E0C01708F061CFFE01EB5561
:102B3000FD4F808190913D018923B9F0FE01EE0F98
:102B4000FF1FEB52FE4F85AD82958F70609180051F
:102B50008F9D600D11247E2D8D2D0E94E209462F40
:102B6000282F672FCE010E946F092196DCCFC091DC
:102B70003C018FE0C89FC02D11240FE00C0F0B34D7
:102B800008F00AE40E945C13882319F0063208F06A
:102B900005E20E945C13811103C0C53208F4C5E24E
:102BA000D0908105E090820520918305F0E4FF2E0E
:102BB0003F2D329F312D1124F32ED0E0C01708F0A5
:102BC00016CFFE01EB55FD4F808190913D01892389
:102BD000D9F0FE01EE0FFF1FEB52FE4F64ADF69EE3
:102BE000B0011124E5E075956795EA95E1F78091CC
:102BF0008005680F7D2D8E2D0E94E209462F282F1B
:102C0000672FCE010E946F092196D8CFC0913C0159
:102C10008FE0C89FC02D11240FE00C0F0B3408F07B
:102C20000AE40E945C13882319F0063208F005E2DA
:102C30000E945C13811103C0C53208F4C5E2F09014
:102C40008005D0918105E0908205609183056695AD
:102C50006695669580914E0590914F050E94D80922
:102C60000E94B909805887FD8195880F282F3E2D35
:102C7000239F212D1124822F6F2D7D2F0E94E20989
:102C8000F62EE72ED82ED0E0C01708F0B0CEFE0109
:102C9000EB55FD4F808190913D01892331F02D2D21
:102CA0004F2D6E2DCE010E946F092196EDCF86E546
:102CB00099E00E943F149ECEC0913C018FE0C89FD6
:102CC000C02D11245FE0F52EFC0E2AE42F1510F420
:102CD0004AE4F42E0E945C13882329F035E23F1564
:102CE00010F435E2F32E0E945C13811103C0C5324B
:102CF00008F4C5E2609183056695669580914E055E
:102D000090914F050E94D809D82E80E48D0D0E9425
:102D1000B90990E8C92EC80E8D2D0E94B90920E886
:102D2000B22EB80ED0E0CF1510F08F2D61CEFE017F
:102D3000EB55FD4F808190913D018923A1F0609179
:102D400080057091810580918205ED2C0C2F2B2D33
:102D50004C2D0E948B090E94E209462F282F672FD5
:102D6000CE010E946F092196DECF85E499E0A1CFC4
:102D70008EE399E00E94C4133DCE88E399E0FACF38
:102D80000F931F930E945C13882329F00E9416085A
:102D90001F910F9108950E941608009161031091F0
:102DA00062032091630330916403600F711F821FDF
:102DB000931FEECFCF92DF92EF92FF926B017C01D7
:102DC0000E945C138823A1F02FB7F8946091F80457
:102DD0007091F9048091FA049091FB042FBF6C1953
:102DE0007D098E099F09FF90EF90DF90CF900895A5
:102DF0000E94C016F4CF1092FD040E941B0F2FEF0B
:102E000084E39CE0215080409040E1F700C0000046
:102E100088E19CE00FB6F894A895809360000FBEFF
:102E200090936000FFCFB0E0A0E0E9E1F7E10C94FF
:102E3000122B6C017B0164E670E088E70E94522847
:102E40008C01E601EC0CFD1C17FD0BC0FE0184910A
:102E500064E670E00E94BE288C012196CE15DF0545
:102E600099F70E94342981E00115110509F080E0ED
:102E7000CDB7DEB7E8E00C942E2B8091EF04909153
:102E8000F004911103C091E089270895882369F027
:102E900062E070E08DEF95E00E941317811103C08E
:102EA0008091EF0408951092EF048091EF04EBCF2E
:102EB000CF93C091EF048091F0048823D1F00E9459
:102EC0001608605A75418F4F9F4F6093EB047093C3
:102ED000EC048093ED049093EE04C11108C062E00D
:102EE00070E08BEF95E00E941317811105C0C0912F
:102EF000EF048C2FCF91089581E08093EF04F7CFFA
:102F00004F925F926F927F928F929F92AF92BF92F9
:102F1000CF92DF92EF92FF92CF936091080470916D
:102F2000090480910A0490910B040E94DA166B0147
:102F30007C010E94C0164B015C01809208049092B3
:102F40000904A0920A04B0920B04A091DF03EFEDF4
:102F5000F3E08A2F90E04FEF5FEF60E070E04C19F4
:102F60005D096E097F09A9132AC08093DF03809150
:102F70000C04C0E0811108C080917F05C82FC37088
:102F800019F0C82FC695C69580913F01813009F48C
:102F900040C0882339F1823009F445C0833009F4F8
:102FA00046C0CF91FF90EF90DF90CF90BF90AF9051
:102FB0009F908F907F906F905F904F900895218D9C
:102FC000328D2901712C612C441555056605770554
:102FD00020F481509F5F3296C6CF2C0D3D1D328F5D
:102FE000218FF8CF10923C0180924E0590924F05B0
:102FF000A0925005B092510589E2EFEDF3E0A2E511
:10300000B5E001900D928A95E1F781E080933F0150
:10301000C8CF8C2F0E949514CC2319F20E945C1308
:103020000E945C13BECF8C2F0E942B09BACF8091D7
:103030007E05882351F048E050E068E170E08FE7BA
:1030400095E00E94CF2B10927E0560914E05709105
:103050004F0580915005909151050E94DA1660311C
:1030600071058105910508F49CCF10923F0199CF1D
:10307000EFE7F5E085E08083809140019091410188
:10308000A091420181839283A3838FE784838FEF92
:10309000858348E050E068E170E0CF010E94CF2BCB
:1030A00010927E050895A4E0B0E0E9E5F8E10C9403
:1030B000172B409158035091590360915A03709116
:1030C0005B032FB7F8948091F8049091F904A091D4
:1030D000FA04B091FB042FBF841B950BA60BB70B12
:1030E00011E084369105A105B10570F10E94C0166A
:1030F0006E5F7F4F8F4F9F4F69837A838B839C8353
:103100008091190190911A01805C9C4F40911801A7
:1031100050E04530510510F044E050E0BE016F5FD3
:103120007F4F0E94A82B83E090E00E947E2A182FF8
:10313000882351F00E941608609358037093590336
:1031400080935A0390935B03812F2496E3E00C94C1
:10315000332BEF92FF921F93CF93DF9300D000D0D9
:1031600000D0CDB7DEB77B0190E080E00E947E2AE0
:10317000182F882309F480C04091030150E04115C5
:10318000510511F041E050E060910401709105019A
:10319000605C7C4FCE0106960E94A82B40913803BC
:1031A0005091390360913A0370913B032FB7F89423
:1031B0008091F8049091F904A091FA04B091FB0475
:1031C0002FBF841B950BA60BB70B84369105A10569
:1031D000B10540F481E493E00E948E069E81891738
:1031E00009F44AC081E090E00E947E2A811116C055
:1031F00010E085E0E3E3F3E0D70101900D928A95BA
:10320000E1F7812F26960FB6F894DEBF0FBECDBF33
:10321000DF91CF911F91FF90EF90089540910B01A6
:1032200050E04630510510F045E050E060910C014F
:1032300070910D01605C7C4FCE0101960E94A82B1D
:1032400081E493E00E948E069E818913D1CF0E9473
:103250001608609338037093390380933A03909370
:103260003B0385E0FE013196A3E3B3E001900D92AC
:103270008A95E1F711E0BDCF85E0E1E4F3E0DE01FE
:10328000119601900D928A95E1F71111EACFB1CF15
:103290004F925F926F927F928F929F92AF92BF9266
:1032A000EF92FF920F931F93CF93DF937B01FB016C
:1032B00040805180628073809FB7F8948090F804BA
:1032C0009090F904A090FA04B090FB049FBF84187A
:1032D0009508A608B708F4E68F169104A104B10476
:1032E00018F4C1E0442329F1C82F880FDD0BFE013B
:1032F00083E0EE0FFF1F8A95E1F7E050FF4F8181D9
:103300009281805C9C4F408150E00417150708F4BF
:10331000A801B9010E94A82BCE010E947E2AC82FC5
:10332000882339F00E941608F70160837183828335
:1033300093838C2FDF91CF911F910F91FF90EF908E
:10334000BF90AF909F908F907F906F905F904F90C5
:103350000895A9E0B0E0EFEAF9E10C94162B88E0BB
:10336000EFE7F5E0DE01119601900D928A95E1F705
:1033700080910C04898749E050E06FE473E0CE014E
:1033800001960E949B2B41E0892B09F440E009E063
:1033900010E09E012F5F3F4F6CE573E084E00E94D8
:1033A00048192996E4E00C94322B0F931F93CF9386
:1033B000DF93EC0145E050E066E473E00E949B2B54
:1033C00041E0892B09F440E005E010E09E016CE348
:1033D00073E082E00E944819DF91CF911F910F9115
:1033E0000895A8E0B0E0E7EFF9E10C94182B66EE41
:1033F0007EEF90E080E00E94FD2B60E082E090E0B4
:103400000E94DF2B60E083E090E00E94DF2B1092AF
:10341000250360E074E184E090E00E94FD2B60E011
:1034200086E090E00E94DF2B6FEF87E090E00E9443
:10343000DF2B40E050E0BA0188E090E00E94F12BE1
:1034400060E084E290E00E94DF2B60E087E190E0A2
:103450000E94DF2B60E08CE090E00E94DF2B60E0B8
:103460008DE090E00E94DF2B19821A821B821C8261
:103470001D821E821F82188648E050E068E170E0DD
:10348000CE0101960E94CF2B40E050E0BA0180E2CD
:1034900090E00E94F12B40E050E0BA018FE090E014
:1034A0000E94F12B40E050E0BA0183E190E00E94DD
:1034B000F12B2896E2E00C94342B9091720392FB4E
:1034C000222720F9281779F080FB92F99093720354
:1034D000609171037091720384E090E00E94FD2B73
:1034E00082E00E94990D08951F920F920FB60F92DD
:1034F00011242F933F934F935F936F937F938F93F9
:103500009F93AF93BF93CF93DF93EF93FF93D091AC
:10351000E900DF708091EC00C82FC17080FDC0E829
:103520001092E9008091F000877F8093F0007894FA
:103530000E942F0F1092E9008091F0008860809324
:10354000F000CD2BCF70C093E900FF91EF91DF9198
:10355000CF91BF91AF919F918F917F916F915F912B
:103560004F913F912F910F900FBE0F901F90189584
:103570001F920F920FB60F9211242F933F934F93E8
:103580005F936F937F938F939F93AF93BF93EF93CB
:10359000FF938091E10082FF09C08091E20082FFE9
:1035A00005C08091E1008B7F8093E1008091DA007B
:1035B00080FF24C08091D80080FF20C08091DA0075
:1035C0008E7F8093DA008091D90080FF9DC080E1DA
:1035D00089BD82E189BD09B400FEFDCF81E0809301
:1035E0000A058091FC04811109C00E94B8060E945E
:1035F00059078091E20084608093E2008091E100AD
:1036000080FF17C08091E20080FF13C08091E2002C
:103610008E7F8093E2008091E20080618093E200DF
:103620008091D80080628093D80019BC85E0809397
:103630000A058091E10084FF2BC08091E20084FFA5
:1036400027C080E189BD82E189BD89B5982F91703D
:1036500080FFFBCF8091D8008F7D8093D800809130
:10366000E1008F7E8093E1008091E2008F7E809365
:10367000E2008091E20081608093E20080910B057E
:10368000882309F447C084E080930A0580910A05E5
:103690008091E10083FF27C08091E20083FF23C077
:1036A0008091E100877F8093E10082E080930A05AA
:1036B00010920B058091E1008E7F8093E100809154
:1036C000E2008E7F8093E2008091E200806180932F
:1036D000E20042E060E080E00E9427078091F00075
:1036E00088608093F000FF91EF91BF91AF919F911F
:1036F0008F917F916F915F914F913F912F910F909B
:103700000FBE0F901F90189519BC10920A051092C9
:10371000FC0474CF8091E30087FD93E090930A0549
:10372000B5CF78941F921FB61F9211248F939F9349
:10373000AF93BF938091F8049091F904A091FA049B
:10374000B091FB040196A11DB11D8093F8049093E4
:10375000F904A093FA04B093FB04BF91AF919F9139
:103760008F911F901FBE1F9018959C014FB7F89422
:103770008091F8049091F904A091FA04B091FB04AF
:103780004FBF821B930B08952FB7F8948091F804D4
:103790009091F904A091FA04B091FB042FBF089511
:1037A0000F931F93CF93DF93C62FD42F022FFC01CB
:1037B00085818823A9F060937D050E94C41B9093A6
:1037C0007C0580937B05C77081E001C0880FCA9596
:1037D000EAF70E94E911DF91CF911F910F910895AF
:1037E00080917D05681335C080917B0590917C05A3
:1037F0000E94B51B8639910560F510E21D0FCD17AB
:10380000B9F080E28C0F883040F4C77081E001C0CD
:10381000880FCA95EAF70E94E211183048F481E057
:103820009D2F977001C0880F9A95EAF70E94E911C1
:10383000802F0E942812802F0E94F311183058F612
:10384000D77081E001C0880FDA95EAF70E94E21193
:10385000C2CFC77081E001C0880FCA95EAF7F6CFE2
:10386000B0E0A0E0E6E3FCE10C94102B8C01DC015D
:1038700014968C911497882309F45BC021E04C9135
:1038800011965C91119712966C91129713967C91F8
:10389000139715969C910E94F30D9C01F801858168
:1038A000F901E851FC47882309F47BC390E2909327
:1038B00031013093B7032093B603A901505241154B
:1038C0005043B8F4A90155275093B7034093B6036A
:1038D000D80111969C9111979093B9039C91909364
:1038E000B803E730F10508F040C0E65EF34D0C94F4
:1038F0008C2B2C33310560F7D901AD5BBE4F9C9109
:1039000090933101E5CF26E241EE61EEC8010E94BD
:10391000D01B80911A03877061F0D80115968C91A5
:10392000882339F08091720382FF03C082E00E94F5
:10393000990DCDB7DEB7EAE00C942C2B27E245EECB
:1039400065EEE4CF26E241EE60EEE0CF27E245EE01
:1039500064EEDCCF26E241EE62EED8CF27E245EE00
:1039600066EED4CF28E241E0EBCF10927D052737F9
:10397000BCE73B0709F4BBC082E02837ECE73E0711
:1039800009F4B8C023309CE7390709F402C108F0F4
:10399000BFC02115BCE73B0709F4CAC021303C4732
:1039A00009F053C00E94FB1680917F0591E08927A2
:1039B00080937F0510923F0180917E058160809306
:1039C0007E05A7CF46E159E060E279E00E94AC08AD
:1039D000A0CF40E259E066E179E0F8CF42E059E05B
:1039E0006CE079E0F3CF4CE059E062E079E0EECFB3
:1039F00048EE58E065EF78E0E9CF45EF58E068EE33
:103A000078E0E4CF4EEC58E06BED78E0DFCF4BEDA3
:103A100058E06EEC78E0DACF42EB58E060EC78E00A
:103A2000D5CF40EC58E062EB78E0D0CF81E00E9447
:103A300056066FCF85E0FBCF2737FCE73F0709F439
:103A40005CC028373C4709F461C0F8018581C0811A
:103A5000D181882309F4B0C0CE010E94C20CF82E97
:103A6000682FCE010E94320DBE018F2D0E94740B73
:103A70000E94930BD82FC92FA82ED8011596CC9051
:103A800015971696BC90B2943FE0B32280911A032A
:103A90008770F1F0EC2CCC20E1F0892F807F80340E
:103AA00051F080E28D0F883098F0B11004C0892F5A
:103AB000807E803269F08091720382FF09C082E0CB
:103AC0000E94990D80911A038770EE24E39481116E
:103AD000E12CDC2ED2942FE0D222BBE0BD1508F4FD
:103AE000D0C0ED2DF0E0EF5DF34D0C948C2B8823CE
:103AF00021F081E00E94B00D03C081E00E948C0D96
:103B000043E062E081E00E946C0D03CF82E0F6CFDB
:103B10002B35FCE73F0709F44DC02C358CE73807FF
:103B200009F43EC02A353C4709F08FCF81E03FC001
:103B30001092FD040E941B0FAFEFB4E3ECE0A15024
:103B4000B040E040E1F700C0000081E08093E00079
:103B500080E28093D8001092C9008FE19EE4019723
:103B6000F1F700C0000087E090EBDC018093920742
:103B700090939307A0939407B093950788E19CE0F6
:103B80000FB6F894A895809360000FBE90936000E4
:103B9000FFCF6FEF7FEF90E080E00E94FD2B02CF20
:103BA0008091720382FB882780F991E089270E9427
:103BB0005D1A4BCF80E0FBCFCE010E94FE0CF82EA9
:103BC00053CFEC2FEF70FE2EC07F19F0F29490EFE0
:103BD000F922CC20B9F0FF2069F080E28D0F883007
:103BE00010F0A11009C08091FD04F82AF092FD04A4
:103BF0000E94DE0E8D2F43C080912403F82AF0929C
:103C00002403F6CF8D2F0E94F311FF20D1F1D05E57
:103C1000D83010F0A11004C08F2D0E94B10C06C046
:103C2000F09480912403F822F09224030E94DE0E87
:103C300028C0FC2FFF70FF2EC07FC03219F0F29415
:103C400080EFF822AA2059F021E0A21609F479C0E9
:103C5000CC2009F485C0BB2009F447C0CBCF8091AC
:103C6000720382FD3EC0CC20B1F1FF2039F080917B
:103C7000FD04F82AF092FD040E94DE0E80E00E940E
:103C80002812ED2DE850FF0B349710F40E947F139B
:103C9000EE20B1F080911A0380FD12C0D801159674
:103CA0001C928695869586950E94B00DC8010E944B
:103CB000301C80911A038695869586950E948C0DFE
:103CC00020E0F80140815181628173818481958176
:103CD0000E94F30D2ECE80E00E94F311FF2089F2A6
:103CE0009BCFCC20A1F0B11004C08F2D0E94E91110
:103CF000C8CF31E0B312C5CF809123039F2D982305
:103D0000F91609F4BECFF82AF0922303BACFB11006
:103D1000B8CF8F2D0E94E211909123038F2D89231C
:103D200029F08F2D80958923809323038091FA02B7
:103D30009F2D982309F4A5CFF094F822F092FA026F
:103D4000A0CFCC2029F085E08B1508F49ACFCDCFF9
:103D500094E09B1508F495CF8F2D0E94E21191CF2E
:103D6000BB20D1F3A9E3AA1209C0BFEFE7EEF3E04D
:103D7000B150E040F040E1F700C000008D2F0E94FC
:103D8000F3117FCF8C2F86958695837069F08130F3
:103D900009F077CF8D2F9C2F9370C11002C080E067
:103DA00090E00E9422086DCF8D2F9C2F9370C11040
:103DB00002C080E090E00E94470863CF8C2F8370A0
:103DC00089F5C1105ECF4D2F429546954770440F3F
:103DD000440F8D2F8F70042E01C0880F0A94EAF7CC
:103DE0002D2F2071D4FF07C02FE030E001C0220F3B
:103DF0004A95EAF72095C695C695C370C23069F01A
:103E000050F430912503C13029F0822B83230E9486
:103E1000BC0D37CF832B822BFACF282B8091250323
:103E20008227F5CF8695CC2011F08C2F81708823C6
:103E300009F427CF4D2F429546954770440F440F04
:103E40008D2F8F70042E01C0880F0A94EAF72D2F52
:103E50002071D4FF07C02FE030E001C0220F4A9547
:103E6000EAF72095C695C695C370C23069F050F444
:103E70003091B503C13029F0822B83230E94690D54
:103E800000CF832B822BFACF282B8091B50382277A
:103E9000F5CFCF70CC2029F08C2F0E94B00D8D2F44
:103EA00025CF8D2F0E94E2118C2F0E948C0DE9CE20
:103EB0008D2F22EFA216A9F12A1570F030EFA3166C
:103EC000D1F091EFA91691F0CC2009F45AC0B110AD
:103ED00091CE8C2F8F7129C0A3EFAA1649F1B4EFB0
:103EE000AB12F2CF8091720382FD2DC08C2F8F71A7
:103EF000CC20D9F21AC0CC2079F0E4E0EB1508F41C
:103F0000C0CECF7181E090E001C0880FCA95EAF77A
:103F10009091B5038927B2CFF5E0FB1508F4B1CE37
:103F2000F0CF8C2F8F71C110C0CF0E94B00DA9CEE1
:103F300080E0CC2009F4A2CFCF7181E001C0880FCE
:103F4000CA95EAF79BCFCC2089F0CF718C2F0E94C5
:103F5000B00D8091720382FF07C028E0C29FC001AC
:103F60001124836080931A038C2FDFCF81E00E949D
:103F7000990D31E03B1508F084CE82E00E94990D46
:103F800080CEBB2059F0893309F0F8CE8FEF97EE41
:103F9000A3E081509040A040E1F7EECE8C2F8F71CE
:103FA00084CFE730F10508F4A0CC8091FD04827243
:103FB000F901E052F847E531F10508F03DCDE35D48
:103FC000F34D0C948C2BCF93DF9380911903807F5A
:103FD00009F04DC080911803882309F448C0E0918E
:103FE0004D0550911405C0911403D09113036091B5
:103FF00015037091160347E05E17C9F18E2F90E00C
:10400000E49FF0011124EB5EFA4F2481222391F109
:10401000489FF001499FF00D1124DF01AB5EBA4FBC
:1040200011962C9111972C1325C02C912D1322C081
:1040300015962C91159721111DC012962D913C912A
:10404000261B370B26393105A8F4809119038F7090
:10405000806180931903E55EFA4F80818F708061E3
:10406000808383E193E00E94301C0E94B80CDF91B2
:10407000CF910895FC013196E770BECFA4E1B0E086
:10408000E4E4F0E20C940E2B8C0186E0F801DE01F2
:104090001F9601900D928A95E1F7F8018481E580E1
:1040A00093E1A92E93E0B92E90911703911128C0A6
:1040B000882319F1EE20F1F0C8010E94BF0DF82EFF
:1040C0008823C1F087E0F801D50101900D928A950F
:1040D000E1F780911703813031F4809113039091BF
:1040E00014030E94F10C0E94E31F8F2D6496ECE0F4
:1040F0000C942A2BC8010E94301CFF24F394F5CFA6
:10410000D080C18082809380F090180320911503A5
:1041100030911603A401421B530BFF2009F4E5C0A4
:104120004639510508F09EC08823F9F29091140396
:1041300080911903282F207F09F056C0C91214C09E
:1041400090911303D91210C0E11048C08F708061A4
:104150008093190383E193E00E94301C809119033E
:10416000F8018683F12CC1CFE11038C06C2D8D2D64
:104170000E946F066C2D8D2D0E946F06E82E811116
:10418000F1CFDF86C88A8F8598890E94F10C292F8C
:1041900022952F70243058F49F70223088F0992394
:1041A00099F0F8019681907F79F4FE2C9ECF2A5FDA
:1041B0002F70223068F0C8010E94301CEF2CF5CF20
:1041C000992311F0882389F3805E883070F3F3CF50
:1041D000803F58F3815F833070F7E7CF80911903F8
:1041E000816080931903BECFC91213C0909113034D
:1041F000D9120FC0E1100DC08683C8010E94301C87
:1042000087E0F801A3E1B3E001900D928A95E1F710
:104210006CCFC8010E94BF0D882309F46BCFEE203C
:1042200009F468CF80911903803288F0209113033C
:1042300030911403398728879B868A8690911703CB
:104240009C871D868E87CE0108960E94301C87E0D1
:10425000F801A3E1B3E001900D928A95E1F70E9485
:10426000E31F4BCF90911903292F207F51F483E155
:1042700093E00E94301C87E0F50111928A95E9F7DE
:1042800071CF882309F431CF809114038C1110C0B1
:1042900080911303D8120CC0E1100AC09683C801A4
:1042A0000E94301C87E0F50111928A95E9F71DCF35
:1042B000C8010E94BF0D882309F41CCFEE2009F429
:1042C00019CF80911903803210F22091130330919D
:1042D00014033A8329839C828B82909117039D83D8
:1042E0001E828F83CE010196B0CF46395105D0F69C
:1042F000882309F402CFFE2CEE2009F4FBCE809136
:1043000014038C1105C080911303D81609F478CFDB
:10431000C8010E94BF0D81119ACF8091190381605D
:1043200080931903C8010E94301CDFCEABE1B0E0DE
:10433000ECE9F1E20C94162B4E8B5F8B688F798F32
:104340008A8F9B8F192F9111109224031D8A86E06A
:10435000FE017696DE011F9601900D928A95E1F797
:104360000A8D002341F021E04F85588969897A89B7
:10437000C8010E94F30D0B8B1C8B87E0FE013F965A
:10438000DE01189601900D928A95E1F7CE0108960C
:104390000E943E2081110CC087E0FE013896DE01AC
:1043A000119601900D928A95E1F78C8581110BC0D1
:1043B00017E080914D0590911405891333C06B96D9
:1043C000E4E00C94322B2091140530E0C9010196F1
:1043D0008770992740914D054817190699F097E085
:1043E000929FD001939FB00D1124AB5EBA4FFE0196
:1043F000319601900D929A95E1F7809314050E94F1
:10440000B80CD6CF1092FD040E941B0F1092140519
:1044100010924D0587E0E3E1F3E0DF011D928A95FC
:10442000E9F7C6CF819FC00111248B5E9A4F0E948D
:104430003E20882321F280914D0590E001968770FF
:10444000992780934D05B5CFAFE0B0E0EAE2F2E204
:104450000C940D2B8E010F5F1F4F8AE0D8011D9227
:104460008A95E9F78AEBC82E81E0D82EF12CE12C51
:10447000AA24A394B12C25EC822E21E0922EF601E1
:1044800081916F018F3F09F442C0F894E82FE295C3
:10449000EF70F0E021A18F70A50102C0440F551FFD
:1044A0008A95E2F7CA01922F982B91A392A1809549
:1044B000892382A3789400C0EFEBF1E0712C31E006
:1044C00021912F3F09F46BC0A22FA295AF70B0E0ED
:1044D00090968C9190E02F7002C0959587952A95C3
:1044E000E2F780FD5CC0832F782A330F8E169F067B
:1044F00039F7F601319780818F3F11F00E94780AD9
:1045000050EA5A95F1F7F801EE0DFF1D70828FEF1A
:10451000E81AF80AA5E0EA16F10409F0B0CF4AE07B
:1045200050E0B80185E693E00E949B2B009741F094
:104530002AE0F801A5E6B3E001900D922A95E1F793
:1045400000917003892B69F181E080932A030E9416
:10455000C41B909329038093280380912803909192
:1045600029030E94B51B059700F110E00D581C4F60
:1045700045E050E065E673E0C8010E949B2BD12C1A
:10458000892B51F085E0E5E6F3E0D80101900D922A
:104590008A95E1F7DD24D39410922A0307C080E0C6
:1045A000A3CF80912A038111D8CFD12C0E945C1314
:1045B000C82EE0917003882309F47FC07E01BBE020
:1045C000EB0EF11C85E0D7011D928A95E9F70E2FBD
:1045D00010E00D581C4F809160038A30D8F549EAED
:1045E00058E1B701C8010E942913882309F454C077
:1045F00045ED59E1B701C8010E942913882309F448
:104600004BC043E558E1B701C8010E942913882334
:1046100009F442C049EA59E1B701C8010E942913CF
:104620008823D1F11092600380916F0390E045E000
:1046300050E0B7018D589C4F0E949B2B21E02093A6
:104640003103892BE1F4C12C8C2D8D292F96EDE0BF
:104650000C94292B80912B0390912C030E94B51B65
:10466000843F914008F0BBCF80913103882359F3F8
:1046700085E0F70111928A95E9F710923103A09134
:104680006F03B0E0AD58BC4F85E0FE013B96019052
:104690000D928A95E1F7D8CF809160038F3F31F07A
:1046A0008F5F809360038A3008F4BECF0E94C41BE2
:1046B00090932C0380932B03D7CF00916F0310E0CE
:1046C0000D581C4FF0E0ED58FC4F85E0A1E4B3E03D
:1046D00001900D928A95E1F781E493E00E948E06A5
:1046E0008093400385E0E6E4F3E0D80101900D9269
:1046F0008A95E1F780904B0390904C03A0904D0376
:10470000B0904E0380912D0390912E03A0912F0322
:10471000B091300388169906AA06BB06D1F08092A4
:104720002D0390922E03A0922F03B09230030E948B
:104730005C1381110EC00E941608861A970AA80AF7
:10474000B90A8092610390926203A0926303B092CF
:10475000640388E0EFE4F3E0AFE7B5E001900D9289
:104760008A95E1F710915703112349F080910C04C9
:10477000811105C00E94951480E00E942B091093BE
:104780000C0462CFA6E0B0E0E8ECF3E20C94162B48
:104790000E94C41B8C0180912603909127038017EF
:1047A000910781F019821A820E94C41B682F4981E7
:1047B0005A81792F80E090E00E9496211093270380
:1047C000009326032696E4E00C94322B1F921FB62A
:1047D0001F9211248F939F93AF93BF938091F704FF
:1047E000811113C08091F8049091F904A091FA040A
:1047F000B091FB044196A11DB11D8093F8049093E4
:10480000F904A093FA04B093FB04BF91AF919F9178
:104810008F911F901FBE1F901895CDB7DEB72B97B5
:104820000FB6F894DEBF0FBECDBF85B7806885BFD9
:1048300085B7806885BF84B7877F84BF0FB6F8943B
:10484000A89580916000886180936000109260005C
:104850000FBE80E890E00FB6F894809361009093CB
:1048600061000FBE86E79AE09093F1028093F00218
:104870000E94B8060E9459078091E20084608093EC
:10488000E200789480910A058823A1F01091E90054
:104890001F709091EC00892F817090FD80E8182B9B
:1048A0001092E9008091E80083FD0E942F0F1F7095
:1048B0001093E90082E084BD93E095BD9AEF97BD27
:1048C00080936E0010926103109262031092630352
:1048D000109264030E945C13809328010E945C1371
:1048E00081110E949229809128018091280195E0F0
:1048F000811190E09093700385E0891B80936F0392
:104900000AEB11E0D8018D918D018F3F11F00E94CB
:10491000780AB1E00F3B1B07A9F70FEB11E045EC5C
:10492000E42E41E0F42EF80181918F018F3F11F0C8
:104930000E94780AE016F106B1F78AE0E3E7F3E0B7
:10494000DF01782E1D927A94E9F7E5E6F3E0DF01C6
:104950001D928A95E9F790E080E00E94C92B863E7F
:104960009E4F11F00E94F11982E090E00E94C12B4D
:1049700080937D0384E090E00E94C92B90937203A2
:104980008093710383E090E00E94C12B0E94BC0DD4
:10499000109252058FEF9FEF90936C0580936B05FB
:1049A00090936E0580936D059093700580936F05CD
:1049B00090937205809371059093740580937305AD
:1049C000909376058093750590937805809377058D
:1049D00090937A05809379051092DF039093F90301
:1049E0008093F8039093FB038093FA039093FD0365
:1049F0008093FC039093FF038093FE039093010444
:104A00008093000490930304809302049093050420
:104A100080930404909307048093060490E080E060
:104A20000E94C92B863E9E4F21F00E94F1190E94E0
:104A3000381881E080937E0548E050E068E170E03E
:104A40008FE795E00E94B12B10927E0580917F0543
:104A50008C7F11F40E9438180E945C1312E08111BF
:104A600010E00E945C13811101C013E01093DA037F
:104A700080E810FD80E2809387050E944C286BE05F
:104A800070E08BE193E00E9413178823E9F1809195
:104A9000DA0365E070E081FD03C186E193E00E94E6
:104AA0001317882389F16DE070E084E093E00E94A1
:104AB0001317882349F10E941608605A75418F4FD9
:104AC0009F4F6093EB047093EC048093ED049093FC
:104AD000EE04EAE8F5E080E092E0DF019C011D923F
:104AE00021503040E1F7F0939107E09390078FEF6A
:104AF0009FEF909389058093880581E08093F0046F
:104B00008093EF041092DB030E945C13811102C0BA
:104B10000E94952989E291E09093F4048093F30434
:104B20002224239480910A0500E112E1853009F4E2
:104B300001C10E942422EEE7F3E0F887EF8323E728
:104B400033E03A872987D90191918D9128E833E0A4
:104B50002E173F0709F4FCC09817B1F30E945C13AD
:104B60008B8735EDA32E31E0B32EE12CA985BA85D4
:104B70009D90BA87A987EF81F8856190F887EF83C8
:104B8000691409F480C069242501812C7724739469
:104B9000862D872109F46BC0F92CF720FB85FF23B4
:104BA00099F08982EA820E94C41B9C838B832D82A8
:104BB00091E0F11001C090E09E8349815A816B81A0
:104BC0007C818D810E949621F110FEC0D2018C91D2
:104BD0008F3F09F0FBC00F2D10E08091DF03800FA5
:104BE000912F911D09976CF188E0C82ED12CC01A25
:104BF000D10AB80160527C4FA60180EE93E00E947A
:104C0000A82BB80168517C4FA60188EE93E00E9462
:104C1000A82BA601440F551FB801660F771F6850D7
:104C20007C4F88EF93E00E94A82BB80160517C4F25
:104C3000A60180EF93E00E94A82B88E08F19809353
:104C4000DF038091DF0390E0A32DB0E09D01220FF0
:104C5000331F2F5E3D4FAA0FBB1FBD016E5E7D4F00
:104C600041E0480F9F1508F4B5C08093DF0383949B
:104C7000770CBFEF4B1A5B0AE6E08E1289CFEF810B
:104C8000F88531979082E394F6E0AF0EB11C5AE0BC
:104C9000752EE7106BCF0E94C016DD24D3945DC043
:104CA00081E193E0FCCE80910A05843009F433C0A1
:104CB0000E94801780910C04811105C00E949514F8
:104CC00080E00E942B0920920C040E943D17109254
:104CD000F70488E190E0A0E40FB6F894A8958093DB
:104CE00060000FBEA093600083B7817F846083BFA4
:104CF00083B7816083BF7894889583B78E7F83BFA5
:104D00000FB6F894A8958091600088618093600048
:104D1000109260000FBE80910905882359F00E940F
:104D20002422E3E7F3E0819181119EC1B3E0ED37E6
:104D3000FB07C9F780910A05853009F4B4CF1092BA
:104D4000FD040E941B0F0E947F1310920C04F1CEF1
:104D5000981304CF0E94C223D12C0E945C130E949E
:104D600080178091F004882309F482C08091DC03CD
:104D70009091DD030E94B51BC29708F45AC00E94AF
:104D8000C41B9093DD038093DC038AE895E0909345
:104D90009107809390070E945C13882309F480C0D8
:104DA0008EE493E00E94980E8091B5030E94E20D7C
:104DB000823009F46FC018F5882349F1813009F475
:104DC00066C086E293E025C0F12C05CF382EFF2483
:104DD000F39401CF90E0FC01E152FC4FD9015C91CA
:104DE0005183DB015C915187318A880F991FFC0147
:104DF000E152FC4F128E118E91E0842F31CF83301F
:104E000009F44BC08430E9F68EE293E002C086E4F8
:104E100093E00E94D80E88E893E00E94941281E00B
:104E20000E94A60E80EA93E00E94941281E00E9404
:104E3000A60E8091880590918905892BE1F58091D6
:104E4000EF048823A9F00E9416080091EB0410914A
:104E5000EC042091ED043091EE04601B710B820B89
:104E6000930B6F3F7F4F8F4F9F4710F40E943D176A
:104E7000D1100E9458170E947F139091DE0389176A
:104E800009F450CE8093DE030E9416084BCE80E4D6
:104E900093E0BFCF8AE393E0BCCF83E393E0B9CF45
:104EA00086EF94E00E94D80E60EA71E086E593E018
:104EB0000E946C08BECF8091F004882309F4BFCF14
:104EC0008091DB038111BBCF0E9458172091880588
:104ED000309189052115310509F4B1CF80E041E019
:104EE00050E0082F10E07A01082E02C0EE0CFF1CE3
:104EF0000A94E2F7B70162237323672B11F48F5FE3
:104F0000F0CF9091DA0390FF96C0880F880F880F3A
:104F10008093340110923701895F8093350183E0DB
:104F20008093380124E630E047E050E062E371E02E
:104F300088E70E94EC28892B09F081CFA80135E091
:104F4000440F551F3A95E1F78091DA0380FF85C041
:104F5000EAEBF3E080E2DF011D928A95E9F709ECC4
:104F600011E095ECA92E91E0B92E2DEC422E21E016
:104F7000522ED801ED918D01D5016D915D01640F27
:104F8000752F711D66577A4FF0E0E654FC4F30E004
:104F900020E087E0682E621ACC24C394022E01C060
:104FA000CC0C0A94EAF74B0190E0D4018D914D01AD
:104FB0008C21A62DA91BA770AF830A2E000CBB0B5A
:104FC000782E0F8001C0770C0A94EAF77F82B195A2
:104FD000A195B109A770BB2701C08695AA95EAF7EC
:104FE000782A8081782A70829F5F9830F1F62F5F4F
:104FF0003F4F31962830310561F64016510609F0D1
:10500000B8CF04E610E020E230E04AEB53E060E481
:1050100088E70E940D29892B09F011CFE094F094C4
:105020008091880590918905E822F922F0928905FE
:10503000E092880504CF8295880F807680933401B2
:105040009801369527953695279520933701815EEF
:10505000809335012093380165CF46575A4F04E6B7
:1050600010E020E230E0D3CF09BD19BD09B400FE45
:10507000FDCF8091D8008F7D8093D8008091E00093
:1050800082608093E0008091E00081FDFCCF10926F
:10509000FD040E941B0F4ECE1092B9008CE080934D
:1050A000B8000895B0E0A0E0E8E5F8E20C940F2B1A
:1050B000B82EEB010E94C41B6C01EE24E394F12C8A
:1050C000C431D10560F025E0E22EF12CCF3FDC07A2
:1050D00031F0CE0164E170E00E94F42A7B0184EAA1
:1050E000A82E94E8992E1092BC00A092BC000E94B9
:1050F000C41B8C018091BC0087FF0DC08091B9005A
:10510000887F8830F9F08091B900887F8031D1F0B4
:105110000FEF1FEF08C0C8010E94B51BE816F90683
:1051200048F70EEF1FEFCF3FDC07E9F2C6010E9400
:10513000B51BC817D907B8F6C801CDB7DEB7EBE085
:105140000C942B2BB092BB009092BC000E94C41B0D
:105150008C018091BC0087FF0AC08091B900887FD4
:10516000883111F08034A1F610E000E0E5CFC801ED
:105170000E94B51BE816F90660F7D3CF0F931F9373
:10518000CF93DF93EB018093BB0084E88093BC0056
:105190000E94C41B8C018091BC0087FF11C020912C
:1051A000B900287F81E090E0283211F490E080E09F
:1051B000919581959109DF91CF911F910F9108955C
:1051C000CF3FDC0741F3C8010E94B51BC817D907C0
:1051D00010F78EEF9FEFEFCFB0E0A0E0E2EFF8E244
:1051E0000C94122B6B018A017901B9010E9452289B
:1051F000E6010C0D1D1DC017D10711F097FF08C067
:1052000024E92093BC00CDB7DEB7E8E00C942E2B48
:10521000B70189910E94BE28EECFB0E0A0E0E3E1A3
:10522000F9E20C94122BC62F6A017901B8010E9491
:10523000522897FD0CC0B8018C2F0E94BE28E601B1
:10524000EC0CFD1CCE15DF0511F097FF08C024E91A
:105250002093BC00CDB7DEB7E8E00C942E2BB8014C
:1052600089910E94BE28EECF84E98093BC00089506
:105270008EE14A9B02C08150E1F74A9BFECF089520
:105280005A9880E28A95F1F75A9A0895FC013BE01A
:105290003A95F1F798E020E080E031E040E14A956E
:1052A000F1F7880F4A9B02C08160232742E04A95AC
:1052B000F1F7000040E14A95F1F7915079F790E15C
:1052C0009A95F1F799B132E03A95F1F7000040E193
:1052D0004A95F1F792FB992790F992272081920F36
:1052E00090830895A1E0B0E0E8E7F9E20C94142B74
:1052F00019828C017C01E60EF11C0E151F0541F48C
:1053000081E09981911180E02196E6E00C94302BA8
:105310000E943829CE0101960E944629F801819306
:105320008F01EBCF529A5A9A089552985A9AEA9A54
:10533000E9E6F0E080818F7C808308956150770BEF
:1053400091E001C0990F6A95EAF720E031E09111F0
:1053500008C0222391F05A9A80E28A95F1F75A9870
:105360000895492F482339F05A9A232740E24A9555
:10537000F1F79695ECCF5A98F9CF5A98EDCFFF9266
:105380000F931F93CF93DF93EC018C01060F111D38
:10539000C017D10729F4CDB7DEB7E5E00C94312B67
:1053A000F9900E94402968E08F2D0E949E29F0CF3D
:1053B0001F920F920FB60F9211240F931F932F93EA
:1053C0003F934F935F936F937F938F939F93AF938D
:1053D000BF93EF93FF93CF93DF930F92CDB7DEB7D9
:1053E00019820E943829CE0101960E944629082F71
:1053F000069506950695282F22952570902F957075
:10540000290F922F937026952695920F98279770C3
:105410008981982B09F05CC0063008F059C080E102
:105420008A95F1F75A9A529A82E08A95F1F700C06C
:105430005A9888E0089F80011124D801A050BF4FDE
:105440001696ED91FC9117973097A9F06091B801ED
:105450007091B90114962D913C911597260F371F25
:1054600011968D919C911297680F791F13964C910C
:1054700013978C910995F801E050FF4F63816623E3
:1054800051F02091B8013091B90184819581820F4A
:10549000931F0E94BF290E94402980E18A95F1F75D
:1054A0005A9852985A9A80E18A95F1F7F801E0509B
:1054B000FF4F6081662351F02091B8013091B9010E
:1054C00081819281820F931F0E9472290E94382944
:1054D0000F90DF91CF91FF91EF91BF91AF919F918D
:1054E0008F917F916F915F914F913F912F911F917C
:1054F0000F910F900FBE0F901F9018950F931F9351
:10550000CF93DF93EC0106970CF04CC0F894529ABD
:105510005A9885E08A95F1F700009C2F9695957032
:105520008C2F8570980F892F83709695969523E020
:10553000CC0FDD1F2A95E1F7980F8E01092B0E94F1
:10554000402900C068E0802F0E949E2980E18A9552
:10555000F1F752985A9A4A9B1EC087E090E04A9908
:105560001CC0FE01E050FF4F63816623F9F02091DB
:10557000B8013091B90184819581820F931F0E94F7
:105580007229811113C0529A5A9A7894DF91CF915F
:105590001F910F91089500C0DECF019729F4529A10
:1055A0005A9A789480E0F2CF00C0D9CF0E9438296F
:1055B00080E28A95F1F75A98529A80E18A95F1F73C
:1055C000C050DF4F6881662351F02091B8013091BF
:1055D000B90189819A81820F931F0E94BF290E947D
:1055E0004029789481E0D2CFAA1BBB1B51E107C0B0
:1055F000AA1FBB1FA617B70710F0A61BB70B881F63
:10560000991F5A95A9F780959095BC01CD010895F1
:105610002F923F924F925F926F927F928F929F92C2
:10562000AF92BF92CF92DF92EF92FF920F931F93B0
:10563000CF93DF93CDB7DEB7CA1BDB0B0FB6F89461
:10564000DEBF0FBECDBF09942A88398848885F84A1
:105650006E847D848C849B84AA84B984C884DF8012
:10566000EE80FD800C811B81AA81B981CE0FD11DF6
:105670000FB6F894DEBF0FBECDBFED010895991BA4
:1056800079E004C0991F961708F0961B881F7A9539
:10569000C9F780950895A1E21A2EAA1BBB1BFD0134
:1056A0000DC0AA1FBB1FEE1FFF1FA217B307E40701
:1056B000F50720F0A21BB30BE40BF50B661F771F59
:1056C000881F991F1A9469F7609570958095909539
:1056D0009B01AC01BD01CF010895052E97FB1EF47F
:1056E00000940E94842B57FD07D00E944B2B07FC8F
:1056F00003D04EF40C94842B509540953095219511
:105700003F4F4F4F5F4F08959095809570956195ED
:105710007F4F8F4F9F4F0895EE0FFF1F0590F4911D
:10572000E02D0994FB01DC0102C005900D9241506F
:105730005040D8F70895FB01DC0104C08D91019021
:10574000801921F441505040C8F7881B990B0895E7
:10575000FB01DC0102C001900D9241505040D8F78E
:105760000895DC01CB01FC01F999FECF06C0F2BD22
:10577000E1BDF89A319600B40D9241505040B8F70F
:105780000895F999FECF92BD81BDF89A992780B509
:105790000895A8E1B0E042E050E00C94B32BDC01A6
:1057A000A40FB51F4150504048F0CB01840F951F06
:1057B0002E910E94E02B41505040D0F70895262FA3
:1057C000F999FECF92BD81BDF89A019700B40216F7
:1057D00039F01FBA20BD0FB6F894FA9AF99A0FBEA5
:1057E00008950396272F0E94E02B0E94DF2B252F80
:1057F0000E94E02B242F0C94E02B0196272F0E946F
:10580000E02B0C94DF2BF894FFCF10103810D01140
:105810003810D0116B108C10D01189119611C5144D
:10582000D01422156C15B715061657165C16B5164A
:10583000B816BD16A21CA61C831C9E1CAA1CAE1C5E
:10584000B21CE11DE11D191E191EC21E411E411E82
:10585000411EDE1E491F581F581FD41CE21CE91CA4
:10586000EE1CF31CF81CFD1C021D071D0C1D111D58
:10587000161D1A1D891C891C891C891C891C891CE0
:04588000891C891CDA
:10588400000000010000000000000005010000000D
:105894000506000000000000040B000000000000EA
:1058A400090F000000000000011308EE121208E7BF
:1058B40012200021007F220003FFFF0100FF0003EC
:1058C40000FF782020202061626364656667686950
:1058D4006A6B6C6D6E6F70717273747576777879AC
:1058E4007A31323334353637383930524542545FA1
:1058F4002D3D5B5D5C233B27602C2E2F20202081D7
:105904008283E200E900EA00B500B600B700CD00EA
:105914008301CC008A019201940121022302240212
:105924002502260227022A02B300B4006F00700089
:105934009F01CB019F02A00240036697C63435F64F
:10594400F7313332360008101818100800003131CE
:10595400295A1B750A050403020100060708090AEF
:105964000B11100F0E0D0C121314151617FF1C1B20
:105974001A19182A29282726252B2C2D2E2F3036A4
:1059840035343332313738393A3B3CFF41403F3EBE
:105994003D48043A022B001D020E06000800170EB3
:1059A400151D112B0F3A11481348223A202B1E1DA6
:1059B400200E24002600350E331D2F2B2D3A2F48A0
:1059C40031572957404140333E243E604020400037
:1059D40040002010003200500060209804A602B558
:1059E40000C302D206E008E017D215C311B50FA612
:1059F4001198139822A620B51EC320D224E026E0D5
:105A040035D233C32FB52DA62F9831892989409FCC
:105A140040AD3EBC3E8040C040E040E020CE009619
:105A2400008C00802004040404040404040404041A
:105A34000404040404040404040404040404040422
:105A44000404020202020202020204040404040422
:105A54000404040404040404040404040404040402
:105A64000404040404040402020202020202020006
:00000001FF
