:100000000C9449050C9481050C9481050C94F12BFA
:100010000C9481050C9481050C9481050C94810548
:100020000C9481050C9481050C94CA1A0C94861AC0
:100030000C94E6250C9481050C9481050C948105A3
:100040000C9481050C9481050C9481050C94810518
:100050000C9481050C94A31B0C9481050C948105D0
:100060000C9481050C9481050C9481050C948105F8
:100070000C9481050C9481050C9481050C948105E8
:100080000C9481050C9481050C9481050C948105D8
:100090000C9481050C9481050C9481050C948105C8
:1000A0000C9481050C9481050C94810529001E0097
:1000B0001F002000210022002B0014001A0008005D
:1000C00015001700005704001600070009000A0079
:1000D000E0001D001B000600190005000000E20002
:1000E000E300777C2C0035002D002700260025003A
:1000F000240023002E00130012000C0018001C0026
:100100002A0033000F000E000D000B0001573800CD
:1001100037003600100011000000E600E700787C90
:100120002800300001003B003C003D003E003F0045
:100130003A0001000100010001000100010001007E
:100140000100AC00AE00AB00010001000100A900FD
:10015000AA00A80000000100010001000100010048
:1001600001004400430042004100400045002F00D0
:100170004D004A004E004B004C0034004F0052002E
:100180005100500001003100010001000100010098
:100190000000010001000100010001000100010058
:1001A000010001000100010001001E001F002000ED
:1001B0002100220001002300240025002600270042
:1001C0000100010001000100010001000000010028
:1001D0000100010001000100010001000100010017
:1001E0000100010001002F004D004A004E004B00AD
:1001F000010034004F005200510050000100310056
:1002000001000100010001000000010001000100E7
:1002100001000100000000000000000000000000DC
:10022000000000000000000000000000207823789B
:100230002578277800006452217824782678287859
:1002400000000000000001000100010001000000AA
:10025000000000000000000000000000000000009E
:10026000000000000000000000000000000000008E
:100270000000BD0000000000000000000000BE0003
:100280000000010001000100010000000100010068
:100290000100010001000100010001000100010056
:1002A00001000100E1000100010001000100010066
:1002B0000100010001000100010001000000010037
:1002C0002C000100E3000100010001000100010019
:1002D0000100010001000100010001000100010016
:1002E000010001000100010001000100E500010022
:1002F00001000100010001000000010001000100F7
:100300000100010000DA0281FFD9F1DB20A4A62E52
:10031000AF00A0C000A1C800AED580A81FD3004088
:100320008D142000556E6B6E6F776E0047616D65A2
:100330000041646A757374005261697365004C6FA3
:100340007765720044656661756C74004C6179650F
:10035000723A2000000101010101010101010202C4
:100360000202020202020203030303030303030463
:10037000040404040404050505050506060606062E
:10038000070707070708080808090909090A0A0AE8
:100390000B0B0B0C0C0C0D0D0D0E0E0E0F0F0F108A
:1003A0001011111112121313141415151616171714
:1003B000181819191A1A1B1B1C1D1D1E1E1F202080
:1003C000212222232424252626272829292A2B2CCA
:1003D0002D2D2E2F30313232333435363738393AED
:1003E0003B3C3D3E3F404142434445464748494AE5
:1003F0004C4D4E4F50515354555658595A5B5D5EB3
:100400005F616264656668696B6C6D6F707273754D
:1004100077787A7B7D7E8082838587888A8C8E8FB1
:1004200091939596989A9C9EA0A2A3A5A7A9ABADDF
:10043000AFB1B3B5B7BABCBEC0C2C4C6C9CBCDCFCD
:10044000D1D4D6D8DBDDDFE2E4E7E9EBEEF0F3F57B
:10045000F8FAFDFF00AF00AE05010980A101850398
:1004600019012AB700150126B70095017510810002
:10047000C0050C0901A101850419012AA00215017A
:1004800026A002950175108100C005010906A10191
:10049000050719E029E71500250195087501810276
:1004A0009501750881010507190029FF150026FF30
:1004B000009506750881000508190129059505753F
:1004C000019102950175039101C009023B000201EF
:1004D00000A0FA0904000001030101000921110133
:1004E0000001224000070581030800010904010002
:1004F000010300000009211101000122320007055B
:1005000082032000011201000200000008D8042E1E
:10051000EB00010102000116034C0069006C007938
:100520000035003800200052003200470000001C57
:10053000034D0065006300680062006F0061007297
:100540000064007300200055004B00000004030904
:10055000040000000000003E5B4F5B3E003E6B4F1E
:100560006B3E001C3E7C3E1C00183C7E3C18001C70
:10057000577D571C001C5E7F5E1C0000183C180055
:1005800000FFE7C3E7FF00001824180000FFE7DBC7
:10059000E7FF0030483A060E002629792926004058
:1005A0007F05050700407F05253F005A3CE73C5A80
:1005B000007F3E1C1C0800081C1C3E7F0014227F8C
:1005C0002214005F5F005F5F0006097F017F00006B
:1005D0006689956A0060606060600094A2FFA294E2
:1005E0000008047E04080010207E20100008082A5D
:1005F0001C0800081C2A0808001E10101010000C0F
:100600001E0C1E0C0030383E383000060E3E0E0622
:100610000000000000000000005F00000000070074
:10062000070000147F147F1400242A7F2A1200235D
:100630001308646200364956205000000807030082
:1006400000001C224100000041221C00002A1C7FE7
:100650001C2A0008083E08080000807030000008CE
:10066000080808080000006060000020100804026C
:10067000003E5149453E0000427F4000007249491A
:100680004946002141494D33001814127F100027BC
:1006900045454539003C4A49493100412111090786
:1006A00000364949493600464949291E00000014D0
:1006B0000000000040340000000008142241001433
:1006C00014141414000041221408000201590906F0
:1006D000003E415D594E007C1211127C007F494959
:1006E0004936003E41414122007F4141413E007F69
:1006F00049494941007F09090901003E41415173BF
:10070000007F0808087F0000417F41000020404131
:100710003F01007F08142241007F40404040007F9D
:10072000021C027F007F0408107F003E4141413ED1
:10073000007F09090906003E4151215E007F091929
:1007400029460026494949320003017F0103003F41
:100750004040403F001F2040201F003F4038403FA6
:10076000006314081463000304780403006159490A
:100770004D4300007F414141000204081020000069
:100780004141417F000402010204004040404040DA
:10079000000003070800002054547840007F2844DC
:1007A000443800384444442800384444287F003802
:1007B000545454180000087E0902001824241C78A0
:1007C000007F080404780000447D40000020404081
:1007D0003D00007F102844000000417F4000007C65
:1007E00004780478007C08040478003844444438D1
:1007F000007C1824241800182424187C007C080489
:1008000004080048545454240004043F4424003C89
:100810004040207C001C2040201C003C4030403CDC
:10082000004428102844004C9090907C004464546C
:100830004C44000008364100000000770000000032
:1008400041360800000201020402003C2623263C37
:100850000000000000008080808000000000008018
:10086000E070180C1830E080000010F8901030781C
:100870003010B8FC3810000000000000F8FCF80050
:100880000000000000000000000000001C9C1C0094
:10089000000000F8FCF80000000000001CFCF8C09C
:1008A00000000000000080E0F87C1C000000F0FC6C
:1008B000FCFC1C1C1C1C1C1C1C1C00000000000060
:1008C000C0F0F8381C1C1C1C1C1C3CF8F0E000E0BC
:1008D000F0F0F0E0ECEEF7F37020007C7C7C7E0022
:1008E0007E7E7E7F7F7F000080C0E07E5B4F5BFE70
:1008F000C00000C000DCD7DEDEDED7DC00C00000B8
:1009000000000000000000000000000000000000E7
:100910000000000000000FBCE0818181838382879A
:100920000C183060C000001FFE90B9FFBB91983CCE
:100930001811133F1100000000000000FFFFFF002E
:10094000000000000000000000000000FFFFFF00AA
:10095000000000FFFFFF0000000000000000030F88
:100960007FF8E080F0FC3F0F0100000000003F3FF7
:100970003F1C1C1C1C1C3C78F8F0E08000000000B0
:10098000C3E7FF7E3C3878787070F8FFDF87000F90
:100990001F3F7F7F7F7F7F3F1E0C001F1F1F3F0079
:1009A0003F3F3F7F7F7F00307B7F78302020307853
:1009B0007F3B0003000F7F0F0F0F7F0F000300002E
:1009C0000000000000000000000000000000000027
:1009D00000183C24666341C18180808080808081D2
:1009E000C14162386C4CC68181808080808081C129
:1009F0004362361C1800000000000000FFFFFFC02B
:100A0000C0C0C0C0C0C0C0C0800000007FFF7F0069
:100A10000000007FFFFFC080000000E0E0C0C0C019
:100A2000E0F97F1F0700000000000000000070F0E8
:100A3000E0E0C0C0C0C0E0F0F87F3F0F0000000F52
:100A40003F7FF9E0E0C0C0C0C0C0E0F97F3F1F00B9
:100A50000000000000000000000000000000000096
:100A60000000000000000000000000000000000086
:100A70000000000000000000000000000000000076
:100A80000000000000000000000000000000000066
:100A9000000011241FBECFEFDAE0DEBFCDBF04B6E9
:100AA00003FE18C08091430890914408A091450826
:100AB000B09146088730904BA740B04B59F4109244
:100AC0004308109244081092450810924608E0E04E
:100AD000F8E3099513E0A0E0B1E0E8E3F2E602C034
:100AE00005900D92AE39B107D9F728E0AEE9B3E031
:100AF00001C01D92A334B207E1F70E940D260C94A9
:100B0000BB300C94000090913206937061F081111B
:100B10000BC09460909332061092A101809131062F
:100B200081608093310608958B3010F09862F2CF87
:100B3000880F880F982BEECFFC01AC014B5F5F4F05
:100B40008FEF91E32191822728E030E087FF09C0F1
:100B5000880F892721503109C9F7E417F50791F764
:100B60000895880FF7CF90913206937071F08093BB
:100B7000330660933406493708F048E7409335065A
:100B8000809131068160809331060895E8EDF0E0B0
:100B900080818E7F80831092E2001092DA001092A2
:100BA000E100A0EEB0E08C9181608C9380818F7722
:100BB000808319BCA7EDB0E08C918E7F8C938081EF
:100BC0008F7E80831092EA0508952091E400309191
:100BD000E50095E6A9012091EC00822F817020FFAD
:100BE00006C08091E80080FF06C080E00895209153
:100BF000E80022FD1AC08091F705882389F085302E
:100C000089F08091EB0085FD0FC02091E4003091C8
:100C1000E50042175307F9F29150E1F684E0089598
:100C200082E0089583E0089581E008958091F905B8
:100C300087FF13C08091E80082FF06C08091E80022
:100C40008B778093E80004C08091F7058111F2CF83
:100C500008958091F7058823D9F38091E80080FFFB
:100C6000F8CF8091E8008E77ECCF982F9093E90031
:100C7000242F762F50E0891731F07091EC002091ED
:100C8000ED005091F00021FD07C09F5F973071F794
:100C90008093E90081E008953091EB003E7F30932E
:100CA000EB003091ED003D7F3093ED003091EB0093
:100CB00031603093EB007093EC002093ED00509383
:100CC000F0002091EE0027FDE0CF80E00895B0E035
:100CD000A0E0EDE6F6E00C942B2DC8EDD0E0888185
:100CE0008F7E8883E7EDF0E080818160808384E0FF
:100CF00082BF81E08093EA0588818E7F888302EE3F
:100D000010E0F80110821092DA0081EEC82ED12C8A
:100D1000F601108288818F77888388818068888334
:100D200088818F7D888319BC1092F7051092F80591
:100D30001092F6051092F50590EEE92EF12CF701D0
:100D400080818B7F808388818160888342E060E03E
:100D500080E00E943506F60180818E7F8083F80155
:100D6000808181608083808188608083F7018081B9
:100D70008E7F8083888180618883CDB7DEB7E8E08D
:100D80000C94472DFC018091FF0590910006861779
:100D90009707A0F06115710529F49091E8009E77FE
:100DA0009093E80090E06115710551F4911108C02D
:100DB0008091E80082FF34C080E00895BC01F2CF4A
:100DC0008091F7058823C1F18530C1F18091E80059
:100DD00083FD30C08091E80082FDEACF8091E80079
:100DE00080FFE1CF8091F3002091F200382F611550
:100DF000710519F02830310558F091E0283031059F
:100E000009F090E02091E8002E772093E800CBCF06
:100E100081918093F100615071092F5F3F4FE7CFBF
:100E20008091F705882341F0853041F08091E800FA
:100E300083FFBECF81E0089582E0089583E00895A6
:100E400008958091EC0508952FB7F8946091E60518
:100E50007091E7058091E8059091E9052FBF08950D
:100E60009C01FC0132969FEF80E04191461751F0C2
:100E70009F3F19F4411101C0982F8F5F8630A9F769
:100E80009F3F09F40895290F311D97FD3A95F90107
:100E900062830895A3E0B0E0E0E5F7E00C94312D23
:100EA0002091E3053091E40528173907A1F09093CC
:100EB000E4058093E305E091E105F091E2053097C8
:100EC00051F024E029839B838A830680F781E02DFB
:100ED000CE01019609952396E2E00C944D2DA3E0F6
:100EE000B0E0E5E7F7E00C94312D2091DF0530917B
:100EF000E00528173907A1F09093E0058093DF05FE
:100F0000E091E105F091E205309751F023E029836B
:100F10009B838A830680F781E02DCE010196099597
:100F20002396E2E00C944D2DFA01811101C0FB01E2
:100F300009950895E2E3F6E0248130E1231B08F4EB
:100F400020E02483809131068160809331060895EA
:100F5000E2E3F6E0248130E1230F08F42FEF24834D
:100F6000809131068160809331060895E2E3F6E0D6
:100F7000438120E1421B08F440E08181628190E0DE
:100F80000E94B3050895E2E3F6E0438120E1420FB9
:100F900008F44FEF8181628190E00E94B3050895CB
:100FA000E2E3F6E0628120E1621B08F460E0818107
:100FB000438190E00E94B3050895E2E3F6E0628188
:100FC00020E1620F08F46FEF8181438190E00E947D
:100FD000B3050895E2E3F6E08181438162818850A0
:100FE000990B0E94B3050895E2E3F6E0818190E059
:100FF0004381628108960E94B3050895809132066C
:1010000086958695815009F48AE00E9483050895AB
:1010100080913206869586958F5F8B3008F081E04F
:101020000E948305089580939C018091320683700D
:1010300080939B010E94EC1283E08093A1010895AC
:1010400022E8241B08F420E0620F08954095282F21
:10105000429F412D1124842F0895E42FF0E0EE0FDC
:10106000FF1FE054FD4F9081921B97FD9195292F12
:1010700038E1239F212D1124620F0895322F50E073
:10108000FA01EE0FFF1FEC57FD4F95AD905297FD03
:101090009195440F551FFA01E054FD4F2081231B09
:1010A000330B290F311D97FD3A95620F08950E9469
:1010B0007A130895FF920F931F93CF93DF93182F06
:1010C000062FF42ED0E0C0E02F2D402F612FCE014F
:1010D0000E9457082196CA34D105B1F7CDB7DEB7C3
:1010E000E5E00C944A2D0F931F93522F10E0F80166
:1010F000EE0FFF1FEC57FD4FA5ADA052BB0B9D019E
:101100005203F001539FF00D1124000F111FD8015D
:10111000A054BD4F0C910057110B40039001419F0B
:10112000300D11242E0F3F1F37FF02C0215C3F4FAF
:1011300096E0359527959A95E1F7620F1F910F91EB
:101140000895E82F86FDE0952E2F2F7086FD2F5FE6
:10115000E695E695E695E670F0E0E458FD4F91815E
:10116000929F902D212D112492959F702295207F82
:10117000922B2081920F87FD919580E8890F089529
:1011800030E020E0869F212D969F200D311D1124F7
:10119000C9010895AF92BF92CF92DF92FF920F9351
:1011A0001F93CF93DF93362F472FE82FF0E0EC5AB1
:1011B000FC4F71110FC0E4918E2F2E2F6E2F722FC6
:1011C000DF91CF911F910F91FF90DF90CF90BF9053
:1011D000AF900895C72FD0E02491F22E022F10E097
:1011E00056E0659FC0011124EFEFF0E0BF010E94BF
:1011F0000D2D832F90E0880F991F35E5369FD00184
:10120000379FB00D11248A1B9B0B982F990F980FB5
:101210006F01CC1ADD0AC09ED001C19EB00DD09ED8
:10122000B00D11248B2F499FA0011124452F552764
:101230006F01C41AD50AC09EA001C19E500DD09E58
:10124000500D11245F01A91AB108AC9E6001AD9E3A
:10125000D00CBC9ED00C1124CD2CDD24EC19FD0942
:10126000E09FE001E19FD00DF09FD00D1124ED2F04
:1012700062307105A1F050F46115710509F49ECF3B
:101280006130710581F0EB2F852F98CF64307105A7
:1012900069F080F06630710509F490CFF4CFE22F49
:1012A0002B2F8D2F8BCFE22F252F88CFEB2F822F47
:1012B0002D2F84CF2B2F8F2DE52F80CF80E0089509
:1012C000F894E82FE295EF70F0E031A1282F2F700D
:1012D00081E090E001C0880F2A95EAF7982F909559
:1012E000932391A392A1892B82A37894089590913E
:1012F000580492FF06C0282F28712830F9F4877F00
:10130000846093FF06C0282F28712831F1F4877E6E
:1013100084612091590420FF06C0382F387138307D
:10132000D9F4877F816021FF06C0282F28712831DA
:10133000D1F4877E816194FD877E0895282F2471E2
:101340002430F9F68B7F8860DCCF282F247124317C
:1013500001F78B7E8861DDCF382F3171313019F77D
:101360008E7F8860E0CF282F2171213121F78E7E7A
:101370008861E1CF82389105B9F1B0F481339105EC
:1013800009F47DC048F48932910509F46DC08A32B0
:10139000910509F47BC008958533910509F45FC078
:1013A0008933910509F10895833E9105D9F138F407
:1013B000803E910529F1823E910579F10895863E9E
:1013C0009105D9F1873E910509F43EC0843E91050F
:1013D00041F52091590421FF24C08091580484FDD7
:1013E00019C087EE90E0089520915804237009F009
:1013F0005AC02091590423FF14C089E290E0089557
:101400002091580420FD38C03091590430FF09C0A4
:1014100024FF43C090E080E008952091580422FD0D
:10142000F7CF08952091580422FD3AC03091590415
:1014300030FD39C024FFF5CFEDCF2091580423FFB4
:10144000F0CF24FDE7CFCDCF2091580423FD2EC04F
:101450003091590431FFEECF84EE90E00895209151
:10146000580425FFDECFC9CF2091580425FD21C0A7
:101470002091590423FFD5CF89E390E0D2CF20916A
:10148000580426FFCECF8AE290E0089520915804B8
:1014900026FFC7CF81E390E0089583EE90E00895A2
:1014A00082EE90E0089580EE90E0089586EE90E060
:1014B000089585E390E00895972F7A30B8F4663068
:1014C000A8F48530B0F470E026E0929F600D711DA5
:1014D0001124FB019CE3899FE00DF11D1124EE0F07
:1014E000FF1FE455FF4F85919491089580E090E0AF
:1014F000089581E0FCCF1F93CF93DF930E94BA0938
:10150000EC01C11580E5D807F0F5C11580E4D807D6
:1015100008F09CC0C03ED10520F5CD3CD10508F0B7
:1015200082C0C83AD10578F4C53AD10508F073C035
:10153000C130D10519F1209709F1C430D105F0F47B
:10154000D0E0C0E01BC0C33CD105D0F7C85AD0E002
:10155000CC0FDD1FCF5CDD4F0990D881C02DD46446
:101560000DC0C11580E2D80708F0D1C0C11581E0D7
:10157000D80708F05AC0C83ED10510F7CE01DF9158
:10158000CF911F910895C03682E5D80718F5C03471
:1015900082E5D80708F06BC0C03282E5D80708F0B2
:1015A0005FC0C11582E5D80708F497C02C2F269597
:1015B000269580E2289F900111248C2F8370C1E032
:1015C000D0E002C0CC0FDD1F8A95E2F7C22BD32BEF
:1015D000DD68D4CFC03A82E5D80760F4C03882E530
:1015E000D80708F459C0CF71D0E0DC2FCC27C46FE6
:1015F000D06AC4CFC03C82E5D80708F462C0C03EC0
:1016000082E5D80708F09CCFDC2FCC27CC27DF71F0
:10161000C06FD06AB3CFC55AD0E0C25DDD4FC8817C
:10162000D0E0D064ABCFD065A9CF8D2F0E947709D1
:10163000182FCE0199270E94BA09C12FD0E0DC2FC4
:10164000CC27CC27DF71C82BD92B98CFCE01992777
:101650000E94BA09CC27DF70C82BD92BD06A8ECF55
:10166000CF71D0E0DC2FCC27C16FD06A87CF2C2F71
:1016700026952695277080E2289F900111248C2FB3
:101680008370C1E0D0E002C0CC0FDD1F8A95E2F785
:10169000C22BD32BDC6872CF2C2F26952695277072
:1016A00080E2289F900111248C2F8370C1E0D0E04C
:1016B00002C0CC0FDD1F8A95E2F7C22BD32BDA686C
:1016C0005DCF8C2F8F710E947709C82FD0E0DC2F5F
:1016D000CC27CC27DF71D06251CF8C2F8F710E9425
:1016E000770955E0D695C7955A95E1F7CF70D0E0C8
:1016F000DC2FCC27282F30E084FF05C044E0220FE8
:10170000331F4A95E1F7C22BD32BD06937CF8D2FEA
:101710008F710E947709182FCE0199270E94BA096C
:10172000C12FD0E0DC2FCC27CC27DF71C82BD92BE1
:10173000D2CF80910C04811110920C0408958095F1
:101740009091DB0598239093DB0508958095909107
:10175000DC0598239093DC05089520910204909174
:10176000D10356E0291302C080E0089530E0529F73
:10177000F001539FF00D1124EE52FC4F718176134E
:1017800006C07081781303C07281741304C02F5F88
:101790003F4F2770E7CF81E0089580910204909138
:1017A000D103981301C008958F5F8770FACFB0E01E
:1017B000A0E0EDEDFBE00C942A2D7C0100919E044D
:1017C00010919F0480910D0490910E04082B192B09
:1017D000CFE0D0E0CC24C394D12CBC2EC6010C2E7B
:1017E00002C0880F991F0A94E2F780239123892B66
:1017F00049F4219790F7B12C8B2DCDB7DEB7E9E0F6
:101800000C94462DB7018C2F0E945C0A0E947B0A23
:10181000019779F3F1CFCF93DF93EC010E94D70BBF
:10182000BE010E945C0A0E947B0ADF91CF9108955D
:101830009A3078F5863068F5E82FF0E086E0989FDA
:10184000E00DF11D11249E2F977083E0F695E7952A
:101850008A95E1F7EE0FFF1FEE0FFF1FE555FC4FD6
:1018600050E040E080E0219130E0092E02C0369542
:1018700027950A94E2F721703327042E01C0220F26
:101880000A94EAF7822B4F5F5F4F4430510559F7B6
:10189000089580E008959A3098F5863088F5E82F0D
:1018A000F0E086E0989FE00DF11D11248E2F8770E7
:1018B00041E001C0440F8A95EAF783E0F695E79589
:1018C0008A95E1F7EE0FFF1FEE0FFF1FE555FC4F66
:1018D00030E020E070E05191DF011197CB01022E42
:1018E00002C0969587950A94E2F7817081958527C5
:1018F000842385278C932F5F3F4F2430310559F780
:10190000089590939F0480939E040895E0919E040F
:10191000F0919F0421E030E0D90102C0AA0FBB1F63
:101920008A95E2F7CD01D90102C0AA0FBB1F6A95C3
:10193000E2F7BD018A2B972B02C0220F331F4A9575
:10194000E2F7AF01482359238417950731F42E2B72
:101950003F2BC9010E94810C0895209530952E23BC
:101960003F23F7CF21E030E002C0220F331F8A95DA
:10197000E2F72095309580919E0490919F048223F8
:1019800093230E94810C08959091030480958923EC
:1019900080930304282F277091F4282F082E000C21
:1019A000330B9217130659F09091590492FF07C018
:1019B0008595859585950E94B20C10920304089533
:1019C00021E030E002C0220F331F8A95E2F78091B8
:1019D0009E0490919F04822B932B0E94810C08956A
:1019E00090930E0480930D040895FC0183819481EB
:1019F000892B29F08081918189238F3F51F480E0E8
:101A00000895843FE1F717C0883EA8F0813FB9F7F9
:101A100012C0808191810E940B0C92959F7096302C
:101A200099F358F4925F9F70923048F7803F19F015
:101A300040F7883E20F781E008959A5FF4CF292F80
:101A4000332740E02115310511F0C90148E09C0120
:101A500064E0369527956A95E1F72115310511F077
:101A60004C5FC9019C013695279536952795211520
:101A7000310511F04E5FC90196958795892B09F0C4
:101A80004F5F842F0895A5E0B0E0E9E4FDE00C94F9
:101A9000302D49835A8389819A81662399F02223C4
:101AA00089F00E94D70B182F682F89819A810E9494
:101AB0004B0C69817A81812F0E945C0A2596E3E0B4
:101AC0000C944C2D0E94180C182FF3CF84E008952D
:101AD000FC019281913039F4858182FD08C080FF3C
:101AE00006C083E00895923021F484E0089582E0F6
:101AF000089581E00895CF93DF93682F81E06A30E5
:101B000019F06D3031F480E00E94090EDF91CF9121
:101B10000895809141089091420826E0FC01ABE3D2
:101B2000B8E001900D922A95E1F7603E08F458C0A4
:101B300026E0FC0111922A95E9F7C0914108D09165
:101B4000420846E050E0BE018BE398E00E94B42DCD
:101B50009E012B533640892B41F1C90145E09695F2
:101B600087954A95E1F741E050E0BA0102C0660F5F
:101B7000771F8A95E2F7CB016091390670913A069A
:101B8000862B972BB9016B5F7F4FE5E076956795C4
:101B9000EA95E1F702C0440F551F6A95E2F7842BDE
:101BA000952B90933A06809339062A5F3F4F4091D8
:101BB0003806642F70E0C9010E940D2D481B463085
:101BC00010F4240F311D211572E0370710F030E0BA
:101BD00020E0255C394F309342082093410896CF8E
:101BE000F6E06F9FB00111246F5A7A4F46E050E043
:101BF0000E94AB2DA2CFCF93DF93EC01FE01849125
:101C0000811103C0DF91CF9108950E947B0D219631
:101C1000F5CFCF93382FE0914108F0914208EB5374
:101C2000F64020913806622F70E0CF010E940D2D02
:101C3000281B822F332361F066E00E94582DC82FA5
:101C4000C15010F4CF91089580E20E947B0DF8CF2F
:101C50009F01280F311D2115324018F080E0F0E07F
:101C6000E0E08E0F9F2F911D855C994F9093420865
:101C700080934108E7CF0E94FB0D81E00E94090E8E
:101C800008958091DC059091DB05892B8093A0035A
:101C900090910C04992391F0892B8093A00320E06C
:101CA00082EA93E0FC013191CF0131112F5FF3E023
:101CB000883A9F07B9F721110E94990B48E050E03C
:101CC00064E074E080EA93E00E94B42D892BA9F0CF
:101CD00088E0E0EAF3E0A4E0B4E001900D928A9598
:101CE000E1F7E091E105F091E205309731F00280F3
:101CF000F381E02D80EA93E009950895CF93DF9377
:101D0000EC01EA85FB85309719F06C857D85099596
:101D10008B810E949F0B8C810E94A60B0E94410E1A
:101D200086E0FE0111928A95E9F7DF91CF9108953F
:101D3000CF93DF93EC018D8181FD18C082608D838C
:101D40008091DB059B81892B8093DB058091DC05ED
:101D50009C81892B8093DC050E94410EE885F985E2
:101D6000309721F06C857D85CE0109951092DE05B6
:101D70001092DD058D8180FD03C0CE010E947E0E94
:101D8000DF91CF9108951092DC05E2EAF3E086E05E
:101D9000DF011D928A95E9F790E080E00E946F07CD
:101DA00090E080E00E944A071092DB050E94410EFD
:101DB0000895AAE2B0E0EFEDFEE00C94302D89EF3B
:101DC00095E02091F100FC012193CF01F6E08130F4
:101DD0009F07B9F78091FA05833009F470C0B8F411
:101DE000813009F447C0823009F4B1C08091E80025
:101DF00083FF7EC28091F9059091FA059A3008F030
:101E000077C2E92FF0E0E354FF4C0C94A52D8A3003
:101E100009F48CC08B3009F46FC0893039F7809198
:101E2000F905813219F78091FD059091FE05029721
:101E3000E8F68091E800877F8093E8008091E800D1
:101E400082FF38C09091F3008091F200029731F444
:101E50008091F100813011F0863021F48091F10001
:101E60008093EC058091E8008B778093E8000E94D6
:101E70001606BCCF8091F905813A09F0B7CF809161
:101E8000E800877F8093E8008091FD059091FE0532
:101E9000892B61F468E08DEE95E070E00E94C20647
:101EA0008091E8008B778093E800A0CF60E090E01D
:101EB00080E0F3CF8091F7058111C0CF97CF80915B
:101EC000F905813A09F092CF8091FD059091FE05C8
:101ED000892B09F08BCF8091E800877F8093E80001
:101EE0008091E80080FFFCCF80919D018093F100FC
:101EF0008091E8008E77B9CF8091F905813209F0A1
:101F000075CF8091FD059091FE05892B09F06ECF6C
:101F10008091E800877F8093E8000E9416068091F8
:101F2000FB0580939D010E94C30E60CF8091F9054F
:101F3000813209F05BCF8091E800877F8093E800D1
:101F40000E9416068091FC058093EB054FCF80918F
:101F5000F905813A09F04ACF8091E800877F8093A4
:101F6000E8008091E80080FFFCCF8091EB05BECFB8
:101F7000803899F0823809F0BBC18091FD058F70DF
:101F8000873008F0B5C18093E9008091EB0085FBB4
:101F9000882780F91092E90006C08091F50590919C
:101FA000F605911182609091E800977F9093E80088
:101FB0008093F1001092F1008091E8008E7794C137
:101FC000882309F482C1823009F092C18091FB0517
:101FD000811185C18091FD058F702FEF280F26306C
:101FE00008F086C18093E9002091EB0020FF77C1C3
:101FF000933031F48091EB0080628093EB006FC1ED
:102000009091EB0090619093EB0021E030E001C0F3
:10201000220F8A95EAF72093EA001092EA00809155
:10202000EB008860EACF811163C11091FB051F7737
:102030008091E3008078812B8093E3008091E80019
:10204000877F8093E8000E9416068091E80080FF59
:10205000FCCF8091E30080688093E30082E011115F
:1020600083E08093F70544C18058823008F040C176
:102070008091FB059091FC058C3D23E09207A1F532
:1020800083E08A838AE289834FB7F894DE0113964E
:1020900020E03EE051E2E32FF0E050935700E4915E
:1020A00020FF03C0E295EF703F5FEF708E2F90E04E
:1020B000EA30C0F0C7968D939D932F5F243159F776
:1020C0004FBF8091E800877F8093E8006AE270E06C
:1020D000CE0101960E94C2068091E8008B77809322
:1020E000E80006C1C096E7CF4091FD055091FE057E
:1020F000292F33272330310509F444C078F52130E6
:10210000310509F46FC08BE390E0EAECF4E0223093
:10211000310509F0EDC02091E800277F2093E80009
:102120002091FF05309100068217930708F49C0167
:1021300040E02115310509F064C0411162C0809171
:10214000E80082FDC9CF8091F705882329F2853008
:1021500019F28091E80083FFF2CFBECF2132310522
:10216000A9F12232310509F0C3C04115510509F426
:1021700043C04130510509F0BBC082E390E0E8E57F
:10218000F4E0C9CF992781309105C1F0009759F04B
:10219000029709F0ADC0E7E1F5E0E4918E2F90E001
:1021A000E7E1F5E007C0EDE4F5E0E4918E2F90E083
:1021B000EDE4F5E0009709F49BC0ADCFEFE2F5E068
:1021C000E4918E2F90E0EFE2F5E0F4CF4115510558
:1021D00071F04130510509F08BC089E090E0E5EFE6
:1021E000F4E099CF82E190E0E5E0F5E094CF89E07A
:1021F00090E0ECEDF4E08FCF80E490E0EAE8F4E0EA
:102200008ACF8091F705882309F466CF853009F4D9
:1022100063CF8091E80083FD5FCF8091E80082FD6D
:102220008ECF8091E80080FF84CF9091F300809161
:10223000F2002115310519F08830910550F041E088
:10224000089709F040E08091E8008E778093E800DD
:1022500070CF44914093F10031962150310901969D
:10226000E8CF803809F044C08091E800877F8093F0
:10227000E8008091F8058093F1009ECE811138C06E
:102280001091FB051230A0F58091E800877F8093C4
:10229000E8001093F8050E941606112311F084E05F
:1022A00005C08091E30087FDFACF81E08093F705B8
:1022B00042E061EC81E00E94350642E261EC82E09E
:1022C0000E9435068091F70513C08091FB0581308F
:1022D00079F481E0933009F080E08093F605109264
:1022E000E9008091E800877F8093E8000E9416064D
:1022F0008091E80083FF0AC08091E800877F809387
:10230000E8008091EB0080628093EB00AA96E3E006
:102310000C944C2D882321F00E949F0B0E94410EAB
:102320000895882339F09091DB05982B9093DB0575
:102330000E94410E0895882321F00E94A60B0E945E
:10234000410E0895882339F09091DC05982B9093E5
:10235000DC050E94410E0895882391F19CEF980FAF
:10236000913A80F4E2EAF3E028EA33E091918913AC
:1023700003C0DF0111971C922E173F07B9F70E9487
:10238000410E089590E2980F983050F4877091E0D4
:1023900001C0990F8A95EAF7892F0E94A60BEFCF0B
:1023A0009BE5980F933028F490E080E00E946F073F
:1023B0000895885A8B3120F490E080E00E944A070B
:1023C0000895CF93DF93EC010E94AC11CE010E94DF
:1023D000660D0E948A11DF91CF91089580910401CA
:1023E000909105018330910571F08430910511F0D1
:1023F000029721F48FE494E00E94E111109205010C
:1024000010920401089585EE0E94AC11F7CF8091DF
:102410000101909102018330910571F084309105A2
:1024200011F0029721F480E594E00E94E1111092EE
:10243000020110920101089581EE0E94AC11F7CFC4
:10244000CF93C82F8823B1F08CEF8C0F813A00F521
:10245000E2EAF3E088EA93E0DF012D91C21761F030
:102460008A179B07D1F76C2F80EA93E00E94300710
:102470000E94410ECF9108952191C21303C0DF0144
:1024800011971C928E179F07B9F70E94410EEBCF50
:1024900080E28C0F883068F4C77021E030E001C022
:1024A000220FCA95EAF78091DC05822B8093DC0528
:1024B000DFCFEBE5EC0FE33040F4F0E0E25DFD4F01
:1024C000808190E00E946F07D5CFC85ACB3190F63B
:1024D000EC2FF0E0EE0FFF1FEF5CFD4F808191814C
:1024E0000E944A07C7CFCF93C82F0E94660D0E9453
:1024F00091118C2F0E942012CF9108950F931F935A
:10250000CF93DF93EC01FC0101900020E9F78F01EC
:1025100001501109C017D10728F0DF91CF911F9109
:102520000F91089589910E947B0DF4CF0F931F9313
:10253000CF93DF938B01EA019091F705943061F519
:102540008093E9008FEF9091E800815095FD06C0DF
:1025500095ED9A95F1F700008111F5CF8091E80093
:1025600085FF1AC00E94E505811111C08091E80025
:1025700085FD06C08091E8008E778093E800F2CF59
:10258000F80181918F018093F100219779F7809173
:10259000E8008E778093E800DF91CF911F910F9133
:1025A000089543E050E0BC0182E00E949612089535
:1025B000CF93DF93EC0148E050E0BC0181E00E9442
:1025C000961288E0FE01ADEEB5E001900D928A957D
:1025D000E1F7DF91CF910895539A3BB1377F2BB14B
:1025E00028604FB7F89487EF94E0FC015191CF0138
:1025F00068E02BB9000000C057FF3BB9550F000041
:1026000000C000C000C03BB900C06A9591F7F5E07A
:10261000853D9F0751F74FBF8FE594E00197F1F794
:1026200000C000000895B0E0A0E0E9E1F3E10C94FF
:10263000292D7C015B016A018091470401E010E0D3
:102640008A3010F40AE010E0C1E0D0E0B501C70123
:10265000F6010995811104C021960C171D072CF471
:10266000CDB7DEB7EAE00C94452DCC9F9001CD9F0D
:10267000300D300D112490E080E045E34A95F1F7EC
:102680000000019682179307C1F7E0CF80911B04E9
:10269000811110C08091D80080618093D8008AE1B8
:1026A0008A95F1F700C08091D90080FF0AC081E0CF
:1026B00080931B0481E090911B04913009F080E02D
:1026C000089582E080931B040E94C6051092F705CE
:1026D000F1CF0E944613882359F0E091E105F09173
:1026E000E205309729F00190F081E02D09950895D9
:1026F00080E00895FF920F931F93CF93DF93EC0137
:10270000F62E042F122F0E94461381110FC0C532DE
:10271000D1057CF0A597FE01EE0FFF1FEC0FFD1F0A
:10272000E950FB4FF1820083128303C0C532D1050B
:1027300094F3CDB7DEB7E5E00C944A2DCF93C82FC4
:102740000E944613882329F081E0C53228F080E0FA
:1027500003C081E0CA34D8F7CF910895B0E0A0E07B
:10276000E4EBF3E10C942B2D7C01C0919E018FE0F2
:10277000C89FC02D11241FE01C0F1B3408F01AE461
:102780000E944613882319F0163208F015E20E94C1
:102790004613811103C0C53208F4C5E22091360604
:1027A00031E0230F08F42FEF30E050E040E06FEF0E
:1027B0007FEF80E090E00E94862D6901D0E001E08B
:1027C0002C2FC11740F0812F0E949E13CDB7DEB78A
:1027D000E8E00C94472DFE01EC5AFC4F808190916B
:1027E0009F01892309F1409105064150042E000CF8
:1027F000550B47FF1BC0C60160913606600F08F4F9
:102800006FEF0E94C008AC016091330670913406EE
:1028100080913506F70109950E94CA08462F282F96
:10282000672FCE010E9457082196CACFFA01EB5FAD
:10283000F94F818982130AC0FA01EE0FFF1FEB5F87
:10284000F94F818D928D8C159D05B0F24150510943
:10285000D0CFEF92FF920F931F93CF93DF937C0122
:10286000C0919E018FE0C89FC02D11241FE01C0F56
:102870001B3408F01AE40E944613882319F016321C
:1028800008F015E20E944613811103C0C53208F416
:10289000C5E2609136066695669521E0620F08F400
:1028A0006FEF80910106909102060E94C008082FE8
:1028B000D0E0C11740F0812F0E949E13CDB7DEB744
:1028C000E6E00C94492DFE01EC5AFC4F808190917A
:1028D0009F01892391F060913306709134068091B5
:1028E0003506202F4C2FF70109950E94CA08462F64
:1028F000282F672FCE010E9457082196DACFB0E02B
:10290000A0E0E5E8F4E10C94292D182F80919C01BA
:10291000811323C090913206937020919B0130E087
:1029200081E09217130609F480E081708093A00182
:102930008091370690919F01981739F080939F01FD
:1029400040E060E080E00E945A081B3088F4E12FEC
:10295000F0E0E953FF4C0C94A52D81E0E6CF809187
:10296000A001882389F140E060E080E00E945A08DD
:1029700080E02AC0C0919E018FE0C89FC02D112425
:102980000FE00C0F0B3408F00AE40E944613882372
:1029900019F0063208F005E20E944613811103C0C7
:1029A000C53208F4C5E26091330670913406809117
:1029B00035060E94CA08F62EE72ED82ED0E0C017A2
:1029C000D8F0802F0E949E1390919E019F5F90935C
:1029D0009E0181110CC082E08093A1018091A00131
:1029E000811105C0111103C083E08093A101CDB70F
:1029F000DEB7EAE00C94452DFE01EC5AFC4F8081D5
:102A000090919F01892331F02D2D4F2D6E2DCE01F8
:102A10000E9457082196D3CFC0919E018FE0C89F96
:102A2000C02D11240FE00C0F0B3408F00AE40E94B3
:102A30004613882319F0063208F005E20E94461377
:102A4000811103C0C53208F4C5E2E0903406F0906D
:102A50003506D09133066D2F7E2D8F2D0E94CA082A
:102A6000D62EC72EB82E609136066D0F7E2D8F2D77
:102A70000E94CA08F62EE72EA82ED0E0C01708F054
:102A8000A0CFFE01EC5AFC4F908180919F018923D9
:102A900059F02A2D4F2D6E2D90FD03C02B2D4D2D5D
:102AA0006C2DCE010E9457082196E8CFC0919E015F
:102AB0008FE0C89FC02D11240FE00C0F0B3408F0DD
:102AC0000AE40E944613882319F0063208F005E252
:102AD0000E944613811103C0C53208F4C5E2E0909C
:102AE0003406D090350620913606B0E4FB2E3F2DFB
:102AF000329F312D1124F32ED0E0C01708F061CFA2
:102B0000FE01EC5AFC4F808190919F018923B9F01E
:102B1000FE01EE0FFF1FEC57FD4F85AD82958F70C4
:102B2000609133068F9D600D11247E2D8D2D0E94A6
:102B3000CA08462F282F672FCE010E9457082196DA
:102B4000DCCFC0919E018FE0C89FC02D11240FE003
:102B50000C0F0B3408F00AE40E944613882319F086
:102B6000063208F005E20E944613811103C0C53207
:102B700008F4C5E2D0903406E09035062091360680
:102B8000F0E4FF2E3F2D329F312D1124F32ED0E0A3
:102B9000C01708F016CFFE01EC5AFC4F80819091CF
:102BA0009F018923D9F0FE01EE0FFF1FEC57FD4F67
:102BB00064ADF69EB0011124E5E075956795EA9540
:102BC000E1F780913306680F7D2D8E2D0E94CA0893
:102BD000462F282F672FCE010E9457082196D8CF65
:102BE000C0919E018FE0C89FC02D11240FE00C0FF3
:102BF0000B3408F00AE40E944613882319F00632C9
:102C000008F005E20E944613811103C0C53208F4A2
:102C1000C5E2F0903306D0913406E090350660911D
:102C20003606669566956695809101069091020636
:102C30000E94C0080E94A108805887FD8195880FD6
:102C4000282F3E2D239F212D1124822F6F2D7D2F84
:102C50000E94CA08F62EE72ED82ED0E0C01708F042
:102C6000B0CEFE01EC5AFC4F808190919F018923E8
:102C700031F02D2D4F2D6E2DCE010E94570821963B
:102C8000EDCF8EE398E00E9429149ECEC0919E0164
:102C90008FE0C89FC02D11245FE0F52EFC0E2AE4C2
:102CA0002F1510F44AE4F42E0E944613882329F0CD
:102CB00035E23F1510F435E2F32E0E9446138111E0
:102CC00003C0C53208F4C5E2609136066695669584
:102CD00080910106909102060E94C008D82E80E4DF
:102CE0008D0D0E94A10890E8C92EC80E8D2D0E945E
:102CF000A10820E8B22EB80ED0E0CF1510F08F2D2D
:102D000061CEFE01EC5AFC4F808190919F01892396
:102D1000A1F0609133067091340680913506ED2C58
:102D20000C2F2B2D4C2D0E9473080E94CA08462F91
:102D3000282F672FCE010E9457082196DECF8DE203
:102D400098E0A1CF86E298E00E94AE133DCE80E2EB
:102D500098E0FACF0F931F930E944613882329F01F
:102D60000E9424071F910F9108950E94240700914B
:102D700048041091490420914A0430914B04600F9B
:102D8000711F821F931FEECFCF92DF92EF92FF92BF
:102D90006B017C010E9446138823A1F02FB7F894A1
:102DA0006091E6057091E7058091E8059091E9054D
:102DB0002FBF6C197D098E099F09FF90EF90DF905E
:102DC000CF9008950E94AA16F4CF0E94C30E2FEF51
:102DD00084E39CE0215080409040E1F700C0000077
:102DE00088E19CE00FB6F894A895809360000FBE30
:102DF00090936000FFCF0E94680D282F30E0309341
:102E0000050120930401833049F0843059F0823069
:102E100021F48FE494E00E947312089585EE0E94DD
:102E2000201208958FE494E00E9473128FE494E0DE
:102E30000E94E111EECF0E94680D282F30E0309300
:102E4000020120930101833049F0843059F082302F
:102E500021F480E594E00E947312089581EE0E94AF
:102E60002012089580E594E00E94731280E594E0BA
:102E70000E94E111EECFB0E0A0E0E1E4F7E10C94B4
:102E80002B2D6C017B0164E670E088E70E946B2AC1
:102E9000EC0197FD12C010E000E0F601E00FF11F19
:102EA000849164E670E00E94D72AEC01892B29F412
:102EB0000F5F1F4F0E151F0581F70E944D2BCE018E
:102EC000CDB7DEB7E8E00C94472D8091D9059091FD
:102ED000DA05911103C091E089270895882369F0EC
:102EE00062E070E086E594E00E943B17892B19F0C0
:102EF0008091D90508951092D9058091D905EBCF1D
:102F0000CF93C091D9058091DA058823D1F00E9432
:102F10002407605A75418F4F9F4F6093D50570937A
:102F2000D6058093D7059093D805C11108C062E0FB
:102F300070E084E594E00E943B17892B29F0C09152
:102F4000D9058C2FCF91089581E08093D905F7CFD3
:102F50004F925F926F927F928F929F92AF92BF92A9
:102F6000CF92DF92EF92FF926091F2047091F3049E
:102F70008091F4049091F5040E94C4166B017C01C9
:102F80000E94AA164B015C018092F2049092F30415
:102F9000A092F404B092F504A091C904E9ECF4E025
:102FA0008A2F90E04FEF5FEF60E070E04C195D0911
:102FB0006E097F09A91328C08093C9048091F60483
:102FC000811135C090913206892F837019F0892FB5
:102FD000869586959091A101913009F441C099237D
:102FE00041F1923009F43FC0933009F43FC0FF90A3
:102FF000EF90DF90CF90BF90AF909F908F907F9099
:103000006F905F904F900895218D328D2901712C22
:10301000612C441555056605770520F481509F5FA6
:103020003296C8CF2C0D3D1D328F218FF8CF80E016
:10303000D1CF10929E018092010690920206A0923A
:103040000306B092040689E2E9ECF4E0A5E0B6E0FC
:1030500001900D928A95E1F781E08093A101C7CF9D
:103060000E947F14C4CF0E941308C1CF8091310603
:10307000882351F046E050E06CE170E082E396E096
:103080000E9487301092310660910106709102060D
:1030900080910306909104060E94C4166031710568
:1030A0008105910508F4A3CF1092A101A0CFE2E31E
:1030B000F6E085E080838091A2019091A301A09128
:1030C000A40181839283A3838FE784838FEF858319
:1030D00046E050E06CE170E0CF010E948730109232
:1030E00031060895A4E0B0E0E8E7F8E10C94302D53
:1030F00040913F045091400460914104709142041A
:103100002FB7F8948091E6059091E705A091E80526
:10311000B091E9052FBF841B950BA60BB70B11E0EF
:1031200084369105A105B10570F10E94AA166E5F63
:103130007F4F8F4F9F4F69837A838B839C838091CE
:103140001F0190912001875D9B4F40911E0150E02F
:103150004530510510F044E050E0BE016F5F7F4FF5
:103160000E94C12D83E090E00E94972C182F8823A5
:1031700051F00E94240760933F04709340048093B1
:10318000410490934204812F2496E3E00C944C2D4B
:10319000EF92FF921F93CF93DF9300D000D000D027
:1031A000CDB7DEB77B0190E080E00E94972C182F0E
:1031B000882309F480C04091090150E04115510570
:1031C00011F041E050E060910A0170910B01675DE0
:1031D0007B4FCE0106960E94C12D40912104509153
:1031E000220460912304709124042FB7F8948091F5
:1031F000E6059091E705A091E805B091E9052FBF9C
:10320000841B950BA60BB70B84369105A105B10560
:1032100040F48AE294E00E949C059E81891709F49B
:103220004AC081E090E00E94972C811116C010E006
:1032300085E0ECE1F4E0D70101900D928A95E1F789
:10324000812F26960FB6F894DEBF0FBECDBFDF915B
:10325000CF911F91FF90EF9008954091110150E0A0
:103260004630510510F045E050E060911201709138
:103270001301675D7B4FCE0101960E94C12D8AE24A
:1032800094E00E949C059E818913D1CF0E9424075F
:103290006093210470932204809323049093240468
:1032A00085E0FE013196ACE1B4E001900D928A9583
:1032B000E1F711E0BDCF85E0EAE2F4E0DE0111962E
:1032C00001900D928A95E1F71111EACFB1CF4F929B
:1032D0005F926F927F928F929F92AF92BF92EF9286
:1032E000FF920F931F93CF93DF937B01FB014080ED
:1032F0005180628073809FB7F8948090E60590902B
:10330000E705A090E805B090E9059FBF84189508EF
:10331000A608B708F4E68F169104A104B10418F4C6
:10332000C1E0442329F1C82F880FDD0BFE0183E0A3
:10333000EE0FFF1F8A95E1F7EA5FFE4F81819281D0
:10334000875D9B4F408150E00417150708F4A801E2
:10335000B9010E94C12DCE010E94972CC82F88234D
:1033600039F00E942407F70160837183828393837D
:103370008C2FDF91CF911F910F91FF90EF90BF9015
:10338000AF909F908F907F906F905F904F90089537
:10339000A7E0B0E0EEECF9E10C942F2D86E0E2E33B
:1033A000F6E0DE01119601900D928A95E1F7809189
:1033B000F6048F8347E050E068E374E0CE010196A5
:1033C0000E94B42D41E0892B09F440E007E010E0B1
:1033D0009E012F5F3F4F63E474E084E00E94671911
:1033E0002796E4E00C944B2D0F931F93CF93DF931C
:1033F000EC0145E050E06FE274E00E94B42D41E042
:10340000892B09F440E005E010E09E0165E274E0DC
:1034100082E00E946719DF91CF911F910F9108956B
:103420009091590492FB222720F9281779F080FB0C
:1034300092F990935904609158047091590484E072
:1034400090E00E94B53082E00E94C40C089567EEBF
:103450007EEF90E080E00E94B53060E082E090E096
:103460000E94973060E083E090E00E9497301092D5
:103470000E0410920D0460E074E184E090E00E947C
:10348000B53060E086E090E00E9497306FEF87E013
:1034900090E00E94973040E050E0BA0188E090E070
:1034A0000E94A93060E08DE090E00E94973040E0FB
:1034B00050E0BA0188E190E00E94A93060E087E125
:1034C00090E00E94973040E050E0BA018CE190E03B
:1034D0000E94A93070E060E080E290E00E94B53088
:1034E00040E050E0BA0188E190E00E94A93040E05D
:1034F00050E0BA018FE090E00E94A93040E050E037
:10350000BA0183E190E00E94A93008951F920F92C2
:103510000FB60F9211242F933F934F935F936F93A6
:103520007F938F939F93AF93BF93CF93DF93EF934B
:10353000FF93D091E900DF708091EC00C82FC1703B
:1035400080FDC0E81092E9008091F000877F8093B1
:10355000F00078940E94D90E1092E9008091F0005A
:1035600088608093F000CD2BCF70C093E900FF916D
:10357000EF91DF91CF91BF91AF919F918F917F910B
:103580006F915F914F913F912F910F900FBE0F90D0
:103590001F9018951F920F920FB60F9211242F9320
:1035A0003F934F935F936F937F938F939F93AF93CB
:1035B000BF93EF93FF938091E10082FF09C0809158
:1035C000E20082FF05C08091E1008B7F8093E100E3
:1035D0008091DA0080FF24C08091D80080FF20C055
:1035E0008091DA008E7F8093DA008091D90080FF8D
:1035F0009DC080E189BD82E189BD09B400FEFDCF97
:1036000081E08093F7058091EA05811109C00E944D
:10361000C6050E9467068091E20084608093E20004
:103620008091E10080FF17C08091E20080FF13C00D
:103630008091E2008E7F8093E2008091E2008061C1
:103640008093E2008091D80080628093D80019BCFA
:1036500085E08093F7058091E10084FF2BC0809185
:10366000E20084FF27C080E189BD82E189BD89B580
:10367000982F917080FFFBCF8091D8008F7D809331
:10368000D8008091E1008F7E8093E1008091E2007C
:103690008F7E8093E2008091E20081608093E2005F
:1036A0008091F805882309F447C084E08093F705EA
:1036B0008091F7058091E10083FF27C08091E200AF
:1036C00083FF23C08091E100877F8093E10082E047
:1036D0008093F7051092F8058091E1008E7F80932A
:1036E000E1008091E2008E7F8093E2008091E20011
:1036F00080618093E20042E060E080E00E94350655
:103700008091F00088608093F000FF91EF91BF916D
:10371000AF919F918F917F916F915F914F913F9169
:103720002F910F900FBE0F901F90189519BC1092FB
:10373000F7051092EA0574CF8091E30087FD93E0CE
:103740009093F705B5CF78941F921FB61F9211245E
:103750008F939F93AF93BF938091E6059091E70578
:10376000A091E805B091E9050196A11DB11D8093D6
:10377000E6059093E705A093E805B093E905BF91AE
:10378000AF919F918F911F901FBE1F9018959C0124
:103790004FB7F8948091E6059091E705A091E80570
:1037A000B091E9054FBF821B930B08952FB7F89492
:1037B0008091E6059091E705A091E805B091E905B3
:1037C0002FBF08950F931F93CF93DF93C62FD42F4E
:1037D000022FFC0182818823A9F0609330060E94A9
:1037E000D61B90932F0680932E06C77081E001C0F0
:1037F000880FCA95EAF70E94A211DF91CF911F911D
:103800000F91089580913006681335C080912E067F
:1038100090912F060E94C71B8D37910560F510E22D
:103820001D0FCD17B9F080E28C0F883040F4C770BF
:1038300081E001C0880FCA95EAF70E949B111830F9
:1038400048F481E09D2F977001C0880F9A95EAF7A0
:103850000E94A211802F0E942012802F0E94AC1182
:10386000183058F6D77081E001C0880FDA95EAF772
:103870000E949B11C2CFC77081E001C0880FCA951A
:10388000EAF7F6CFAFE0B0E0E8E4FCE10C94262DD7
:103890008E010F5F1F4F8AE0D8011D928A95E9F7CC
:1038A00089E6C82E82E0D82EF12CE12CAA24A3941C
:1038B000B12C24E7822E22E0922EF60181916F0135
:1038C0008F3F09F442C0F894E82FE295EF70F0E0E2
:1038D00021A18F70A50102C0440F551F8A95E2F700
:1038E000CA01922F982B91A392A18095892382A33C
:1038F000789400C0EEE6F2E0712C31E021912F3F88
:1039000009F46BC0A22FA295AF70B0E090968C9195
:1039100090E02F7002C0959587952A95E2F780FD7B
:103920005CC0832F782A330F8E169F0639F7F60175
:10393000319780818F3F11F00E94600950EA5A95BB
:10394000F1F7F801EE0DFF1D70828FEFE81AF80A0B
:10395000A5E0EA16F10409F0B0CF4AE050E0B80162
:103960008CE494E00E94B42D009741F02AE0F80125
:10397000ACE4B4E001900D922A95E1F70091570470
:10398000892B69F181E0809313040E94D61B9093E8
:1039900012048093110480911104909112040E94EA
:1039A000C71B059700F110E0065A1B4F45E050E099
:1039B0006CE474E0C8010E94B42DD12C892B51F025
:1039C00085E0ECE4F4E0D80101900D928A95E1F7EE
:1039D000DD24D3941092130407C080E0A3CF80911C
:1039E00013048111D8CFD12C0E944613C82EE09128
:1039F0005704882309F47FC07E01BBE0EB0EF11C65
:103A000085E0D7011D928A95E9F70E2F10E0065A3E
:103A10001B4F809147048A30D8F548EC58E1B70134
:103A2000C8010E941313882309F454C044EF59E1DC
:103A3000B701C8010E941313882309F44BC042E761
:103A400058E1B701C8010E941313882309F442C04A
:103A500048EC59E1B701C8010E9413138823D1F142
:103A6000109247048091560490E045E050E0B70181
:103A7000865A9B4F0E94B42D21E020931A04892B73
:103A8000E1F4C12C8C2D8D292F96EDE00C94422D64
:103A900080911404909115040E94C71B843F9140AB
:103AA00008F0BBCF80911A04882359F385E0F70111
:103AB00011928A95E9F710921A04A0915604B0E089
:103AC000A65ABB4F85E0FE013B9601900D928A9568
:103AD000E1F7D8CF809147048F3F31F08F5F80931B
:103AE00047048A3008F4BECF0E94D61B9093150479
:103AF00080931404D7CF0091560410E0065A1B4F50
:103B0000F0E0E65AFB4F85E0AAE2B4E001900D92A6
:103B10008A95E1F78AE294E00E949C05809329044B
:103B200085E0EFE2F4E0D80101900D928A95E1F78B
:103B30008090340490903504A0903604B0903704FF
:103B40008091160490911704A0911804B091190463
:103B500088169906AA06BB06D1F0809216049092A8
:103B60001704A0921804B09219040E944613811100
:103B70000EC00E942407861A970AA80AB90A8092E2
:103B8000480490924904A0924A04B0924B0486E003
:103B9000E8E3F4E0A2E3B6E001900D928A95E1F744
:103BA00010913E04112349F08091F604811105C063
:103BB0000E947F1480E00E9413081093F60462CFE5
:103BC000B0E0A0E0E6EEFDE10C94292D8C01DC01D3
:103BD00013968D919C911497892B41F04C911196DD
:103BE0005C91842F85238F3F09F039C4CDB7DEB7B0
:103BF000EAE00C94452DCC33D10508F082C4FE01D7
:103C0000EA54FE4F8081809393017BC41092A903F4
:103C10001092A803E9E8F4E08DE994E020E2219312
:103C20008E179F07E1F7A4C49C2F8D2FF6C4F701D0
:103C3000858181FFF6C4C7010E947E0EF2C4FE0199
:103C4000E851FC47E730F10508F0EBC4EE52FF4CB9
:103C50000C94A52D26E241EE61EEC8010E94E21B04
:103C600080910304877011F2D80112968C918823F9
:103C700009F4BCCF8091590482FFB8CF82E00E9442
:103C8000C40CB4CF27E245EE65EEE7CF26E241EE65
:103C900060EEE3CF27E245EE64EEDFCF26E241EEB1
:103CA00062EEDBCF27E245EE66EED7CF28E241E0B9
:103CB000EBCF8091580481608093580495C0809127
:103CC00059048860809359048FC0809158048260A1
:103CD000F3CF809158048460EFCF809158048860BE
:103CE000EBCF809159048160EDCF809159048260BF
:103CF000E9CF809158048061DFCF809158048062C1
:103D0000DBCF809158048064D7CF0E94C30E80918E
:103D100058048068D1CF809158048C60CDCF8091B9
:103D200059048360CFCF809158048E7FC5CF809196
:103D30005904877FC7CF809158048D7FBDCF809174
:103D400058048B7FB9CF80915804877FB5CF80917D
:103D500059048E7FB7CF809159048D7FB3CF809166
:103D600058048F7EA9CF809158048F7DA5CF809174
:103D700058048F7BA1CF0E94C30E809158048F7787
:103D80009BCF80915804837F97CF809159048C7F7B
:103D900099CF8091580482FB992790F921E09227CE
:103DA00090FB82F990FB83F987CF80915904982F7B
:103DB000909591708E7F892B90FB81F983CF9091A4
:103DC0005804892F8F7B96FF806476CF0E94C30EA4
:103DD00090915804892F97FB87F980586DCF61E047
:103DE0008EE090E00E9497306091580470915904E1
:103DF00084E090E00E94B5300E94C30E31CF60E0B5
:103E0000EFCF90915804892F8F7E94FF806154CF1B
:103E100090915804892F8E7F90FF81604DCF9091B3
:103E20005904892F877F93FF88604CCF85E336C480
:103E30008091320691E08927809332061092A10189
:103E4000809131068160809331060ACF4EEF57E0B2
:103E500068E078E00E94940703CF48E058E06EEFF6
:103E600077E0F8CF4AEE57E064EF77E0F3CF44EF26
:103E700057E06AEE77E0EECF40ED57E06DED77E08A
:103E8000E9CF4DED57E060ED77E0E4CF46EB57E04A
:103E900063EC77E0DFCF43EC57E066EB77E0DACF17
:103EA0004AE957E068EA77E0D5CF48EA57E06AE99F
:103EB00077E0D0CF81E00E948305D2CE85E0FBCFB2
:103EC000C737BCE7DB0709F45FC0C837DC4709F434
:103ED00061C0F8018281C081D181882309F4AEC01C
:103EE000CE010E94D70BF82E682FCE010E944B0CFA
:103EF000BE018F2D0E945C0A0E947B0AD82FC92F19
:103F0000A82ED8011296FC9012971596DC90D294A8
:103F10003FE0D322809103048770F1F0CF2CFF2083
:103F2000E1F0892F807F803451F080E28D0F88305E
:103F300098F0D11004C0892F807E803269F0809182
:103F4000590482FF09C082E00E94C40C80910304DE
:103F50008770CC24C3948111C12CBC2EB2942FE065
:103F6000B222BBE0BB1508F4D0C0EB2DF0E0E75265
:103F7000FF4C0C94A52D81E00E94E00C43E062E030
:103F800081E00E94860C6CCE81E00E94B20CF6CFDC
:103F900082E0F2CF82E0F9CFCB359CE7D90709F474
:103FA0004BC0CC35ACE7DA0709F43CC0CA35DC4776
:103FB00009F08FCF81E03DC00E94C30EEFEFF4E324
:103FC0002CE0E150F0402040E1F700C0000081E02B
:103FD0008093E00080E28093D8001092C9008FE1C6
:103FE0009EE40197F1F700C0000087E090EBDC0150
:103FF0008093430890934408A0934508B0934608E3
:1040000088E19CE00FB6F894A895809360000FBEFD
:1040100090936000FFCF6FEF7FEF90E080E00E9411
:10402000B53064C38091590482FB882780F991E000
:1040300089270E94101A4DCF80E0FBCFCE010E944D
:10404000180CF82E55CFEC2FEF70EE2EC07F19F024
:10405000E29490EFE922FF20B9F0EE2069F080E2CF
:104060008D0F883010F0A11009C08091DC05E82A7E
:10407000E092DC050E94410E8D2F45C08091DB054A
:10408000E82AE092DB05F6CF8D2F0E94AC11EE20DE
:10409000E1F1D05E8E2DD83010F0A11003C00E9447
:1040A000A60B02C00E949F0B0E94410E2EC0FC2F47
:1040B000FF70EF2EC07FC03219F0E29480EFE8224B
:1040C000AA2089F021E0A21609F47DC0FF2009F49E
:1040D00087C0DD2009F47DC0F801858180FFCCCF49
:1040E0008F70858376C02091590422FD44C0FF2043
:1040F000D9F1EE2039F08091DC05E82AE092DC0568
:104100000E94410E80E00E942012AB2DA850BB0BF4
:10411000149710F40E946913CC20A9F08091030435
:1041200080FD11C0F80112828595859585950E94C4
:10413000E00CC8010E94E01D8091030485958595DF
:1041400085950E94B20C20E0D8014C9111965C91AB
:10415000119712966C91129713967C91139714965F
:104160008C910E94430D42CD80E00E94AC11EE2064
:1041700061F28E2D94CFFF20A1F090910C048E2D32
:10418000892BD11003C00E94A211BFCF31E0D312FE
:10419000FACF22FFBACF891709F4B7CF80930C0466
:1041A000B4CFD11006C00E94990B8E2D0E949B1196
:1041B000ACCF81E0D81609F4A8CF8E2D0E949B11B8
:1041C0000E94990BA2CFFF2031F095E09D1508F4D5
:1041D0009CCF8E2DD8CFA4E0AD1508F496CFE5CFB7
:1041E000DD2019F3F9E3AF1209C02FEF37EE83E0BA
:1041F000215030408040E1F700C000008D2F0E9428
:10420000AC1183CF8C2F86958695837069F08130B1
:1042100009F07BCF8D2F9C2F9370F11002C080E0AE
:1042200090E00E944A0771CF8D2F9C2F9370F11060
:1042300002C080E090E00E946F0767CF8C2F8370F0
:1042400009F03FC0F11061CF4D2F42954695477060
:10425000440F440F2D2F2F7030E0042E02C0220F88
:10426000331F0A94E2F790E080E0D4FF09C08FE0AA
:1042700090E002C0880F991F4A95E2F780959095CB
:10428000C695C695C370C23099F078F440910D047C
:1042900050910E04C13039F0822B932B8423952347
:1042A0000E94F00C32CF242B352B822B932BF8CF8E
:1042B000822B932B20910D0430910E04822793279B
:1042C000EFCF8695FF2011F08C2F8170882309F4A1
:1042D0001CCF4D2F429546954770440F440F2D2F0C
:1042E0002F7030E0042E02C0220F331F0A94E2F731
:1042F00090E080E0D4FF09C08FE090E002C0880F1A
:10430000991F4A95E2F780959095C695C695C3701A
:10431000C23099F078F440919E0450919F04C130CE
:1043200039F0822B932B842395230E94810CEDCEB0
:10433000242B352B822B932BF8CF822B932B209180
:104340009E0430919F0482279327EFCFCF70FF20E8
:1043500029F08C2F0E94E00C8D2F15CF8D2F0E94FD
:104360009B118C2F0E94B20CD0CE8D2F92EFA916EC
:1043700099F19A1570F0A0EFAA16D1F0B1EFAB1633
:1043800091F0FF2009F45BC0D11076CE8C2F8F7195
:1043900027C0E3EFAE1639F1F4EFAF12F2CF809100
:1043A000590482FD2EC08C2F8F71FF20D9F218C0C6
:1043B000FF2069F024E02D1508F4A7CECF7181E02D
:1043C00090E002C0880F991FCA95E2F7B8CF35E098
:1043D0003D1508F49ACEF2CF8C2F8F71F110C2CF19
:1043E0000E94E00C92CE90E080E0FF2009F49DCF87
:1043F000CF7181E090E002C0880F991FCA95E2F763
:1044000094CFFF2089F0CF718C2F0E94E00C809117
:10441000590482FF07C0A8E0CA9FC001112483602D
:10442000809303048C2FDCCF81E00E94C40CB1E0A8
:10443000BD1508F06ACE82E00E94C40C66CEDD2075
:1044400059F0893309F0DACEEFEFF7EE23E0E150CF
:10445000F0402040E1F7D0CE8C2F8F7183CF21E048
:10446000F8016281738184810E94430DEC01D801BF
:1044700012968C91882369F18091DD059091DE057B
:10448000009739F18C179D0721F1BEE08B9FC00189
:104490001124FC01E45CFE4F208124602083895CB0
:1044A0009E4FFC01D183C0830E94980E1092DB05C1
:1044B00021E0D8014C9111965C91119712966C9164
:1044C000129713967C91139714968C910E94430D2A
:1044D000EC01F8018281882309F457C080E28093BF
:1044E0009301D093A104C093A004CE0190528115F2
:1044F000904308F080CBCE0199279093A10480933C
:10450000A004D80111968C9111978093A3049C91DB
:104510009093A20440E2F42ECC33D10520F4FE01A6
:10452000EE50FE4FF0801F92FF92DF93CF931F92C9
:104530009F931F928F9385EA91E09F938F931F9291
:1045400088E18F9381E794E09F938F930E94CA2D17
:104550002DB73EB7225F3F4F0FB6F8943EBF0FBE58
:104560002DBF8091A8039091A903449709F44ECBE5
:104570008091A8039091A903FC01E757FB4FF082BB
:1045800001969093A9038093A803CE0197558F3F7E
:10459000910511F008F053CB6E01DD243EE0C39F7E
:1045A000F0011124DF01A95CBE4F7D01D8011296F4
:1045B0008C91E45CFE4F908180FB90F9908388237E
:1045C00009F435CB0E94D61B9093700480936F043E
:1045D000F70182818F5F82838091DB059091DC05FA
:1045E000892B838380910C0484830680F781E02DDE
:1045F000309731F0D7011C966D917C91C7010995D8
:104600008EE08C9DF0018D9DF00D1124E95CFE4F34
:10461000858181FF09CB90E080E09093DD05809358
:10462000DE05D80112968C91882379F1109230061C
:10463000CE019057839798F484E090E00E948130F7
:104640009093590480935804FE01E150F047E23200
:10465000F10508F02ECBEB51FF4C0C94A52DC63183
:10466000BCE7DB0749F58091DC058A7A91E009F423
:1046700090E09093AA0369E2811165E380EA93E0F8
:104680000E9430070E94410EEBCAC631ECE7DE07FC
:1046900079F58091AA038111C9CB89E2E2EAF3E0BE
:1046A00028EA33E09191891303C0DF0111971C922E
:1046B0002E173F07B9F7E6CFC737FCE7DF0709F446
:1046C0005ACCC8372CE7D20709F462CCC330FCE7D8
:1046D000DF0709F4A0CC08F05FCCC1153CE7D30795
:1046E00009F46ACCC130DC4709F0F3CB0E94E5162F
:1046F0008091DC058272FE01E052F847E531F10558
:1047000008F0DECBE95FFE4C0C94A52D1F93CF93F0
:10471000DF938091D003807F09F04BC08091CD035F
:10472000882309F446C080910204C091D1034091CE
:10473000CB035091CC036091CE037091CF03D42F63
:10474000D52316E0C817A9F190E061157105A9F10C
:10475000DF3F99F1189FF001199FF00D1124DF013F
:10476000AE52BC4F11962C911197251326C02C9157
:10477000241323C012962C91129721111EC0139658
:104780002D913C91261B370B2D373105B0F48091CC
:10479000D0038F7080618093D003E952FC4F8081F9
:1047A0008F70806180838BEC93E00E94E01D0E94FB
:1047B000CD0BDF91CF911F91089501968770C2CFE5
:1047C000A1E1B0E0E6EEF3E20C94272D8C0185E048
:1047D000F801DE011D9601900D928A95E1F7F8012E
:1047E000E2808BEC882E83E0982E4091CE0350918E
:1047F000CF034115510509F421C19091CB032091BC
:10480000CC03892F82238F3F09F418C1D080C18047
:10481000A380B480F090CD03B501641B750BFF201D
:1048200009F4F3C08091D003382F307F6D377105C4
:1048300008F0B7C0311178C0FE2C2C1114C09D11A6
:1048400012C0E11010C08F7080618093D003C4014A
:104850000E94E01D8091D003F80185838F2D619621
:10486000ECE00C94432DA114B104C9F18D2D8C21E1
:104870008F3FA9F181E08E2580FF05C04E2D6C2D64
:104880008D2D0E94AD0BA114B10459F18D2D8C21F9
:104890008F3F39F181E08E25F82FF170BF2E80FF18
:1048A00039C04E2D6C2D8D2D0E94AD0BA82E81117F
:1048B00031C0DD86CE868D859E850E940B0C292F0A
:1048C00022952F70243078F49F702230A8F099231D
:1048D000B9F0F8019581907F99F4FA2CBFCF80E070
:1048E000CBCF80E0D9CF2A5F2F70223068F0C8018B
:1048F0000E94E01DAB2CF1CF992311F0882369F3BE
:10490000805E883050F3F3CF803F38F3815F83308F
:1049100070F7E3CFEE2009F4A1CF8091D00381603E
:104920008093D003F12C9ACF2C1111C09D110FC090
:10493000E1100DC08583C8010E94E01D86E0F801EA
:10494000ABECB3E001900D928A95E1F787CFC801F7
:104950000E94F50C882309F1EE20F9F08091D00334
:10496000803270F02091CB033091CC0338872F83B5
:104970001986BB86AA868C87CE0107960E94E01D09
:1049800086E0F801ABECB3E001900D928A95E1F777
:104990000E948623FF24F39461CFC8010E94E01D8A
:1049A000F9CF31110AC08BEC93E00E94E01D86E044
:1049B000F40111928A95E9F7B5CF2C110EC09D1123
:1049C0000CC0E1100AC08583C8010E94E01D86E08A
:1049D000F40111928A95E9F741CFC8010E94F50CC4
:1049E0008823D9F2EE20C9F28091D003803240F2C0
:1049F0002091CB033091CC033A8329831B82BD8263
:104A0000AC828E83CE010196B9CF6D377105F8F671
:104A1000FE2CEE2011F22C1103C09D1509F48ECF4F
:104A2000C8010E94F50C8111ABCF8091D003816049
:104A30008093D003C8010E94E01D10CFEE2009F43E
:104A4000ACCFC8010E94F50CF82E882309F4A5CF3D
:104A500086E0F801ABECB3E001900D928A95E1F7A6
:104A60008091CB039091CC030E940B0C0E94862373
:104A7000F5CEA7E1B0E0EFE3F5E20C94302D4B8BDF
:104A80005C8B6D8B7E8B8F8B61111092DB051A8A8C
:104A9000198A85E0FE017396DE011D9601900D9244
:104AA0008A95E1F786E0FE013D96DE0117960190BA
:104AB0000D928A95E1F7CE0107960E94E0238823A4
:104AC00059F016E0809102049091D103891343C0FC
:104AD0006796E3E00C944C2D86E0FE013796DE01EC
:104AE000119601900D928A95E1F78A859B85892B15
:104AF00041F38F81988589238F3F19F32091D1034A
:104B000030E0C90101968770992740910204481747
:104B1000190671F40E94C30E1092D1031092020480
:104B200086E0EBECF3E0DF011D928A95E9F7C9CF4F
:104B300096E0929FD001939FB00D1124AE52BC4FCE
:104B4000FE01319601900D929A95E1F78093D10381
:104B50000E94CD0BB6CF819FC00111248E529C4F75
:104B60000E94E023882309F4B3CF8091020490E0EF
:104B700001968770992780930204A4CFA5E0B0E046
:104B8000E4ECF5E20C942F2D0E94D61B8C01809151
:104B90000F049091100480179107A1F08FEF898383
:104BA0008A831B820E94D61B8160782F9D838C8311
:104BB00049815A816B818D810E943925109310049F
:104BC00000930F042596E4E00C944B2D1F921FB622
:104BD0001F9211248F939F93AF93BF938091E5050C
:104BE000811113C08091E6059091E705A091E80539
:104BF000B091E9054196A11DB11D8093E605909302
:104C0000E705A093E805B093E905BF91AF919F91A7
:104C10008F911F901FBE1F901895CDB7DEB72997B3
:104C20000FB6F894DEBF0FBECDBF85B7806885BFD5
:104C300085B7806885BF84B7877F84BF0FB6F89437
:104C4000A895809160008861809360001092600058
:104C50000FBE80E890E00FB6F894809361009093C7
:104C600061000FBE8EE599E090939F0380939E03B1
:104C70000E94C6050E9467068091E20084608093CE
:104C8000E20078948091F7058823A1F01091E90063
:104C90001F709091EC00892F817090FD80E8182B97
:104CA0001092E9008091E80083FD0E94D90E1F70E8
:104CB0001093E90082E084BD93E095BD9AEF97BD23
:104CC00080936E00109248041092490410924A0496
:104CD00010924B040E94461380932E010E944613AB
:104CE00081110E94AB2B80912E0180912E0195E0C5
:104CF000811190E09093570485E0891B80935604BE
:104D000009E612E0D8018D918D018F3F11F00E94CC
:104D10006009B2E00E361B07A9F70EE612E054E771
:104D2000E52E52E0F52EF80181918F018F3F11F0B1
:104D30000E946009E016F106B1F78AE0EAE5F4E0C6
:104D4000DF01282F1D922A95E9F7ECE4F4E0DF015A
:104D50001D928A95E9F790E080E00E948130873EBD
:104D60009E4F11F00E94271A82E090E00E94793055
:104D70008093640484E090E00E9481309093590411
:104D80008093580483E090E00E94793090E00E9484
:104D9000F00C109205068FEF9FEF90931F06809303
:104DA0001E069093210680932006909323068093FD
:104DB00022069093250680932406909327068093DD
:104DC0002606909329068093280690932B068093BD
:104DD0002A0690932D0680932C061092C904909376
:104DE000E3048093E2049093E5048093E4049093B9
:104DF000E7048093E6049093E9048093E804909399
:104E0000EB048093EA049093ED048093EC04909378
:104E1000EF048093EE049093F1048093F00490E00B
:104E200080E00E948130873E9E4F21F00E94271A29
:104E30000E94571881E08093310646E050E06CE113
:104E400070E082E396E00E94693010923106809112
:104E500032068C7F11F40E9457180E94461312E00C
:104E6000811110E00E944613811101C012E01093DD
:104E7000C40480E8809338060E94652A6DE070E0E3
:104E800087E193E00E943B17892BE9F58091C404E8
:104E900063E070E081FDFEC084E193E00E943B1777
:104EA000892B89F56DE070E084E093E00E943B1768
:104EB000892B49F50E942407605A75418F4F9F4FF7
:104EC0006093D5057093D6058093D7059093D80548
:104ED000EBE3F6E080E092E0DF019C011D922150BF
:104EE0003040E1F7F0934208E09341088FEF9FEFE5
:104EF00090933A068093390681E08093DA05809397
:104F0000D9051092C5040E944613811102C00E9467
:104F1000AE2B8FE291E09093E2058093E1058091C2
:104F2000F70500E112E1853009F4FFC00E94421C40
:104F300045E6242E44E0342EEAE5F4E0FF83EE83D8
:104F4000DF01F10191918D9124E0EF36F20709F430
:104F5000F8C09817B9F30E944613898734E8A32E46
:104F600032E0B32EE12CAE81BF819D90BF83AE8332
:104F7000F10151901F01591409F480C05924588639
:104F80002501812C772473948885872109F46BC0CF
:104F9000F92CF720F985FF2399F08982EA8281E0D4
:104FA000F11001C080E08B830E94D61B8160782FB6
:104FB0009D838C8349815A816B818D810E94392523
:104FC000F1101DC1D2018C918F3F09F01AC10F2D34
:104FD00010E08091C904800F912F911D09976CF109
:104FE00088E0C82ED12CC01AD10AB80166537B4F75
:104FF000A6018AEC94E00E94C12DB8016E527B4F4D
:10500000A60182ED94E00E94C12DA601440F551F18
:10501000B801660F771F6E517B4F82EE94E00E94BD
:10502000C12DB80166527B4FA6018AED94E00E9423
:10503000C12D88E08F198093C9048091C90490E044
:10504000A62DB0E09D01220F331F20543D4FAA0F23
:10505000BB1FBD016F537D4F41E0480F9F1508F402
:10506000D4C08093C9048394770CBFEF4B1A5B0ABA
:10507000E6E08E1289CFF10131979082E394F6E059
:10508000AF0EB11C2AE0E2126ECF0E942407DD248D
:10509000D3945CC081E193E001CF8091F705843027
:1050A00009F434C00E94A8178091F604811105C04C
:1050B0000E947F1480E00E94130831E03093F604D0
:1050C0000E9465171092E50588E190E0A0E40FB614
:1050D000F894A895809360000FBEA093600083B7FA
:1050E000817F846083BF83B7816083BF7894889514
:1050F00083B78E7F83BF0FB6F894A8958091600028
:10510000886180936000109260000FBE8091F60568
:10511000882359F00E94421CEAE5F4E08191811154
:10512000BEC1B4E0E436FB07C9F78091F7058530CE
:1051300009F4B3CF0E94C30E0E9469131092F604C3
:10514000F5CE981308CF0E94BE25D12C0E9446139D
:105150008823F1F00091DD051091DE0501151105A0
:10516000B9F080916F04909170040E94C71B8E3734
:10517000910570F03EE0039FC0011124FC01E45C46
:10518000FE4F208122FD04C0895C9E4F0E94980E34
:105190000E94A8178091DA05882309F484C08091C1
:1051A000C6049091C7040E94C71BC29708F45CC054
:1051B0000E94D61B9093C7048093C6048BE396E0AD
:1051C00090934208809341080E944613882309F473
:1051D00082C08CE493E00E94FB0D80919E0490912C
:1051E0009F040E941F0D823009F46FC018F58823B8
:1051F00049F1813009F466C084E293E025C0F12CC6
:10520000E6CE682EFF24F394E2CE90E0FC01E75353
:10521000FB4FD9015C915183DB015C915187618A1D
:10522000880F991FFC01E753FB4F128E118E91E0FE
:10523000842F12CF833009F44BC08430E9F68CE21E
:1052400093E002C084E493E00E943B0E81E794E087
:105250000E947E1281E00E94090E89E894E00E947B
:105260007E1281E00E94090E8091390690913A06E3
:10527000892BB1F58091D9058823A9F00E942407D4
:105280000091D5051091D6052091D7053091D8050C
:10529000601B710B820B930B6F3F7F4F8F4F9F47AC
:1052A00010F40E946517D1100E9480170E946913A4
:1052B0009091C804891709F432CE8093C8040E94E3
:1052C00024072DCE8EE393E0BFCF88E393E0BCCFDD
:1052D00081E393E0B9CF83E591E00E947E12C4CFD1
:1052E0008091DA05882331F28091C5048111C2CF03
:1052F0000E9480172091390630913A062115310518
:1053000009F4B8CF80E0082F10E0EE24E394F12CEC
:10531000082E02C0EE0CFF1C0A94E2F7A7014223FC
:105320005323452B11F48F5FEECF9091C40490FF6F
:105330009DC0880F880F880F809396011092990165
:10534000895F8093970183E080939A0124E630E09F
:1053500047E050E064E971E088E70E94052B892B63
:1053600009F088CFA80125E0440F551F2A95E1F7E1
:105370008091C40480FF8CC0E4EAF4E080E2DF01A5
:105380001D928A95E9F7E8E7F2E0FF83EE8304E7F0
:1053900012E08CE7282E82E0382E97E0992EAE811D
:1053A000BF812D91BF83AE83F80141908F01440EE0
:1053B000552E511CC201855C994F2C01E22FF0E063
:1053C000EC55FB4F30E020E0792C721ACC24C394CA
:1053D000022E01C0CC0C0A94EAF7520190E0D501EC
:1053E0008D915D018C21672D691B6770862E062EBD
:1053F000000C770BB82F01C0BB0F8A94EAF78B2EF5
:105400007195619571096770772701C086956A95D6
:10541000EAF7882A8081882A80829F5F9830F9F68F
:105420002F5F3F4F31962830310571F6EE81FF81B5
:105430002E163F0609F0B3CF04E610E020E230E07C
:1054400044EA54E060E488E70E94262B892B09F0A7
:1054500011CFE094F0948091390690913A06E822B9
:10546000F922F0923A06E092390604CF8295880F2D
:1054700080768093960198013695279536952795E5
:1054800020939901815E8093970110929A015ECFDB
:10549000455C594F04E610E020E230E0D3CF09BD6F
:1054A00019BD09B400FEFDCF8091D8008F7D809397
:1054B000D8008091E00082608093E0008091E0005D
:1054C00081FDFCCF0E94C30E30CE1092B9008CE05B
:1054D0008093B8000895B0E0A0E0E1E7FAE20C9410
:1054E000282DB82EEB010E94D61B6C01EE24E3940C
:1054F000F12CC431D10560F025E0E22EF12CCF3F34
:10550000DC0731F0CE0164E170E00E940D2D7B01DB
:1055100084EAA82E94E8992E1092BC00A092BC00B8
:105520000E94D61B8C018091BC0087FF0DC080912A
:10553000B900887F8830F9F08091B900887F803188
:10554000D1F00FEF1FEF08C0C8010E94C71BE8167B
:10555000F90648F70EEF1FEFCF3FDC07E9F2C6016F
:105560000E94C71BC817D907B8F6C801CDB7DEB768
:10557000EBE00C94442DB092BB009092BC000E94D2
:10558000D61B8C018091BC0087FF0AC08091B900B6
:10559000887F883111F08034A1F610E000E0E5CF7B
:1055A000C8010E94C71BE816F90660F7D3CF0F9316
:1055B0001F93CF93DF93EB018093BB0084E880932C
:1055C000BC000E94D61B8C018091BC0087FF11C0DB
:1055D0002091B900287F81E090E0283211F490E01A
:1055E00080E0919581959109DF91CF911F910F9165
:1055F0000895CF3FDC0741F3C8010E94C71BC817BD
:10560000D90710F78EEF9FEFEFCFB0E0A0E0EBE00F
:10561000FBE20C942B2D6B018A017901B9010E94E8
:105620006B2AE6010C0D1D1DC017D10711F097FF65
:1056300008C024E92093BC00CDB7DEB7E8E00C94A5
:10564000472DB70189910E94D72AEECFB0E0A0E0A4
:10565000ECE2FBE20C942B2DC62F6A017901B80114
:105660000E946B2A97FD0CC0B8018C2F0E94D72A8C
:10567000E601EC0CFD1CCE15DF0511F097FF08C00C
:1056800024E92093BC00CDB7DEB7E8E00C94472DA9
:10569000B80189910E94D72AEECF84E98093BC009B
:1056A00008958EE14A9B02C08150E1F74A9BFECFEC
:1056B00008955A9880E28A95F1F75A9A0895FC0164
:1056C0003BE03A95F1F798E020E080E031E040E1FE
:1056D0004A95F1F7880F4A9B02C08160232742E078
:1056E0004A95F1F7000040E14A95F1F7915079F7BA
:1056F00090E19A95F1F799B132E03A95F1F700000F
:1057000040E14A95F1F792FB992790F99227208181
:10571000920F90830895A1E0B0E0E1E9FBE20C94E0
:105720002D2D19828C017C01E60EF11C0E151F0532
:1057300041F481E09981911180E02196E6E00C949A
:10574000492D0E94512BCE0101960E945F2BF8013A
:1057500081938F01EBCF529A5A9A089552985A9A90
:10576000EA9AE9E6F0E080818F7C808308956150B9
:10577000770B91E001C0990F6A95EAF720E031E0DC
:10578000911108C0222391F05A9A80E28A95F1F78C
:105790005A980895492F482339F05A9A232740E20E
:1057A0004A95F1F79695ECCF5A98F9CF5A98EDCFE4
:1057B000FF920F931F93CF93DF93EC018C01060FA1
:1057C000111DC017D10729F4CDB7DEB7E5E00C9461
:1057D0004A2DF9900E94592B68E08F2D0E94B72B1B
:1057E000F0CF1F920F920FB60F9211240F931F93B9
:1057F0002F933F934F935F936F937F938F939F93D9
:10580000AF93BF93EF93FF93CF93DF930F92CDB7F7
:10581000DEB719820E94512BCE0101960E945F2BA8
:10582000082F069506950695282F22952570902F0E
:105830009570290F922F937026952695920F982791
:1058400097708981982B09F05CC0063008F059C028
:1058500080E18A95F1F75A9A529A82E08A95F1F797
:1058600000C05A9888E0089F80011124D801AA5FDF
:10587000BE4F1696ED91FC9117973097A9F0609165
:1058800067027091680214962D913C911597260F2E
:10589000371F11968D919C911297680F791F13965F
:1058A0004C9113978C910995F801EA5FFE4F638143
:1058B000662351F0209167023091680284819581BE
:1058C000820F931F0E94D82B0E94592B80E18A954A
:1058D000F1F75A9852985A9A80E18A95F1F7F801AF
:1058E000EA5FFE4F6081662351F02091670230919C
:1058F000680281819281820F931F0E948B2B0E94EC
:10590000512B0F90DF91CF91FF91EF91BF91AF910C
:105910009F918F917F916F915F914F913F912F91C7
:105920001F910F910F900FBE0F901F9018950F931E
:105930001F93CF93DF93EC0106970CF04CC0F894C3
:10594000529A5A9885E08A95F1F700009C2F969517
:1059500095708C2F8570980F892F837096959695EA
:1059600023E0CC0FDD1F2A95E1F7980F8E01092B5C
:105970000E94592B00C068E0802F0E94B72B80E165
:105980008A95F1F752985A9A4A9B1EC087E090E098
:105990004A991CC0FE01EA5FFE4F63816623F9F05D
:1059A000209167023091680284819581820F931F54
:1059B0000E948B2B811113C0529A5A9A7894DF91CE
:1059C000CF911F910F91089500C0DECF019729F468
:1059D000529A5A9A789480E0F2CF00C0D9CF0E94B0
:1059E000512B80E28A95F1F75A98529A80E18A9574
:1059F000F1F7CA5FDE4F6881662351F0209167029C
:105A00003091680289819A81820F931F0E94D82B5E
:105A10000E94592B789481E0D2CFAA1BBB1B51E185
:105A200007C0AA1FBB1FA617B70710F0A61BB70B0E
:105A3000881F991F5A95A9F780959095BC01CD01B3
:105A400008952F923F924F925F926F927F928F9222
:105A50009F92AF92BF92CF92DF92EF92FF920F93FD
:105A60001F93CF93DF93CDB7DEB7CA1BDB0B0FB607
:105A7000F894DEBF0FBECDBF09942A8839884888C4
:105A80005F846E847D848C849B84AA84B984C8845A
:105A9000DF80EE80FD800C811B81AA81B981CE0F51
:105AA000D11D0FB6F894DEBF0FBECDBFED01089536
:105AB000991B79E004C0991F961708F0961B881F60
:105AC0007A95C9F780950895A1E21A2EAA1BBB1BEF
:105AD000FD010DC0AA1FBB1FEE1FFF1FA217B307BA
