:100000000C941C060C9454060C9454060C94AC2AC4
:100010000C9454060C9454060C9454060C945406F8
:100020000C9454060C9454060C94CC1A0C94881A14
:100030000C94A7240C9454060C9454060C94540667
:100040000C9454060C9454060C9454060C945406C8
:100050000C9454060C94A51B0C9454060C94540652
:100060000C9454060C9454060C9454060C945406A8
:100070000C9454060C9454060C9454060C94540698
:100080000C9454060C9454060C9454060C94540688
:100090000C9454060C9454060C9454060C94540678
:1000A0000C9454060C9454060C94540629001E001B
:1000B0001F002000210022002B0014001A0008005D
:1000C00015001700E10004211624072209280A0060
:1000D000E0001D001B000600190005000000E20002
:1000E000E300777C2C0064522D00270026002500B9
:1000F000240023002E00130012000C0018001C0026
:100100002A0033310F240E320D380B00E500380081
:1001100037003600100011000000E600E700787C90
:10012000280000003A003B003C003D003E003F003C
:1001300001001E001F0020002100220001003000ED
:10014000300234003402220201002F001F04200478
:100150003100310200000100010001000100010036
:1001600045004400430042004100400001002700D8
:1001700026002500240023004C002D002604250421
:100180003502350001002D02260625062E02240226
:1001900000000100010001000100615200000000A8
:1001A00000000000000000000000000000005202FB
:1001B0000000000001003008500651024F06000008
:1001C000010000000000000000000000000001002D
:1001D000010001000100010000000000000000001B
:1001E00000000000010000004D0052004A004B00DA
:1001F000010000004F00510050004E0001000000BF
:100200004F0150010000000000000100010001004A
:100210000100625200000000000000000000000029
:10022000000000000000000000000000207823789B
:10023000257827780000BD00217824782678287852
:100240000000BE00000001000100010001000000EC
:10025000000000000000000000000000000000009E
:10026000AA00A800A900000000000000AB00AE003A
:10027000AC000000000000000000000000000000D2
:1002800000000100010001000100635201000100B3
:100290000100010001000100010001000100010056
:1002A0000100010001000400160007000900010020
:1002B0000100010001000100010001000000010037
:1002C0002C000100E300010000000000000000001D
:1002D00000000000000000000000520000000000CC
:1002E000000000004F00510050000000000000001E
:1002F00000000000000000000000010001000000FC
:100300000100000000DA0281FFD9F1DB20A4A62E53
:10031000AF00A0C0D30000A1C8D30000AED580A814
:100320001F408D142000556E6B6E6F776E00476115
:100330006D650041646A757374005261697365008C
:100340004C6F7765720044656661756C74004C6132
:100350007965723A200000000000000000000000F3
:10036000000000000000000000000000000000008D
:10037000000000000000000000000000000000007D
:10038000000000000000000000000000000000006D
:10039000000000000000000000000000000000005D
:1003A000000000000000000000000000000000004D
:1003B000000000000000000000000000000000003D
:1003C000000000000000000000000000000000002D
:1003D00000000000000000041EFEFEFEFEFEFEFE09
:1003E000FEFEFEFC3C0C0C3CFCFEFEFEFEFEFEFE99
:1003F000FEFEFE1E0600F8F00000010303030303E7
:10040000030381C0C0C0C0C0C0C183830303030312
:1004100003010000E0F8033FFFFCF8F8F8F8FCFEE9
:10042000FF8783C1E1E0E0E0E0C18387FFFEFEFCDF
:10043000F8F8FCFE3F0700000003070F1F3F7FFF97
:10044000FFFFFFFFFFFFFFFFFFFFFFFFFFFF7F3FFC
:100450001F07030000000000000000000000000073
:1004600001030307070F0F0F0F0707030100000029
:10047000000000000000000000000000000000007C
:10048000000000000000000000000000000000006C
:10049000000000000000000000000000000000005C
:1004A000000000000000000000000000000000004C
:1004B000000000000000000000000000000000003C
:1004C000000000000000000000000000000000002C
:1004D000000000000000000000000000000000001C
:1004E000000000000000000000000000000000000C
:1004F0000000000000004D61676F00000101010174
:1005000001010101010202020202020202020303CE
:10051000030303030303040404040404040505059E
:100520000505060606060607070707070808080860
:10053000090909090A0A0A0B0B0B0C0C0C0D0D0D0D
:100540000E0E0E0F0F0F10101111111212131314A3
:1005500014151516161717181819191A1A1B1B1C1B
:100560001D1D1E1E1F202021222223242425262675
:10057000272829292A2B2C2D2D2E2F3031323233AA
:100580003435363738393A3B3C3D3E3F40414243B3
:100590004445464748494A4C4D4E4F505153545597
:1005A0005658595A5B5D5E5F616264656668696B47
:1005B0006C6D6F7072737577787A7B7D7E808283C5
:1005C0008587888A8C8E8F91939596989A9C9EA009
:1005D000A2A3A5A7A9ABADAFB1B3B5B7BABCBEC016
:1005E000C2C4C6C9CBCDCFD1D4D6D8DBDDDFE2E4DF
:1005F000E7E9EBEEF0F3F5F8FAFDFF00AF00AE052A
:10060000010980A101850319012AB700150126B748
:1006100000950175108100C0050C0901A101850438
:1006200019012AA002150126A0029501751081006A
:10063000C005010906A101050719E029E7150025F4
:100640000195087501810295017508810105071959
:100650000029FF150026FF00950675088100050892
:1006600019012905950575019102950175039101FF
:10067000C009023B00020100A0FA090400000103C6
:100680000101000921110100012240000705810339
:100690000800010904010001030000000921110103
:1006A000000122320007058203200001120100022E
:1006B00000000008D8042EEB00010102000116031F
:1006C0004C0069006C0079003500380020005200B1
:1006D0003200470000001C034D0065006300680005
:1006E00062006F006100720064007300200055001A
:1006F0004B000000040309040000000000003E5B02
:100700004F5B3E003E6B4F6B3E001C3E7C3E1C0030
:10071000183C7E3C18001C577D571C001C5E7F5EF9
:100720001C0000183C180000FFE7C3E7FF0000189A
:1007300024180000FFE7DBE7FF0030483A060E0010
:10074000262979292600407F05050700407F0525D9
:100750003F005A3CE73C5A007F3E1C1C0800081C26
:100760001C3E7F0014227F2214005F5F005F5F0049
:1007700006097F017F00006689956A0060606060FD
:10078000600094A2FFA2940008047E0408001020D8
:100790007E20100008082A1C0800081C2A080800EF
:1007A0001E10101010000C1E0C1E0C0030383E38AD
:1007B0003000060E3E0E06000000000000000000A3
:1007C0005F000000000700070000147F147F140082
:1007D000242A7F2A12002313086462003649562017
:1007E0005000000807030000001C224100000041E7
:1007F000221C00002A1C7F1C2A0008083E08080052
:1008000000807030000008080808080000006060E0
:1008100000002010080402003E5149453E000042FD
:100820007F4000007249494946002141494D33004B
:100830001814127F10002745454539003C4A4949A4
:10084000310041211109070036494949360046491E
:1008500049291E0000001400000000403400000080
:10086000000814224100141414141400004122142E
:1008700008000201590906003E415D594E007C12F4
:1008800011127C007F49494936003E414141220016
:100890007F4141413E007F49494941007F090909A3
:1008A00001003E41415173007F0808087F0000416C
:1008B0007F4100002040413F01007F081422410099
:1008C0007F40404040007F021C027F007F040810F0
:1008D0007F003E4141413E007F09090906003E413B
:1008E00051215E007F0919294600264949493200F5
:1008F00003017F0103003F4040403F001F20402094
:100900001F003F4038403F00631408146300030495
:10091000780403006159494D4300007F4141410083
:10092000020408102000004141417F00040201023E
:1009300004004040404040000003070800002054ED
:10094000547840007F284444380038444444280008
:10095000384444287F0038545454180000087E0955
:1009600002001824241C78007F0804047800004446
:100970007D4000002040403D00007F1028440000E2
:1009800000417F4000007C04780478007C08040467
:1009900078003844444438007C1824241800182473
:1009A00024187C007C080404080048545454240093
:1009B00004043F4424003C4040207C001C20402094
:1009C0001C003C4030403C004428102844004C901F
:1009D00090907C004464544C440000083641000070
:1009E0000000770000000041360800000201020408
:1009F00002003C2623263C0000000000008080808E
:100A000080000000000080E070180C1830E08000CA
:100A10000010F8901030783010B8FC38100000004A
:100A2000000000F8FCF800000000000000000000DA
:100A30000000001C9C1C00000000F8FCF8000000F6
:100A40000000001CFCF8C000000000000080E0F87E
:100A50007C1C000000F0FCFCFC1C1C1C1C1C1C1C56
:100A60001C000000000000C0F0F8381C1C1C1C1CFE
:100A70001C3CF8F0E000E0F0F0F0E0ECEEF7F37092
:100A800020007C7C7C7E007E7E7E7F7F7F000080DD
:100A9000C0E07E5B4F5BFEC00000C000DCD7DEDE46
:100AA000DED7DC00C00000000000000000000000F5
:100AB000000000000000000000000000000FBCE08B
:100AC000818181838382870C183060C000001FFE03
:100AD00090B9FFBB91983C1811133F110000000022
:100AE000000000FFFFFF0000000000000000000009
:100AF000000000FFFFFF00000000FFFFFF000000FC
:100B00000000000000030F7FF8E080F0FC3F0F01C1
:100B100000000000003F3F3F1C1C1C1C1C3C78F8E0
:100B2000F0E08000000000C3E7FF7E3C387878707A
:100B300070F8FFDF87000F1F3F7F7F7F7F7F3F1EA3
:100B40000C001F1F1F3F003F3F3F7F7F7F00307B18
:100B50007F7830202030787F3B0003000F7F0F0F1D
:100B60000F7F0F00030000000000000000000000E5
:100B70000000000000000000183C24666341C181B1
:100B800080808080808081C14162386C4CC68181C8
:100B9000808080808081C14362361C180000000084
:100BA000000000FFFFFFC0C0C0C0C0C0C0C0C08008
:100BB0000000007FFF7F000000007FFFFFC080007B
:100BC0000000E0E0C0C0C0E0F97F1F0700000000A7
:100BD000000000000070F0E0E0C0C0C0C0E0F0F82D
:100BE0007F3F0F0000000F3F7FF9E0E0C0C0C0C0B2
:100BF000C0E0F97F3F1F000000000000000000007F
:100C000000000000000000000000000000000000E4
:100C100000000000000000000000000000000000D4
:100C200000000000000000000000000000000000C4
:100C3000000000000000000011241FBECFEFDAE02A
:100C4000DEBFCDBF04B603FE18C08091950790911A
:100C50009607A0919707B09198078730904BA740CF
:100C6000B04B59F41092950710929607109297077F
:100C700010929807E0E0F8E3099512E0A0E0B1E0F7
:100C8000ECE2FAE502C005900D92A03FB107D9F75A
:100C900027E0A0EFB2E001C01D92A539B207E1F74D
:100CA0000E94CE240C94D72C0C94000090918205C5
:100CB000937061F081110BC0946090938205109243
:100CC0003F018091810581608093810508958B307B
:100CD00010F09862F2CF880F880F982BEECF482F34
:100CE000209150059091170557E0291302C080E02C
:100CF000089530E0529FF001539FF00D1124E85EFB
:100D0000FA4F8181681306C08081481303C0858132
:100D10008111EECF2F5F3F4F2770E7CFFC01AC0171
:100D20004B5F5F4F8FEF91E32191822728E030E006
:100D300087FF09C0880F892721503109C9F7E417B7
:100D4000F50791F70895880FF7CF9091820593707A
:100D500071F08093830560938405493708F048E774
:100D60004093850580918105816080938105089578
:100D7000E8EDF0E080818E7F80831092E200109297
:100D8000DA001092E100A0EEB0E08C9181608C93CB
:100D900080818F77808319BCA7EDB0E08C918E7F26
:100DA0008C9380818F7E80831092FF040895209120
:100DB000E4003091E50095E6A9012091EC00822F36
:100DC000817020FF06C08091E80080FF06C080E0AF
:100DD00008952091E80022FD1AC080910D05882316
:100DE00089F0853089F08091EB0085FD0FC020915E
:100DF000E4003091E50042175307F9F29150E1F613
:100E000084E0089582E0089583E0089581E00895E4
:100E100080910F0587FF13C08091E80082FF06C014
:100E20008091E8008B778093E80004C080910D05E5
:100E30008111F2CF089580910D058823D9F3809117
:100E4000E80080FFF8CF8091E8008E77ECCF982FF4
:100E50009093E900242F762F50E0891731F070919C
:100E6000EC002091ED005091F00021FD07C09F5F44
:100E7000973071F78093E90081E008953091EB009D
:100E80003E7F3093EB003091ED003D7F3093ED00DD
:100E90003091EB0031603093EB007093EC002093C5
:100EA000ED005093F0002091EE0027FDE0CF80E0B0
:100EB0000895B0E0A0E0EFE5F7E00C94E62BC8ED74
:100EC000D0E088818F7E8883E7EDF0E080818160CB
:100ED000808384E082BF81E08093FF0488818E7FDD
:100EE000888302EE10E0F80110821092DA0081EEA1
:100EF000C82ED12CF601108288818F778883888153
:100F00008068888388818F7D888319BC10920D0545
:100F100010920E0510920C0510920B0590EEE92E22
:100F2000F12CF70180818B7F8083888181608883A9
:100F300042E060E080E00E942707F60180818E7F1A
:100F40008083F801808181608083808188608083D4
:100F5000F70180818E7F8083888180618883CDB70F
:100F6000DEB7E8E00C94022CFC018091150590910D
:100F7000160586179707A0F06115710529F4909161
:100F8000E8009E779093E80090E06115710551F4B8
:100F9000911108C08091E80082FF34C080E008957C
:100FA000BC01F2CF80910D058823C1F18530C1F1DC
:100FB0008091E80083FD30C08091E80082FDEACF97
:100FC0008091E80080FFE1CF8091F3002091F20052
:100FD000382F6115710519F02830310558F091E06E
:100FE0002830310509F090E02091E8002E77209319
:100FF000E800CBCF81918093F100615071092F5FA0
:101000003F4FE7CF80910D05882341F0853041F0B7
:101010008091E80083FFBECF81E0089582E00895CB
:1010200083E0089508958091020508952FB7F894FC
:101030006091FB047091FC048091FD049091FE048A
:101040002FBF0895A3E0B0E0E8E2F8E00C94EC2BA9
:101050002091F8043091F90428173907A1F09093F2
:10106000F9048093F804E091F604F091F7043097C6
:1010700051F024E029839B838A830680F781E02D49
:10108000CE01019609952396E2E00C94082CA3E08A
:10109000B0E0EDE4F8E00C94EC2B2091F4043091F6
:1010A000F50428173907A1F09093F5048093F40410
:1010B000E091F604F091F704309751F023E0298392
:1010C0009B838A830680F781E02DCE0101960995E6
:1010D0002396E2E00C94082CCF93DF9320919307A2
:1010E000309194072D583540A901460F571F4130C4
:1010F000524020F060E072E0621B730B40918B0560
:1011000050918C05FC01C901620F731FC1E0D0E052
:101110008617970738F050938C0540938B05DF9125
:10112000CF9108952491DC01A357BA4F3C91321717
:1011300081F02C939C01A5E036952795AA95E1F7BF
:10114000DE0102C0AA0FBB1F2A95E2F79D014A2BC0
:10115000532B01963196DCCFFA01811101C0FB01BE
:1011600009950895E2E8F5E0248130E1231B08F4B5
:1011700020E024838091810581608093810508951A
:10118000E2E8F5E0248130E1230F08F42FEF248317
:10119000809181058160809381050895E2E8F5E002
:1011A000438120E1421B08F440E08181628190E0AC
:1011B0000E94A5060895E2E8F5E0438120E1420F90
:1011C00008F44FEF8181628190E00E94A5060895A6
:1011D000E2E8F5E0628120E1621B08F460E08181D1
:1011E000438190E00E94A5060895E2E8F5E062815F
:1011F00020E1620F08F46FEF8181438190E00E944B
:10120000A5060895E2E8F5E0818143816281885076
:10121000990B0E94A5060895E2E8F5E0818190E02F
:101220004381628108960E94A506089580918205F7
:1012300086958695815009F48AE00E9456060895A5
:1012400080918205869586958F5F8B3008F081E0CE
:101250000E945606089580933A018091820583701A
:10126000809339010E94161383E080933F01089513
:1012700022E8241B08F420E0620F08954095282FEF
:10128000429F412D1124842F0895E42FF0E0EE0FAA
:10129000FF1FEF5EFD4F9081921B97FD9195292FC7
:1012A00038E1239F212D1124620F0895322F50E041
:1012B000FA01EE0FFF1FEB52FE4F95AD905297FDD6
:1012C0009195440F551FFA01EF5EFD4F2081231BBE
:1012D000330B290F311D97FD3A95620F08950E9437
:1012E000A4130895FF920F931F93CF93DF93182FAA
:1012F000062FF42ED0E0C0E02F2D402F612FCE011D
:101300000E946F092196CA34D105B1F7CDB7DEB777
:10131000E5E00C94052C0F931F93522F10E0F80179
:10132000EE0FFF1FEB52FE4FA5ADA052BB0B9D0170
:101330005203F001539FF00D1124000F111FD8012B
:10134000AF5EBD4F0C910057110B40039001419FC0
:10135000300D11242E0F3F1F37FF02C0215C3F4F7D
:1013600096E0359527959A95E1F7620F1F910F91B9
:101370000895E82F86FDE0952E2F2F7086FD2F5FB4
:10138000E695E695E695E670F0E0E353FE4F918131
:10139000929F902D212D112492959F702295207F50
:1013A000922B2081920F87FD919580E8890F0895F7
:1013B00030E020E0869F212D969F200D311D1124C5
:1013C000C9010895AF92BF92CF92DF92FF920F931F
:1013D0001F93CF93DF93362F472FE82FF0E0E55090
:1013E000FB4F71110FC0E4918E2F2E2F6E2F722F95
:1013F000DF91CF911F910F91FF90DF90CF90BF9021
:10140000AF900895C72FD0E02491F22E022F10E064
:1014100056E0659FC0011124EFEFF0E0BF010E948C
:10142000C82B832F90E0880F991F35E5369FD00198
:10143000379FB00D11248A1B9B0B982F990F980F83
:101440006F01CC1ADD0AC09ED001C19EB00DD09EA6
:10145000B00D11248B2F499FA0011124452F552732
:101460006F01C41AD50AC09EA001C19E500DD09E26
:10147000500D11245F01A91AB108AC9E6001AD9E08
:10148000D00CBC9ED00C1124CD2CDD24EC19FD0910
:10149000E09FE001E19FD00DF09FD00D1124ED2FD2
:1014A00062307105A1F050F46115710509F49ECF09
:1014B0006130710581F0EB2F852F98CF6430710575
:1014C00069F080F06630710509F490CFF4CFE22F17
:1014D0002B2F8D2F8BCFE22F252F88CFEB2F822F15
:1014E0002D2F84CF2B2F8F2DE52F80CF80E00895D7
:1014F000F894E82FE295EF70F0E031A1282F2F70DB
:1015000081E090E001C0880F2A95EAF7982F909526
:10151000932391A392A1892B82A37894089590910B
:10152000700392FF06C0282F28712830F9F4877FB6
:10153000846093FF06C0282F28712831F1F4877E3C
:1015400084612091710320FF06C0382F3871383034
:10155000D9F4877F816021FF06C0282F28712831A8
:10156000D1F4877E816194FD877E0895282F2471B0
:101570002430F9F68B7F8860DCCF282F247124314A
:1015800001F78B7E8861DDCF382F3171313019F74B
:101590008E7F8860E0CF282F2171213121F78E7E48
:1015A0008861E1CF82389105B9F1B0F481339105BA
:1015B00009F47DC048F48932910509F46DC08A327E
:1015C000910509F47BC008958533910509F45FC046
:1015D0008933910509F10895833E9105D9F138F4D5
:1015E000803E910529F1823E910579F10895863E6C
:1015F0009105D9F1873E910509F43EC0843E9105DD
:1016000041F52091710321FF24C08091700384FD76
:1016100019C087EE90E0089520917003237009F0BF
:101620005AC02091710323FF14C089E290E008950D
:101630002091700320FD38C03091710330FF09C044
:1016400024FF43C090E080E008952091700322FDC4
:10165000F7CF08952091700322FD3AC030917103B5
:1016600030FD39C024FFF5CFEDCF2091700323FF6B
:10167000F0CF24FDE7CFCDCF2091700323FD2EC006
:101680003091710331FFEECF84EE90E00895209108
:10169000700325FFDECFC9CF2091700325FD21C047
:1016A0002091710323FFD5CF89E390E0D2CF209121
:1016B000700326FFCECF8AE290E008952091700358
:1016C00026FFC7CF81E390E0089583EE90E0089570
:1016D00082EE90E0089580EE90E0089586EE90E02E
:1016E000089585E390E00895972F7A30B8F4663036
:1016F000A8F48530B0F470E026E0929F600D711D73
:101700001124FB019CE3899FE00DF11D1124EE0FD4
:10171000FF1FE455FF4F85919491089580E090E07C
:10172000089581E0FCCF1F93CF93DF930E94D20AEC
:10173000EC01C11580E5D807F0F5C11580E4D807A4
:1017400008F09CC0C03ED10520F5CD3CD10508F085
:1017500082C0C83AD10578F4C53AD10508F073C003
:10176000C130D10519F1209709F1C430D105F0F449
:10177000D0E0C0E01BC0C33CD105D0F7C85AD0E0D0
:10178000CC0FDD1FCE57DE4F0990D881C02DD46419
:101790000DC0C11580E2D80708F0D1C0C11581E0A5
:1017A000D80708F05AC0C83ED10510F7CE01DF9126
:1017B000CF911F910895C03682E5D80718F5C0343F
:1017C00082E5D80708F06BC0C03282E5D80708F080
:1017D0005FC0C11582E5D80708F497C02C2F269565
:1017E000269580E2289F900111248C2F8370C1E000
:1017F000D0E002C0CC0FDD1F8A95E2F7C22BD32BBD
:10180000DD68D4CFC03A82E5D80760F4C03882E5FD
:10181000D80708F459C0CF71D0E0DC2FCC27C46FB3
:10182000D06AC4CFC03C82E5D80708F462C0C03E8D
:1018300082E5D80708F09CCFDC2FCC27CC27DF71BE
:10184000C06FD06AB3CFC55AD0E0C158DE4FC8814F
:10185000D0E0D064ABCFD065A9CF8D2F0E948F0A86
:10186000182FCE0199270E94D20AC12FD0E0DC2F79
:10187000CC27CC27DF71C82BD92B98CFCE01992745
:101880000E94D20ACC27DF70C82BD92BD06A8ECF0A
:10189000CF71D0E0DC2FCC27C16FD06A87CF2C2F3F
:1018A00026952695277080E2289F900111248C2F81
:1018B0008370C1E0D0E002C0CC0FDD1F8A95E2F753
:1018C000C22BD32BDC6872CF2C2F26952695277040
:1018D00080E2289F900111248C2F8370C1E0D0E01A
:1018E00002C0CC0FDD1F8A95E2F7C22BD32BDA683A
:1018F0005DCF8C2F8F710E948F0AC82FD0E0DC2F14
:10190000CC27CC27DF71D06251CF8C2F8F710E94F2
:101910008F0A55E0D695C7955A95E1F7CF70D0E07C
:10192000DC2FCC27282F30E084FF05C044E0220FB5
:10193000331F4A95E1F7C22BD32BD06937CF8D2FB8
:101940008F710E948F0A182FCE0199270E94D20A08
:10195000C12FD0E0DC2FCC27CC27DF71C82BD92BAF
:10196000D2CF809123038111109223030895809593
:10197000909100059823909300050895809150055B
:1019800090911705981301C008958F5F8770FACF63
:10199000CF92DF92FF920F931F93CF93DF936C014F
:1019A0000091B40380912403082BC7E0D0E010E03D
:1019B000FC2EC8010C2E02C0959587950A94E2F77B
:1019C00080FD0CC02197A0F7F12C8F2DDF91CF91D6
:1019D0001F910F91FF90DF90CF900895B6018C2F4B
:1019E0000E94740B0E94930B019761F3EECFCF938B
:1019F000DF93EC010E94C80CBE010E94740B0E9490
:101A0000930BDF91CF910895292F9A3078F5863086
:101A100068F590E036E0239F800D911D1124682F1A
:101A2000677023E0969587952A95E1F7FC01EE0F04
:101A3000FF1FE80FF91FE550FD4F50E040E080E048
:101A4000219130E0062E02C0369527950A94E2F7E0
:101A500021703327042E01C0220F0A94EAF7822B4B
:101A60004F5F5F4F4330510559F7089580E0089567
:101A7000292F9A3098F5863088F590E036E0239F3C
:101A8000800D911D1124282F277041E001C0440FC3
:101A90002A95EAF723E0969587952A95E1F7FC01C8
:101AA000EE0FFF1FE80FF91FE550FD4F30E020E07B
:101AB00070E05191DF011197CB01022E02C0969583
:101AC00087950A94E2F7817081958527842385277D
:101AD0008C932F5F3F4F2330310559F70895809342
:101AE000B40308959091B40321E030E0F90101C0FE
:101AF000EE0F8A95EAF7D90102C0AA0FBB1F6A95BB
:101B0000E2F7EA2B01C0220F4A95EAF7892F8E23CC
:101B1000E81305C0292B822F0E946F0D0895209590
:101B20002923F9CF21E030E001C0220F8A95EAF79E
:101B300020958091B40382230E946F0D08959091A7
:101B40001A038095892380931A03282F277069F43C
:101B5000891759F09091710392FF07C08695869579
:101B600086950E94920D10921A03089521E030E0AC
:101B700001C0220F8A95EAF78091B403822B0E945C
:101B80006F0D0895809324030895FC01248122237E
:101B9000C1F0808191810E94F70C92959F709630E0
:101BA00091F058F4925F9F70923058F4803F19F092
:101BB00030F4883E30F481E008959A5FF4CF843F9A
:101BC000D1F380E00895883EB0F3813FD1F7F3CFA1
:101BD000982F92959F7011F0892F94E0282F2695C9
:101BE000269511F09E5F822F869509F09F5F892FC1
:101BF0000895A6E0B0E0EFEFFDE00C94EB2B4983F5
:101C00005A8349815A819923A1F0222391F0CA0174
:101C10000E94C80C182F682F89819A810E94380D64
:101C200069817A81812F0E94740B2696E3E00C94DF
:101C3000072CCA010E94040D182FF2CFCF93DF9317
:101C4000682F81E06A3019F06D3031F480E00E9435
:101C5000AC0EDF91CF9108958091930790919407F6
:101C600026E0FC01ADE8B7E001900D922A95E1F77E
:101C7000603E08F458C026E0FC0111922A95E9F76D
:101C8000C0919307D091940746E050E0BE018DE8E3
:101C900097E00E946F2C9E012D583540892B41F111
:101CA000C90145E0969587954A95E1F741E050E0F6
:101CB000BA0102C0660F771F8A95E2F7CB016091E7
:101CC0008B0570918C05862B972BB9016B5F7F4F2D
:101CD000E5E076956795EA95E1F702C0440F551F58
:101CE0006A95E2F7842B952B90938C0580938B0556
:101CF0002A5F3F4F40918A05642F70E0C9010E941E
:101D0000C82B481B463010F4240F311D211572E0FA
:101D1000370710F030E020E023573A4F3093940714
:101D20002093930796CFF6E06F9FB001112468507F
:101D3000794F46E050E00E94662CA2CFCF93DF930C
:101D4000EC01FE018491811103C0DF91CF910895D0
:101D50000E941E0E2196F5CFCF93382FE091930766
:101D6000F0919407ED58F54020918A05622F70E0BC
:101D7000CF010E94C82B281B822F332361F066E01D
:101D80000E94132CC82FC15010F4CF91089580E207
:101D90000E941E0EF8CF9F01280F311D21153240E1
:101DA00018F080E0F0E0E0E08E0F9F2F911D835748
:101DB0009A4F9093940780939307E7CF0E949E0ECB
:101DC00081E00E94AC0E0895809100059091F2048C
:101DD000892B8093F20290912303992391F0892B10
:101DE0008093F20220E084EF92E0FC013191CF0178
:101DF00031112F5FF2E08A3F9F07B9F721110E944E
:101E0000B10C48E050E06BE173E082EF92E00E9499
:101E10006F2C892BA9F088E0E2EFF2E0ABE1B3E0B0
:101E200001900D928A95E1F7E091F604F091F704A4
:101E3000309731F00280F381E02D82EF92E0099536
:101E400008958091F304882349F08091F2048D7DF8
:101E50008093F2040E94E40E1092F3040895E4EFDC
:101E6000F2E086E0DF011D928A95E9F790E080E0DC
:101E70000E94470890E080E00E9422081092F2043D
:101E80000E94E40E0895AAE2B0E0E9E4FFE00C94B9
:101E9000EB2B8FE095E02091F100FC012193CF0125
:101EA000F5E087319F07B9F780911005833009F479
:101EB00070C0B8F4813009F447C0823009F4B3C06F
:101EC0008091E80083FF80C280910F0590911005FA
:101ED0009A3008F079C2E92FF0E0E752F34D0C9404
:101EE000602C8A3009F48EC08B3009F46FC08930C1
:101EF00039F780910F05813219F780911305909180
:101F000014050297E8F68091E800877F8093E80047
:101F10008091E80082FF38C09091F3008091F20038
:101F2000029731F48091F100813011F0863021F474
:101F30008091F100809302058091E8008B77809377
:101F4000E8000E940807BCCF80910F05813A09F094
:101F5000B7CF8091E800877F8093E80080911305D8
:101F600090911405892B61F468E083E095E070E0BE
:101F70000E94B4078091E8008B778093E800A0CF9F
:101F800060E090E080E0F3CF80910D058111C0CF3B
:101F900097CF80910F05813A09F092CF8091130578
:101FA00090911405892B09F08BCF8091E800877FF1
:101FB0008093E8008091E80080FFFCCF80913B0196
:101FC0008093F1008091E8008E77B9CF80910F0562
:101FD000813209F075CF8091130590911405892BFA
:101FE00009F06ECF8091E800877F8093E8000E941F
:101FF00008078091110580933B01109200050E9413
:102000002F0F5ECF80910F05813209F059CF80915B
:10201000E800877F8093E8000E94080780911205FE
:10202000809301054DCF80910F05813A09F048CF8B
:102030008091E800877F8093E8008091E80080FF2E
:10204000FCCF80910105BCCF803899F0823809F02F
:10205000BBC1809113058F70873008F0B5C18093A4
:10206000E9008091EB0085FB882780F91092E90058
:1020700006C080910B0590910C05911182609091A2
:10208000E800977F9093E8008093F1001092F100B0
:102090008091E8008E7794C1882309F482C1823050
:1020A00009F092C180911105811185C180911305BC
:1020B0008F702FEF280F263008F086C18093E9003B
:1020C0002091EB0020FF77C1933031F48091EB0039
:1020D00080628093EB006FC19091EB0090619093D0
:1020E000EB0021E030E001C0220F8A95EAF720934F
:1020F000EA001092EA008091EB008860EACF81113B
:1021000063C1109111051F778091E3008078812BC6
:102110008093E3008091E800877F8093E8000E942D
:1021200008078091E80080FFFCCF8091E300806881
:102130008093E30082E0111183E080930D0544C198
:102140008058823008F040C18091110590911205AD
:102150008C3D23E09207A1F583E08A838AE289839C
:102160004FB7F894DE01139620E03EE051E2E32FF2
:10217000F0E050935700E49120FF03C0E295EF7028
:102180003F5FEF708E2F90E0EA30C0F0C7968D93DE
:102190009D932F5F243159F74FBF8091E800877FCF
:1021A0008093E8006AE270E0CE0101960E94B407D5
:1021B0008091E8008B778093E80006C1C096E7CF56
:1021C0004091130550911405292F332723303105F1
:1021D00009F444C078F52130310509F46FC08BE370
:1021E00090E0E1E7F6E02230310509F0EDC0209102
:1021F000E800277F2093E80020911505309116050F
:102200008217930708F49C0140E02115310509F07D
:1022100064C0411162C08091E80082FDC9CF809105
:102220000D05882329F2853019F28091E80083FF9B
:10223000F2CFBECF21323105A9F12232310509F0AA
:10224000C3C04115510509F443C04130510509F09F
:10225000BBC082E390E0EFEFF5E0C9CF9927813072
:102260009105C1F0009759F0029709F0ADC0EEEB6F
:10227000F6E0E4918E2F90E0EEEBF6E007C0E4EF9D
:10228000F6E0E4918E2F90E0E4EFF6E0009709F499
:102290009BC0ADCFE6EDF6E0E4918E2F90E0E6ED49
:1022A000F6E0F4CF4115510571F04130510509F0C8
:1022B0008BC089E090E0ECE9F6E099CF82E190E014
:1022C000ECEAF6E094CF89E090E0E3E8F6E08FCF27
:1022D00080E490E0E1E3F6E08ACF80910D05882369
:1022E00009F466CF853009F463CF8091E80083FD5F
:1022F0005FCF8091E80082FD8ECF8091E80080FF63
:1023000084CF9091F3008091F2002115310519F0EE
:102310008830910550F041E0089709F040E0809145
:10232000E8008E778093E80070CF44914093F100ED
:102330003196215031090196E8CF803809F044C028
:102340008091E800877F8093E80080910E0580935C
:10235000F1009ECE811138C0109111051230A0F508
:102360008091E800877F8093E80010930E050E941B
:102370000807112311F084E005C08091E30087FD78
:10238000FACF81E080930D0542E061EC81E00E948C
:10239000270742E261EC82E00E94270780910D0549
:1023A00013C080911105813079F481E0933009F0F8
:1023B00080E080930C051092E9008091E800877F0F
:1023C0008093E8000E9408078091E80083FF0AC01C
:1023D0008091E800877F8093E8008091EB00806225
:1023E0008093EB00AA96E3E00C94072C882321F05D
:1023F0000E94B70C0E94E40E0895882339F0909152
:102400000005982B909300050E94E40E0895882300
:1024100091F19CEF980F913A80F4E4EFF2E02AEF0B
:1024200032E09191891303C0DF0111971C922E179E
:102430003F07B9F70E94E40E089590E2980F983094
:1024400050F4877091E001C0990F8A95EAF7892FBF
:102450000E94B70CEFCF9BE5980F933028F490E0E3
:1024600080E00E9447080895885A8B3120F490E05C
:1024700080E00E94220808950F931F93CF93C82FE6
:10248000882349F18CEF8C0F813AB8F504EF12E004
:102490008AEF92E0F8012191C21709F122E0EA3FA8
:1024A000F207C9F7EFEF80E0D8019D918D01C917C0
:1024B00081F0EF3F19F4911101C0E82F8F5F863052
:1024C00099F7EF3F31F00E2E000CFF0BEE50FD4F51
:1024D000C2830E94E40ECF911F910F910895E4EF03
:1024E000F2E02191C21303C0DF0111971C928E17F5
:1024F0009F07B9F70E94E40ED5CF80E28C0F883099
:1025000068F4C77021E030E001C0220FCA95EAF7F5
:1025100080910005822B80930005DBCFEBE5EC0F6B
:10252000E33040F4F0E0E158FE4F808190E00E94FB
:102530004708D1CFC85ACB3170F6EC2FF0E0EE0F40
:10254000FF1FEE57FE4F808191810E942208C3CF6A
:102550000F931F93CF93DF93EC01FC0101900020B8
:10256000E9F78F0101501109C017D10728F0DF9159
:10257000CF911F910F91089589910E941E0EF4CF63
:102580000F931F93CF93DF938B01EA0190910D0579
:10259000943061F58093E9008FEF9091E8008150CD
:1025A00095FD06C095ED9A95F1F700008111F5CFE4
:1025B0008091E80085FF1AC00E94D706811111C0E2
:1025C0008091E80085FD06C08091E8008E778093B9
:1025D000E800F2CFF80181918F018093F1002197FB
:1025E00079F78091E8008E778093E800DF91CF91B2
:1025F0001F910F91089543E050E0BC0182E00E94DA
:10260000C0120895CF93DF93EC0148E050E0BC0185
:1026100081E00E94C01288E0FE01A3E0B5E00190D5
:102620000D928A95E1F7DF91CF910895539A3BB1CE
:10263000377F2BB128604FB7F8948CE094E0FC0111
:102640005191CF0168E02BB9000000C057FF3BB9A2
:10265000550F000000C000C000C03BB900C06A9523
:1026600091F7F4E08A3E9F0751F74FBF8FE594E062
:102670000197F1F700C000000895B0E0A0E0E3E4A6
:10268000F3E10C94E42B7C015B016A0180915F0310
:1026900001E010E08A3010F40AE010E0C1E0D0E080
:1026A000B501C701F6010995811104C021960C17E7
:1026B0001D072CF4CDB7DEB7EAE00C94002CCC9FBC
:1026C0009001CD9F300D300D112490E080E045E366
:1026D0004A95F1F70000019682179307C1F7E0CF02
:1026E00080913103811110C08091D8008061809366
:1026F000D8008AE18A95F1F700C08091D90080FF67
:102700000AC081E08093310381E0909131039130E0
:1027100009F080E0089582E0809331030E94B806BA
:1027200010920D05F1CF0E947013882359F0E091AB
:10273000F604F091F704309729F00190F081E02D34
:102740000995089580E00895FF920F931F93CF930A
:10275000DF93EC01F62E042F122F0E9470138111CB
:102760000FC0C532D1057CF0A597FE01EE0FFF1F0B
:10277000EC0FFD1FE45FFB4FF1820083128303C067
:10278000C532D10594F3CDB7DEB7E5E00C94052C46
:10279000CF93C82F0E947013882329F081E0C5329F
:1027A00028F080E003C081E0CA34D8F7CF910895C3
:1027B000B0E0A0E0EEEDF3E10C94E62B7C01C091DB
:1027C0003C018FE0C89FC02D11241FE01C0F1B345B
:1027D00008F01AE40E947013882319F0163208F0EA
:1027E00015E20E947013811103C0C53208F4C5E2DE
:1027F0002091860531E0230F08F42FEF30E050E000
:1028000040E06FEF7FEF80E090E00E94412C690193
:10281000D0E001E02C2FC11740F0812F0E94C81397
:10282000CDB7DEB7E8E00C94022CFE01EB55FD4F6E
:10283000808190913D01892309F1409155054150D6
:10284000042E000C550B47FF1BC0C6016091860586
:10285000600F08F46FEF0E94D809AC016091830506
:102860007091840580918505F70109950E94E20920
:10287000462F282F672FCE010E946F092196CACFBD
:10288000FA01EB5AFA4F818982130AC0FA01EE0F5E
:10289000FF1FEB5AFA4F818D928D8C159D05B0F27A
:1028A00041505109D0CFEF92FF920F931F93CF93D6
:1028B000DF937C01C0913C018FE0C89FC02D1124A3
:1028C0001FE01C0F1B3408F01AE40E9470138823C9
:1028D00019F0163208F015E20E947013811103C03E
:1028E000C53208F4C5E2609186056695669521E0DB
:1028F000620F08F46FEF80915105909152050E948C
:10290000D809082FD0E0C11740F0812F0E94C813CA
:10291000CDB7DEB7E6E00C94042CFE01EB55FD4F7D
:10292000808190913D01892391F0609183057091A0
:10293000840580918505202F4C2FF70109950E9471
:10294000E209462F282F672FCE010E946F0921969A
:10295000DACFB0E0A0E0EFEAF4E10C94E42B182F1A
:1029600080913A01811323C0909182059370209148
:10297000390130E081E09217130609F480E081709C
:1029800080933E018091870590913D01981739F021
:1029900080933D0140E060E080E00E9472091B30BE
:1029A00088F4E12FF0E0ED51F34D0C94602C81E0C0
:1029B000E6CF80913E01882389F140E060E080E02D
:1029C0000E94720980E02AC0C0913C018FE0C89F3C
:1029D000C02D11240FE00C0F0B3408F00AE40E9404
:1029E0007013882319F0063208F005E20E94701374
:1029F000811103C0C53208F4C5E26091830570916E
:102A00008405809185050E94E209F62EE72ED82ED6
:102A1000D0E0C017D8F0802F0E94C81390913C01DD
:102A20009F5F90933C0181110CC082E080933F0135
:102A300080913E01811105C0111103C083E0809394
:102A40003F01CDB7DEB7EAE00C94002CFE01EB5558
:102A5000FD4F808190913D01892331F02D2D4F2D27
:102A60006E2DCE010E946F092196D3CFC0913C01FB
:102A70008FE0C89FC02D11240FE00C0F0B3408F01D
:102A80000AE40E947013882319F0063208F005E268
:102A90000E947013811103C0C53208F4C5E2E090B2
:102AA0008405F0908505D09183056D2F7E2D8F2DA7
:102AB0000E94E209D62EC72EB82E609186056D0FB2
:102AC0007E2D8F2D0E94E209F62EE72EA82ED0E053
:102AD000C01708F0A0CFFE01EB55FD4F908180910B
:102AE0003D01892359F02A2D4F2D6E2D90FD03C0F5
:102AF0002B2D4D2D6C2DCE010E946F092196E8CF14
:102B0000C0913C018FE0C89FC02D11240FE00C0F35
:102B10000B3408F00AE40E947013882319F006327F
:102B200008F005E20E947013811103C0C53208F459
:102B3000C5E2E0908405D090850520918605B0E43B
:102B4000FB2E3F2D329F312D1124F32ED0E0C017E4
:102B500008F061CFFE01EB55FD4F808190913D0162
:102B60008923B9F0FE01EE0FFF1FEB52FE4F85AD3A
:102B700082958F70609183058F9D600D11247E2D4D
:102B80008D2D0E94E209462F282F672FCE010E942B
:102B90006F092196DCCFC0913C018FE0C89FC02D0A
:102BA00011240FE00C0F0B3408F00AE40E9470139C
:102BB000882319F0063208F005E20E947013811193
:102BC00003C0C53208F4C5E2D0908405E0908505C5
:102BD00020918605F0E4FF2E3F2D329F312D1124E8
:102BE000F32ED0E0C01708F016CFFE01EB55FD4FD5
:102BF000808190913D018923D9F0FE01EE0FFF1FE6
:102C0000EB52FE4F64ADF69EB0011124E5E07595E0
:102C10006795EA95E1F780918305680F7D2D8E2DEC
:102C20000E94E209462F282F672FCE010E946F09CC
:102C30002196D8CFC0913C018FE0C89FC02D1124B0
:102C40000FE00C0F0B3408F00AE40E947013882385
:102C500019F0063208F005E20E947013811103C0DA
:102C6000C53208F4C5E2F0908305D0918405E09068
:102C700085056091860566956695669580915105F6
:102C8000909152050E94D8090E94B909805887FD89
:102C90008195880F282F3E2D239F212D1124822FCF
:102CA0006F2D7D2F0E94E209F62EE72ED82ED0E060
:102CB000C01708F0B0CEFE01EB55FD4F808190911A
:102CC0003D01892331F02D2D4F2D6E2DCE010E9417
:102CD0006F092196EDCF86E599E00E9453149ECEB0
:102CE000C0913C018FE0C89FC02D11245FE0F52EFC
:102CF000FC0E2AE42F1510F44AE4F42E0E947013FF
:102D0000882329F035E23F1510F435E2F32E0E94B6
:102D10007013811103C0C53208F4C5E260918605C5
:102D20006695669580915105909152050E94D8094B
:102D3000D82E80E48D0D0E94B90990E8C92EC80EE6
:102D40008D2D0E94B90920E8B22EB80ED0E0CF1523
:102D500010F08F2D61CEFE01EB55FD4F80819091DB
:102D60003D018923A1F060918305709184058091D4
:102D70008505ED2C0C2F2B2D4C2D0E948B090E94CC
:102D8000E209462F282F672FCE010E946F09219656
:102D9000DECF85E499E0A1CF8EE399E00E94D813BD
:102DA0003DCE88E399E0FACF0F931F930E947013F2
:102DB000882329F00E9416081F910F9108950E9400
:102DC0001608009160031091610320916203309115
:102DD0006303600F711F821F931FEECFCF92DF92AC
:102DE000EF92FF926B017C010E9470138823A1F087
:102DF0002FB7F8946091FB047091FC048091FD045E
:102E00009091FE042FBF6C197D098E099F09FF90D8
:102E1000EF90DF90CF9008950E94D416F4CF1092D7
:102E200000050E942F0F2FEF84E39CE0215080408B
:102E30009040E1F700C0000088E19CE00FB6F894F4
:102E4000A895809360000FBE90936000FFCFB0E024
:102E5000A0E0EDE2F7E10C94E62B6C017B0164E667
:102E600070E088E70E9426298C01E601EC0CFD1C2D
:102E700017FD0BC0FE01849164E670E00E94922968
:102E80008C012196CE15DF0599F70E94082A81E072
:102E90000115110509F080E0CDB7DEB7E8E00C942C
:102EA000022C8091EE049091EF04911103C091E007
:102EB00089270895882369F062E070E08DEF95E03E
:102EC0000E942717811103C08091EE04089510928B
:102ED000EE048091EE04EBCFCF93C091EE0480918D
:102EE000EF048823D1F00E941608605A75418F4F75
:102EF0009F4F6093EA047093EB048093EC049093EB
:102F0000ED04C11108C062E070E08BEF95E00E9413
:102F10002717811105C0C091EE048C2FCF91089521
:102F200081E08093EE04F7CF4F925F926F927F9291
:102F30008F929F92AF92BF92CF92DF92EF92FF92C9
:102F4000CF936091070470910804809109049091D7
:102F50000A040E94EE166B017C010E94D4164B01FC
:102F60005C018092070490920804A0920904B09238
:102F70000A04A091DE03EEEDF3E08A2F90E04FEF1C
:102F80005FEF60E070E04C195D096E097F09A913DD
:102F90002AC08093DE0380910B04C0E0811108C039
:102FA00080918205C82FC37019F0C82FC695C695A9
:102FB00080913F01813009F440C0882339F182308B
:102FC00009F445C0833009F446C0CF91FF90EF90DB
:102FD000DF90CF90BF90AF909F908F907F906F9039
:102FE0005F904F900895218D328D2901712C612CB5
:102FF000441555056605770520F481509F5F32968C
:10300000C6CF2C0D3D1D328F218FF8CF10923C0181
:103010008092510590925205A0925305B0925405AA
:1030200089E2EEEDF3E0A5E5B5E001900D928A9519
:10303000E1F781E080933F01C8CF8C2F0E94A91453
:10304000CC2319F20E9470130E947013BECF8C2FF4
:103050000E942B09BACF80918105882351F048E066
:1030600050E068E170E082E895E00E94A32C1092A5
:1030700081056091510570915205809153059091A1
:1030800054050E94EE16603171058105910508F422
:103090009CCF10923F0199CFE2E8F5E085E0808374
:1030A0008091400190914101A091420181839283DE
:1030B000A3838FE784838FEF858348E050E068E146
:1030C00070E0CF010E94A32C109281050895A4E026
:1030D000B0E0EDE6F8E10C94EB2B409157035091F2
:1030E00058036091590370915A032FB7F894809157
:1030F000FB049091FC04A091FD04B091FE042FBF4D
:10310000841B950BA60BB70B11E084369105A10526
:10311000B10570F10E94D4166E5F7F4F8F4F9F4FA5
:1031200069837A838B839C838091190190911A0122
:10313000815C9C4F4091180150E04530510510F0E2
:1031400044E050E0BE016F5F7F4F0E947C2C83E023
:1031500090E00E94522B182F882351F00E941608ED
:1031600060935703709358038093590390935A03C5
:10317000812F2496E3E00C94072CEF92FF921F938B
:10318000CF93DF9300D000D000D0CDB7DEB77B0166
:1031900090E080E00E94522B182F882309F480C011
:1031A0004091030150E04115510511F041E050E01C
:1031B0006091040170910501615C7C4FCE0106961F
:1031C0000E947C2C40913703509138036091390361
:1031D00070913A032FB7F8948091FB049091FC040E
:1031E000A091FD04B091FE042FBF841B950BA60B8C
:1031F000B70B84369105A105B10540F480E493E056
:103200000E948E069E81891709F44AC081E090E0F1
:103210000E94522B811116C010E085E0E2E3F3E03A
:10322000D70101900D928A95E1F7812F26960FB66E
:10323000F894DEBF0FBECDBFDF91CF911F91FF90FD
:10324000EF90089540910B0150E04630510510F089
:1032500045E050E060910C0170910D01615C7C4F84
:10326000CE0101960E947C2C80E493E00E948E06A1
:103270009E818913D1CF0E94160860933703709303
:1032800038038093390390933A0385E0FE01319629
:10329000A2E3B3E001900D928A95E1F711E0BDCF72
:1032A00085E0E0E4F3E0DE01119601900D928A954D
:1032B000E1F71111EACFB1CF4F925F926F927F92F7
:1032C0008F929F92AF92BF92EF92FF920F931F93B4
:1032D000CF93DF937B01FB0140805180628073803C
:1032E0009FB7F8948090FB049090FC04A090FD049C
:1032F000B090FE049FBF84189508A608B708F4E6AE
:103300008F169104A104B10418F4C1E0442329F1FB
:10331000C82F880FDD0BFE0183E0EE0FFF1F8A959B
:10332000E1F7E050FF4F81819281815C9C4F4081A9
:1033300050E00417150708F4A801B9010E947C2C7D
:10334000CE010E94522BC82F882339F00E94160804
:10335000F70160837183828393838C2FDF91CF91F8
:103360001F910F91FF90EF90BF90AF909F908F9023
:103370007F906F905F904F900895A9E0B0E0E3ECEC
:10338000F9E10C94EA2B88E0E2E8F5E0DE01119621
:1033900001900D928A95E1F780910B04898749E0AD
:1033A00050E06EE473E0CE0101960E946F2C41E084
:1033B000892B09F440E009E010E09E012F5F3F4FA8
:1033C0006BE573E084E00E945C192996E4E00C94BC
:1033D000062C0F931F93CF93DF93EC0145E050E051
:1033E00065E473E00E946F2C41E0892B09F440E012
:1033F00005E010E09E016BE373E082E00E945C193F
:10340000DF91CF911F910F910895A8E0B0E0EBE01C
:10341000FAE10C94EC2B66EE7EEF90E080E00E94E7
:10342000D12C60E082E090E00E94B32C60E083E069
:1034300090E00E94B32C1092240360E074E184E0D9
:1034400090E00E94D12C60E086E090E00E94B32CD6
:103450006FEF87E090E00E94B32C40E050E0BA01AB
:1034600088E090E00E94C52C60E084E290E00E9439
:10347000B32C60E087E190E00E94B32C60E08CE028
:1034800090E00E94B32C60E08DE090E00E94B32CAD
:1034900019821A821B821C821D821E821F8218863C
:1034A00048E050E068E170E0CE0101960E94A32C54
:1034B00040E050E0BA0180E290E00E94C52C40E07C
:1034C00050E0BA018FE090E00E94C52C40E050E04F
:1034D000BA0183E190E00E94C52C2896E2E00C94AA
:1034E000082C9091710392FB222720F9281779F07C
:1034F00080FB92F990937103609170037091710356
:1035000084E090E00E94D12C82E00E949F0D0895FB
:103510001F920F920FB60F9211242F933F934F9348
:103520005F936F937F938F939F93AF93BF93CF934B
:10353000DF93EF93FF93D091E900DF708091EC006F
:10354000C82FC17080FDC0E81092E9008091F000A2
:10355000877F8093F00078940E94430F1092E900D7
:103560008091F00088608093F000CD2BCF70C093E5
:10357000E900FF91EF91DF91CF91BF91AF919F91C2
:103580008F917F916F915F914F913F912F910F900C
:103590000FBE0F901F9018951F920F920FB60F92AB
:1035A00011242F933F934F935F936F937F938F9348
:1035B0009F93AF93BF93EF93FF938091E10082FFBE
:1035C00009C08091E20082FF05C08091E1008B7FFD
:1035D0008093E1008091DA0080FF24C08091D800C0
:1035E00080FF20C08091DA008E7F8093DA00809186
:1035F000D90080FF9DC080E189BD82E189BD09B409
:1036000000FEFDCF81E080930D058091FF048111C4
:1036100009C00E94B8060E9459078091E2008460A8
:103620008093E2008091E10080FF17C08091E2006A
:1036300080FF13C08091E2008E7F8093E200809132
:10364000E20080618093E2008091D80080628093E4
:10365000D80019BC85E080930D058091E10084FFBE
:103660002BC08091E20084FF27C080E189BD82E108
:1036700089BD89B5982F917080FFFBCF8091D800CC
:103680008F7D8093D8008091E1008F7E8093E10050
:103690008091E2008F7E8093E2008091E200816061
:1036A0008093E20080910E05882309F447C084E0EE
:1036B00080930D0580910D058091E10083FF27C067
:1036C0008091E20083FF23C08091E100877F809397
:1036D000E10082E080930D0510920E058091E100DB
:1036E0008E7F8093E1008091E2008E7F8093E200E4
:1036F0008091E20080618093E20042E060E080E03F
:103700000E9427078091F00088608093F000FF916D
:10371000EF91BF91AF919F918F917F916F915F9149
:103720004F913F912F910F900FBE0F901F901895C2
:1037300019BC10920D051092FF0474CF8091E30024
:1037400087FD93E090930D05B5CF78941F921FB637
:103750001F9211248F939F93AF93BF938091FB048B
:103760009091FC04A091FD04B091FE040196A11D6E
:10377000B11D8093FB049093FC04A093FD04B093CF
:10378000FE04BF91AF919F918F911F901FBE1F901C
:1037900018959C014FB7F8948091FB049091FC041C
:1037A000A091FD04B091FE044FBF821B930B0895BE
:1037B0002FB7F8948091FB049091FC04A091FD0434
:1037C000B091FE042FBF08950F931F93CF93DF9303
:1037D000C62FD42F022FFC0185818823A9F0609386
:1037E00080050E94D81B90937F0580937E05C7704B
:1037F00081E001C0880FCA95EAF70E94FD11DF91B0
:10380000CF911F910F91089580918005681335C065
:1038100080917E0590917F050E94C91B843B910594
:1038200060F510E21D0FCD17B9F080E28C0F8830E3
:1038300040F4C77081E001C0880FCA95EAF70E9482
:10384000F611183048F481E09D2F977001C0880F61
:103850009A95EAF70E94FD11802F0E943C12802F5A
:103860000E940712183058F6D77081E001C0880F07
:10387000DA95EAF70E94F611C2CFC77081E001C065
:10388000880FCA95EAF7F6CF8091F30481110FC033
:10389000109200050E94B10C0E94D81B88579C4EC4
:1038A0009093F1048093F00481E08093F3040895F1
:1038B000AFE0B0E0EEE5FCE10C94E12B8E010F5F90
:1038C0001F4F8AE0D8011D928A95E9F78AEBC82E2E
:1038D00081E0D82EF12CE12CAA24A394B12C25EC64
:1038E000822E21E0922EF60181916F018F3F09F423
:1038F00042C0F894E82FE295EF70F0E021A18F70BC
:10390000A50102C0440F551F8A95E2F7CA01922F04
:10391000982B91A392A18095892382A3789400C0CB
:10392000EFEBF1E0712C31E021912F3F09F46BC0F6
:10393000A22FA295AF70B0E090968C9190E02F707E
:1039400002C0959587952A95E2F780FD5CC0832F8C
:10395000782A330F8E169F0639F7F601319780814A
:103960008F3F11F00E94780A50EA5A95F1F7F8015A
:10397000EE0DFF1D70828FEFE81AF80AA5E0EA1637
:10398000F10409F0B0CF4AE050E0B80184E693E0DA
:103990000E946F2C009741F02AE0F801A4E6B3E002
:1039A00001900D922A95E1F700916F03892B69F13F
:1039B00081E0809329030E94D81B90932803809371
:1039C000270380912703909128030E94C91B059724
:1039D00000F110E00E581C4F45E050E064E673E043
:1039E000C8010E946F2CD12C892B51F085E0E4E6B0
:1039F000F3E0D80101900D928A95E1F7DD24D3948C
:103A00001092290307C080E0A3CF80912903811180
:103A1000D8CFD12C0E947013C82EE0916F03882359
:103A200009F47FC07E01BBE0EB0EF11C85E0D701FD
:103A30001D928A95E9F70E2F10E00E581C4F8091C9
:103A40005F038A30D8F54DEB58E1B701C8010E94F9
:103A50003D13882309F454C049EE59E1B701C80168
:103A60000E943D13882309F44BC047E658E1B70193
:103A7000C8010E943D13882309F442C04DEB59E16F
:103A8000B701C8010E943D138823D1F110925F0352
:103A900080916E0390E045E050E0B7018E589C4F56
:103AA0000E946F2C21E020933003892BE1F4C12C7C
:103AB0008C2D8D292F96EDE00C94FD2B80912A03FF
:103AC00090912B030E94C91B843F914008F0BBCF0B
:103AD00080913003882359F385E0F70111928A958C
:103AE000E9F710923003A0916E03B0E0AE58BC4FDE
:103AF00085E0FE013B9601900D928A95E1F7D8CFC3
:103B000080915F038F3F31F08F5F80935F038A3036
:103B100008F4BECF0E94D81B90932B0380932A03F6
:103B2000D7CF00916E0310E00E581C4FF0E0EE5816
:103B3000FC4F85E0A0E4B3E001900D928A95E1F797
:103B400080E493E00E948E0680933F0385E0E5E4E5
:103B5000F3E0D80101900D928A95E1F780904A0335
:103B600090904B03A0904C03B0904D0380912C0398
:103B700090912D03A0912E03B0912F0388169906E2
:103B8000AA06BB06D1F080922C0390922D03A0923E
:103B90002E03B0922F030E94701381110EC00E9459
:103BA0001608861A970AA80AB90A809260039092AA
:103BB0006103A0926203B092630388E0EEE4F3E055
:103BC000A2E8B5E001900D928A95E1F710915603B5
:103BD000112349F080910B04811105C00E94A914A2
:103BE00080E00E942B0910930B0462CFB0E0A0E0AC
:103BF000ECEFFDE10C94E42B8C01FC018481882323
:103C000009F441C021E04081518162817381958135
:103C10000E94F90DEC01F8018581882309F406C49E
:103C200080E280933101D093B603C093B503CE01F7
:103C300090528115904360F5CE0199279093B60379
:103C40008093B503F80181818093B80380818093CC
:103C5000B703C337FCE7DF0709F0EDC38091F30436
:103C6000882301F10E94210F80911A03877059F077
:103C7000F8018581882339F08091710382FF03C0A8
:103C800082E00E949F0DCDB7DEB7EAE00C94002CD5
:103C9000CC33D105B8F6FE01ED5BFE4F80818093F9
:103CA0003101D0CF0E94441CDFCF0E94D81B88571F
:103CB0009C4E9093F1048093F004F8018581882351
:103CC00009F4C7C38F2D8D7909F05CC0C034F2E5CB
:103CD000DF0778F5C11522E5D20708F0BAC3C11590
:103CE00030E4D30758F4C11580E2D80708F03FC08C
:103CF000C63ED10509F4ADC3CE010BC0C11590E598
:103D0000D907D0F7F8018681807F09F4A2C3CE01DC
:103D100099271092F2048832910508F03EC08E3146
:103D2000910508F040C0049768F182E08093F204A6
:103D30003AC0C03EE2E5DE07A0F4C03CF2E5DF0792
:103D400008F087C3C03622E5D207B0F2C03A32E5A8
:103D5000D30708F47EC3C43B82E5D80709F479C3CE
:103D6000CBCFCE0187579C47029730F672C3F8013C
:103D70008681807F61F68D2F8F71823159F028F412
:103D8000823041F00E94210F64C3843109F461C381
:103D90008631C1F71092F204F5CF8D32910529F2E8
:103DA00028F48A9779F70E94E40E53C38C34910566
:103DB000D1F38D329240B9F3E5CF26E241EE61EEC8
:103DC000C8010E94E41B50CF27E245EE65EEF8CF14
:103DD00026E241EE60EEF4CF27E245EE64EEF0CF4E
:103DE00026E241EE62EEECCF27E245EE66EEE8CF4A
:103DF00028E241E0EBCFF8018581882309F434C340
:103E000010928005C737FCE7DF0709F4A7C0C83761
:103E10002CE7D20709F0B1C082E0A1C080918205F1
:103E200091E089278093820510923F01809181055E
:103E300081608093810518CF46E159E060E279E026
:103E40000E94AC0811CF40E259E066E179E0F8CF7A
:103E500042E059E06CE079E0F3CF4CE059E062E0F9
:103E600079E0EECF48EE58E065EF78E0E9CF45EF36
:103E700058E068EE78E0E4CF4EEC58E06BED78E087
:103E8000DFCF4BED58E06EEC78E0DACF42EB58E054
:103E900060EC78E0D5CF40EC58E062EB78E0D0CF32
:103EA00081E00E945606E0CE85E0FBCFC7373CE7B5
:103EB000D30709F45CC0C837DC4709F45CC0F801DB
:103EC0008581C081D181882309F4BBC0CE010E94C5
:103ED000C80CF82E682FCE010E94380DBE018F2D20
:103EE0000E94740B0E94930BD82FC92FA82EF801A3
:103EF000C580B680B2943FE0B32280911A038770E8
:103F0000F1F0EC2CCC20E1F0892F807F803451F04F
:103F100080E28D0F883098F0B11004C0892F807E28
:103F2000803269F08091710382FF09C082E00E94B3
:103F30009F0D80911A038770EE24E3948111E12C88
:103F4000DC2ED2942FE0D222FBE0FD1508F4DEC077
:103F5000ED2DF0E0E251F34D0C94602C81E00E94D5
:103F6000B60D43E062E081E00E94720D7DCE81E0FB
:103F70000E94920DF6CF82E0FBCFC3309CE7D907B9
:103F800009F44CC050F4C115FCE7DF07B1F0C130B3
:103F9000DC4709F094CF0E940F17CB353CE7D307DD
:103FA00009F44DC0CC358CE7D80709F43EC0CA35BA
:103FB000DC4709F084CF81E03FC0109200050E94E9
:103FC0002F0FEFEFF4E32CE0E150F0402040E1F759
:103FD00000C0000081E08093E00080E28093D80080
:103FE0001092C9008FE19EE40197F1F700C0000034
:103FF00087E090EBDC018093950790939607A09360
:104000009707B093980788E19CE00FB6F894A895BD
:10401000809360000FBE90936000FFCF6FEF7FEF43
:1040200090E080E00E94D12CB6CF8091710382FB9A
:10403000882780F991E089270E94711A40CF80E09B
:10404000FBCFCE010E94040DF82E48CF2C2F2F70ED
:10405000F22EC07F19F0F29490EFF922CC20B9F043
:10406000FF2069F080E28D0F883010F0A11009C0A8
:1040700080910005F82AF09200050E94E40E8D2F31
:1040800043C08091F204F82AF092F204F6CF8D2F0B
:104090000E940712FF20D1F1D05ED83010F0A1109D
:1040A00004C08F2D0E94B70C06C0F0948091F204DA
:1040B000F822F092F2040E94E40E28C03C2F3F70D8
:1040C000F32EC07FC03219F0F29480EFF822AA20BC
:1040D00059F081E0A81609F479C0CC2009F485C014
:1040E000BB2009F447C0CBCF8091710382FD3EC055
:1040F000CC20B1F1FF2039F080910005F82AF09230
:1041000000050E94E40E80E00E943C122D2D2850F4
:10411000330B2430310510F40E949313EE20A9F0E4
:1041200080911A0380FD11C0F8011582869586954D
:1041300086950E94B60DC8010E94F61D80911A0353
:104140008695869586950E94920D20E0F801408123
:10415000518162817381848195810E94F90D93CD93
:1041600080E00E940712FF2089F29BCFCC20A1F0B3
:10417000B11004C08F2D0E94FD11C8CF91E0B9127B
:10418000C5CF809123039F2D9823F91609F4BECF44
:10419000F82AF0922303BACFB110B8CF8F2D0E9426
:1041A000F611909123038F2D892329F08F2D80956F
:1041B0008923809323038091FA029F2D982309F489
:1041C000A5CFF094F822F092FA02A0CFCC2029F0EB
:1041D000E5E0EB1508F49ACFCDCFF4E0FB1508F439
:1041E00095CF8F2D0E94F61191CFBB20D1F329E3FB
:1041F000A21209C03FEF87EE93E03150804090401B
:10420000E1F700C000008D2F0E9407127FCF8C2F96
:1042100086958695837069F0813009F077CF8D2F70
:104220009C2F9370C11002C080E090E00E94220891
:104230006DCF8D2F9C2F9370C11002C080E090E055
:104240000E94470863CF8C2F837089F5C1105ECF21
:104250004D2F429546954770440F440F8D2F8F7018
:10426000042E01C0880F0A94EAF72D2F2071D4FF85
:1042700007C02FE030E001C0220F4A95EAF72095F1
:10428000C695C695C370C23069F050F430912403CE
:10429000C13029F0822B83230E94C20D37CF832B9C
:1042A000822BFACF282B809124038227F5CF869585
:1042B000CC2011F08C2F8170882309F427CF4D2F4B
:1042C000429546954770440F440F8D2F8F70042EF2
:1042D00001C0880F0A94EAF72D2F2071D4FF07C080
:1042E0002FE030E001C0220F4A95EAF72095C695ED
:1042F000C695C370C23069F050F43091B403C13038
:1043000029F0822B83230E946F0D00CF832B822BF9
:10431000FACF282B8091B4038227F5CFCF70CC2021
:1043200029F08C2F0E94B60D8D2F25CF8D2F0E9446
:10433000F6118C2F0E94920DE9CE8D2FE2EFAE1672
:10434000A9F1EA1570F0F0EFAF16D1F021EFA21647
:1043500091F0CC2009F45AC0B11091CE8C2F8F71FE
:1043600029C033EFA31649F194EFA912F2CF80913F
:10437000710382FD2DC08C2F8F71CC20D9F21AC011
:10438000CC2079F0E4E0EB1508F4C0CECF7181E0E9
:1043900090E001C0880FCA95EAF79091B40389278D
:1043A000B2CFF5E0FB1508F4B1CEF0CF8C2F8F71B2
:1043B000C110C0CF0E94B60DA9CE80E0CC2009F478
:1043C000A2CFCF7181E001C0880FCA95EAF79BCFD9
:1043D000CC2089F0CF718C2F0E94B60D8091710393
:1043E00082FF07C028E0C29FC00111248360809330
:1043F0001A038C2FDFCF81E00E949F0D31E03B1527
:1044000008F084CE82E00E949F0D80CEBB2059F040
:10441000893309F0F8CE8FEF97EEE3E081509040BA
:10442000E040E1F7EECE8C2F8F7184CFC337FCE7ED
:10443000DF0709F419CCF090230380910005F82AD6
:104440008091F304811131CC22E2F21202C00E9469
:10445000441CFE01E851FC47E730F10508F0CBCCE5
:10446000E650F34D0C94602C809100058272FE01A1
:10447000E052F847E531F10508F018CDEF5FF24D55
:104480000C94602CCF93DF9380911903807F09F007
:104490004DC080911803882309F448C0E09150056D
:1044A00050911705C0911403D09113036091150327
:1044B0007091160347E05E17C9F18E2F90E0E49FDC
:1044C000F0011124E85EFA4F2481222391F1489FE4
:1044D000F001499FF00D1124DF01A85EBA4F11963B
:1044E0002C9111972C1325C02C912D1322C01596B9
:1044F0002C91159721111DC012962D913C91261BD0
:10450000370B243B3105A8F4809119038F7080612B
:1045100080931903E25EFA4F80818F7080618083FF
:1045200083E193E00E94F61D0E94BE0CDF91CF91C3
:104530000895FC013196E770BECFA4E1B0E0E3EA54
:10454000F2E20C94E22B8C0186E0F801DE011F966A
:1045500001900D928A95E1F7F8018481E58093E15D
:10456000A92E93E0B92E90911703911128C08823AA
:1045700019F1EE20F1F0C8010E94C50DF82E882334
:10458000C1F087E0F801D50101900D928A95E1F71D
:1045900080911703813031F48091130390911403BB
:1045A0000E94F70C0E9442228F2D6496ECE00C943E
:1045B000FE2BC8010E94F61DFF24F394F5CFD08096
:1045C000C18082809380F090180320911503309170
:1045D0001603A401421B530BFF2009F4E5C0443B22
:1045E000510508F09EC08823F9F290911403809140
:1045F0001903282F207F09F056C0C91214C09091CA
:104600001303D91210C0E11048C08F7080618093ED
:10461000190383E193E00E94F61D80911903F801CC
:104620008683F12CC1CFE11038C06C2D8D2D0E94F6
:104630006F066C2D8D2D0E946F06E82E8111F1CF33
:10464000DF86C88A8F8598890E94F70C292F2295CA
:104650002F70243058F49F70223088F0992399F0FD
:10466000F8019681907F79F4FE2C9ECF2A5F2F70FF
:10467000223068F0C8010E94F61DEF2CF5CF992377
:1046800011F0882389F3805E883070F3F3CF803F88
:1046900058F3815F833070F7E7CF80911903816011
:1046A00080931903BECFC91213C090911303D9127E
:1046B0000FC0E1100DC08683C8010E94F61D87E07F
:1046C000F801A3E1B3E001900D928A95E1F76CCF78
:1046D000C8010E94C50D882309F46BCFEE2009F4B0
:1046E00068CF80911903803288F0209113033091B4
:1046F0001403398728879B868A86909117039C87A5
:104700001D868E87CE0108960E94F61D87E0F8016F
:10471000A3E1B3E001900D928A95E1F70E94422255
:104720004BCF90911903292F207F51F483E193E01F
:104730000E94F61D87E0F50111928A95E9F771CF85
:10474000882309F431CF809114038C1110C080911B
:104750001303D8120CC0E1100AC09683C8010E944E
:10476000F61D87E0F50111928A95E9F71DCFC80182
:104770000E94C50D882309F41CCFEE2009F419CF3F
:1047800080911903803210F22091130330911403A9
:104790003A8329839C828B82909117039D831E828A
:1047A0008F83CE010196B0CF443B5105D0F68823CC
:1047B00009F402CFFE2CEE2009F4FBCE8091140305
:1047C0008C1105C080911303D81609F478CFC80165
:1047D0000E94C50D81119ACF809119038160809349
:1047E0001903C8010E94F61DDFCEABE1B0E0EBEF8C
:1047F000F3E20C94EA2B4E8B5F8B688F798F8A8F54
:104800009B8F192F91111092F2041D8A86E0FE01F0
:104810007696DE011F9601900D928A95E1F70A8D3A
:10482000002341F021E04F85588969897A89C801C0
:104830000E94F90D0B8B1C8B87E0FE013F96DE0179
:10484000189601900D928A95E1F7CE0108960E9484
:104850009D2281110CC087E0FE013896DE01119681
:1048600001900D928A95E1F78C8581110BC017E0BC
:104870008091500590911705891333C06B96E4E041
:104880000C94062C2091170530E0C9010196877021
:104890009927409150054817190699F097E0929F83
:1048A000D001939FB00D1124A85EBA4FFE0131963E
:1048B00001900D929A95E1F7809317050E94BE0C26
:1048C000D6CF109200050E942F0F1092170510925C
:1048D000500587E0E3E1F3E0DF011D928A95E9F7F7
:1048E000C6CF819FC0011124885E9A4F0E949D22ED
:1048F000882321F28091500590E0019687709927D6
:1049000080935005B5CFA6E0B0E0E9E8F4E20C945E
:10491000EA2B0E94D81B8C018091250390912603DD
:104920008017910781F019821A820E94D81B682F84
:1049300049815A81792F80E090E00E94F5231093FD
:104940002603009325032696E4E00C94062C1F9280
:104950001FB61F9211248F939F93AF93BF938091A3
:10496000FA04811113C08091FB049091FC04A09182
:10497000FD04B091FE044196A11DB11D8093FB047E
:104980009093FC04A093FD04B093FE04BF91AF91FB
:104990009F918F911F901FBE1F901895CDB7DEB7C6
:1049A0002B970FB6F894DEBF0FBECDBF85B78068DA
:1049B00085BF85B7806885BF84B7877F84BF0FB602
:1049C000F894A895809160008861809360001092AF
:1049D00060000FBE80E890E00FB6F894809361000D
:1049E000909361000FBE86E79AE09093F102809366
:1049F000F0020E94B8060E9459078091E20084608C
:104A00008093E200789480910D058823A1F01091A5
:104A1000E9001F709091EC00892F817090FD80E873
:104A2000182B1092E9008091E80083FD0E94430F4B
:104A30001F701093E90082E084BD93E095BD9AEF6A
:104A400097BD80936E0010926003109261031092E4
:104A50006203109263030E947013809328010E94E6
:104A6000701381110E94662A80912801809128018B
:104A700095E0811190E090936F0385E0891B80930E
:104A80006E030AEB11E0D8018D918D018F3F11F07B
:104A90000E94780AB1E00F3B1B07A9F70FEB11E06A
:104AA00045ECE42E41E0F42EF80181918F018F3F17
:104AB00011F00E94780AE016F106B1F78AE0E2E709
:104AC000F3E0DF01782E1D927A94E9F7E4E6F3E053
:104AD000DF011D928A95E9F790E080E00E949D2C0D
:104AE000863E9E4F11F00E94051A82E090E00E94DF
:104AF000952C80937C0384E090E00E949D2C909301
:104B000071038093700383E090E00E94952C0E94D3
:104B1000C20D109255058FEF9FEF90936F05809314
:104B20006E05909371058093700590937305809343
:104B30007205909375058093740590937705809323
:104B40007605909379058093780590937B05809303
:104B50007A0590937D0580937C051092DE039093F7
:104B6000F8038093F7039093FA038093F9039093EB
:104B7000FC038093FB039093FE038093FD039093CB
:104B800000048093FF0390930204809301049093A8
:104B9000040480930304909306048093050490E03A
:104BA00080E00E949D2C863E9E4F21F00E94051AB7
:104BB0000E944C1881E08093810548E050E068E154
:104BC00070E082E895E00E94852C1092810580912A
:104BD00082058C7F11F40E944C180E94701312E021
:104BE000811110E00E947013811101C013E0109335
:104BF000D90380E810FD80E280938A050E94202975
:104C00006BE070E08BE193E00E9427178823E9F1C5
:104C10008091D90365E070E081FD03C186E193E0F6
:104C20000E942717882389F16DE070E084E093E00B
:104C30000E942717882349F10E941608605A75417F
:104C40008F4F9F4F6093EA047093EB048093EC04C2
:104C50009093ED04EDE8F5E080E092E0DF019C0147
:104C60001D9221503040E1F7F0939407E0939307B1
:104C70008FEF9FEF90938C0580938B0581E080935D
:104C8000EF048093EE041092DA030E9470138111F6
:104C900002C00E94692A89E291E09093F704809310
:104CA000F6042224239480910D0500E112E1853061
:104CB00009F401C10E94581CEDE7F3E0F887EF8387
:104CC00022E733E03A872987D90191918D9127E82E
:104CD00033E02E173F0709F4FCC09817B1F30E9488
:104CE00070138B8735EDA32E31E0B32EE12CA9850F
:104CF000BA859D90BA87A987EF81F8856190F8877A
:104D0000EF83691409F480C069242501812C77247C
:104D10007394862D872109F46BC0F92CF720FB854D
:104D2000FF2399F08982EA820E94D81B9C838B839F
:104D30002D8291E0F11001C090E09E8349815A815B
:104D40006B817C818D810E94F523F11011C1D2010C
:104D50008C918F3F09F00EC10F2D10E08091DE0382
:104D6000800F912F911D09976CF188E0C82ED12CEE
:104D7000C01AD10AB80161527C4FA6018FED93E0B1
:104D80000E947C2CB80169517C4FA60187EE93E00C
:104D90000E947C2CA601440F551FB801660F771F97
:104DA00069507C4F87EF93E00E947C2CB8016151E1
:104DB0007C4FA6018FEE93E00E947C2C88E08F1937
:104DC0008093DE038091DE0390E0A32DB0E09D018F
:104DD000220F331F2F5E3D4FAA0FBB1FBD016E5E1A
:104DE0007D4F41E0480F9F1508F4C8C08093DE0353
:104DF0008394770CBFEF4B1A5B0AE6E08E1289CFE3
:104E0000EF81F88531979082E394F6E0AF0EB11C04
:104E10005AE0752EE7106BCF0E94D416DD24D39490
:104E20005DC081E193E0FCCE80910D05843009F4F2
:104E300033C00E94941780910B04811105C00E9419
:104E4000A91480E00E942B0920920B040E945117A4
:104E50001092FA0488E190E0A0E40FB6F894A895C7
:104E6000809360000FBEA093600083B7817F846051
:104E700083BF83B7816083BF7894889583B78E7F23
:104E800083BF0FB6F894A8958091600088618093E5
:104E90006000109260000FBE80910C05882359F0CD
:104EA0000E94581CE2E7F3E081918111B1C1B3E0A7
:104EB000EC37FB07C9F780910D05853009F4B4CFB5
:104EC000109200050E942F0F0E94931310920B0462
:104ED000F1CE981304CF0E948324D12C0E9470132A
:104EE000882389F08091F304882369F00E94D81BFD
:104EF0002091F0043091F104821B930B8F3F9F4768
:104F000010F40E94210F0E9494178091EF048823CF
:104F100009F482C08091DB039091DC030E94C91BDD
:104F2000C29708F45AC00E94D81B9093DC03809368
:104F3000DB038DE895E090939407809393070E949C
:104F40007013882309F480C08EE493E00E949E0EC3
:104F50008091B4030E94E80D823009F46FC018F507
:104F6000882349F1813009F466C086E293E025C0C8
:104F7000F12CF2CE382EFF24F394EECE90E0FC011B
:104F8000E252FC4FD9015C915183DB015C91518766
:104F9000318A880F991FFC01E252FC4F128E118E4C
:104FA00091E0842F1ECF833009F44BC08430E9F6A2
:104FB0008EE293E002C086E493E00E94DE0E87E872
:104FC00093E00E94A81281E00E94AC0E8FE993E06A
:104FD0000E94A81281E00E94AC0E80918B059091F6
:104FE0008C05892BE1F58091EE048823A9F00E94BD
:104FF00016080091EA041091EB042091EC04309122
:10500000ED04601B710B820B930B6F3F7F4F8F4F33
:105010009F4710F40E945117D1100E946C170E94F4
:1050200093139091DD03891709F43DCE8093DD033E
:105030000E94160838CE80E493E0BFCF8AE393E065
:10504000BCCF83E393E0B9CF86EF94E00E94DE0EFD
:1050500060EA71E086E593E00E946C08BECF809123
:10506000EF04882309F4BFCF8091DA038111BBCF0D
:105070000E946C1720918B0530918C05211531050C
:1050800009F4B1CF80E041E050E0082F10E07A0150
:10509000082E02C0EE0CFF1C0A94E2F7B70162234F
:1050A0007323672B11F48F5FF0CF9091D90390FF9A
:1050B00096C0880F880F880F8093340110923701B3
:1050C000895F8093350183E08093380124E630E0E6
:1050D00047E050E062E371E088E70E94C029892B35
:1050E00009F081CFA80135E0440F551F3A95E1F74B
:1050F0008091D90380FF85C0E9EBF3E080E2DF0116
:105100001D928A95E9F709EC11E095ECA92E91E042
:10511000B92E2DEC422E21E0522ED801ED918D01B9
:10512000D5016D915D01640F752F711D63577A4F25
:10513000F0E0E754FC4F30E020E087E0682E621A90
:10514000CC24C394022E01C0CC0C0A94EAF74B0184
:1051500090E0D4018D914D018C21A62DA91BA77043
:10516000AF830A2E000CBB0B782E0F8001C0770C8A
:105170000A94EAF77F82B195A195B109A770BB2780
:1051800001C08695AA95EAF7782A8081782A7082EC
:105190009F5F9830F1F62F5F3F4F319628303105F1
:1051A00061F64016510609F0B8CF04E610E020E29F
:1051B00030E049EB53E060E488E70E94E129892B65
:1051C00009F011CFE094F09480918B0590918C05BB
:1051D000E822F922F0928C05E0928B0504CF8295AB
:1051E000880F8076809334019801369527953695FF
:1051F000279520933701815E8093350120933801F4
:1052000065CF43575A4F04E610E020E230E0D3CF99
:1052100009BD19BD09B400FEFDCF8091D8008F7D76
:105220008093D8008091E00082608093E0008091BC
:10523000E00081FDFCCF109200050E942F0F3BCEB5
:105240001092B9008CE08093B8000895B0E0A0E01F
:10525000ECE2F9E20C94E32BB82EEB010E94D81B90
:105260006C01EE24E394F12CC431D10560F025E00B
:10527000E22EF12CCF3FDC0731F0CE0164E170E08B
:105280000E94C82B7B0184EAA82E94E8992E1092E4
:10529000BC00A092BC000E94D81B8C018091BC0075
:1052A00087FF0DC08091B900887F8830F9F0809128
:1052B000B900887F8031D1F00FEF1FEF08C0C8011F
:1052C0000E94C91BE816F90648F70EEF1FEFCF3F03
:1052D000DC07E9F2C6010E94C91BC817D907B8F656
:1052E000C801CDB7DEB7EBE00C94FF2BB092BB004A
:1052F0009092BC000E94D81B8C018091BC0087FF5B
:105300000AC08091B900887F883111F08034A1F6FD
:1053100010E000E0E5CFC8010E94C91BE816F906BD
:1053200060F7D3CF0F931F93CF93DF93EB0180935D
:10533000BB0084E88093BC000E94D81B8C01809144
:10534000BC0087FF11C02091B900287F81E090E068
:10535000283211F490E080E0919581959109DF91D8
:10536000CF911F910F910895CF3FDC0741F3C80102
:105370000E94C91BC817D90710F78EEF9FEFEFCF18
:10538000B0E0A0E0E6ECF9E20C94E62B6B018A01B8
:105390007901B9010E942629E6010C0D1D1DC017D7
:1053A000D10711F097FF08C024E92093BC00CDB7C6
:1053B000DEB7E8E00C94022CB70189910E94922993
:1053C000EECFB0E0A0E0E7EEF9E20C94E62BC62FBA
:1053D0006A017901B8010E94262997FD0CC0B80125
:1053E0008C2F0E949229E601EC0CFD1CCE15DF05E6
:1053F00011F097FF08C024E92093BC00CDB7DEB7B9
:10540000E8E00C94022CB80189910E949229EECF19
:1054100084E98093BC0008958EE14A9B02C08150CC
:10542000E1F74A9BFECF08955A9880E28A95F1F7FA
:105430005A9A0895FC013BE03A95F1F798E020E094
:1054400080E031E040E14A95F1F7880F4A9B02C0C5
:105450008160232742E04A95F1F7000040E14A9538
:10546000F1F7915079F790E19A95F1F799B132E01F
:105470003A95F1F7000040E14A95F1F792FB992740
:1054800090F992272081920F90830895A1E0B0E0D7
:10549000ECE4FAE20C94E82B19828C017C01E60E14
:1054A000F11C0E151F0541F481E09981911180E0F6
:1054B0002196E6E00C94042C0E940C2ACE01019661
:1054C0000E941A2AF80181938F01EBCF529A5A9ABF
:1054D000089552985A9AEA9AE9E6F0E080818F7C22
:1054E000808308956150770B91E001C0990F6A9510
:1054F000EAF720E031E0911108C0222391F05A9A96
:1055000080E28A95F1F75A980895492F482339F097
:105510005A9A232740E24A95F1F79695ECCF5A988C
:10552000F9CF5A98EDCFFF920F931F93CF93DF934C
:10553000EC018C01060F111DC017D10729F4CDB75E
:10554000DEB7E5E00C94052CF9900E94142A68E07F
:105550008F2D0E94722AF0CF1F920F920FB60F92DA
:1055600011240F931F932F933F934F935F936F9348
:105570007F938F939F93AF93BF93EF93FF93CF93BB
:10558000DF930F92CDB7DEB719820E940C2ACE01AD
:1055900001960E941A2A082F069506950695282F2F
:1055A00022952570902F9570290F922F9370269534
:1055B0002695920F982797708981982B09F05CC0E7
:1055C000063008F059C080E18A95F1F75A9A529A4C
:1055D00082E08A95F1F700C05A9888E0089F800120
:1055E0001124D801A050BF4F1696ED91FC9117974A
:1055F0003097A9F06091B8017091B90114962D917E
:105600003C911597260F371F11968D919C911297FB
:10561000680F791F13964C9113978C910995F80197
:10562000E050FF4F6381662351F02091B801309123
:10563000B90184819581820F931F0E94932A0E9451
:10564000142A80E18A95F1F75A9852985A9A80E183
:105650008A95F1F7F801E050FF4F6081662351F021
:105660002091B8013091B90181819281820F931FFD
:105670000E94462A0E940C2A0F90DF91CF91FF9141
:10568000EF91BF91AF919F918F917F916F915F91BA
:105690004F913F912F911F910F910F900FBE0F903F
:1056A0001F9018950F931F93CF93DF93EC010697EC
:1056B0000CF04CC0F894529A5A9885E08A95F1F70C
:1056C00000009C2F969595708C2F8570980F892FD0
:1056D00083709695969523E0CC0FDD1F2A95E1F710
:1056E000980F8E01092B0E94142A00C068E0802FB9
:1056F0000E94722A80E18A95F1F752985A9A4A9B41
:105700001EC087E090E04A991CC0FE01E050FF4FA8
:1057100063816623F9F02091B8013091B901848149
:105720009581820F931F0E94462A811113C0529ABD
:105730005A9A7894DF91CF911F910F91089500C0EC
:10574000DECF019729F4529A5A9A789480E0F2CFEA
:1057500000C0D9CF0E940C2A80E28A95F1F75A98AE
:10576000529A80E18A95F1F7C050DF4F6881662335
:1057700051F02091B8013091B90189819A81820F4D
:10578000931F0E94932A0E94142A789481E0D2CF1A
:10579000AA1BBB1B51E107C0AA1FBB1FA617B70757
:1057A00010F0A61BB70B881F991F5A95A9F7809573
:1057B0009095BC01CD0108952F923F924F925F9238
:1057C0006F927F928F929F92AF92BF92CF92DF9211
:1057D000EF92FF920F931F93CF93DF93CDB7DEB776
:1057E000CA1BDB0B0FB6F894DEBF0FBECDBF09940A
:1057F0002A88398848885F846E847D848C849B8461
:10580000AA84B984C884DF80EE80FD800C811B816E
:10581000AA81B981CE0FD11D0FB6F894DEBF0FBE9D
:10582000CDBFED010895991B79E004C0991F96172B
:1058300008F0961B881F7A95C9F780950895A1E214
:105840001A2EAA1BBB1BFD010DC0AA1FBB1FEE1FFA
:10585000FF1FA217B307E407F50720F0A21BB30B45
:10586000E40BF50B661F771F881F991F1A9469F7C1
:1058700060957095809590959B01AC01BD01CF011D
:105880000895052E97FB1EF400940E94582C57FD96
:1058900007D00E941F2C07FC03D04EF40C94582C08
:1058A00050954095309521953F4F4F4F5F4F08954C
:1058B00090958095709561957F4F8F4F9F4F08957C
:1058C000EE0FFF1F0590F491E02D0994FB01DC0120
:1058D00002C005900D9241505040D8F70895FB0149
:1058E000DC0104C08D910190801921F44150504099
:1058F000C8F7881B990B0895FB01DC0102C00190D9
:105900000D9241505040D8F70895DC01CB01FC01C5
:10591000F999FECF06C0F2BDE1BDF89A319600B408
:105920000D9241505040B8F70895F999FECF92BDBD
:1059300081BDF89A992780B50895A8E1B0E042E0CA
:1059400050E00C94872CDC01A40FB51F415050404F
:1059500048F0CB01840F951F2E910E94B42C41502A
:105960005040D0F70895262FF999FECF92BD81BD02
:10597000F89A019700B4021639F01FBA20BD0FB68D
:10598000F894FA9AF99A0FBE08950396272F0E9469
:10599000B42C0E94B32C252F0E94B42C242F0C94DD
:1059A000B42C0196272F0E94B42C0C94B32CF8949D
:1059B000FFCF24104C10E4114C10E4117F10A01004
:1059C000E4119D11AA11D914E41436158015CB15D4
:1059D0001A166B167016C916CC16D116262026205C
:1059E0005E205E20072186208620862023218E21AE
:1059F0009D219D21E81EEC1EDD1EE41EF01EF41EFE
:105A0000F81E0E1F1C1F231F281F2D1F321F371F9C
:105A10003C1F411F461F4B1F501F541F341E341E76
:0C5A2000341E341E341E341E341E341E8E
:105A2C000000000100000000000000050100000063
:105A3C000506000000000000040B00000000000040
:105A4C00090F00000000000001130802131208FBEC
:105A5C0012200021007F220003FFFF0100FF000342
:105A6C0000FF7820202020616263646566676869A6
:105A7C006A6B6C6D6E6F7071727374757677787902
:105A8C007A31323334353637383930524542545FF7
:105A9C002D3D5B5D5C233B27602C2E2F202020812D
:105AAC008283E200E900EA00B500B600B700CD0041
:105ABC008301CC008A019201940121022302240269
:105ACC002502260227022A02B300B4006F007000E0
