:100000000C9474060C94AC060C94AC060C947A2EEA
:100010000C94AC060C94AC060C94AC060C94AC0698
:100020000C94AC060C94AC060C9498170C94AF1D71
:100030000C9465280C94AC060C94AC060C94AC069D
:100040000C94AC060C94AC060C94AC060C94AC0668
:100050000C94AC060C9471180C94AC060C94AC0681
:100060000C94AC060C94AC060C94AC060C94AC0648
:100070000C94AC060C94AC060C94AC060C94AC0638
:100080000C94AC060C94AC060C94AC060C94AC0628
:100090000C94AC060C94AC060C94AC060C94AC0618
:1000A0000C94AC060C94AC060C94AC06000000005A
:1000B0000000000000000000000000000000000040
:1000C0000000000000000000000000000000000030
:1000D0007E0F00D4FFFFFFC7000000780000000083
:1000E000000000002A2B2800000000000000000093
:1000F0000000000000000029000000002C1E342039
:10010000212224342627252E362D3738271E1F205E
:100110002122232425263333362E37381F040506A3
:100120000708090A0B0C0D0E0F10111213141516E7
:100130001718191A1B1C1D2F3130232D35040506E5
:100140000708090A0B0C0D0E0F10111213141516C7
:100150001718191A1B1C1D2F3130354C29001E0091
:100160001F002000210022002B0014001A000800AC
:1001700015001700E10004001600070009000A003E
:10018000E0001D001B000600190005000000E20051
:10019000E300777C2C0064522D0027002600250008
:1001A000240023002E00130012000C0018001C0075
:1001B0002A0033000F000E000D000B00E500380090
:1001C00037003600100011000000E600E700787CE0
:1001D000280000003A003B003C003D003E003F008C
:1001E00001001E001F00200021002200010030003D
:1001F000300234003402010001002F001F042004EB
:100200003100310200000100010001000100010085
:100210004500440043004200410040000100270027
:1002200026002500240023004C002D002604250470
:100230003502350001002D022606250601000100C9
:1002400000000100010001000100010000000000A9
:10025000000000000000000000000000000000009E
:10026000000000000100230052024B004A00000081
:100270000100010051024E004D00AB0000000100E2
:10028000010001000100010000000000000000006A
:10029000000000000100000000005200000000000B
:1002A00001004F064F0051005000500601000000B1
:1002B000000000000000000000000100010001003B
:1002C000010001000000000000000000000000002C
:1002D00000000000000000000000000020782378EB
:1002E000257827780000BD002178247826782878A2
:1002F0000000BE000000010001000100010000003C
:1003000000000000000000000000000000000000ED
:10031000AA00A800A900000000000000AB00AE0089
:10032000AC00000000000000000000000000000021
:1003300000000100010001000100000001000100B7
:1003400001000100010001000100010001000100A5
:100350000100010001000100010001000100010095
:100360000100010001000100010001000000010086
:100370002C000100E300010000000000000000006C
:10038000000000000000000000000000000000006D
:10039000000000000000000000000000000000005D
:1003A000000000000000000000000000000000004D
:1003B0000000000000DA0281FFD9F1DB20A4A62EA4
:1003C000AF00A0C0D30000A1C8D30000AED580A864
:1003D0001F408D142000556E6B6E6F776E00476165
:1003E0006D650041646A75737400526169736500DC
:1003F0004C6F7765720044656661756C74004C6182
:100400007965723A20000000000000000000000042
:1004100000000000000000000000000000000000DC
:1004200000000000000000000000000000000000CC
:1004300000000000000000000000000000000000BC
:1004400000000000000000000000000000000000AC
:10045000000000000000000000000000000000009C
:10046000000000000000000000000000000000008C
:10047000000000000000000000000000000000007C
:1004800000000000000000041EFEFEFEFEFEFEFE58
:10049000FEFEFEFC3C0C0C3CFCFEFEFEFEFEFEFEE8
:1004A000FEFEFE1E0600F8F0000001030303030336
:1004B000030381C0C0C0C0C0C0C183830303030362
:1004C00003010000E0F8033FFFFCF8F8F8F8FCFE39
:1004D000FF8783C1E1E0E0E0E0C18387FFFEFEFC2F
:1004E000F8F8FCFE3F0700000003070F1F3F7FFFE7
:1004F000FFFFFFFFFFFFFFFFFFFFFFFFFFFF7F3F4C
:100500001F070300000000000000000000000000C2
:1005100001030307070F0F0F0F0707030100000078
:1005200000000000000000000000000000000000CB
:1005300000000000000000000000000000000000BB
:1005400000000000000000000000000000000000AB
:10055000000000000000000000000000000000009B
:10056000000000000000000000000000000000008B
:10057000000000000000000000000000000000007B
:10058000000000000000000000000000000000006B
:10059000000000000000000000000000000000005B
:1005A0000000000000004D61676F000001010101C3
:1005B000010101010102020202020202020203031E
:1005C00003030303030304040404040404050505EE
:1005D00005050606060606070707070708080808B0
:1005E000090909090A0A0A0B0B0B0C0C0C0D0D0D5D
:1005F0000E0E0E0F0F0F10101111111212131314F3
:1006000014151516161717181819191A1A1B1B1C6A
:100610001D1D1E1E1F2020212222232424252626C4
:10062000272829292A2B2C2D2D2E2F3031323233F9
:100630003435363738393A3B3C3D3E3F4041424302
:100640004445464748494A4C4D4E4F5051535455E6
:100650005658595A5B5D5E5F616264656668696B96
:100660006C6D6F7072737577787A7B7D7E80828314
:100670008587888A8C8E8F91939596989A9C9EA058
:10068000A2A3A5A7A9ABADAFB1B3B5B7BABCBEC065
:10069000C2C4C6C9CBCDCFD1D4D6D8DBDDDFE2E42E
:1006A000E7E9EBEEF0F3F5F8FAFDFF00AF00AE0579
:1006B000010980A101850319012AB700150126B798
:1006C00000950175108100C0050C0901A101850488
:1006D00019012AA002150126A002950175108100BA
:1006E000C005010906A101050719E029E715002544
:1006F00001950875018102950175088101050719A9
:100700000029FF150026FF009506750881000508E1
:10071000190129059505750191029501750391014E
:10072000C009023B00020100A0FA09040000010315
:100730000101000921110100012240000705810388
:100740000800010904010001030000000921110152
:10075000000122320007058203200001120100027D
:1007600000000008D8042EEB00010102000116036E
:100770004C0069006C007900350038002000520000
:100780003200470000001C034D0065006300680054
:1007900062006F0061007200640073002000550069
:1007A0004B000000040309040000000000003E5B51
:1007B0004F5B3E003E6B4F6B3E001C3E7C3E1C0080
:1007C000183C7E3C18001C577D571C001C5E7F5E49
:1007D0001C0000183C180000FFE7C3E7FF000018EA
:1007E00024180000FFE7DBE7FF0030483A060E0060
:1007F000262979292600407F05050700407F052529
:100800003F005A3CE73C5A007F3E1C1C0800081C75
:100810001C3E7F0014227F2214005F5F005F5F0098
:1008200006097F017F00006689956A00606060604C
:10083000600094A2FFA2940008047E040800102027
:100840007E20100008082A1C0800081C2A0808003E
:100850001E10101010000C1E0C1E0C0030383E38FC
:100860003000060E3E0E06000000000000000000F2
:100870005F000000000700070000147F147F1400D1
:10088000242A7F2A12002313086462003649562066
:100890005000000807030000001C22410000004136
:1008A000221C00002A1C7F1C2A0008083E080800A1
:1008B0000080703000000808080808000000606030
:1008C00000002010080402003E5149453E0000424D
:1008D0007F4000007249494946002141494D33009B
:1008E0001814127F10002745454539003C4A4949F4
:1008F000310041211109070036494949360046496E
:1009000049291E00000014000000004034000000CF
:10091000000814224100141414141400004122147D
:1009200008000201590906003E415D594E007C1243
:1009300011127C007F49494936003E414141220065
:100940007F4141413E007F49494941007F090909F2
:1009500001003E41415173007F0808087F000041BB
:100960007F4100002040413F01007F0814224100E8
:100970007F40404040007F021C027F007F0408103F
:100980007F003E4141413E007F09090906003E418A
:1009900051215E007F091929460026494949320044
:1009A00003017F0103003F4040403F001F204020E3
:1009B0001F003F4038403F006314081463000304E5
:1009C000780403006159494D4300007F41414100D3
:1009D000020408102000004141417F00040201028E
:1009E000040040404040400000030708000020543D
:1009F000547840007F284444380038444444280058
:100A0000384444287F0038545454180000087E09A4
:100A100002001824241C78007F0804047800004495
:100A20007D4000002040403D00007F102844000031
:100A300000417F4000007C04780478007C080404B6
:100A400078003844444438007C18242418001824C2
:100A500024187C007C0804040800485454542400E2
:100A600004043F4424003C4040207C001C204020E3
:100A70001C003C4030403C004428102844004C906E
:100A800090907C004464544C4400000836410000BF
:100A90000000770000000041360800000201020457
:100AA00002003C2623263C000000000000808080DD
:100AB00080000000000080E070180C1830E080001A
:100AC0000010F8901030783010B8FC38100000009A
:100AD000000000F8FCF8000000000000000000002A
:100AE0000000001C9C1C00000000F8FCF800000046
:100AF0000000001CFCF8C000000000000080E0F8CE
:100B00007C1C000000F0FCFCFC1C1C1C1C1C1C1CA5
:100B10001C000000000000C0F0F8381C1C1C1C1C4D
:100B20001C3CF8F0E000E0F0F0F0E0ECEEF7F370E1
:100B300020007C7C7C7E007E7E7E7F7F7F0000802C
:100B4000C0E07E5B4F5BFEC00000C000DCD7DEDE95
:100B5000DED7DC00C0000000000000000000000044
:100B6000000000000000000000000000000FBCE0DA
:100B7000818181838382870C183060C000001FFE52
:100B800090B9FFBB91983C1811133F110000000071
:100B9000000000FFFFFF0000000000000000000058
:100BA000000000FFFFFF00000000FFFFFF0000004B
:100BB0000000000000030F7FF8E080F0FC3F0F0111
:100BC00000000000003F3F3F1C1C1C1C1C3C78F830
:100BD000F0E08000000000C3E7FF7E3C38787870CA
:100BE00070F8FFDF87000F1F3F7F7F7F7F7F3F1EF3
:100BF0000C001F1F1F3F003F3F3F7F7F7F00307B68
:100C00007F7830202030787F3B0003000F7F0F0F6C
:100C10000F7F0F0003000000000000000000000034
:100C20000000000000000000183C24666341C18100
:100C300080808080808081C14162386C4CC6818117
:100C4000808080808081C14362361C1800000000D3
:100C5000000000FFFFFFC0C0C0C0C0C0C0C0C08057
:100C60000000007FFF7F000000007FFFFFC08000CA
:100C70000000E0E0C0C0C0E0F97F1F0700000000F6
:100C8000000000000070F0E0E0C0C0C0C0E0F0F87C
:100C90007F3F0F0000000F3F7FF9E0E0C0C0C0C001
:100CA000C0E0F97F3F1F00000000000000000000CE
:100CB0000000000000000000000000000000000034
:100CC0000000000000000000000000000000000024
:100CD0000000000000000000000000000000000014
:100CE000000000000000000011241FBECFEFDAE07A
:100CF000DEBFCDBF04B603FE18C08091CC07909133
:100D0000CD07A091CE07B091CF078730904BA74079
:100D1000B04B59F41092CC071092CD071092CE0729
:100D20001092CF07E0E0F8E3099512E0A0E0B1E00F
:100D3000E8ECF1E602C005900D92A43FB107D9F7A7
:100D400027E0A4EFB2E001C01D92AC3CB207E1F78E
:100D50000E948C280C94A5300C940000B0E0A0E018
:100D6000E4EBF6E00C94B02F209143013091440164
:100D70002817390721F42091C0052032A9F190935A
:100D800044018093430120E22093C0056C01F12CC3
:100D9000E12C1092BF050FEB15E0D0E0C0E08AE037
:100DA000882E912CA12CB12CC701B601A50194016C
:100DB0000E94ED2F605D603311F4209731F0C11473
:100DC000D104E104F10409F460E2F80162938F01B7
:100DD000C701B601A50194010E94ED2F69017A01B6
:100DE0002196C530D10501F78AEB95E0CDB7DEB786
:100DF000ECE00C94CC2F9091B205937061F08111CE
:100E00000BC094609093B205109242018091B1059D
:100E100081608093B10508958B3010F09862F2CF15
:100E2000880F880F982BEECF482F20917F05909147
:100E3000460557E0291302C080E0089530E0529F34
:100E4000F001539FF00D1124E95BFA4F8181681383
:100E500006C08081481303C085818111EECF2F5FCA
:100E60003F4F2770E7CFFC01AC014B5F5F4F8FEF27
:100E700091E32191822728E030E087FF09C0880FA5
:100E8000892721503109C9F7E417F50791F708952B
:100E9000880FF7CF9091B205937071F08093B305EE
:100EA0006093B405493708F048E74093B505809151
:100EB000B10581608093B1050895E8EDF0E080818F
:100EC0008E7F80831092E2001092DA001092E1008F
:100ED000A0EEB0E08C9181608C9380818F778083CD
:100EE00019BCA7EDB0E08C918E7F8C9380818F7EB2
:100EF000808310922E0508952091E4003091E50042
:100F000095E6A9012091EC00822F817020FF06C098
:100F10008091E80080FF06C080E008952091E800FD
:100F200022FD1AC080913C05882389F0853089F024
:100F30008091EB0085FD0FC02091E4003091E50029
:100F400042175307F9F29150E1F684E0089582E0E8
:100F5000089583E0089581E0089580913E0587FF1C
:100F600013C08091E80082FF06C08091E8008B7773
:100F70008093E80004C080913C058111F2CF089570
:100F800080913C058823D9F38091E80080FFF8CF59
:100F90008091E8008E77ECCF982F9093E900242F72
:100FA000762F50E0891731F07091EC002091ED0020
:100FB0005091F00021FD07C09F5F973071F780933B
:100FC000E90081E008953091EB003E7F3093EB0023
:100FD0003091ED003D7F3093ED003091EB003160BA
:100FE0003093EB007093EC002093ED005093F000F1
:100FF0002091EE0027FDE0CF80E00895B0E0A0E072
:10100000E4E0F8E00C94B42FC8EDD0E088818F7E46
:101010008883E7EDF0E080818160808384E082BF97
:1010200081E080932E0588818E7F888302EE10E018
:10103000F80110821092DA0081EEC82ED12CF60150
:10104000108288818F7788838881806888838881EF
:101050008F7D888319BC10923C0510923D0510923B
:101060003B0510923A0590EEE92EF12CF7018081B4
:101070008B7F808388818160888342E060E080E0AC
:101080000E94CC07F60180818E7F8083F8018081E9
:1010900081608083808188608083F70180818E7F7A
:1010A0008083888180618883CDB7DEB7E8E00C94C7
:1010B000D02FFC0180914405909145058617970734
:1010C000A0F06115710529F49091E8009E77909346
:1010D000E80090E06115710551F4911108C080910C
:1010E000E80082FF34C080E00895BC01F2CF809117
:1010F0003C058823C1F18530C1F18091E80083FD72
:1011000030C08091E80082FDEACF8091E80080FF46
:10111000E1CF8091F3002091F200382F6115710525
:1011200019F02830310558F091E02830310509F0E8
:1011300090E02091E8002E772093E800CBCF8191BA
:101140008093F100615071092F5F3F4FE7CF80918D
:101150003C05882341F0853041F08091E80083FF11
:10116000BECF81E0089582E0089583E00895089558
:101170008091310508952FB7F89460912A057091F8
:101180002B0580912C0590912D052FBF0895A3E08C
:10119000B0E0EDECF8E00C94BA2F209127053091E7
:1011A000280528173907A1F0909328058093270573
:1011B000E0912505F0912605309751F024E0298330
:1011C0009B838A830680F781E02DCE0101960995E5
:1011D0002396E2E00C94D62FA3E0B0E0E2EFF8E033
:1011E0000C94BA2F20912305309124052817390734
:1011F000A1F09093240580932305E0912505F091BB
:101200002605309751F023E029839B838A8306804B
:10121000F781E02DCE01019609952396E2E00C942A
:10122000D62FCF93DF932091CA073091CB07245C50
:101230003540A901460F571F4130524020F060E071
:1012400072E0621B730B4091C2055091C305FC0113
:10125000C901620F731FC1E0D0E08617970738F00D
:101260005093C3054093C205DF91CF910895249117
:10127000DC01AC53BA4F3C91321781F02C939C01A6
:10128000A5E036952795AA95E1F7DE0102C0AA0FE1
:10129000BB1F2A95E2F79D014A2B532B01963196ED
:1012A000DCCFFA01811101C0FB0109950895E2EB41
:1012B000F5E0248130E1231B08F420E024838091B1
:1012C000B10581608093B1050895E2EBF5E02481DA
:1012D00030E1230F08F42FEF24838091B105816062
:1012E0008093B1050895E2EBF5E0438120E1421BD4
:1012F00008F440E08181628190E00E944A070895ED
:10130000E2EBF5E0438120E1420F08F44FEF8181E9
:10131000628190E00E944A070895E2EBF5E0628165
:1013200020E1621B08F460E08181438190E00E942B
:101330004A070895E2EBF5E0628120E1620F08F4CC
:101340006FEF8181438190E00E944A070895E2EBAC
:10135000F5E08181438162818850990B0E944A07A0
:101360000895E2EBF5E0818190E043816281089687
:101370000E944A0708958091B2058695869581500E
:1013800009F48AE00E94FB0608958091B2058695D3
:1013900086958F5F8B3008F081E00E94FB060895F0
:1013A00080933A018091B2058370809339010E9445
:1013B0003E1083E080934201089522E8241B08F444
:1013C00020E0620F08954095282F429F412D11245F
:1013D000842F0895E42FF0E0EE0FFF1FEA5EFD4F2B
:1013E0009081921B97FD9195292F38E1239F212D04
:1013F0001124620F0895322F50E0FA01EE0FFF1F03
:10140000E652FE4F95AD905297FD9195440F551FB2
:10141000FA01EA5EFD4F2081231B330B290F311D9A
:1014200097FD3A95620F08950E94CC100895FF929F
:101430000F931F93CF93DF93182F062FF42ED0E036
:10144000C0E02F2D402F612FCE010E94140A21965B
:10145000CA34D105B1F7CDB7DEB7E5E00C94D32F90
:101460000F931F93522F10E0F801EE0FFF1FE6526B
:10147000FE4FA5ADA052BB0B9D015203F001539F3F
:10148000F00D1124000F111FD801AA5EBD4F0C9161
:101490000057110B40039001419F300D11242E0F76
:1014A0003F1F37FF02C0215C3F4F96E035952795DF
:1014B0009A95E1F7620F1F910F910895E82F86FD2D
:1014C000E0952E2F2F7086FD2F5FE695E695E69529
:1014D000E670F0E0EE52FE4F9181929F902D212D0B
:1014E000112492959F702295207F922B2081920F3C
:1014F00087FD919580E8890F089530E020E0869F70
:10150000212D969F200D311D1124C9010895AF9200
:10151000BF92CF92DF92FF920F931F93CF93DF93EF
:10152000362F472FE82FF0E0E555FA4F71110FC025
:10153000E4918E2F2E2F6E2F722FDF91CF911F915E
:101540000F91FF90DF90CF90BF90AF900895C72F7D
:10155000D0E02491F22E022F10E056E0659FC001EA
:101560001124EFEFF0E0BF010E94962F832F90E04F
:10157000880F991F35E5369FD001379FB00D112494
:101580008A1B9B0B982F990F980F6F01CC1ADD0ABD
:10159000C09ED001C19EB00DD09EB00D11248B2FE6
:1015A000499FA0011124452F55276F01C41AD50A60
:1015B000C09EA001C19E500DD09E500D11245F0110
:1015C000A91AB108AC9E6001AD9ED00CBC9ED00C97
:1015D0001124CD2CDD24EC19FD09E09FE001E19FF1
:1015E000D00DF09FD00D1124ED2F62307105A1F0C8
:1015F00050F46115710509F49ECF6130710581F0D9
:10160000EB2F852F98CF6430710569F080F066303C
:10161000710509F490CFF4CFE22F2B2F8D2F8BCFB4
:10162000E22F252F88CFEB2F822F2D2F84CF2B2F2A
:101630008F2DE52F80CF80E00895F894E82FE29574
:10164000EF70F0E031A1282F2F7081E090E001C011
:10165000880F2A95EAF7982F9095932391A392A14A
:10166000892B82A3789408959091780392FF06C005
:10167000282F28712830F9F4877F846093FF06C0F3
:10168000282F28712831F1F4877E84612091790315
:1016900020FF06C0382F38713830D9F4877F816039
:1016A00021FF06C0282F28712831D1F4877E81615F
:1016B00094FD877E0895282F24712430F9F68B7FBE
:1016C0008860DCCF282F2471243101F78B7E88615C
:1016D000DDCF382F3171313019F78E7F8860E0CF40
:1016E000282F2171213121F78E7E8861E1CF823848
:1016F0009105B9F1B0F48133910509F47DC048F446
:101700008932910509F46DC08A32910509F47BC0D4
:1017100008958533910509F45FC08933910509F176
:101720000895833E9105D9F138F4803E910529F161
:10173000823E910579F10895863E9105D9F1873E63
:10174000910509F43EC0843E910541F5209179034D
:1017500021FF24C08091780384FD19C087EE90E0BA
:10176000089520917803237009F05AC020917903DD
:1017700023FF14C089E290E008952091780320FDB2
:1017800038C03091790330FF09C024FF43C090E096
:1017900080E008952091780322FDF7CF08952091ED
:1017A000780322FD3AC03091790330FD39C024FF1F
:1017B000F5CFEDCF2091780323FFF0CF24FDE7CFC5
:1017C000CDCF2091780323FD2EC03091790331FFD6
:1017D000EECF84EE90E008952091780325FFDECFD0
:1017E000C9CF2091780325FD21C02091790323FFE3
:1017F000D5CF89E390E0D2CF2091780326FFCECFDA
:101800008AE290E008952091780326FFC7CF81E314
:1018100090E0089583EE90E0089582EE90E00895C0
:1018200080EE90E0089586EE90E0089585E390E0E4
:101830000895972F7A30B8F46630A8F48530B0F464
:1018400070E026E0929F600D711D1124FB019CE366
:10185000899FE00DF11D1124EE0FFF1FE45AFE4F8A
:1018600085919491089580E090E0089581E0FCCF07
:101870001F93CF93DF930E94770BEC01C11580E596
:10188000D807F0F5C11580E4D80708F09CC0C03E29
:10189000D10520F5CD3CD10508F082C0C83AD1056C
:1018A00078F4C53AD10508F073C0C130D10519F1FB
:1018B000209709F1C430D105F0F4D0E0C0E01BC09E
:1018C000C33CD105D0F7C85AD0E0CC0FDD1FC957B3
:1018D000DE4F0990D881C02DD4640DC0C11580E2BF
:1018E000D80708F0D1C0C11581E0D80708F05AC068
:1018F000C83ED10510F7CE01DF91CF911F91089519
:10190000C03682E5D80718F5C03482E5D80708F05C
:101910006BC0C03282E5D80708F05FC0C11582E510
:10192000D80708F497C02C2F2695269580E2289F8B
:10193000900111248C2F8370C1E0D0E002C0CC0F45
:10194000DD1F8A95E2F7C22BD32BDD68D4CFC03AD6
:1019500082E5D80760F4C03882E5D80708F459C09A
:10196000CF71D0E0DC2FCC27C46FD06AC4CFC03C8D
:1019700082E5D80708F462C0C03E82E5D80708F0C7
:101980009CCFDC2FCC27CC27DF71C06FD06AB3CFC0
:10199000C55AD0E0CC57DE4FC881D0E0D064ABCF81
:1019A000D065A9CF8D2F0E94340B182FCE01992717
:1019B0000E94770BC12FD0E0DC2FCC27CC27DF7122
:1019C000C82BD92B98CFCE0199270E94770BCC2713
:1019D000DF70C82BD92BD06A8ECFCF71D0E0DC2F2F
:1019E000CC27C16FD06A87CF2C2F269526952770DC
:1019F00080E2289F900111248C2F8370C1E0D0E0F9
:101A000002C0CC0FDD1F8A95E2F7C22BD32BDC6816
:101A100072CF2C2F26952695277080E2289F900163
:101A200011248C2F8370C1E0D0E002C0CC0FDD1FE9
:101A30008A95E2F7C22BD32BDA685DCF8C2F8F719A
:101A40000E94340BC82FD0E0DC2FCC27CC27DF71CD
:101A5000D06251CF8C2F8F710E94340B55E0D695F8
:101A6000C7955A95E1F7CF70D0E0DC2FCC27282F0F
:101A700030E084FF05C044E0220F331F4A95E1F7B0
:101A8000C22BD32BD06937CF8D2F8F710E94340B8F
:101A9000182FCE0199270E94770BC12FD0E0DC2FA1
:101AA000CC27CC27DF71C82BD92BD2CF80912B0329
:101AB000882331F010922B0310922A0310922903ED
:101AC0000895809590912F05982390932F05089560
:101AD0001092200310921F0310921E0308959091FC
:101AE0001D03292F282321F08095892380931D032E
:101AF000089580917F0590914605981301C008953F
:101B00008F5F8770FACFCF92DF92FF920F931F9370
:101B1000CF93DF936C010091C30380912C03082BBA
:101B2000C7E0D0E010E0FC2EC8010C2E02C0959555
:101B300087950A94E2F780FD0CC02197A0F7F12C5D
:101B40008F2DDF91CF911F910F91FF90DF90CF905C
:101B50000895B6018C2F0E94190C0E94380C019731
:101B600061F3EECFCF93DF93EC010E94830DBE01B2
:101B70000E94190C0E94380CDF91CF910895292FF3
:101B80009A3078F5863068F590E036E0239F800D36
:101B9000911D1124682F677023E0969587952A95EB
:101BA000E1F7FC01EE0FFF1FE80FF91FE250FD4FB8
:101BB00050E040E080E0219130E0062E02C03695F2
:101BC00027950A94E2F721703327042E01C0220FD3
:101BD0000A94EAF7822B4F5F5F4F4330510559F764
:101BE000089580E00895292F9A3098F5863088F579
:101BF00090E036E0239F800D911D1124282F27703F
:101C000041E001C0440F2A95EAF723E096958795B5
:101C10002A95E1F7FC01EE0FFF1FE80FF91FE250D4
:101C2000FD4F30E020E070E05191DF011197CB01D2
:101C3000022E02C0969587950A94E2F781708195ED
:101C40008527842385278C932F5F3F4F23303105D1
:101C500059F708958093C30308959091C30321E039
:101C600030E0F90101C0EE0F8A95EAF7D90102C010
:101C7000AA0FBB1F6A95E2F7EA2B01C0220F4A9513
:101C8000EAF7892F8E23E81305C0292B822F0E94A3
:101C90002A0E089520952923F9CF21E030E001C0D4
:101CA000220F8A95EAF720958091C30382230E9430
:101CB0002A0E089590912003809589238093200314
:101CC000282F277069F4891759F09091790392FFB2
:101CD00007C08695869586950E944D0E0E94680DD8
:101CE000089521E030E001C0220F8A95EAF7809143
:101CF000C303822B0E942A0E089580932C0308951B
:101D0000FC0124812223C1F0808191810E94B20DC7
:101D100092959F70963091F058F4925F9F70923038
:101D200058F4803F19F030F4883E30F481E0089593
:101D30009A5FF4CF843FD1F380E00895883EB0F3FA
:101D4000813FD1F7F3CF982F92959F7011F0892F93
:101D500094E0282F2695269511F09E5F822F869578
:101D600009F09F5F892F0895A6E0B0E0EAEBFEE05E
:101D70000C94B92F49835A8349815A819923A1F040
:101D8000222391F0CA010E94830D182F682F8981A8
:101D90009A810E94F30D69817A81812F0E94190C2A
:101DA0002696E3E00C94D52FCA010E94BF0D182F90
:101DB000F2CF9C013A9521153F4150F5FC01EE27E9
:101DC000F170BC0166277270AC01442754709C010D
:101DD0002227387094FF0EC080E1EF2B09F480E0D9
:101DE000672B09F08062452B09F08064232B89F072
:101DF0008068089581E0EF2B09F480E0672B09F0FB
:101E00008260452B09F08460232B19F088600895C7
:101E100080E00895CF93DF93682F81E06A3019F056
:101E20006D3031F480E00E94980FDF91CF910895DA
:101E30008091CA079091CB0726E0FC01A4ECB7E0A3
:101E400001900D922A95E1F7603E08F458C026E013
:101E5000FC0111922A95E9F7C091CA07D091CB07EE
:101E600046E050E0BE0184EC97E00E943D309E01C8
:101E7000245C3540892B41F1C90145E09695879551
:101E80004A95E1F741E050E0BA0102C0660F771FC2
:101E90008A95E2F7CB016091C2057091C305862B4C
:101EA000972BB9016B5F7F4FE5E076956795EA95D3
:101EB000E1F702C0440F551F6A95E2F7842B952B7A
:101EC0009093C3058093C2052A5F3F4F4091C1059F
:101ED000642F70E0C9010E94962F481B463010F411
:101EE000240F311D211572E0370710F030E020E09B
:101EF0002C533A4F3093CB072093CA0796CFF6E086
:101F00006F9FB00111246855784F46E050E00E9461
:101F10003430A2CFCF93DF93EC01FE018491811185
:101F200003C0DF91CF9108950E940A0F2196F5CF4B
:101F3000CF93382FE091CA07F091CB07E45CF540CE
:101F40002091C105622F70E0CF010E94962F281BBF
:101F5000822F332361F066E00E94E12FC82FC15029
:101F600010F4CF91089580E20E940A0FF8CF9F01EC
:101F7000280F311D2115324018F080E0F0E0E0E03C
:101F80008E0F9F2F911D8C539A4F9093CB07809368
:101F9000CA07E7CF0E948A0F81E00E94980F089538
:101FA0000F931F93CF93DF93EC01FC01019000206E
:101FB000E9F78F0101501109C017D10728F0DF910F
:101FC000CF911F910F91089589910E940A0FF4CF2C
:101FD0000F931F93CF93DF938B01EA0190913C0500
:101FE000943061F58093E9008FEF9091E800815083
:101FF00095FD06C095ED9A95F1F700008111F5CF9A
:102000008091E80085FF1AC00E947C07811111C0F1
:102010008091E80085FD06C08091E8008E7780936E
:10202000E800F2CFF80181918F018093F1002197B0
:1020300079F78091E8008E778093E800DF91CF9167
:102040001F910F91089543E050E0BC0182E00E948F
:10205000E80F0895CF93DF93EC0148E050E0BC0116
:1020600081E00E94E80F88E0FE01A2E3B5E0019064
:102070000D928A95E1F7DF91CF910895539A3BB184
:10208000377F2BB128604FB7F8948BE194E0FC01C7
:102090005191CF0168E02BB9000000C057FF3BB958
:1020A000550F000000C000C000C03BB900C06A95D9
:1020B00091F7F4E0893F9F0751F74FBF8FE594E018
:1020C0000197F1F700C000000895B0E0A0E0EBE652
:1020D000F0E10C94B22F7C015B016A0180916703EF
:1020E00001E010E08A3010F40AE010E0C1E0D0E036
:1020F000B501C701F6010995811104C021960C179D
:102100001D072CF4CDB7DEB7EAE00C94CE2FCC9FA0
:102110009001CD9F300D300D112490E080E045E31B
:102120004A95F1F70000019682179307C1F7E0CFB7
:1021300080913903811110C08091D8008061809313
:10214000D8008AE18A95F1F700C08091D90080FF1C
:102150000AC081E08093390381E090913903913086
:1021600009F080E0089582E0809339030E945D07C2
:1021700010923C05F1CF0E949810882359F0E0910D
:102180002505F0912605309729F00190F081E02D8A
:102190000995089580E00895FF920F931F93CF93C0
:1021A000DF93EC01F62E042F122F0E94981081115C
:1021B0000FC0C532D1057CF0A597FE01EE0FFF1FC1
:1021C000EC0FFD1FE55EFB4FF1820083128303C01D
:1021D000C532D10594F3CDB7DEB7E5E00C94D32F2B
:1021E000CF93C82F0E949810882329F081E0C53230
:1021F00028F080E003C081E0CA34D8F7CF91089579
:10220000B0E0A0E0E6E0F1E10C94B42F7C01C091D5
:102210003F018FE0C89FC02D11241FE01C0F1B340D
:1022200008F01AE40E949810882319F0163208F07A
:1022300015E20E949810811103C0C53208F4C5E26E
:102240002091B60531E0230F08F42FEF30E050E085
:1022500040E06FEF7FEF80E090E00E940F30690177
:10226000D0E001E02C2FC11740F0812F0E94F01028
:10227000CDB7DEB7E8E00C94D02FFE01E655FD4F58
:10228000808190914001892309F14091840541505A
:10229000042E000C550B47FF1BC0C6016091B6050C
:1022A000600F08F46FEF0E947D0AAC016091B305E6
:1022B0007091B4058091B505F70109950E94870AD0
:1022C000462F282F672FCE010E94140A2196CACFCD
:1022D000FA01EC57FA4F818982130AC0FA01EE0F16
:1022E000FF1FEC57FA4F818D928D8C159D05B0F232
:1022F00041505109D0CFEF92FF920F931F93CF938C
:10230000DF937C01C0913F018FE0C89FC02D112455
:102310001FE01C0F1B3408F01AE40E949810882359
:1023200019F0163208F015E20E949810811103C0CE
:10233000C53208F4C5E26091B6056695669521E060
:10234000620F08F46FEF80918005909181050E94E3
:102350007D0A082FD0E0C11740F0812F0E94F010B5
:10236000CDB7DEB7E6E00C94D22FFE01E655FD4F67
:10237000808190914001892391F06091B305709123
:10238000B4058091B505202F4C2FF70109950E94C7
:10239000870A462F282F672FCE010E94140A219604
:1023A000DACFB0E0A0E0E7EDF1E10C94B22F182F06
:1023B00080913A01811323C09091B20593702091CE
:1023C000390130E081E09217130609F480E0817052
:1023D000809341018091B70590914001981739F0A1
:1023E0008093400140E060E080E00E94170A1B30CB
:1023F00088F4E12FF0E0E955FF4C0C942E3081E099
:10240000E6CF80914101882389F140E060E080E0DF
:102410000E94170A80E02AC0C0913F018FE0C89F48
:10242000C02D11240FE00C0F0B3408F00AE40E94B9
:102430009810882319F0063208F005E20E949810DF
:10244000811103C0C53208F4C5E26091B3057091F3
:10245000B4058091B5050E94870AF62EE72ED82E86
:10246000D0E0C017D8F0802F0E94F01090913F016B
:102470009F5F90933F0181110CC082E080934201E5
:1024800080914101811105C0111103C083E0809347
:102490004201CDB7DEB7EAE00C94CE2FFE01E6553F
:1024A000FD4F808190914001892331F02D2D4F2DDA
:1024B0006E2DCE010E94140A2196D3CFC0913F0108
:1024C0008FE0C89FC02D11240FE00C0F0B3408F0D3
:1024D0000AE40E949810882319F0063208F005E2F9
:1024E0000E949810811103C0C53208F4C5E2E09043
:1024F000B405F090B505D091B3056D2F7E2D8F2DCD
:102500000E94870AD62EC72EB82E6091B6056D0F91
:102510007E2D8F2D0E94870AF62EE72EA82ED0E062
:10252000C01708F0A0CFFE01E655FD4F90818091C5
:102530004001892359F02A2D4F2D6E2D90FD03C0A7
:102540002B2D4D2D6C2DCE010E94140A2196E8CF23
:10255000C0913F018FE0C89FC02D11240FE00C0FE8
:102560000B3408F00AE40E949810882319F0063210
:1025700008F005E20E949810811103C0C53208F4EA
:10258000C5E2E090B405D090B5052091B605B0E461
:10259000FB2E3F2D329F312D1124F32ED0E0C0179A
:1025A00008F061CFFE01E655FD4F8081909140011A
:1025B0008923B9F0FE01EE0FFF1FE652FE4F85ADF5
:1025C00082958F706091B3058F9D600D11247E2DD3
:1025D0008D2D0E94870A462F282F672FCE010E943B
:1025E000140A2196DCCFC0913F018FE0C89FC02D17
:1025F00011240FE00C0F0B3408F00AE40E9498102D
:10260000882319F0063208F005E20E949810811123
:1026100003C0C53208F4C5E2D090B405E090B5051A
:102620002091B605F0E4FF2E3F2D329F312D11246D
:10263000F32ED0E0C01708F016CFFE01E655FD4F8F
:102640008081909140018923D9F0FE01EE0FFF1F98
:10265000E652FE4F64ADF69EB0011124E5E075959B
:102660006795EA95E1F78091B305680F7D2D8E2D72
:102670000E94870A462F282F672FCE010E94140A36
:102680002196D8CFC0913F018FE0C89FC02D112463
:102690000FE00C0F0B3408F00AE40E949810882316
:1026A00019F0063208F005E20E949810811103C06B
:1026B000C53208F4C5E2F090B305D091B405E090BE
:1026C000B5056091B605669566956695809180051D
:1026D000909181050E947D0A0E945E0A805887FDC4
:1026E0008195880F282F3E2D239F212D1124822F85
:1026F0006F2D7D2F0E94870AF62EE72ED82ED0E070
:10270000C01708F0B0CEFE01E655FD4F80819091D4
:102710004001892331F02D2D4F2D6E2DCE010E94C9
:10272000140A2196EDCF8BEF99E00E947B119ECE8B
:10273000C0913F018FE0C89FC02D11245FE0F52EAE
:10274000FC0E2AE42F1510F44AE4F42E0E9498108F
:10275000882329F035E23F1510F435E2F32E0E946C
:102760009810811103C0C53208F4C5E26091B60526
:102770006695669580918005909181050E947D0AFD
:10278000D82E80E48D0D0E945E0A90E8C92EC80EF6
:102790008D2D0E945E0A20E8B22EB80ED0E0CF1533
:1027A00010F08F2D61CEFE01E655FD4F8081909196
:1027B00040018923A1F06091B3057091B405809127
:1027C000B505ED2C0C2F2B2D4C2D0E94300A0E94AC
:1027D000870A462F282F672FCE010E94140A2196C0
:1027E000DECF8AEE99E0A1CF83EE99E00E9400113E
:1027F0003DCE8DED99E0FACF0F931F930E94981074
:10280000882329F00E94BB081F910F9108950E9410
:10281000BB08009168031091690320916A0330910D
:102820006B03600F711F821F931FEECFCF92DF9259
:10283000EF92FF926B017C010E9498108823A1F017
:102840002FB7F89460912A0570912B0580912C0583
:1028500090912D052FBF6C197D098E099F09FF905E
:10286000EF90DF90CF9008950E94FC13F4CFB0E07A
:10287000A0E0EDE3F4E10C94B42F6C017B0164E67D
:1028800070E088E70E94F42C8C01E601EC0CFD1C42
:1028900017FD0BC0FE01849164E670E00E94602D7C
:1028A0008C012196CE15DF0599F70E94D62D81E087
:1028B0000115110509F080E0CDB7DEB7E8E00C9412
:1028C000D02F8091FD049091FE04911103C091E0FE
:1028D00089270895882369F062E070E08DEA96E028
:1028E0000E943714811103C08091FD040895109255
:1028F000FD048091FD04EBCFCF93C091FD04809146
:10290000FE048823D1F00E94BB08605A75418F4FA6
:102910009F4F6093F9047093FA048093FB049093A3
:10292000FC04C11108C062E070E08BEA96E00E94EE
:102930003714811105C0C091FD048C2FCF910895EB
:1029400081E08093FD04F7CF4F925F926F927F9268
:102950008F929F92AF92BF92CF92DF92EF92FF92AF
:10296000CF93609116047091170480911804909190
:1029700019040E9416146B017C010E94FC134B0188
:102980005C018092160490921704A0921804B092F1
:102990001904A091ED03EDEEF3E08A2F90E04FEFE4
:1029A0005FEF60E070E04C195D096E097F09A913C3
:1029B0002AC08093ED0380911A04C0E0811108C001
:1029C0008091B205C82FC37019F0C82FC695C6955F
:1029D00080914201813009F440C0882339F182306E
:1029E00009F445C0833009F446C0CF91FF90EF90C1
:1029F000DF90CF90BF90AF909F908F907F906F901F
:102A00005F904F900895218D328D2901712C612C9A
:102A1000441555056605770520F481509F5F329671
:102A2000C6CF2C0D3D1D328F218FF8CF10923F0164
:102A30008092800590928105A0928205B0928305D4
:102A400089E2EDEEF3E0A4E8B5E001900D928A95FD
:102A5000E1F781E080934201C8CF8C2F0E94D11111
:102A6000CC2319F20E9498100E949810BECF8C2F90
:102A70000E94D009BACF8091B105882351F048E077
:102A800050E068E170E082EB95E00E9471301092B6
:102A9000B1056091800570918105809182059091CA
:102AA00083050E941614603171058105910508F4B3
:102AB0009CCF1092420199CFE2EBF5E085E0808354
:102AC0008091450190914601A091470181839283B5
:102AD000A3838FE784838FEF858348E050E068E12C
:102AE00070E0CF010E9471301092B1050895A4E00A
:102AF000B0E0EDE7F5E10C94B92F40915F03509100
:102B0000600360916103709162032FB7F894809124
:102B10002A0590912B05A0912C05B0912D052FBF72
:102B2000841B950BA60BB70B11E084369105A1050C
:102B3000B10570F10E94FC136E5F7F4F8F4F9F4F66
:102B400069837A838B839C838091190190911A0108
:102B5000895B9C4F4091180150E04530510510F0C1
:102B600044E050E0BE016F5F7F4F0E944A3083E037
:102B700090E00E94202F182F882351F00E94BB085C
:102B800060935F037093600380936103909362038B
:102B9000812F2496E3E00C94D52FEF92FF921F93A0
:102BA000CF93DF9300D000D000D0CDB7DEB77B014C
:102BB00090E080E00E94202F182F882309F480C025
:102BC0004091030150E04115510511F041E050E002
:102BD0006091040170910501695B7C4FCE010696FE
:102BE0000E944A3040913F0350914003609141035D
:102BF000709142032FB7F89480912A0590912B058C
:102C0000A0912C05B0912D052FBF841B950BA60B11
:102C1000B70B84369105A105B10540F488E493E033
:102C20000E9433079E81891709F44AC081E090E031
:102C30000E94202F811116C010E085E0EAE3F3E046
:102C4000D70101900D928A95E1F7812F26960FB654
:102C5000F894DEBF0FBECDBFDF91CF911F91FF90E3
:102C6000EF90089540910B0150E04630510510F06F
:102C700045E050E060910C0170910D01695B7C4F63
:102C8000CE0101960E944A3088E493E00E94330707
:102C90009E818913D1CF0E94BB0860933F0370933C
:102CA0004003809341039093420385E0FE013196F7
:102CB000AAE3B3E001900D928A95E1F711E0BDCF50
:102CC00085E0E8E4F3E0DE01119601900D928A952B
:102CD000E1F71111EACFB1CF4F925F926F927F92DD
:102CE0008F929F92AF92BF92EF92FF920F931F939A
:102CF000CF93DF937B01FB01408051806280738022
:102D00009FB7F89480902A0590902B05A0902C05F1
:102D1000B0902D059FBF84189508A608B708F4E663
:102D20008F169104A104B10418F4C1E0442329F1E1
:102D3000C82F880FDD0BFE0183E0EE0FFF1F8A9581
:102D4000E1F7E050FF4F81819281895B9C4F408188
:102D500050E00417150708F4A801B9010E944A3091
:102D6000CE010E94202FC82F882339F00E94BB0873
:102D7000F70160837183828393838C2FDF91CF91DE
:102D80001F910F91FF90EF90BF90AF909F908F9009
:102D90007F906F905F904F900895A9E0B0E0E3EDD1
:102DA000F6E10C94B82F88E0E2EBF5E0DE01119635
:102DB00001900D928A95E1F780911A04898749E084
:102DC00050E066E573E0CE0101960E943D3041E09F
:102DD000892B09F440E009E010E09E012F5F3F4F8E
:102DE00063E673E084E00E946C162996E4E00C949C
:102DF000D42F0F931F93CF93DF93EC0145E050E066
:102E00006DE473E00E943D3041E0892B09F440E01D
:102E100005E010E09E0163E473E082E00E946C161E
:102E2000DF91CF911F910F910895A8E0B0E0EBE101
:102E3000F7E10C94BA2F66EE7EEF90E080E00E94FE
:102E40009F3060E082E090E00E94813060E083E0AB
:102E500090E00E94813010922C0360E074E184E0E5
:102E600090E00E949F3060E086E090E00E94813018
:102E70006FEF87E090E00E94813040E050E0BA01BF
:102E800088E090E00E94933060E084E290E00E944D
:102E9000813060E087E190E00E94813060E08CE06A
:102EA00090E00E94813060E08DE090E00E948130EF
:102EB00019821A821B821C821D821E821F82188622
:102EC00048E050E068E170E0CE0101960E94713068
:102ED00040E050E0BA0180E290E00E94933040E090
:102EE00050E0BA018FE090E00E94933040E050E063
:102EF000BA0183E190E00E9493302896E2E00C94BE
:102F0000D62F9091790392FB222720F9281779F088
:102F100080FB92F990937903609178037091790323
:102F200084E090E00E949F3082E00E945A0E089553
:102F30001F920F920FB60F9211242F933F934F932E
:102F40005F936F937F938F939F93AF93BF93EF9311
:102F5000FF938091E10082FF09C08091E20082FF2F
:102F600005C08091E1008B7F8093E1008091DA00C1
:102F700080FF24C08091D80080FF20C08091DA00BB
:102F80008E7F8093DA008091D90080FF9DC080E120
:102F900089BD82E189BD09B400FEFDCF81E0809347
:102FA0003C0580912E05811109C00E945D070E9499
:102FB000FE078091E20084608093E2008091E1004E
:102FC00080FF17C08091E20080FF13C08091E20073
:102FD0008E7F8093E2008091E20080618093E20026
:102FE0008091D80080628093D80019BC85E08093DE
:102FF0003C058091E10084FF2BC08091E20084FFBA
:1030000027C080E189BD82E189BD89B5982F917083
:1030100080FFFBCF8091D8008F7D8093D800809176
:10302000E1008F7E8093E1008091E2008F7E8093AB
:10303000E2008091E20081608093E20080913D0592
:10304000882309F447C084E080933C0580913C05C7
:103050008091E10083FF27C08091E20083FF23C0BD
:103060008091E100877F8093E10082E080933C05BE
:1030700010923D058091E1008E7F8093E100809168
:10308000E2008E7F8093E2008091E2008061809375
:10309000E20042E060E080E00E94CC078091F00016
:1030A00088608093F000FF91EF91BF91AF919F9165
:1030B0008F917F916F915F914F913F912F910F90E1
:1030C0000FBE0F901F90189519BC10923C051092DE
:1030D0002E0574CF8091E30087FD93E090933C052B
:1030E000B5CF78941F921FB61F9211248F939F9390
:1030F000AF93BF9380912A0590912B05A0912C0549
:10310000B0912D050196A11DB11D80932A059093C4
:103110002B05A0932C05B0932D05BF91AF919F91E6
:103120008F911F901FBE1F9018959C014FB7F89468
:1031300080912A0590912B05A0912C05B0912D0529
:103140004FBF821B930B08952FB7F89480912A05E7
:1031500090912B05A0912C05B0912D052FBF0895BE
:10316000AFE0B0E0E6EBF8E10C94AF2F8E010F5F1B
:103170001F4F8AE0D8011D928A95E9F78FEBC82E80
:1031800081E0D82EF12CE12CAA24A394B12C2AECB6
:10319000822E21E0922EF60181916F018F3F09F47A
:1031A00042C0F894E82FE295EF70F0E021A18F7013
:1031B000A50102C0440F551F8A95E2F7CA01922F5C
:1031C000982B91A392A18095892382A3789400C023
:1031D000E4ECF1E0712C31E021912F3F09F46BC058
:1031E000A22FA295AF70B0E090968C9190E02F70D6
:1031F00002C0959587952A95E2F780FD5CC0832FE4
:10320000782A330F8E169F0639F7F60131978081A1
:103210008F3F11F00E941D0B50EA5A95F1F7F8010B
:10322000EE0DFF1D70828FEFE81AF80AA5E0EA168E
:10323000F10409F0B0CF4AE050E0B8018CE693E029
:103240000E943D30009741F02AE0F801ACE6B3E07F
:1032500001900D922A95E1F700917703892B69F18E
:1032600081E0809331030E94A418909330038093EF
:103270002F0380912F03909130030E94951805979A
:1032800000F110E006581C4F45E050E06CE673E09A
:10329000C8010E943D30D12C892B51F085E0ECE62D
:1032A000F3E0D80101900D928A95E1F7DD24D394E3
:1032B0001092310307C080E0A3CF809131038111C8
:1032C000D8CFD12C0E949810C82EE0917703882384
:1032D00009F47FC07E01BBE0EB0EF11C85E0D70155
:1032E0001D928A95E9F70E2F10E006581C4F809129
:1032F00067038A30D8F54DEC55E1B701C8010E944B
:103300006510882309F454C049EF56E1B701C8019C
:103310000E946510882309F44BC047E755E1B701C7
:10332000C8010E946510882309F442C04DEC56E1A3
:10333000B701C8010E9465108823D1F1109267037C
:103340008091760390E045E050E0B70186589C4FAD
:103350000E943D3021E020933803892BE1F4C12CF9
:103360008C2D8D292F96EDE00C94CB2F809132037C
:10337000909133030E949518843F914008F0BBCF91
:1033800080913803882359F385E0F70111928A95DB
:10339000E9F710923803A0917603B0E0A658BC4F2D
:1033A00085E0FE013B9601900D928A95E1F7D8CF1A
:1033B000809167038F3F31F08F5F809367038A307E
:1033C00008F4BECF0E94A418909333038093320375
:1033D000D7CF0091760310E006581C4FF0E0E65876
:1033E000FC4F85E0A8E4B3E001900D928A95E1F7E7
:1033F00088E493E00E9433078093470385E0EDE47F
:10340000F3E0D80101900D928A95E1F78090520384
:1034100090905303A0905403B090550380913403CF
:1034200090913503A0913603B09137038816990621
:10343000AA06BB06D1F08092340390923503A09285
:103440003603B09237030E94981081110EC00E947B
:10345000BB08861A970AA80AB90A80926803909254
:103460006903A0926A03B0926B0388E0E6E5F3E09B
:10347000A2EBB5E001900D928A95E1F710915E0301
:10348000112349F080911A04811105C00E94D111C5
:1034900080E00E94D00910931A0462CFCF93C82F06
:1034A0008091790382FF0CC080912B038C1741F02F
:1034B0000E94A41890932A0380932903C0932B039E
:1034C000CF91089590912B03292F282361F08095A7
:1034D000892380932B03882339F00E94A4189093AA
:1034E0002A0380932903089590E080E0F8CF80912B
:1034F0002F059091AD05892B8093F60280912B03C7
:10350000882319F10E94A4182091290330912A03DD
:10351000821B930B8838934110F00E94560D8091C6
:10352000F60290912B03892B8093F60220E088EF1E
:1035300092E0FC013191CF0131112F5FF2E08E3F1B
:103540009F07B9F721110E94560D48E050E061E253
:1035500073E086EF92E00E943D30892BA9F088E06D
:10356000E6EFF2E0A1E2B3E001900D928A95E1F777
:10357000E0912505F0912605309731F00280F38126
:10358000E02D86EF92E00995089580913D01877FB7
:1035900080933D019091AD059D7F9093AD0584FF93
:1035A00008C08F7E80933D0180912F0582608093BB
:1035B0002F0580913D0185FF08C08F7D80933D01DF
:1035C00080912F05806280932F050E94771A0895BD
:1035D000E8EFF2E086E0DF011D928A95E9F790E0DE
:1035E00080E00E94EC0890E080E00E94C708109202
:1035F000AD050E94771A0895AAE2B0E0E2E0FBE18F
:103600000C94B92F8EE395E02091F100FC012193F9
:10361000CF01F5E086349F07B9F780913F058330ED
:1036200009F470C0B8F4813009F447C0823009F45D
:10363000B3C08091E80083FF80C280913E059091E5
:103640003F059A3008F079C2E92FF0E0EE54FF4CC4
:103650000C942E308A3009F48EC08B3009F46FC080
:10366000893039F780913E05813219F78091420502
:10367000909143050297E8F68091E800877F809358
:10368000E8008091E80082FF38C09091F3008091BB
:10369000F200029731F48091F100813011F0863010
:1036A00021F48091F100809331058091E8008B77BF
:1036B0008093E8000E94AD07BCCF80913E05813A1F
:1036C00009F0B7CF8091E800877F8093E800809170
:1036D000420590914305892B61F468E082E395E00F
:1036E00070E00E9459088091E8008B778093E80091
:1036F000A0CF60E090E080E0F3CF80913C058111A5
:10370000C0CF97CF80913E05813A09F092CF80914A
:10371000420590914305892B09F08BCF8091E800F9
:10372000877F8093E8008091E80080FFFCCF809144
:103730003E018093F1008091E8008E77B9CF8091AF
:103740003E05813209F075CF809142059091430585
:10375000892B09F06ECF8091E800877F8093E80085
:103760000E94AD078091400580933E0110922F0585
:103770000E94E81A5ECF80913E05813209F059CF50
:103780008091E800877F8093E8000E94AD078091D8
:103790004105809330054DCF80913E05813A09F077
:1037A00048CF8091E800877F8093E8008091E8000F
:1037B00080FFFCCF80913005BCCF803899F08238F3
:1037C00009F0BBC1809142058F70873008F0B5C108
:1037D0008093E9008091EB0085FB882780F91092A7
:1037E000E90006C080913A0590913B0591118260F5
:1037F0009091E800977F9093E8008093F1001092F9
:10380000F1008091E8008E7794C1882309F482C189
:10381000823009F092C180914005811185C180916B
:1038200042058F702FEF280F263008F086C1809355
:10383000E9002091EB0020FF77C1933031F48091B3
:10384000EB0080628093EB006FC19091EB00906180
:103850009093EB0021E030E001C0220F8A95EAF757
:103860002093EA001092EA008091EB008860EACF92
:10387000811163C1109140051F778091E30080782A
:10388000812B8093E3008091E800877F8093E8009C
:103890000E94AD078091E80080FFFCCF8091E3009B
:1038A00080688093E30082E0111183E080933C05FF
:1038B00044C18058823008F040C180914005909109
:1038C00041058C3D23E09207A1F583E08A838AE2DB
:1038D00089834FB7F894DE01139620E03EE051E271
:1038E000E32FF0E050935700E49120FF03C0E295EE
:1038F000EF703F5FEF708E2F90E0EA30C0F0C79618
:103900008D939D932F5F243159F74FBF8091E8002D
:10391000877F8093E8006AE270E0CE0101960E9402
:1039200059088091E8008B778093E80006C1C09623
:10393000E7CF4091420550914305292F332723308B
:10394000310509F444C078F52130310509F46FC020
:103950008BE390E0E1E2F7E02230310509F0EDC0C1
:103960002091E800277F2093E800209144053091C2
:1039700045058217930708F49C0140E021153105A5
:1039800009F064C0411162C08091E80082FDC9CF96
:1039900080913C05882329F2853019F28091E80056
:1039A00083FFF2CFBECF21323105A9F1223231059A
:1039B00009F0C3C04115510509F443C04130510518
:1039C00009F0BBC082E390E0EFEAF6E0C9CF9927A7
:1039D00081309105C1F0009759F0029709F0ADC010
:1039E000EEE6F7E0E4918E2F90E0EEE6F7E007C018
:1039F000E4EAF7E0E4918E2F90E0E4EAF7E0009744
:103A000009F49BC0ADCFE6E8F7E0E4918E2F90E09B
:103A1000E6E8F7E0F4CF4115510571F0413051056A
:103A200009F08BC089E090E0ECE4F7E099CF82E107
:103A300090E0ECE5F7E094CF89E090E0E3E3F7E095
:103A40008FCF80E490E0E1EEF6E08ACF80913C05F4
:103A5000882309F466CF853009F463CF8091E800AC
:103A600083FD5FCF8091E80082FD8ECF8091E800DA
:103A700080FF84CF9091F3008091F20021153105F1
:103A800019F08830910550F041E0089709F040E0C6
:103A90008091E8008E778093E80070CF4491409346
:103AA000F1003196215031090196E8CF803809F0B4
:103AB00044C08091E800877F8093E80080913D05B5
:103AC0008093F1009ECE811138C0109140051230D4
:103AD000A0F58091E800877F8093E80010933D0572
:103AE0000E94AD07112311F084E005C08091E3002E
:103AF00087FDFACF81E080933C0542E061EC81E0F4
:103B00000E94CC0742E261EC82E00E94CC078091E7
:103B10003C0513C080914005813079F481E09330F9
:103B200009F080E080933B051092E9008091E80065
:103B3000877F8093E8000E94AD078091E80083FFB3
:103B40000AC08091E800877F8093E8008091EB00B5
:103B500080628093EB00AA96E3E00C94D52F1F922D
:103B60000F920FB60F9211242F933F934F935F93B1
:103B70006F937F938F939F93AF93BF93CF93DF9375
:103B8000EF93FF93D091E900DF708091EC00C82F94
:103B9000C17080FDC0E81092E9008091F000877F3D
:103BA0008093F00078940E94FC1A1092E9008091B2
:103BB000F00088608093F000CD2BCF70C093E900B7
:103BC000FF91EF91DF91CF91BF91AF919F918F9135
:103BD0007F916F915F914F913F912F910F900FBE09
:103BE0000F901F90189510922F050E94E81A2FEF42
:103BF00084E39CE0215080409040E1F700C0000049
:103C000088E19CE00FB6F894A895809360000FBE01
:103C100090936000FFCF882341F080959091AD058F
:103C200089238093AD050E94771A0895882339F07F
:103C30009091AD05982B9093AD050E94771A089549
:103C4000882321F00E94610D0E94771A089588232D
:103C500039F090912F05982B90932F050E94771A99
:103C60000895882391F19CEF980F913A80F4E8EF42
:103C7000F2E02EEF32E09191891303C0DF0111973A
:103C80001C922E173F07B9F70E94771A089590E209
:103C9000980F983050F4877091E001C0990F8A9581
:103CA000EAF7892F0E94610DEFCF9BE5980F9330C3
:103CB00028F490E080E00E94EC080895885A8B3147
:103CC00020F490E080E00E94C7080895CF93DF932E
:103CD000EC010E94311ECE010E94D90E9E01205E91
:103CE00031092830310510F0CD2B29F40E94201E17
:103CF000DF91CF9108950E940B1EFACF0F931F936F
:103D0000CF93C82F882349F18CEF8C0F813AB8F5F7
:103D100008EF12E08EEF92E0F8012191C21709F14D
:103D200022E0EE3FF207C9F7EFEF80E0D8019D9166
:103D30008D01C91781F0EF3F19F4911101C0E82FEF
:103D40008F5F863099F7EF3F31F00E2E000CFF0B9E
:103D5000EA50FD4FC2830E94771ACF911F910F91B5
:103D60000895E8EFF2E02191C21303C0DF0111973B
:103D70001C928E179F07B9F70E94771AD5CF80E261
:103D80008C0F883068F4C77021E030E001C0220F4A
:103D9000CA95EAF780912F05822B80932F05DBCF00
:103DA000EBE5EC0FE33040F4F0E0EC57FE4F8081A0
:103DB00090E00E94EC08D1CFC85ACB3170F6EC2FBE
:103DC000F0E0EE0FFF1FE957FE4F808191810E94C6
:103DD000C708C3CFCF93DF93EC01662329F080910E
:103DE000AD0582608093AD05CE0190528115904360
:103DF00008F4DD27CE010E94D90E9E01205E310914
:103E00002830310510F0209741F40E94271E8C2F96
:103E10000E947E1EDF91CF9108950E94161EF7CF5B
:103E2000B0E0A0E0E6E1FFE10C94B42F6C018B015F
:103E3000E42E80913D0182FF7AC0C0912105D0918E
:103E40002205CC15DD0521F0C114D10409F06FC0A5
:103E500080913D018B7F80933D0181FD61C0809108
:103E60001F0590912005A801481B590B81E0209166
:103E70003B0130913C014217530708F480E0817008
:103E8000F82E80913D01F0FA81F980933D01FE0109
:103E900083E0F695E7958A95E1F7EE71FF27E1500B
:103EA000FB4F20813181AE014F70552781E090E0BA
:103EB00002C0880F991F4A95E2F7FF2099F1822BE3
:103EC000932B9183808380912F0581FF08C080917F
:103ED0003D01806180933D0182E00E94610D8091EF
:103EE0002F0585FF08C080913D01806280933D01D0
:103EF00080E20E94610D6F2DCE010E94EA1EE1104A
:103F00002AC080912105909122059C0130522115F3
:103F1000304308F499270E94661E0E94C51A17C0F4
:103F200081E0ADCF8095909582239323CACFC601BF
:103F3000905281159043A0F4C60199270E94661EF5
:103F400080912105909122058C159D0531F31093E8
:103F5000200500931F05CDB7DEB7E8E00C94D02F05
:103F6000C601ECCF1F93CF93DF93182FD0E0C0E0B2
:103F7000893311F4C0E5D0E0812F0E947E1E209786
:103F800039F4812F0E94311EDF91CF911F91089546
:103F90008FE99FE00197F1F700C000002197EFCF74
:103FA0000F931F93CF93DF93C62FD42F022FFC01C3
:103FB00085818823A9F06093B0050E94A41890938E
:103FC000AF058093AE05C77081E001C0880FCA9528
:103FD000EAF70E94271EDF91CF911F910F9108955C
:103FE0008091B005681332C08091AE059091AF0505
:103FF0000E9495188639910548F510E21D0FCD17DE
:10400000B9F080E28C0F883040F4C77081E001C0C5
:10401000880FCA95EAF70E94201E183048F481E004
:104020009D2F977001C0880F9A95EAF70E94271E6E
:10403000802F0E94B21F183070F6D77081E001C047
:10404000880FDA95EAF70E94201EC5CFC77081E07D
:1040500001C0880FCA95EAF7F6CF9091790392FFD5
:1040600010C098E0899F90011124622B6093200377
:104070000E94710E0E94A41890931F0380931E0348
:1040800008950E94710E0895B0E0A0E0EAE4F0E225
:104090000C94AC2F8C01FC018481882309F41DC28F
:1040A00021E0408151816281738195810E94B40E2B
:1040B000EC01F80185818823D1F080E28093310101
:1040C000D093C503C093C403CE0190528115904391
:1040D00008F065C0CE0199279093C5038093C4036F
:1040E000F80181818093C70380818093C6030E9479
:1040F000A4184C01F8018581882309F435C1809109
:104100003D0182FF08C02FE833E040E0B40190E0B9
:1041100080E00E94101FC231FCE7DF0709F473C082
:1041200008F048C0C0313CE7D30709F462C0809171
:104130003B0190913C010596C1316CE7D60709F42B
:104140005DC0CE0190528115904308F01BC11092C2
:10415000220510922105F8018581882309F40EC5F6
:104160001092B005C737FCE7DF0709F490C282E080
:10417000C8372CE7D20709F48BC2C3307CE7D707D6
:1041800009F4D5C208F092C2C1159CE7D90709F419
:104190009DC2C130DC4709F02BC20E94F31DCC3315
:1041A000D10508F09DCFFE01E85BFE4F8081809332
:1041B000310196CFC4317CE7D707B9F080F09091F8
:1041C0003D01892F8E7F90FF8160C5319CE7D90723
:1041D00009F0B7CF80933D010E94C51AB2CF8091FC
:1041E0003D01816080933D01ACCF80913D018E7F88
:1041F000F1CF80913B0190913C01059790933C0158
:1042000080933B019ECF80913B0190913C010E94A5
:10421000AE067C01FC012191CF012032D1F36AE08E
:10422000462EF7012081222309F48BCF213009F09B
:1042300046C091818281913031F4F2E0EF0EF11CA1
:104240000E94B21F07C0923049F422E0E20EF11C36
:104250000E947E1E3FEFE31AF30AE3CF933031F45E
:1042600032E0E30EF11C0E94311EF4CF943021F0B5
:104270006FEFE61AF60AEECF72E0E70EF11C30E0BF
:1042800020E0A7014F5F5F4F8053990B8A30910563
:1042900050F021503109F0F28FE99FE00197F1F7DA
:1042A00000C00000F6CF429EB001439E700D112465
:1042B0009C01260F371FF70181817A01E2CFE22F9F
:1042C000F0E0E452FF4F5490822F869586958695B4
:1042D00090E0FC01E453FF4F64902770712C022E94
:1042E00002C0759467940A94E2F7E1E06E227724A5
:1042F000FC01E454FF4FA490B12C022E02C0B594EF
:10430000A7940A94E2F7F1E0AF22BB24FC01E45544
:10431000FF4FC490D12C02C0D594C7942A95E2F7E0
:1043200021E0C222DD246114710419F081EE0E94A3
:104330007E1EA114B10419F086EE0E947E1E852D0A
:104340000E94B21FA114B10419F086EE0E94311E22
:104350006114710419F081EE0E94311EC114D10460
:1043600009F478CF8CE26CCF80913D018F7EC13E05
:10437000D10531F0C53ED105D1F480913D018F7D4D
:1043800080933D0180913D0180FF16C0F801858139
:104390009E012450310924323105C8F481111EC018
:1043A000980140E0B401CE010E94101F87C0CE01E9
:1043B00090528115904330F7FE01E851FC47E730F9
:1043C000F10508F0C8CEE454FF4C0C942E3088233D
:1043D00099F31092220510922105EECF30912F050E
:1043E00080912B03282F232B922F9D7F69F1109210
:1043F000220510922105FE0144E0F695E7954A95C5
:10440000E1F7EE0FFF1FE150FB4F9E012F703327A6
:1044100081E090E002C0880F991F2A95E2F780950D
:10442000909520813181822393239183808360E062
:10443000CE010E94EA1E80912B038D7F0E944E1AAE
:1044400082E00E945A0E3AC097E0AFE8B3E00190D4
:104450000D929A95E1F710929403109292031092A4
:104460009103E0902105F0902205CE15DF05D1F5EE
:1044700090913D0191FD36C040911F05509120055E
:10448000B401641B750B6639710560F531FF06C018
:10449000906190933D0182E00E94610D80912F0513
:1044A00085FF08C080913D01806280933D0180E2DC
:1044B0000E94610D60E0C7010E94EA1E8091200306
:1044C000877059F0F8018581882339F0809179034C
:1044D00082FF03C082E00E945A0ECDB7DEB7E0E152
:1044E0000C94C82F90913D0121FB91F990933D01CF
:1044F0008D7F0E944E1AD0932205C0932105909281
:10450000200580921F0580913D01846080933D01CC
:1045100097CF26E241EE61EEC8010E94D01FCECFB8
:1045200027E245EE65EEF8CF26E241EE60EEF4CFED
:1045300027E245EE64EEF0CF26E241EE62EEECCFEC
:1045400027E245EE66EEE8CF28E241E0EBCF80912E
:10455000B20591E089278093B205109242018091C3
:10456000B10581608093B105A9CF4BEB59E065ECB3
:1045700079E00E945109A2CF45EC59E06BEB79E05C
:10458000F8CF47EA59E061EB79E0F3CF41EB59E02E
:1045900067EA79E0EECF4DE859E06AE979E0E9CFE2
:1045A0004AE959E06DE879E0E4CF43E759E060E893
:1045B00079E0DFCF40E859E063E779E0DACF47E51B
:1045C00059E065E679E0D5CF45E659E067E579E061
:1045D000D0CF81E00E94FB0671CF85E0FBCFC737CB
:1045E0003CE7D30709F45CC0C837DC4709F45CC07A
:1045F000F8018581C081D181882309F4ABC0CE0147
:104600000E94830DF82E682FCE010E94F30DBE018B
:104610008F2D0E94190C0E94380CD82FC92FA82E5C
:10462000F801E580D680D2943FE0D3228091200328
:104630008770F1F0CE2CEE20E1F0892F807F80345E
:1046400051F080E28D0F883098F0D11004C0892F8E
:10465000807E803269F08091790382FF09C082E018
:104660000E945A0E809120038770CC24C39481113C
:10467000C12CBC2EB2942FE0B222FBE0FB1508F453
:10468000CEC0EB2DF0E0ED53FF4C0C942E3081E0CA
:104690000E94710E43E062E081E00E942D0E0ECF79
:1046A00081E00E944D0EF6CF82E0FBCFCB35FCE7D8
:1046B000DF0709F44DC0CC352CE7D20709F43EC022
:1046C000CA35DC4709F094CF81E03FC010922F0536
:1046D0000E94E81A6FEF74E38CE0615070408040F4
:1046E000E1F700C0000081E08093E00080E2809369
:1046F000D8001092C900EFE1FEE43197F1F700C055
:10470000000087E090EBDC018093CC079093CD070D
:10471000A093CE07B093CF0788E19CE00FB6F89442
:10472000A895809360000FBE90936000FFCF6FEF5D
:104730007FEF90E080E00E949F302FCD8091790341
:1047400082FB882780F991E089270E94811750CF4A
:1047500080E0FBCFCE010E94BF0DF82E58CF2C2F4A
:104760002F70F22EC07F19F0F29490EFF922EE2014
:10477000B9F0FF2069F080E28D0F883010F0A110B1
:1047800009C080912F05F82AF0922F050E94771A10
:104790008D2F43C08091AD05F82AF092AD05F6CF7C
:1047A0008D2F0E94311EFF20D1F1D05ED83010F045
:1047B000A11004C08F2D0E94610D06C0F09480915D
:1047C000AD05F822F092AD050E94771A28C03C2F63
:1047D0003F70F32EC07FC03219F0F29480EFF822C0
:1047E000AA2059F061E0A61609F48EC0EE2009F463
:1047F0009AC0DD2009F447C0CBCF8091790382FDB8
:104800003EC0EE20B1F1FF2039F080912F05F82A4B
:10481000F0922F050E94771A80E00E947E1E6B2D79
:104820006850770B6430710510F40E94BB10CC20E7
:10483000A9F08091200380FD11C0F80115828695B2
:10484000869586950E94710EC8010E944420809131
:1048500020038695869586950E944D0E20E0F801EE
:104860004081518162817381848195810E94B40E5F
:1048700034CE80E00E94311EFF2089F29BCFEE20D3
:1048800071F1D11004C08F2D0E94271EC8CF71E096
:10489000D71211C0C0912B038F2D8C23F81609F469
:1048A000BECF0E94A41890932A0380932903FC2A68
:1048B000F0922B03B4CF85E0D812B1CF8F2D0E9498
:1048C000271E8F2D0E94621A80911D039F2D982311
:1048D000F91609F4A4CFF82AF0921D03A0CFD11045
:1048E0000AC08F2D0E94201E8F2D0E94621A8F2DCC
:1048F0000E946F0D94CF91E0D91291CF80912F0536
:104900008F2109F48CCFEDCFEE2029F0E5E0ED15F5
:1049100008F485CFB8CFF4E0FD1508F480CF8F2DD3
:104920000E94201E7CCFDD20D1F329E3A21209C012
:104930003FEF67EE73E0315060407040E1F700C038
:1049400000008D2F0E94311E6ACF8C2F8695869590
:10495000837069F0813009F062CF8D2F9C2F9370A6
:10496000E11002C080E090E00E94C70858CF8D2F70
:104970009C2F9370E11002C080E090E00E94EC0850
:104980004ECF8C2F837089F5E11049CF4D2F429582
:1049900046954770440F440F8D2F8F70042E01C031
:1049A000880F0A94EAF72D2F2071D4FF07C02FE05B
:1049B00030E001C0220F4A95EAF72095C695C695CA
:1049C000C370C23069F050F430912C03C13029F02B
:1049D000822B83230E947D0E22CF832B822BFACF42
:1049E000282B80912C038227F5CF8695EE2011F09D
:1049F0008C2F8170882309F412CF4D2F4295469554
:104A00004770440F440F8D2F8F70042E01C0880F04
:104A10000A94EAF72D2F2071D4FF07C02FE030E071
:104A200001C0220F4A95EAF72095C695C695C37036
:104A3000C23069F050F43091C303C13029F0822BA9
:104A400083230E942A0EEBCE832B822BFACF282BB6
:104A50008091C3038227F5CFCF70EE2029F08C2FF1
:104A60000E94710E8D2F10CF8D2F0E94201E8C2F33
:104A70000E944D0ED4CE8D2F92EFA916A9F19A1552
:104A800070F0E0EFAE16D1F0F1EFAF1691F0EE203E
:104A900009F464C0D1107CCE8C2F8F7129C023EF14
:104AA000A21649F134EFA312F2CF8091790382FD6F
:104AB0002DC08C2F8F71EE20D9F21AC0EE2079F024
:104AC00064E06D1508F4ABCECF7181E090E001C0D9
:104AD000880FCA95EAF79091C3038927B2CF75E092
:104AE0007D1508F49CCEF0CF8C2F8F71E110C0CFD4
:104AF0000E94710E94CE80E0EE2009F4A2CFCF7117
:104B000081E001C0880FCA95EAF79BCFEE20C9F07B
:104B1000809120038770843041F40E94680D8C2FAF
:104B20008F710E944D0EC12C7ACE84E08D15D8F382
:104B3000CF718C2F0E94710E63E08C2F0E942D206C
:104B4000F2CF94E09D1530F40E94680D64E08C2F44
:104B50008F71F4CF81E00E945A0EE5CFDD2059F02D
:104B6000893309F0EECEEFEFF7EE23E0E150F040AD
:104B70002040E1F7E4CE8C2F8F717ACF80912F0502
:104B80008272FE01E052F847E531F10508F027CDC9
:104B9000E153FF4C0C942E30CF93DF9380911C0394
:104BA000807F09F04DC080911B03882309F448C021
:104BB000E0917F0550914605C0911703D0911603EF
:104BC000609118037091190347E05E17C9F18E2FA9
:104BD00090E0E49FF0011124E95BFA4F2481222345
:104BE00091F1489FF001499FF00D1124DF01A95B6D
:104BF000BA4F11962C9111972C1325C02C912D137F
:104C000022C015962C91159721111DC012962D9139
:104C10003C91261B370B26393105A8F480911C03E3
:104C20008F70806180931C03E35BFA4F80818F70EB
:104C30008061808386E193E00E9444200E94790D88
:104C4000DF91CF910895FC013196E770BECFA4E1CA
:104C5000B0E0EDE2F6E20C94B02F8C0186E0F801B2
:104C6000DE011F9601900D928A95E1F7F80184818B
:104C7000E58096E1A92E93E0B92E90911A03911147
:104C800028C0882319F1EE20F1F0C8010E94800E9F
:104C9000F82E8823C1F087E0F801D50101900D922C
:104CA0008A95E1F780911A03813031F480911603DF
:104CB000909117030E94B20D0E94CC258F2D64960F
:104CC000ECE00C94CC2FC8010E944420FF24F39404
:104CD000F5CFD080C18082809380F0901B0320911B
:104CE000180330911903A401421B530BFF2009F450
:104CF000D9C04639510508F092C08823F9F2909145
:104D0000170380911C03282F207F09F056C0C91279
:104D100014C090911603D91210C0E11048C08F70D2
:104D2000806180931C0386E193E00E94442080917F
:104D30001C03F8018683F12CC1CFE11038C06C2D23
:104D40008D2D0E9414076C2D8D2D0E941407E82EC6
:104D50008111F1CFDF86C88A8F8598890E94B20DB4
:104D6000292F22952F70243058F49F70223088F01C
:104D7000992399F0F8019681907F79F4FE2C9ECFCB
:104D80002A5F2F70223068F0C8010E944420EF2C67
:104D9000F5CF992311F0882389F3805E883070F372
:104DA000F3CF803F58F3815F833070F7E7CF809176
:104DB0001C03816080931C03BECFC91207C0909171
:104DC0001603D91203C0EE2009F48DC0C8010E9459
:104DD000800E882309F477CFEE2009F474CF8091F8
:104DE0001C03803288F02091160330911703398715
:104DF00028879B868A8690911A039C871D868E87BA
:104E0000CE0108960E94442087E0F801A6E1B3E0B5
:104E100001900D928A95E1F70E94CC2557CF909191
:104E20001C03292F207F51F486E193E00E94442047
:104E300087E0F50111928A95E9F77DCF882309F47F
:104E40003DCF809117038C1110C080911603D812AA
:104E50000CC0E1100AC09683C8010E94442087E07C
:104E6000F50111928A95E9F729CFC8010E94800EB9
:104E7000882309F428CFEE2009F425CF80911C0364
:104E8000803210F220911603309117033A83298360
:104E90009C828B8290911A039D831E828F83CE0108
:104EA0000196B0CF46395105D0F6882309F40ECFCC
:104EB000FE2CEE2009F407CF809117038C1120C03F
:104EC00080911603D8121CC080911C0380FD0FC076
:104ED000982F907F61F08683903F31F0982F907FDC
:104EE000905F8F70892B8683C8010E94442087E0E1
:104EF000F801A6E1B3E001900D928A95E1F7DECECC
:104F0000C8010E94800E81117FCF80911C038160B7
:104F100080931C03C8010E944420D0CEABE1B0E0D6
:104F2000E4E9F7E20C94B82F4E8B5F8B688F798F92
:104F30008A8F9B8F092F91111092AD051D8A86E0F3
:104F4000FE017696DE011F9601900D928A95E1F79B
:104F50001A8D8091790382FF1CC00E94A4182091B1
:104F60001E0330911F03821B930B8838934120F05E
:104F70008091200382FF81C00E94A4182091290300
:104F800030912A03821B930B8838934110F00E94C2
:104F9000560D112349F021E04F85588969897A8996
:104FA000812F902F0E94B40E1B8B0C8B87E0FE018B
:104FB0003F96DE01189601900D928A95E1F7CE0199
:104FC00008960E94272681110CC087E0FE013896C2
:104FD000DE01119601900D928A95E1F78C85811181
:104FE0000BC017E080917F0590914605891333C06F
:104FF0006B96E4E00C94D42F2091460530E0C90173
:1050000001968770992740917F054817190699F0F6
:1050100097E0929FD001939FB00D1124A95BBA4FE6
:10502000FE01319601900D929A95E1F78093460525
:105030000E94790DD6CF10922F050E94E81A109287
:10504000460510927F0587E0E6E1F3E0DF011D925F
:105050008A95E9F7C6CF819FC0011124895B9A4FD9
:105060000E942726882321F280917F0590E00196F7
:105070008770992780937F05B5CF82E00E945A0EF2
:105080007BCFA6E0B0E0E7E4F8E20C94B82F0E94F2
:10509000A4188C0180912D0390912E038017910705
:1050A00081F019821A820E94A418682F49815A81BE
:1050B000792F80E090E00E948E2710932E030093BA
:1050C0002D032696E4E00C94D42F1F921FB61F9256
:1050D00011248F939F93AF93BF93809129058111E2
:1050E00013C080912A0590912B05A0912C05B091B9
:1050F0002D054196A11DB11D80932A0590932B0586
:10510000A0932C05B0932D05BF91AF919F918F91E6
:105110001F901FBE1F901895CDB7DEB72B970FB607
:10512000F894DEBF0FBECDBF85B7806885BF85B759
:10513000806885BF84B7877F84BF0FB6F894A89531
:1051400080916000886180936000109260000FBEC3
:1051500080E890E00FB6F89480936100909361002E
:105160000FBE8BE19BE09093F5028093F4020E94C6
:105170005D070E94FE078091E20084608093E20058
:10518000789480913C058823A1F01091E9001F706C
:105190009091EC00892F817090FD80E8182B10927F
:1051A000E9008091E80083FD0E94FC1A1F701093B3
:1051B000E90082E084BD93E095BD9AEF97BD8093AE
:1051C0006E00109268031092690310926A031092A5
:1051D0006B030E949810809328010E9498108111FF
:1051E0000E94342E809128018091280195E0811140
:1051F00090E09093770385E0891B809376030FEB13
:1052000011E0D8018D918D018F3F11F00E941D0B8F
:10521000B1E0043C1B07A9F704EC11E08AECE82E8E
:1052200081E0F82EF80181918F018F3F11F00E94EB
:105230001D0BE016F106B1F78AE0EAE7F3E0DF01C3
:10524000282F1D922A95E9F7ECE6F3E0DF011D9285
:105250008A95E9F790E080E00E946B30863E9E4F91
:1052600011F00E94151782E090E00E946330809355
:10527000840384E090E00E946B30909379038093E4
:10528000780383E090E00E9463300E947D0E1092CC
:1052900084058FEF9FEF90939E0580939D059093DB
:1052A000A00580939F059093A2058093A1059093FC
:1052B000A4058093A3059093A6058093A5059093DC
:1052C000A8058093A7059093AA058093A9059093BC
:1052D000AC058093AB051092ED0390930704809387
:1052E0000604909309048093080490930B04809320
:1052F0000A0490930D0480930C0490930F04809300
:105300000E049093110480931004909313048093DF
:105310001204909315048093140490E080E00E949E
:105320006B30863E9E4F21F00E9415170E945C153F
:1053300081E08093B10548E050E068E170E082EBE5
:1053400095E00E9453301092B1058091B2058C7F98
:1053500011F40E945C150E94981012E0811110E077
:105360000E949810811101C013E01093E80380E8B7
:1053700010FD80E28093C1050E94EE2C6BE070E08E
:105380008BEC93E00E9437148823E9F18091E803C5
:1053900065E070E081FD02C186EC93E00E94371465
:1053A000882389F16DE070E084EB93E00E9437146C
:1053B000882349F10E94BB08605A75418F4F9F4F67
:1053C0006093F9047093FA048093FB049093FC04B7
:1053D000E4ECF5E080E092E0DF019C011D922150B9
:1053E0003040E1F7F093CB07E093CA078FEF9FEFD0
:1053F0009093C3058093C20581E08093FE0480935F
:10540000FD041092E9030E949810811102C00E94CD
:10541000372E89E291E0909326058093250522247A
:10542000239480913C0500E112E1853009F400C12C
:105430000E94B018E5E8F3E0F887EF832AE733E04D
:105440003A872987D90191918D912FE833E02E1762
:105450003F0709F4FBC09817B1F30E9498108B879F
:10546000BAEDAB2EB1E0BB2EE12CA985BA859D909B
:10547000BA87A987EF81F8856190F887EF8369146F
:1054800009F480C069242501812C77247394862D2A
:10549000872109F46BC0F92CF720FB85FF2399F0D5
:1054A0008982EA820E94A4189C838B832D8291E0DA
:1054B000F11001C090E09E8349815A816B817C810B
:1054C0008D810E948E27F1101DC1D2018C918F3FDA
:1054D00009F01AC10F2D10E08091ED03800F912F7C
:1054E000911D09976CF1E8E0CE2ED12CC01AD10A9B
:1054F000B80162517C4FA6018EEE93E00E944A30C3
:10550000B8016A507C4FA60186EF93E00E944A30B2
:10551000A601440F551FB801660F771F6A5F7B4FC6
:1055200086E094E00E944A30B80162507C4FA601A8
:105530008EEF93E00E944A3088E08F198093ED034C
:105540008091ED0390E0A32DB0E09D01220F331F69
:105550002A5E3D4FAA0FBB1FBD01695E7D4F41E032
:10556000480F9F1508F4D4C08093ED038394770C03
:10557000BFEF4B1A5B0AE6E08E1289CFEF81F88508
:1055800031979082E394F6E0AF0EB11C2AE0E2126C
:105590006CCF0E94FC13DD24D3945DC081EC93E0BA
:1055A000FDCE80913C05843009F433C00E94A414E0
:1055B00080911A04811105C00E94D11180E00E94DF
:1055C000D00920921A040E9461141092290588E1E2
:1055D00090E0A0E40FB6F894A895809360000FBE09
:1055E000A093600083B7817F846083BF83B78160AD
:1055F00083BF7894889583B78E7F83BF0FB6F89466
:10560000A89580916000886180936000109260008E
:105610000FBE80913B05882359F00E94B018EAE73D
:10562000F3E081918111C2C1B3E0E438FB07C9F70F
:1056300080913C05853009F4B4CF10922F050E946B
:10564000E81A0E94BB1010921A04F2CE981305CFEC
:105650000E944128D12C0E9498108823F1F080915B
:105660003D0182FF1AC00E94A41820911F053091AD
:105670002005AC01421B530B20913B0130913C01B2
:105680004217530750F02FE833E041E0BC0180910E
:105690002105909122050E94101F0E94A414809160
:1056A000FE04882309F482C08091EA039091EB0301
:1056B0000E949518C29708F45AC00E94A4189093AB
:1056C000EB038093EA0384EC95E09093CB078093FF
:1056D000CA070E949810882309F480C08EEF93E0D7
:1056E0000E948A0F8091C3030E94A30E823009F4A6
:1056F0006FC018F5882349F1813009F466C086ED42
:1057000093E025C0F12CE6CE382EFF24F394E2CEB0
:1057100090E0FC01E351FC4FD9015C915183DB0126
:105720005C915187318A880F991FFC01E351FC4F2E
:10573000128E118E91E0842F12CF833009F44BC06A
:105740008430E9F68EED93E002C086EF93E00E948C
:10575000CA0F86E993E00E94D00F81E00E94980F63
:105760008EEA93E00E94D00F81E00E94980F809112
:10577000C2059091C305892BE1F58091FD04882332
:10578000A9F00E94BB080091F9041091FA0420913D
:10579000FB043091FC04601B710B820B930B6F3F79
:1057A0007F4F8F4F9F4710F40E946114D1100E94C9
:1057B0007C140E94BB109091EC03891709F431CE40
:1057C0008093EC030E94BB082CCE80EF93E0BFCF08
:1057D0008AEE93E0BCCF83EE93E0B9CF86EA95E002
:1057E0000E94CA0F60EA71E086E094E00E9411090D
:1057F000BECF8091FE04882309F4BFCF8091E903D6
:105800008111BBCF0E947C142091C2053091C30549
:105810002115310509F4B1CF80E041E050E0082FB7
:1058200010E07A01082E02C0EE0CFF1C0A94E2F789
:10583000B70162237323672B11F48F5FF0CF909130
:10584000E80390FF9AC0880F880F880F8093340177
:1058500010923701895F8093350183E0809338018E
:1058600024E630E047E050E062E371E088E70E9420
:105870008E2D892B09F081CFA80195E0440F551F8B
:105880009A95E1F78091E80380FF89C0E8ECF3E0A6
:1058900080E2DF011D928A95E9F7EEECF1E0F887EE
:1058A000EF830AEC11E087E0982E88248394AF817F
:1058B000B8852D91B887AF83F80141908F01440ED0
:1058C000552E511CC2018C539A4F2C01E22FF0E04F
:1058D000E853FC4F30E020E0692C621AC82C022EFD
:1058E00001C0CC0C0A94EAF7520190E0D5018D91E9
:1058F0005D018C21662D691B6770762E062E000CCB
:10590000770BB82F01C0BB0F7A94EAF77B2E719505
:10591000619571096770772701C086956A95EAF7E6
:10592000782A8081782A70829F5F9830F9F62F5FFD
:105930003F4F31962830310579F6EF81F885E25DE9
:10594000F14009F0B4CF04E610E020E230E048EC8A
:1059500053E060E488E70E94AF2D892B09F00DCF5A
:10596000E094F0948091C2059091C305E822F92259
:10597000F092C305E092C20500CF8295880F807631
:105980008093340198013695279536952795209375
:105990003701815E809335012093380161CF4C53EC
:1059A0005A4F04E610E020E230E0D3CF09BD19BD24
:1059B00009B400FEFDCF8091D8008F7D8093D80080
:1059C0008091E00082608093E0008091E00081FDA2
:1059D000FCCF10922F050E94E81A2ACE1092B9002F
:1059E0008CE08093B8000895B0E0A0E0EAEFFCE21C
:1059F0000C94B12FB82EEB010E94A4186C01EE2478
:105A0000E394F12CC431D10560F025E0E22EF12CB5
:105A1000CF3FDC0731F0CE0164E170E00E94962FA9
:105A20007B0184EAA82E94E8992E1092BC00A092E3
:105A3000BC000E94A4188C018091BC0087FF0DC09F
:105A40008091B900887F8830F9F08091B900887F13
:105A50008031D1F00FEF1FEF08C0C8010E949518E8
:105A6000E816F90648F70EEF1FEFCF3FDC07E9F223
:105A7000C6010E949518C817D907B8F6C801CDB756
:105A8000DEB7EBE00C94CD2FB092BB009092BC003F
:105A90000E94A4188C018091BC0087FF0AC08091ED
:105AA000B900887F883111F08034A1F610E000E061
:105AB000E5CFC8010E949518E816F90660F7D3CF24
:105AC0000F931F93CF93DF93EB018093BB0084E888
:105AD0008093BC000E94A4188C018091BC0087FFB9
