:100000000C94F5040C942D050C942D050C949A2B4E
:100010000C942D050C942D050C942D050C942D0598
:100020000C942D050C942D050C94521A0C940E1A58
:100030000C9482250C942D050C942D050C942D0503
:100040000C942D050C942D050C942D050C942D0568
:100050000C942D050C942B1B0C942D050C942D0544
:100060000C942D050C942D050C942D050C942D0548
:100070000C942D050C942D050C942D050C942D0538
:100080000C942D050C942D050C942D050C942D0528
:100090000C942D050C942D050C942D050C942D0518
:1000A0000C942D050C942D050C942D0529001E0093
:1000B0001F002000210022002B0014001A0008005D
:1000C00015001700005704001600070009000A0079
:1000D000E0001D001B000600190005000000E20002
:1000E000E300777C2C0035002D002700260025003A
:1000F000240023002E00130012000C0018001C0026
:100100002A0033000F000E000D000B0001573800CD
:1001100037003600100011000000E600E700787C90
:100120002800300001003B003C003D003E003F0045
:100130003A0001000100010001000100010001007E
:100140000100010001000100010001000100AC00FC
:10015000AE00AB0000000100010001000100010041
:1001600001004400430042004100400045002F00D0
:100170004D0052004A004B004C0034004F0051002B
:1001800050004E0001003100A800AA00A9000100A3
:100190000000010001000100010001000100010058
:1001A000010001000100010001001E001F002000ED
:1001B0002100220001002300240025002600270042
:1001C000010001000100AC00AE00AB000000010026
:1001D0000100010001000100010001000100010017
:1001E0000100010001002F004D0052004A004B00A9
:1001F000010034004F00510050004E00010031005A
:10020000A800AA00A90001000000010001000100EF
:1002100001000100000000000000000000000000DC
:10022000000000000000000000000000207823789B
:10023000257827780000BD00217824782678287852
:100240000000BE00000001000100010001000000EC
:10025000000000000000000000000000000000009E
:10026000000000000000000000000000000000008E
:10027000000000000000000000000000000000007E
:1002800000000100010001000100000000DA02810D
:10029000FFD9F1DB20A4A62EAF00A0C000A1C800AA
:1002A000AED580A81FD300408D14200000010101AD
:1002B0000101010101010202020202020202020323
:1002C00003030303030303040404040404040505F3
:1002D00005050506060606060707070707080808B6
:1002E00008090909090A0A0A0B0B0B0C0C0C0D0D65
:1002F0000D0E0E0E0F0F0F101011111112121313FD
:100300001414151516161717181819191A1A1B1B75
:100310001C1D1D1E1E1F20202122222324242526D1
:1003200026272829292A2B2C2D2D2E2F3031323209
:10033000333435363738393A3B3C3D3E3F40414215
:10034000434445464748494A4C4D4E4F50515354FB
:10035000555658595A5B5D5E5F61626465666869AF
:100360006B6C6D6F7072737577787A7B7D7E80822F
:10037000838587888A8C8E8F91939596989A9C9E78
:10038000A0A2A3A5A7A9ABADAFB1B3B5B7BABCBE88
:10039000C0C2C4C6C9CBCDCFD1D4D6D8DBDDDFE255
:1003A000E4E7E9EBEEF0F3F5F8FAFDFF00AF00AE9D
:1003B00005010980A101850319012AB7001501264D
:1003C000B700950175108100C0050C0901A10185D8
:1003D0000419012AA002150126A0029501751081B9
:1003E00000C005010906A101050719E029E715006C
:1003F00025019508750181029501750881010507A0
:10040000190029FF150026FF0095067508810005D3
:10041000081901290595057501910295017503914A
:1004200001C009023B00020100A0FA09040000011A
:10043000030101000921110100012240000705818B
:100440000308000109040100010300000009211153
:100450000100012232000705820320000112010081
:100460000200000008D8042EEB0001010200011672
:10047000034C0069006C0079003500380020005200
:10048000003200470000001C034D00650063006857
:100490000062006F0061007200640073002000556C
:1004A000004B000000040309040000000000003EAF
:1004B0005B4F5B3E003E6B4F6B3E001C3E7C3E1C28
:1004C00000183C7E3C18001C577D571C001C5E7FAA
:1004D0005E1C0000183C180000FFE7C3E7FF0000A7
:1004E0001824180000FFE7DBE7FF0030483A060E4B
:1004F00000262979292600407F05050700407F0551
:10050000253F005A3CE73C5A007F3E1C1C0800086F
:100510001C1C3E7F0014227F2214005F5F005F5F7F
:100520000006097F017F00006689956A00606060AF
:1005300060600094A2FFA2940008047E04080010EA
:10054000207E20100008082A1C0800081C2A080821
:10055000001E10101010000C1E0C1E0C0030383E37
:10056000383000060E3E0E060000000000000000BD
:10057000005F000000000700070000147F147F14D4
:1005800000242A7F2A120023130864620036495689
:10059000205000000807030000001C22410000005A
:1005A00041221C00002A1C7F1C2A0008083E080863
:1005B0000000807030000008080808080000006093
:1005C0006000002010080402003E5149453E000032
:1005D000427F4000007249494946002141494D335C
:1005E000001814127F10002745454539003C4A4940
:1005F0004931004121110907003649494936004671
:100600004949291E00000014000000004034000089
:100610000000081422410014141414140000412294
:100620001408000201590906003E415D594E007C44
:100630001211127C007F49494936003E4141412256
:10064000007F4141413E007F49494941007F0909FE
:100650000901003E41415173007F0808087F0000F6
:10066000417F4100002040413F01007F08142241AA
:10067000007F40404040007F021C027F007F040852
:10068000107F003E4141413E007F09090906003EBE
:100690004151215E007F0919294600264949493206
:1006A0000003017F0103003F4040403F001F204006
:1006B000201F003F4038403F0063140814630003CC
:1006C00004780403006159494D4300007F414141D2
:1006D00000020408102000004141417F0004020193
:1006E0000204004040404040000003070800002092
:1006F00054547840007F2844443800384444442807
:1007000000384444287F0038545454180000087EB0
:100710000902001824241C78007F080404780000D3
:10072000447D4000002040403D00007F10284400F0
:100730000000417F4000007C04780478007C0804BD
:100740000478003844444438007C182424180018E5
:100750002424187C007C08040408004854545424C1
:100760000004043F4424003C4040207C001C204006
:10077000201C003C4030403C004428102844004CE1
:100780009090907C004464544C4400000836410032
:10079000000000770000000041360800000201025E
:1007A0000402003C2623263C00000000000080805C
:1007B0008080000000000080E070180C1830E0809D
:1007C000000010F8901030783010B8FC381000009D
:1007D00000000000F8FCF80000000000000000002D
:1007E000000000001C9C1C00000000F8FCF8000049
:1007F000000000001CFCF8C000000000000080E0C9
:10080000F87C1C000000F0FCFCFC1C1C1C1C1C1CCC
:100810001C1C000000000000C0F0F8381C1C1C1C50
:100820001C1C3CF8F0E000E0F0F0F0E0ECEEF7F338
:100830007020007C7C7C7E007E7E7E7F7F7F00003F
:1008400080C0E07E5B4F5BFEC00000C000DCD7DEF6
:10085000DEDED7DC00C00000000000000000000069
:1008600000000000000000000000000000000FBCBD
:10087000E0818181838382870C183060C000001F73
:10088000FE90B9FFBB91983C1811133F1100000076
:1008900000000000FFFFFF0000000000000000005B
:1008A00000000000FFFFFF00000000FFFFFF00004E
:1008B000000000000000030F7FF8E080F0FC3F0F15
:1008C0000100000000003F3F3F1C1C1C1C1C3C782A
:1008D000F8F0E08000000000C3E7FF7E3C38787845
:1008E0007070F8FFDF87000F1F3F7F7F7F7F7F3FA4
:1008F0001E0C001F1F1F3F003F3F3F7F7F7F0030C8
:100900007B7F7830202030787F3B0003000F7F0F03
:100910000F0F7F0F00030000000000000000000028
:10092000000000000000000000183C24666341C184
:100930008180808080808081C14162386C4CC6811A
:1009400081808080808081C14362361C1800000055
:1009500000000000FFFFFFC0C0C0C0C0C0C0C0C0DA
:10096000800000007FFF7F000000007FFFFFC0804D
:10097000000000E0E0C0C0C0E0F97F1F07000000F9
:1009800000000000000070F0E0E0C0C0C0C0E0F077
:10099000F87F3F0F0000000F3F7FF9E0E0C0C0C0CC
:1009A000C0C0E0F97F3F1F00000000000000000011
:1009B0000000000000000000000000000000000037
:1009C0000000000000000000000000000000000027
:1009D0000000000000000000000000000000000017
:1009E0000000000000000000000011241FBECFEF37
:1009F000DAE0DEBFCDBF04B603FE18C08091A308C5
:100A00009091A408A091A508B091A6088730904BBA
:100A1000A740B04B59F41092A3081092A40810926A
:100A2000A5081092A608E0E0F8E3099513E0A0E01D
:100A3000B1E0E8E9F1E602C005900D92A63EB107EB
:100A4000D9F728E0A6EEB3E001C01D92A33AB207A1
:100A5000E1F70E94A9250C946B300C940000909152
:100A60009206937061F081110BC09460909392068E
:100A70001092A10180919106816080939106089562
:100A80008B3010F09862F2CF880F880F982BEECF42
:100A9000FC01AC014B5F5F4F8FEF91E32191822707
:100AA00028E030E087FF09C0880F892721503109ED
:100AB000C9F7E417F50791F70895880FF7CF9091DC
:100AC0009206937071F08093930660939406493771
:100AD00008F048E7409395068091910681608093E5
:100AE00091060895E8EDF0E080818E7F808310927A
:100AF000E2001092DA001092E100A0EEB0E08C91DA
:100B000081608C9380818F77808319BCA7EDB0E0E2
:100B10008C918E7F8C9380818F7E808310924A0689
:100B200008952091E4003091E50095E6A901209117
:100B3000EC00822F817020FF06C08091E80080FFCA
:100B400006C080E008952091E80022FD1AC080913F
:100B50005706882389F0853089F08091EB0085FD68
:100B60000FC02091E4003091E50042175307F9F2DD
:100B70009150E1F684E0089582E0089583E00895BD
:100B800081E008958091590687FF13C08091E800A5
:100B900082FF06C08091E8008B778093E80004C054
:100BA000809157068111F2CF0895809157068823CE
:100BB000D9F38091E80080FFF8CF8091E8008E772C
:100BC000ECCF982F9093E900242F762F50E08917CF
:100BD00031F07091EC002091ED005091F00021FD7A
:100BE00007C09F5F973071F78093E90081E0089517
:100BF0003091EB003E7F3093EB003091ED003D7F74
:100C00003093ED003091EB0031603093EB00709346
:100C1000EC002093ED005093F0002091EE0027FDB2
:100C2000E0CF80E00895B0E0A0E0E9E1F6E00C94C8
:100C3000D42CC8EDD0E088818F7E8883E7EDF0E08A
:100C400080818160808384E082BF81E080934A0656
:100C500088818E7F888302EE10E0F8011082109266
:100C6000DA0081EEC82ED12CF601108288818F77B0
:100C7000888388818068888388818F7D888319BC78
:100C8000109257061092580610925606109255066A
:100C900090EEE92EF12CF70180818B7F8083888193
:100CA0008160888342E060E080E00E94E105F60117
:100CB00080818E7F8083F801808181608083808144
:100CC00088608083F70180818E7F80838881806146
:100CD0008883CDB7DEB7E8E00C94F02CFC0180915E
:100CE0005F069091600686179707A0F06115710561
:100CF00029F49091E8009E779093E80090E06115C8
:100D0000710551F4911108C08091E80082FF34C050
:100D100080E00895BC01F2CF809157068823C1F18D
:100D20008530C1F18091E80083FD30C08091E800FA
:100D300082FDEACF8091E80080FFE1CF8091F3004F
:100D40002091F200382F6115710519F02830310516
:100D500058F091E02830310509F090E02091E8004A
:100D60002E772093E800CBCF81918093F1006150E2
:100D700071092F5F3F4FE7CF80915706882341F0DD
:100D8000853041F08091E80083FFBECF81E0089577
:100D900082E0089583E00895089580914C060895B7
:100DA0002FB7F894609146067091470680914806E7
:100DB000909149062FBF08959C01FC0132969FEF48
:100DC00080E04191461751F09F3F19F4411101C055
:100DD000982F8F5F8630A9F79F3F09F40895290F58
:100DE000311D97FD3A95F90162830895A3E0B0E0C3
:100DF000ECEFF6E00C94DA2C209143063091440697
:100E000028173907A1F09093440680934306E09198
:100E10004106F0914206309751F024E029839B83EC
:100E20008A830680F781E02DCE01019609952396ED
:100E3000E2E00C94F62CA3E0B0E0E1E2F7E00C94E1
:100E4000DA2C20913F063091400628173907A1F08F
:100E50009093400680933F06E0914106F091420650
:100E6000309751F023E029839B838A830680F781A2
:100E7000E02DCE01019609952396E2E00C94F62C24
:100E8000FA01811101C0FB0109950895E2E9F6E03C
:100E9000248130E1231B08F420E024838091910613
:100EA0008160809391060895E2E9F6E0248130E1C3
:100EB000230F08F42FEF24838091910681608093A3
:100EC00091060895E2E9F6E0438120E1421B08F42F
:100ED00040E08181628190E00E945F050895E2E92F
:100EE000F6E0438120E1420F08F44FEF81816281F7
:100EF00090E00E945F050895E2E9F6E0628120E15A
:100F0000621B08F460E08181438190E00E945F05EC
:100F10000895E2E9F6E0628120E1620F08F46FEFE4
:100F20008181438190E00E945F050895E2E9F6E047
:100F30008181438162818850990B0E945F050895E9
:100F4000E2E9F6E0818190E04381628108960E94A7
:100F50005F0508958091920686958695815009F4E3
:100F60008AE00E942F0508958091920686958695C5
:100F70008F5F8B3008F081E00E942F0508958093E9
:100F80009C0180919206837080939B010E94601265
:100F900083E08093A101089522E8241B08F420E057
:100FA000620F08954095282F429F412D1124842FD0
:100FB0000895E42FF0E0EE0FFF1FE95FFC4F9081F2
:100FC000921B97FD9195292F38E1239F212D112404
:100FD000620F0895322F50E0FA01EE0FFF1FE55324
:100FE000FD4F95AD905297FD9195440F551FFA0115
:100FF000E95FFC4F2081231B330B290F311D97FD27
:101000003A95620F08950E94EE120895FF920F9391
:101010001F93CF93DF93182F062FF42ED0E0C0E05C
:101020002F2D402F612FCE010E9403082196CA3434
:10103000D105B1F7CDB7DEB7E5E00C94F32C0F93F3
:101040001F93522F10E0F801EE0FFF1FE553FD4FE5
:10105000A5ADA052BB0B9D015203F001539FF00DB3
:101060001124000F111FD801A95FBC4F0C9100572C
:10107000110B40039001419F300D11242E0F3F1F93
:1010800037FF02C0215C3F4F96E0359527959A9532
:10109000E1F7620F1F910F910895E82F86FDE0950B
:1010A0002E2F2F7086FD2F5FE695E695E695E6706C
:1010B000F0E0ED53FD4F9181929F902D212D112451
:1010C00092959F702295207F922B2081920F87FD11
:1010D000919580E8890F089530E020E0869F212DCA
:1010E000969F200D311D1124C9010895AF92BF9222
:1010F000CF92DF92FF920F931F93CF93DF93362F00
:10110000472FE82FF0E0E455FD4F71110FC0E49137
:101110008E2F2E2F6E2F722FDF91CF911F910F9157
:10112000FF90DF90CF90BF90AF900895C72FD0E091
:101130002491F22E022F10E056E0659FC001112489
:10114000EFEFF0E0BF010E94B62C832F90E0880FF4
:10115000991F35E5369FD001379FB00D11248A1BAA
:101160009B0B982F990F980F6F01CC1ADD0AC09E28
:10117000D001C19EB00DD09EB00D11248B2F499F80
:10118000A0011124452F55276F01C41AD50AC09E0E
:10119000A001C19E500DD09E500D11245F01A91ACF
:1011A000B108AC9E6001AD9ED00CBC9ED00C112449
:1011B000CD2CDD24EC19FD09E09FE001E19FD00D6D
:1011C000F09FD00D1124ED2F62307105A1F050F485
:1011D0006115710509F49ECF6130710581F0EB2F27
:1011E000852F98CF6430710569F080F06630710505
:1011F00009F490CFF4CFE22F2B2F8D2F8BCFE22F3E
:10120000252F88CFEB2F822F2D2F84CF2B2F8F2DA3
:10121000E52F80CF80E00895F894E82FE295EF70F5
:10122000F0E031A1282F2F7081E090E001C0880FFD
:101230002A95EAF7982F9095932391A392A1892B51
:1012400082A3789408959091A00492FF06C0282F5D
:1012500028712830F9F4877F846093FF06C0282F17
:1012600028712831F1F4877E84612091A10420FF48
:1012700006C0382F38713830D9F4877F816021FF5C
:1012800006C0282F28712831D1F4877E816194FD12
:10129000877E0895282F24712430F9F68B7F88608B
:1012A000DCCF282F2471243101F78B7E8861DDCFBC
:1012B000382F3171313019F78E7F8860E0CF282FB9
:1012C0002171213121F78E7E8861E1CF823891052D
:1012D000B9F1B0F48133910509F47DC048F4893245
:1012E000910509F46DC08A32910509F47BC0089517
:1012F0008533910509F45FC08933910509F108959B
:10130000833E9105D9F138F4803E910529F1823E62
:10131000910579F10895863E9105D9F1873E9105B1
:1013200009F43EC0843E910541F52091A10421FFBE
:1013300024C08091A00484FD19C087EE90E0089538
:101340002091A004237009F05AC02091A10423FF2A
:1013500014C089E290E008952091A00420FD38C0D7
:101360003091A10430FF09C024FF43C090E080E029
:1013700008952091A00422FDF7CF08952091A004A4
:1013800022FD3AC03091A10430FD39C024FFF5CFD1
:10139000EDCF2091A00423FFF0CF24FDE7CFCDCFE8
:1013A0002091A00423FD2EC03091A10431FFEECF87
:1013B00084EE90E008952091A00425FFDECFC9CFF0
:1013C0002091A00425FD21C02091A10423FFD5CFA9
:1013D00089E390E0D2CF2091A00426FFCECF8AE20D
:1013E00090E008952091A00426FFC7CF81E390E00C
:1013F000089583EE90E0089582EE90E0089580EEE7
:1014000090E0089586EE90E0089585E390E00895D9
:10141000972F7A30B8F46630A8F48430B0F470E0D6
:1014200026E0929F600D711D1124FB019CE3899FB2
:10143000E00DF11D1124EE0FFF1FE455FF4F8591C4
:101440009491089580E090E0089581E0FCCF1F938F
:10145000CF93DF930E946609EC01C11580E5D807A0
:10146000F0F5C11580E4D80708F09CC0C03ED10556
:1014700020F5CD3CD10508F082C0C83AD10578F4FA
:10148000C53AD10508F073C0C130D10519F12097D4
:1014900009F1C430D105F0F4D0E0C0E01BC0C33C7A
:1014A000D105D0F7C85AD0E0CC0FDD1FC858DD4FAA
:1014B0000990D881C02DD4640DC0C11580E2D80731
:1014C00008F0D1C0C11581E0D80708F05AC0C83E65
:1014D000D10510F7CE01DF91CF911F910895C0364D
:1014E00082E5D80718F5C03482E5D80708F06BC04C
:1014F000C03282E5D80708F05FC0C11582E5D80781
:1015000008F497C02C2F2695269580E2289F9001FD
:1015100011248C2F8370C1E0D0E002C0CC0FDD1FFE
:101520008A95E2F7C22BD32BDD68D4CFC03A82E58F
:10153000D80760F4C03882E5D80708F459C0CF71E5
:10154000D0E0DC2FCC27C46FD06AC4CFC03C82E58A
:10155000D80708F462C0C03E82E5D80708F09CCFE7
:10156000DC2FCC27CC27DF71C06FD06AB3CFC55A30
:10157000D0E0CB58DD4FC881D0E0D064ABCFD06590
:10158000A9CF8D2F0E942309182FCE0199270E94E1
:101590006609C12FD0E0DC2FCC27CC27DF71C82B08
:1015A000D92B98CFCE0199270E946609CC27DF70EE
:1015B000C82BD92BD06A8ECFCF71D0E0DC2FCC27AF
:1015C000C16FD06A87CF2C2F26952695277080E291
:1015D000289F900111248C2F8370C1E0D0E002C0BD
:1015E000CC0FDD1F8A95E2F7C22BD32BDC6872CFBC
:1015F0002C2F26952695277080E2289F9001112494
:101600008C2F8370C1E0D0E002C0CC0FDD1F8A9523
:10161000E2F7C22BD32BDA685DCF8C2F8F710E943B
:101620002309C82FD0E0DC2FCC27CC27DF71D06274
:1016300051CF8C2F8F710E94230955E0D695C79505
:101640005A95E1F7CF70D0E0DC2FCC27282F30E07F
:1016500084FF05C044E0220F331F4A95E1F7C22BF7
:10166000D32BD06937CF8D2F8F710E942309182F6C
:10167000CE0199270E946609C12FD0E0DC2FCC272C
:10168000CC27DF71C82BD92BD2CF80915404811184
:10169000109254040895809590913B06982390935E
:1016A0003B060895809590913C06982390933C06C4
:1016B000089520914A049091190456E0291302C01C
:1016C00080E0089530E0529FF001539FF00D112407
:1016D000E65EFB4F7181761306C07081781303C0FC
:1016E0007281741304C02F5F3F4F2770E7CF81E0F2
:1016F000089580914A0490911904981301C00895A7
:101700008F5F8770FACFB0E0A0E0E9E8FBE00C94CF
:10171000D32C7C010091FE041091FF0480915504AC
:1017200090915604082B192BCFE0D0E0CC24C39421
:10173000D12CBC2EC6010C2E02C0880F991F0A9412
:10174000E2F780239123892B49F4219790F7B12C5C
:101750008B2DCDB7DEB7E9E00C94EF2CB7018C2FC1
:101760000E94080A0E94270A019779F3F1CFCF93CC
:10177000DF93EC010E94830BBE010E94080A0E94C5
:10178000270ADF91CF9108959A3078F5863068F571
:10179000E82FF0E086E0989FE00DF11D11249E2FC8
:1017A000977083E0F695E7958A95E1F7EE0FFF1FB6
:1017B000EE0FFF1FED50FC4F50E040E080E0219124
:1017C00030E0092E02C0369527950A94E2F7217081
:1017D0003327042E01C0220F0A94EAF7822B4F5FB1
:1017E0005F4F4430510559F7089580E008959A30CD
:1017F00098F5863088F5E82FF0E086E0989FE00DB8
:10180000F11D11248E2F877041E001C0440F8A958D
:10181000EAF783E0F695E7958A95E1F7EE0FFF1F6B
:10182000EE0FFF1FED50FC4F30E020E070E05191D3
:10183000DF011197CB01022E02C0969587950A947D
:10184000E2F7817081958527842385278C932F5F0C
:101850003F4F2430310559F708959093FF0480934A
:10186000FE040895E091FE04F091FF0421E030E0D1
:10187000D90102C0AA0FBB1F8A95E2F7CD01D90199
:1018800002C0AA0FBB1F6A95E2F7BD018A2B972BF6
:1018900002C0220F331F4A95E2F7AF0148235923B4
:1018A0008417950731F42E2B3F2BC9010E942D0C74
:1018B0000895209530952E233F23F7CF21E030E087
:1018C00002C0220F331F8A95E2F720953095809150
:1018D000FE049091FF04822393230E942D0C08950F
:1018E00090914B048095892380934B04282F277077
:1018F00091F4282F082E000C330B9217130659F081
:101900009091A10492FF07C08595859585950E94C9
:101910005E0C10924B04089521E030E002C0220FCB
:10192000331F8A95E2F78091FE049091FF04822B89
:10193000932B0E942D0C0895909356048093550488
:101940000895FC0183819481892B29F08081918104
:1019500089238F3F51F480E00895843FE1F717C059
:10196000883EA8F0813FB9F712C0808191810E9422
:10197000B70B92959F70963099F358F4925F9F70D1
:10198000923048F7803F19F040F7883E20F781E019
:1019900008959A5FF4CFA5E0B0E0E1EDFCE00C948F
:1019A000D92C49835A8389819A81662399F022230D
:1019B00089F00E94830B182F682F89819A810E94D9
:1019C000F70B69817A81812F0E94080A2596E3E04E
:1019D0000C94F52C0E94C40B182FF3CF84E00895CB
:1019E000FC019281913039F4858182FD08C080FF2D
:1019F00006C083E00895923021F484E0089582E0E7
:101A0000089581E00895CF93DF93682F81E06A30D5
:101A100019F06D3031F480E00E94830DDF91CF9199
:101A200008958091A1089091A20826E0FC01ABE9FD
:101A3000B8E001900D922A95E1F7603E08F458C095
:101A400026E0FC0111922A95E9F7C091A108D091F6
:101A5000A20846E050E0BE018BE998E00E945D2DAF
:101A60009E012B593640892B41F1C90145E09695DD
:101A700087954A95E1F741E050E0BA0102C0660F50
:101A8000771F8A95E2F7CB016091990670919A06CB
:101A9000862B972BB9016B5F7F4FE5E076956795B5
:101AA000EA95E1F702C0440F551F6A95E2F7842BCF
:101AB000952B90939A06809399062A5F3F4F409109
:101AC0009806642F70E0C9010E94B62C481B46306E
:101AD00010F4240F311D211572E0370710F030E0AB
:101AE00020E02556394F3093A2082093A10896CFC5
:101AF000F6E06F9FB001112467557B4F46E050E040
:101B00000E94542DA2CFCF93382FE091A108F091DD
:101B1000A208EB59F64020919806622F70E0CF01A1
:101B20000E94B62C281B822F332361F066E00E94AE
:101B3000012DC82FC15010F4CF91089580E20E946A
:101B4000030DF8CF9F01280F311D2115324018F0E9
:101B500080E0F0E0E0E08E0F9F2F911D8556994FB9
:101B60009093A2088093A108E7CF80913C069091C2
:101B70003B06892B8093E80390915404992391F0BC
:101B8000892B8093E80320E08AEE93E0FC013191F9
:101B9000CF0131112F5FF3E0803F9F07B9F721118B
:101BA0000E94450B48E050E06CE474E088EE93E05E
:101BB0000E945D2D892BA9F088E0E8EEF3E0ACE40B
:101BC000B4E001900D928A95E1F7E0914106F09121
:101BD0004206309731F00280F381E02D88EE93E0E9
:101BE00009950895CF93DF93EC01EA85FB85309743
:101BF00019F06C857D8509958B810E944B0B8C813A
:101C00000E94520B0E94B50D86E0FE0111928A954A
:101C1000E9F7DF91CF910895CF93DF93EC018D81A8
:101C200081FD18C082608D8380913B069B81892B4A
:101C300080933B0680913C069C81892B80933C06D7
:101C40000E94B50DE885F985309721F06C857D857A
:101C5000CE01099510923E0610923D068D8180FDC1
:101C600003C0CE010E94F20DDF91CF910895109232
:101C70003C06EAEEF3E086E0DF011D928A95E9F783
:101C800090E080E00E941B0790E080E00E94F60652
:101C900010923B060E94B50D0895AAE2B0E0E3E57C
:101CA000FEE00C94D92C89E596E02091F100FC012E
:101CB0002193CF01F6E081369F07B9F780915A064C
:101CC000833009F470C0B8F4813009F447C0823021
:101CD00009F4B1C08091E80083FF7EC2809159066B
:101CE00090915A069A3008F077C2E92FF0E0E35954
:101CF000FF4C0C944E2D8A3009F48CC08B3009F4C3
:101D00006FC0893039F780915906813219F7809177
:101D10005D0690915E060297E8F68091E800877F65
:101D20008093E8008091E80082FF38C09091F30032
:101D30008091F200029731F48091F100813011F02E
:101D4000863021F48091F10080934C068091E80068
:101D50008B778093E8000E94C205BCCF8091590622
:101D6000813A09F0B7CF8091E800877F8093E8003F
:101D700080915D0690915E06892B61F468E08DE4A8
:101D800096E070E00E946E068091E8008B77809369
:101D9000E800A0CF60E090E080E0F3CF80915706AC
:101DA0008111C0CF97CF80915906813A09F092CF27
:101DB00080915D0690915E06892B09F08BCF809112
:101DC000E800877F8093E8008091E80080FFFCCFE7
:101DD00080919D018093F1008091E8008E77B9CFCA
:101DE00080915906813209F075CF80915D069091FE
:101DF0005E06892B09F06ECF8091E800877F809383
:101E0000E8000E94C20580915B0680939D010E94BC
:101E1000370E60CF80915906813209F05BCF8091F7
:101E2000E800877F8093E8000E94C20580915C06ED
:101E300080934B064FCF80915906813A09F04ACFE3
:101E40008091E800877F8093E8008091E80080FF20
:101E5000FCCF80914B06BECF803899F0823809F0D4
:101E6000BBC180915D068F70873008F0B5C180934B
:101E7000E9008091EB0085FB882780F91092E9004A
:101E800006C08091550690915606911182609091FE
:101E9000E800977F9093E8008093F1001092F100A2
:101EA0008091E8008E7794C1882309F482C1823042
:101EB00009F092C180915B06811185C180915D0618
:101EC0008F702FEF280F263008F086C18093E9002D
:101ED0002091EB0020FF77C1933031F48091EB002B
:101EE00080628093EB006FC19091EB0090619093C2
:101EF000EB0021E030E001C0220F8A95EAF7209341
:101F0000EA001092EA008091EB008860EACF81112C
:101F100063C110915B061F778091E3008078812B6D
:101F20008093E3008091E800877F8093E8000E941F
:101F3000C2058091E80080FFFCCF8091E3008068BB
:101F40008093E30082E0111183E08093570644C13F
:101F50008058823008F040C180915B0690915C0609
:101F60008C3D23E09207A1F583E08A838AE289838E
:101F70004FB7F894DE01139620E03EE051E2E32FE4
:101F8000F0E050935700E49120FF03C0E295EF701A
:101F90003F5FEF708E2F90E0EA30C0F0C7968D93D0
:101FA0009D932F5F243159F74FBF8091E800877FC1
:101FB0008093E8006AE270E0CE0101960E946E060E
:101FC0008091E8008B778093E80006C1C096E7CF48
:101FD00040915D0650915E06292F3327233031054D
:101FE00009F444C078F52130310509F46FC08BE362
:101FF00090E0E2E2F4E02230310509F0EDC02091FA
:10200000E800277F2093E80020915F06309160066A
:102010008217930708F49C0140E02115310509F06F
:1020200064C0411162C08091E80082FDC9CF8091F7
:102030005706882329F2853019F28091E80083FF42
:10204000F2CFBECF21323105A9F12232310509F09C
:10205000C3C04115510509F443C04130510509F091
:10206000BBC082E390E0E0EBF3E0C9CF9927813079
:102070009105C1F0009759F0029709F0ADC0EFE665
:10208000F4E0E4918E2F90E0EFE6F4E007C0E5EA9B
:10209000F4E0E4918E2F90E0E5EAF4E0009709F493
:1020A0009BC0ADCFE7E8F4E0E4918E2F90E0E7E845
:1020B000F4E0F4CF4115510571F04130510509F0BC
:1020C0008BC089E090E0EDE4F4E099CF82E190E00C
:1020D000EDE5F4E094CF89E090E0E4E3F4E08FCF25
:1020E00080E490E0E2EEF3E08ACF80915706882307
:1020F00009F466CF853009F463CF8091E80083FD51
:102100005FCF8091E80082FD8ECF8091E80080FF54
:1021100084CF9091F3008091F2002115310519F0E0
:102120008830910550F041E0089709F040E0809137
:10213000E8008E778093E80070CF44914093F100DF
:102140003196215031090196E8CF803809F044C01A
:102150008091E800877F8093E80080915806809303
:10216000F1009ECE811138C010915B061230A0F5AF
:102170008091E800877F8093E800109358060E94C2
:10218000C205112311F084E005C08091E30087FDB2
:10219000FACF81E08093570642E061EC81E00E9433
:1021A000E10542E261EC82E00E94E1058091570680
:1021B00013C080915B06813079F481E0933009F09F
:1021C00080E0809356061092E9008091E800877FB6
:1021D0008093E8000E94C2058091E80083FF0AC056
:1021E0008091E800877F8093E8008091EB00806217
:1021F0008093EB00AA96E3E00C94F52C882321F061
:102200000E944B0B0E94B50D0895882339F09091E0
:102210003B06982B90933B060E94B50D08958823AA
:1022200021F00E94520B0E94B50D0895882339F0C9
:1022300090913C06982B90933C060E94B50D089512
:10224000882391F19CEF980F913A80F4EAEEF3E045
:1022500020EF33E09191891303C0DF0111971C92A5
:102260002E173F07B9F70E94B50D089590E2980F19
:10227000983050F4877091E001C0990F8A95EAF781
:10228000892F0E94520BEFCF9BE5980F933028F4D3
:1022900090E080E00E941B070895885A8B3120F45B
:1022A00090E080E00E94F6060895CF93DF93EC0162
:1022B0000E942011CE010E94EE0C0E94FE10DF91C0
:1022C000CF9108958091040190910501833091058B
:1022D00071F08430910511F0029721F48FE494E0BD
:1022E0000E9455111092050110920401089585EE87
:1022F0000E942011F7CF809101019091020183305B
:10230000910571F08430910511F0029721F480E578
:1023100094E00E945511109202011092010108955B
:1023200081EE0E942011F7CFCF93C82F8823B1F000
:102330008CEF8C0F813A00F5EAEEF3E080EF93E04A
:10234000DF012D91C21761F08A179B07D1F76C2F1F
:1023500088EE93E00E94DC060E94B50DCF910895AF
:102360002191C21303C0DF0111971C928E179F07A2
:10237000B9F70E94B50DEBCF80E28C0F883068F47E
:10238000C77021E030E001C0220FCA95EAF78091C2
:102390003C06822B80933C06DFCFEBE5EC0FE3306D
:1023A00040F4F0E0EB58FD4F808190E00E941B0765
:1023B000D5CFC85ACB3190F6EC2FF0E0EE0FFF1FCF
:1023C000E858FD4F808191810E94F606C7CFCF93D8
:1023D000C82F0E94EE0C0E9405118C2F0E949411B0
:1023E000CF9108950F931F93CF93DF93EC01FC01DE
:1023F00001900020E9F78F0101501109C017D107A2
:1024000028F0DF91CF911F910F91089589910E943B
:10241000030DF4CF0F931F93CF93DF938B01EA014A
:1024200090915706943061F58093E9008FEF909179
:10243000E800815095FD06C095ED9A95F1F70000F2
:102440008111F5CF8091E80085FF1AC00E949105A7
:10245000811111C08091E80085FD06C08091E800DF
:102460008E778093E800F2CFF80181918F018093FD
:10247000F100219779F78091E8008E778093E8004A
:10248000DF91CF911F910F91089543E050E0BC017F
:1024900082E00E940A120895CF93DF93EC0148E096
:1024A00050E0BC0181E00E940A1288E0FE01ADE428
:1024B000B6E001900D928A95E1F7DF91CF910895F2
:1024C000539A3BB1377F2BB128604FB7F89487E51B
:1024D00095E0FC015191CF0168E02BB9000000C0EC
:1024E00057FF3BB9550F000000C000C000C03BB90A
:1024F00000C06A9591F7F6E085339F0751F74FBF0B
:102500008FE594E00197F1F700C000000895B0E076
:10251000A0E0EDE8F2E10C94D22C7C015B016A01B1
:1025200080918F0401E010E08A3010F40AE010E09E
:10253000C1E0D0E0B501C701F6010995811104C0E1
:1025400021960C171D072CF4CDB7DEB7EAE00C94EA
:10255000EE2CCC9F9001CD9F300D300D112490E0DA
:1025600080E045E34A95F1F7000001968217930752
:10257000C1F7E0CF80916304811110C08091D80031
:1025800080618093D8008AE18A95F1F700C080913C
:10259000D90080FF0AC081E08093630481E09091BC
:1025A0006304913009F080E0089582E08093630431
:1025B0000E94720510925706F1CF0E94BA1288232A
:1025C00059F0E0914106F0914206309729F00190D0
:1025D000F081E02D0995089580E00895FF920F9312
:1025E0001F93CF93DF93EC01F62E042F122F0E943E
:1025F000BA1281110FC0C532D1057CF0A597FE013A
:10260000EE0FFF1FEC0FFD1FE95AFA4FF182008316
:10261000128303C0C532D10594F3CDB7DEB7E5E030
:102620000C94F32CCF93C82F0E94BA12882329F060
:1026300081E0C53228F080E003C081E0CA34D8F7D9
:10264000CF910895B0E0A0E0E8E2F3E10C94D42C3F
:102650007C01C0919E018FE0C89FC02D11241FE016
:102660001C0F1B3408F01AE40E94BA12882319F0D8
:10267000163208F015E20E94BA12811103C0C53269
:1026800008F4C5E22091960631E0230F08F42FEFFD
:1026900030E050E040E06FEF7FEF80E090E00E949C
:1026A0002F2D6901D0E001E02C2FC11740F0812FC0
:1026B0000E941213CDB7DEB7E8E00C94F02CFE01B7
:1026C000E556FC4F808190919F01892309F140914B
:1026D00065064150042E000C550B47FF1BC0C60178
:1026E00060919606600F08F46FEF0E946C08AC01D1
:1026F000609193067091940680919506F701099573
:102700000E947608462F282F672FCE010E940308CB
:102710002196CACFFA01EB59F94F818982130AC079
:10272000FA01EE0FFF1FEB59F94F818D928D8C1539
:102730009D05B0F241505109D0CFEF92FF920F9317
:102740001F93CF93DF937C01C0919E018FE0C89FC0
:10275000C02D11241FE01C0F1B3408F01AE40E9446
:10276000BA12882319F0163208F015E20E94BA1244
:10277000811103C0C53208F4C5E2609196066695E2
:10278000669521E0620F08F46FEF809161069091E9
:1027900062060E946C08082FD0E0C11740F0812F1C
:1027A0000E941213CDB7DEB7E6E00C94F22CFE01C6
:1027B000E556FC4F808190919F01892391F06091B3
:1027C00093067091940680919506202F4C2FF70167
:1027D00009950E947608462F282F672FCE010E9468
:1027E00003082196DACFB0E0A0E0E9EFF3E10C9422
:1027F000D22C182F80919C01811323C090919206B6
:10280000937020919B0130E081E09217130609F448
:1028100080E081708093A0018091970690919F0144
:10282000981739F080939F0140E060E080E00E94BB
:1028300006081B3088F4E12FF0E0E958FF4C0C94B7
:102840004E2D81E0E6CF8091A001882389F140E000
:1028500060E080E00E94060880E02AC0C0919E01EE
:102860008FE0C89FC02D11240FE00C0F0B3408F02F
:102870000AE40E94BA12882319F0063208F005E231
:102880000E94BA12811103C0C53208F4C5E26091FA
:10289000930670919406809195060E947608F62E14
:1028A000E72ED82ED0E0C017D8F0802F0E94121348
:1028B00090919E019F5F90939E0181110CC082E0D8
:1028C0008093A1018091A001811105C0111103C065
:1028D00083E08093A101CDB7DEB7EAE00C94EE2C43
:1028E000FE01E556FC4F808190919F01892331F0D4
:1028F0002D2D4F2D6E2DCE010E9403082196D3CF92
:10290000C0919E018FE0C89FC02D11240FE00C0FD5
:102910000B3408F00AE40E94BA12882319F0063238
:1029200008F005E20E94BA12811103C0C53208F412
:10293000C5E2E0909406F0909506D09193066D2F35
:102940007E2D8F2D0E947608D62EC72EB82E609130
:1029500096066D0F7E2D8F2D0E947608F62EE72E9F
:10296000A82ED0E0C01708F0A0CFFE01E556FC4F1E
:10297000908180919F01892359F02A2D4F2D6E2D32
:1029800090FD03C02B2D4D2D6C2DCE010E94030810
:102990002196E8CFC0919E018FE0C89FC02D1124E1
:1029A0000FE00C0F0B3408F00AE40E94BA128823DF
:1029B00019F0063208F005E20E94BA12811103C034
:1029C000C53208F4C5E2E0909406D09095062091B7
:1029D0009606B0E4FB2E3F2D329F312D1124F32EAD
:1029E000D0E0C01708F061CFFE01E556FC4F8081B2
:1029F00090919F018923B9F0FE01EE0FFF1FE5536F
:102A0000FD4F85AD82958F70609193068F9D600D0F
:102A100011247E2D8D2D0E947608462F282F672F9A
:102A2000CE010E9403082196DCCFC0919E018FE069
:102A3000C89FC02D11240FE00C0F0B3408F00AE4DE
:102A40000E94BA12882319F0063208F005E20E94AB
:102A5000BA12811103C0C53208F4C5E2D0909406C1
:102A6000E090950620919606F0E4FF2E3F2D329FD0
:102A7000312D1124F32ED0E0C01708F016CFFE013F
:102A8000E556FC4F808190919F018923D9F0FE018A
:102A9000EE0FFF1FE553FD4F64ADF69EB00111240C
:102AA000E5E075956795EA95E1F780919306680FE3
:102AB0007D2D8E2D0E947608462F282F672FCE0160
:102AC0000E9403082196D8CFC0919E018FE0C89F35
:102AD000C02D11240FE00C0F0B3408F00AE40E9403
:102AE000BA12882319F0063208F005E20E94BA12E1
:102AF000811103C0C53208F4C5E2F0909306D0916D
:102B00009406E090950660919606669566956695A2
:102B100080916106909162060E946C080E944D08A7
:102B2000805887FD8195880F282F3E2D239F212DCA
:102B30001124822F6F2D7D2F0E947608F62EE72E0E
:102B4000D82ED0E0C01708F0B0CEFE01E556FC4FFD
:102B5000808190919F01892331F02D2D4F2D6E2D75
:102B6000CE010E9403082196EDCF8AEE97E00E94E5
:102B70009D139ECEC0919E018FE0C89FC02D112451
:102B80005FE0F52EFC0E2AE42F1510F44AE4F42E33
:102B90000E94BA12882329F035E23F1510F435E27D
:102BA000F32E0E94BA12811103C0C53208F4C5E2A7
:102BB0006091960666956695809161069091620691
:102BC0000E946C08D82E80E48D0D0E944D0890E87C
:102BD000C92EC80E8D2D0E944D0820E8B22EB80EC9
:102BE000D0E0CF1510F08F2D61CEFE01E556FC4FE1
:102BF000808190919F018923A1F06091930670914B
:102C0000940680919506ED2C0C2F2B2D4C2D0E94B7
:102C10001F080E947608462F282F672FCE010E949A
:102C200003082196DECF89ED97E0A1CF82ED97E0F2
:102C30000E9422133DCE8CEC97E0FACF0F931F93A6
:102C40000E94BA12882329F00E94D0061F910F918A
:102C500008950E94D0060091900410919104209153
:102C6000920430919304600F711F821F931FEECF67
:102C7000CF92DF92EF92FF926B017C010E94BA1219
:102C80008823A1F02FB7F89460914606709147060B
:102C900080914806909149062FBF6C197D098E09D5
:102CA0009F09FF90EF90DF90CF9008950E941E162D
:102CB000F4CF0E94370E2FEF84E39CE02150804038
:102CC0009040E1F700C0000088E19CE00FB6F89466
:102CD000A895809360000FBE90936000FFCF0E9484
:102CE000F00C282F30E0309305012093040183304D
:102CF00049F0843059F0823021F48FE494E00E944E
:102D0000E711089585EE0E94941108958FE494E0F0
:102D10000E94E7118AE090E0EFE9FFE03197F1F7D8
:102D200000C000000197C1F78FE494E00E945511A4
:102D3000E4CF0E94F00C282F30E030930201209362
:102D40000101833049F0843059F0823021F480E56C
:102D500094E00E94E711089581EE0E949411089575
:102D600080E594E00E94E7118AE090E0EFE9FFE05F
:102D70003197F1F700C000000197C1F780E594E0BA
:102D80000E945511E4CFB0E0A0E0E9ECF6E10C942C
:102D9000D42C6C017B0164E670E088E70E94142A61
:102DA000EC0197FD12C010E000E0F601E00FF11F0A
:102DB000849164E670E00E94802AEC01892B29F45A
:102DC0000F5F1F4F0E151F0581F70E94F62ACE01D7
:102DD000CDB7DEB7E8E00C94F02C809139069091E5
:102DE0003A06911103C091E089270895882369F07C
:102DF00062E070E08EEA93E00E94C316892B19F01E
:102E00008091390608951092390680913906EBCFEA
:102E1000CF93C091390680913A068823D1F00E9461
:102E2000D006605A75418F4F9F4F6093350670935F
:102E300036068093370690933806C11108C062E0C9
:102E400070E08CEA93E00E94C316892B29F0C091B0
:102E500039068C2FCF91089581E080933906F7CF02
:102E60004F925F926F927F928F929F92AF92BF929A
:102E7000CF92DF92EF92FF926091520570915305CD
:102E800080915405909155050E9438166B017C0184
:102E90000E941E164B015C018092520590925305D0
:102EA000A0925405B0925505A0912905E9E2F5E0FC
:102EB0008A2F90E04FEF5FEF60E070E04C195D0902
:102EC0006E097F09A91328C08093290580915605B2
:102ED000811135C090919206892F837019F0892F46
:102EE000869586959091A101913009F441C099236E
:102EF00041F1923009F43FC0933009F43FC0FF9094
:102F0000EF90DF90CF90BF90AF909F908F907F9089
:102F10006F905F904F900895218D328D2901712C13
:102F2000612C441555056605770520F481509F5F97
:102F30003296C8CF2C0D3D1D328F218FF8CF80E007
:102F4000D1CF10929E018092610690926206A0926B
:102F50006306B092640689E2E9E2F5E0A5E6B6E030
:102F600001900D928A95E1F781E08093A101C7CF8E
:102F70000E94F313C4CF0E94BF07C1CF8091910676
:102F8000882351F046E050E06CE170E082E996E081
:102F90000E9437301092910660916106709162062E
:102FA00080916306909164060E9438166031710525
:102FB0008105910508F4A3CF1092A101A0CFE2E909
:102FC000F6E085E080838091A2019091A301A09119
:102FD000A40181839283A3838FE784838FEF85830A
:102FE00046E050E06CE170E0CF010E943730109273
:102FF00091060895A4E0B0E0E0E0F8E10C94D92C4B
:1030000040918704509188046091890470918A04EA
:103010002FB7F8948091460690914706A0914806F4
:10302000B09149062FBF841B950BA60BB70B11E07F
:1030300084369105A105B10570F10E941E166E5FE0
:103040007F4F8F4F9F4F69837A838B839C838091BF
:103050001F01909120018F589B4F40911E0150E01D
:103060004530510510F044E050E0BE016F5F7F4FE6
:103070000E946A2D83E090E00E94402C182F882344
:1030800051F00E94D0066093870470938804809367
:10309000890490938A04812F2496E3E00C94F52C04
:1030A000EF92FF921F93CF93DF9300D000D000D018
:1030B000CDB7DEB77B0190E080E00E94402C182F56
:1030C000882309F480C04091090150E04115510561
:1030D00011F041E050E060910A0170910B016F58CE
:1030E0007B4FCE0106960E946A2D40916904509153
:1030F0006A0460916B0470916C042FB7F89480910E
:10310000460690914706A0914806B09149062FBF08
:10311000841B950BA60BB70B84369105A105B10551
:1031200040F482E794E00E9448059E81891709F4E3
:103130004AC081E090E00E94402C811116C010E04E
:1031400085E0E4E6F4E0D70101900D928A95E1F77D
:10315000812F26960FB6F894DEBF0FBECDBFDF914C
:10316000CF911F91FF90EF9008954091110150E091
:103170004630510510F045E050E060911201709129
:1031800013016F587B4FCE0101960E946A2D82E792
:1031900094E00E9448059E818913D1CF0E94D006F9
:1031A0006093690470936A0480936B0490936C0439
:1031B00085E0FE013196A4E6B4E001900D928A9577
:1031C000E1F711E0BDCF85E0E2E7F4E0DE01119622
:1031D00001900D928A95E1F71111EACFB1CF4F928C
:1031E0005F926F927F928F929F92AF92BF92EF9277
:1031F000FF920F931F93CF93DF937B01FB014080DE
:103200005180628073809FB7F894809046069090BA
:103210004706A0904806B09049069FBF84189508BD
:10322000A608B708F4E68F169104A104B10418F4B7
:10323000C1E0442329F1C82F880FDD0BFE0183E094
:10324000EE0FFF1F8A95E1F7EA5FFE4F81819281C1
:103250008F589B4F408150E00417150708F4A801D0
:10326000B9010E946A2DCE010E94402CC82F8823EC
:1032700039F00E94D006F7016083718382839383C3
:103280008C2FDF91CF911F910F91FF90EF90BF9006
:10329000AF909F908F907F906F905F904F90089528
:1032A000A7E0B0E0E6E5F9E10C94D82C86E0E2E98D
:1032B000F6E0DE01119601900D928A95E1F780917A
:1032C00056058F8347E050E060E874E0CE01019638
:1032D0000E945D2D41E0892B09F440E007E010E0F9
:1032E0009E012F5F3F4F6BE874E084E00E94EF186F
:1032F0002796E4E00C94F42C0F931F93CF93DF9365
:10330000EC0145E050E067E774E00E945D2D41E08C
:10331000892B09F440E005E010E09E016DE674E0C1
:1033200082E00E94EF18DF91CF911F910F910895D5
:103330009091A10492FB222720F9281779F080FBB5
:1033400092F99093A1046091A0047091A10484E08B
:1033500090E00E94653082E00E94700C089567EE54
:103360007EEF90E080E00E94653060E082E090E0D7
:103370000E94473060E083E090E00E944730109266
:1033800056041092550460E074E184E090E00E94DD
:10339000653060E086E090E00E9447306FEF87E0A4
:1033A00090E00E94473040E050E0BA0188E090E0B1
:1033B0000E94593060E08DE090E00E94473040E08C
:1033C00050E0BA0188E190E00E94593060E087E166
:1033D00090E00E94473040E050E0BA018CE190E07C
:1033E0000E94593070E060E080E290E00E94653019
:1033F00040E050E0BA0188E190E00E94593040E09E
:1034000050E0BA018FE090E00E94593040E050E077
:10341000BA0183E190E00E94593008951F920F9203
:103420000FB60F9211242F933F934F935F936F9397
:103430007F938F939F93AF93BF93CF93DF93EF933C
:10344000FF93D091E900DF708091EC00C82FC1702C
:1034500080FDC0E81092E9008091F000877F8093A2
:10346000F00078940E944D0E1092E9008091F000D7
:1034700088608093F000CD2BCF70C093E900FF915E
:10348000EF91DF91CF91BF91AF919F918F917F91FC
:103490006F915F914F913F912F910F900FBE0F90C1
:1034A0001F9018951F920F920FB60F9211242F9311
:1034B0003F934F935F936F937F938F939F93AF93BC
:1034C000BF93EF93FF938091E10082FF09C0809149
:1034D000E20082FF05C08091E1008B7F8093E100D4
:1034E0008091DA0080FF24C08091D80080FF20C046
:1034F0008091DA008E7F8093DA008091D90080FF7E
:103500009DC080E189BD82E189BD09B400FEFDCF87
:1035100081E08093570680914A06811109C00E947C
:1035200072050E9413068091E20084608093E2009D
:103530008091E10080FF17C08091E20080FF13C0FE
:103540008091E2008E7F8093E2008091E2008061B2
:103550008093E2008091D80080628093D80019BCEB
:1035600085E0809357068091E10084FF2BC0809115
:10357000E20084FF27C080E189BD82E189BD89B571
:10358000982F917080FFFBCF8091D8008F7D809322
:10359000D8008091E1008F7E8093E1008091E2006D
:1035A0008F7E8093E2008091E20081608093E20050
:1035B00080915806882309F447C084E08093570619
:1035C000809157068091E10083FF27C08091E2003F
:1035D00083FF23C08091E100877F8093E10082E038
:1035E00080935706109258068091E1008E7F809359
:1035F000E1008091E2008E7F8093E2008091E20002
:1036000080618093E20042E060E080E00E94E1059A
:103610008091F00088608093F000FF91EF91BF915E
:10362000AF919F918F917F916F915F914F913F915A
:103630002F910F900FBE0F901F90189519BC1092EC
:10364000570610924A0674CF8091E30087FD93E0FD
:1036500090935706B5CF78941F921FB61F921124EE
:103660008F939F93AF93BF938091460690914706A7
:10367000A0914806B09149060196A11DB11D809305
:10368000460690934706A0934806B0934906BF911B
:10369000AF919F918F911F901FBE1F9018959C0115
:1036A0004FB7F8948091460690914706A09148063E
:1036B000B09149064FBF821B930B08952FB7F89422
:1036C0008091460690914706A0914806B091490620
:1036D0002FBF08951F93CF93DF93C62FD42F122FA0
:1036E000FC0182818823A1F0609390060E945E1BFA
:1036F00090938F0680938E06C77081E001C0880F7B
:10370000CA95EAF70E941611DF91CF911F91089593
:1037100080919006681342C080918E0690918F062A
:103720000E944F1B86399105C8F5CD17C9F080E27C
:103730008C0F883040F4C77081E001C0880FCA95B3
:10374000EAF70E940F1180E28D0F883048F481E083
:103750009D2F977001C0880F9A95EAF70E94161165
:10376000812F0E9494118AE090E0EFE9FFE0319709
:10377000F1F700C000000197C1F7812F0E942011CE
:1037800080E28D0F883008F0BFCFD77081E001C094
:10379000880FDA95EAF70E940F11B6CFC77081E063
:1037A00001C0880FCA95EAF7F6CFAFE0B0E0EBEDC5
:1037B000FBE10C94CF2C8E010F5F1F4F8AE0D801E4
:1037C0001D928A95E9F780EBC82E82E0D82EF12C65
:1037D000E12CAA24A394B12C2BEB822E22E0922E72
:1037E000F60181916F018F3F09F442C0F894E82FF0
:1037F000E295EF70F0E021A18F70A50102C0440FA7
:10380000551F8A95E2F7CA01922F982B91A392A196
:103810008095892382A3789400C0E5EBF2E0712CB7
:1038200031E021912F3F09F46BC0A22FA295AF7018
:10383000B0E090968C9190E02F7002C0959587959E
:103840002A95E2F780FD5CC0832F782A330F8E160D
:103850009F0639F7F601319780818F3F11F00E9462
:103860000C0950EA5A95F1F7F801EE0DFF1D708230
:103870008FEFE81AF80AA5E0EA16F10409F0B0CFD4
:103880004AE050E0B80184E994E00E945D2D009781
:1038900041F02AE0F801A4E9B4E001900D922A95E4
:1038A000E1F700919F04892B69F181E080935B042B
:1038B0000E945E1B90935A0480935904809159048E
:1038C00090915A040E944F1B059700F110E00E558D
:1038D0001B4F45E050E064E974E0C8010E945D2D93
:1038E000D12C892B51F085E0E4E9F4E0D801019076
:1038F0000D928A95E1F7DD24D39410925B0407C002
:1039000080E0A3CF80915B048111D8CFD12C0E949D
:10391000BA12C82EE0919F04882309F47FC07E016B
:10392000BBE0EB0EF11C85E0D7011D928A95E9F70B
:103930000E2F10E00E551B4F80918F048A30D8F562
:1039400040E558E1B701C8010E948712882309F4B5
:1039500054C04CE759E1B701C8010E94871288237F
:1039600009F44BC04AEF57E1B701C8010E94871222
:10397000882309F442C040E559E1B701C8010E941B
:1039800087128823D1F110928F0480919E0490E0D9
:1039900045E050E0B7018E559B4F0E945D2D21E020
:1039A00020936204892BE1F4C12C8C2D8D292F9654
:1039B000EDE00C94EB2C80915C0490915D040E94EE
:1039C0004F1B843F914008F0BBCF80916204882355
:1039D00059F385E0F70111928A95E9F71092620494
:1039E000A0919E04B0E0AE55BB4F85E0FE013B9632
:1039F00001900D928A95E1F7D8CF80918F048F3F87
:103A000031F08F5F80938F048A3008F4BECF0E941C
:103A10005E1B90935D0480935C04D7CF00919E045D
:103A200010E00E551B4FF0E0EE55FB4F85E0A2E78E
:103A3000B4E001900D928A95E1F782E794E00E944C
:103A400048058093710485E0E7E7F4E0D801019030
:103A50000D928A95E1F780907C0490907D04A0906F
:103A60007E04B0907F0480915E0490915F04A091E9
:103A70006004B091610488169906AA06BB06D1F0CD
:103A800080925E0490925F04A0926004B092610400
:103A90000E94BA1281110EC00E94D006861A970A9F
:103AA000A80AB90A8092900490929104A09292047C
:103AB000B092930486E0E0E8F4E0A2E9B6E0019079
:103AC0000D928A95E1F710918604112349F08091B7
:103AD0005605811105C00E94F31380E00E94BF07C4
:103AE0001093560562CFB0E0A0E0E9E7FDE10C9449
:103AF000D22C8C01DC0113968D919C911497892B0B
:103B000041F04C9111965C91842F85238F3F09F0F1
:103B100042C4CDB7DEB7EAE00C94EE2CCC33D1052D
:103B200008F08BC4FE01E350FE4F80818093930127
:103B300084C41092F1031092F003E9EEF4E08DEFEB
:103B400094E020E221938E179F07E1F7ADC49C2FEC
:103B50008D2FFFC4F701858181FFFFC4C7010E943B
:103B6000F20DFBC4FE01E851FC47E730F10508F017
:103B7000F4C4EE57FF4C0C944E2D26E241EE61EE5C
:103B8000C8010E946A1B80914B04877011F2D80112
:103B900012968C91882309F4BCCF8091A10482FFF6
:103BA000B8CF82E00E94700CB4CF27E245EE65EEFC
:103BB000E7CF26E241EE60EEE3CF27E245EE64EE8A
:103BC000DFCF26E241EE62EEDBCF27E245EE66EE86
:103BD000D7CF28E241E0EBCF8091A00481608093B1
:103BE000A00495C08091A10488608093A1048FC037
:103BF0008091A0048260F3CF8091A0048460EFCF15
:103C00008091A0048860EBCF8091A1048160EDCF0A
:103C10008091A1048260E9CF8091A0048061DFCF10
:103C20008091A0048062DBCF8091A0048064D7CF14
:103C30000E94370E8091A0048068D1CF8091A004AB
:103C40008C60CDCF8091A1048360CFCF8091A00400
:103C50008E7FC5CF8091A104877FC7CF8091A004BC
:103C60008D7FBDCF8091A0048B7FB9CF8091A004C0
:103C7000877FB5CF8091A1048E7FB7CF8091A104BB
:103C80008D7FB3CF8091A0048F7EA9CF8091A004B7
:103C90008F7DA5CF8091A0048F7BA1CF0E94370E8E
:103CA0008091A0048F779BCF8091A004837F97CFD2
:103CB0008091A1048C7F99CF8091A00482FB9927E9
:103CC00090F921E0922790FB82F990FB83F987CF4E
:103CD0008091A104982F909591708E7F892B90FBF5
:103CE00081F983CF9091A004892F8F7B96FF806408
:103CF00076CF0E94370E9091A004892F97FB87F909
:103D000080586DCF61E08EE090E00E944730609176
:103D1000A0047091A10484E090E00E9465300E94AC
:103D2000370E31CF60E0EFCF9091A004892F8F7EC6
:103D300094FF806154CF9091A004892F8E7F90FFD3
:103D400081604DCF9091A104892F877F93FF886078
:103D50004CCF85E33FC48091920691E08927809300
:103D600092061092A1018091910681608093910644
:103D70000ACF4AEA57E064EB77E00E94400703CF9E
:103D800044EB57E06AEA77E0F8CF46E957E060EAAB
:103D900077E0F3CF40EA57E066E977E0EECF4CE713
:103DA00057E069E877E0E9CF49E857E06CE777E06A
:103DB000E4CF42E657E06FE677E0DFCF4FE657E02B
:103DC00062E677E0DACF46E457E064E577E0D5CF06
:103DD00044E557E066E477E0D0CF81E00E942F050C
:103DE000D2CE85E0FBCFC737BCE7DB0709F45FC065
:103DF000C837DC4709F461C0F8018281C081D181F4
:103E0000882309F4AEC0CE010E94830BF82E682FE0
:103E1000CE010E94F70BBE018F2D0E94080A0E945E
:103E2000270AD82FC92FA82ED8011296FC901297D6
:103E30001596DC90D2943FE0D32280914B0487709A
:103E4000F1F0CF2CFF20E1F0892F807F803451F0FA
:103E500080E28D0F883098F0D11004C0892F807EC9
:103E6000803269F08091A10482FF09C082E00E9443
:103E7000700C80914B048770CC24C3948111C12CA9
:103E8000BC2EB2942FE0B222BBE0BB1508F4D0C028
:103E9000EB2DF0E0E757FF4C0C944E2D81E00E9493
:103EA0008C0C43E062E081E00E94320C6CCE81E039
:103EB0000E945E0CF6CF82E0F2CF82E0F9CFCB35E4
:103EC0009CE7D90709F44BC0CC35ACE7DA0709F415
:103ED0003CC0CA35DC4709F08FCF81E03DC00E946D
:103EE000370EEFEFF4E32CE0E150F0402040E1F733
:103EF00000C0000081E08093E00080E28093D80061
:103F00001092C9008FE19EE40197F1F700C0000014
:103F100087E090EBDC018093A3089093A408A09322
:103F2000A508B093A60888E19CE00FB6F894A89580
:103F3000809360000FBE90936000FFCF6FEF7FEF24
:103F400090E080E00E9465306DC38091A10482FB07
:103F5000882780F991E089270E9498194DCF80E049
:103F6000FBCFCE010E94C40BF82E55CFEC2FEF7083
:103F7000EE2EC07F19F0E29490EFE922FF20B9F015
:103F8000EE2069F080E28D0F883010F0A11009C09A
:103F900080913C06E82AE0923C060E94B50D8D2FE8
:103FA00045C080913B06E82AE0923B06F6CF8D2F74
:103FB0000E942011EE20E1F1D05E8E2DD83010F05D
:103FC000A11003C00E94520B02C00E944B0B0E9422
:103FD000B50D2EC0FC2FFF70EF2EC07FC03219F040
:103FE000E29480EFE822AA2089F021E0A21609F4E9
:103FF0007DC0FF2009F487C0DD2009F47DC0F801F1
:10400000858180FFCCCF8F70858376C02091A104FD
:1040100022FD44C0FF20D9F1EE2039F080913C060A
:10402000E82AE0923C060E94B50D80E00E949411BF
:10403000AB2DA850BB0B149710F40E94DD12CC20BE
:10404000A9F080914B0480FD11C0F8011282859582
:10405000859585950E948C0CC8010E94731D8091E6
:104060004B048595859585950E945E0C20E0D801CE
:104070004C9111965C91119712966C911297139630
:104080007C91139714968C910E94CB0C42CD80E0CA
:104090000E942011EE2061F28E2D94CFFF20A1F01E
:1040A000909154048E2D892BD11003C00E941611BB
:1040B000BFCF31E0D312FACF22FFBACF891709F46C
:1040C000B7CF80935404B4CFD11006C00E94450BE3
:1040D0008E2D0E940F11ACCF81E0D81609F4A8CF25
:1040E0008E2D0E940F110E94450BA2CFFF2031F0B0
:1040F00095E09D1508F49CCF8E2DD8CFA4E0AD158A
:1041000008F496CFE5CFDD2019F3F9E3AF120DC027
:104110002FEF37EE83E0215030408040E1F700C0C0
:1041200000008D2F0E94201183CFAFE3BCE91197CF
:10413000F1F7F5CF8C2F86958695837069F08130E5
:1041400009F076CF8D2F9C2F9370F11002C080E084
:1041500090E00E94F6066CCF8D2F9C2F9370F1108B
:1041600002C080E090E00E941B0762CF8C2F83701A
:1041700009F03FC0F1105CCF4D2F42954695477036
:10418000440F440F2D2F2F7030E0042E02C0220F59
:10419000331F0A94E2F790E080E0D4FF09C08FE07B
:1041A00090E002C0880F991F4A95E2F7809590959C
:1041B000C695C695C370C23099F078F44091550405
:1041C00050915604C13039F0822B932B84239523D0
:1041D0000E949C0C2DCF242B352B822B932BF8CFB8
:1041E000822B932B209155043091560482279327DC
:1041F000EFCF8695FF2011F08C2F8170882309F472
:1042000017CF4D2F429546954770440F440F2D2FE1
:104210002F7030E0042E02C0220F331F0A94E2F701
:1042200090E080E0D4FF09C08FE090E002C0880FEA
:10423000991F4A95E2F780959095C695C695C370EB
:10424000C23099F078F44091FE045091FF04C130DF
:1042500039F0822B932B842395230E942D0CE8CEDA
:10426000242B352B822B932BF8CF822B932B209151
:10427000FE043091FF0482279327EFCFCF70FF20F9
:1042800029F08C2F0E948C0C8D2F10CF8D2F0E9427
:104290000F118C2F0E945E0CCBCE8D2FB2EFAB1680
:1042A00099F1BA1570F0E0EFAE16D1F0F1EFAF165C
:1042B00091F0FF2009F45BC0D11071CE8C2F8F716B
:1042C00027C023EFA21639F134EFA312F2CF809169
:1042D000A10482FD2EC08C2F8F71FF20D9F218C04F
:1042E000FF2069F084E08D1508F4A2CECF7181E043
:1042F00090E002C0880F991FCA95E2F7B8CF95E009
:104300009D1508F495CEF2CF8C2F8F71F110C2CF8E
:104310000E948C0C8DCE90E080E0FF2009F49DCFB0
:10432000CF7181E090E002C0880F991FCA95E2F733
:1043300094CFFF2089F0CF718C2F0E948C0C80913C
:10434000A10482FF07C0A8E0CA9FC00111248360B6
:1043500080934B048C2FDCCF81E00E94700CB1E085
:10436000BD1508F065CE82E00E94700C61CEDD20A4
:1043700079F0893341F4EFEFF7EE23E0E150F040BC
:104380002040E1F7CCCE8FE39CE90197F1F7C7CE4F
:104390008C2F8F717FCF21E0F8016281738184813E
:1043A0000E94CB0CEC01D80112968C91882369F104
:1043B00080913D0690913E06009739F18C179D073C
:1043C00021F1BEE08B9FC0011124FC01E45CFE4F93
:1043D000208124602083895C9E4FFC01D183C083AF
:1043E0000E940C0E10923B0621E0D8014C911196D0
:1043F0005C91119712966C91129713967C9113977A
:1044000014968C910E94CB0CEC01F80182818823D8
:1044100009F457C080E280939301D0930105C093C3
:104420000005CE0190528115904308F077CBCE0164
:1044300099279093010580930005D80111968C91DE
:104440001197809303059C919093020540E2F42E0E
:10445000CC33D10520F4FE01E75CFD4FF0801F92C4
:10446000FF92DF93CF931F929F931F928F9385EAC2
:1044700091E09F938F931F9288E18F9381ED94E059
:104480009F938F930E947A2D2DB73EB7225F3F4FA7
:104490000FB6F8943EBF0FBE2DBF8091F0039091F0
:1044A000F103449709F445CB8091F0039091F10317
:1044B000FC01E751FB4FF08201969093F10380934A
:1044C000F003CE0197558F3F910511F008F04ACBCC
:1044D0006E01DD243EE0C39FF0011124DF01A95CE1
:1044E000BE4F7D01D80112968C91E45CFE4F908105
:1044F00080FB90F99083882309F42CCB0E945E1BEB
:104500009093B8048093B704F70182818F5F828310
:1045100080913B0690913C06892B838380915404C3
:1045200084830680F781E02D309731F0D7011C9607
:104530006D917C91C70109958EE08C9DF0018D9D58
:10454000F00D1124E95CFE4F858181FF00CB90E0E6
:1045500080E090933D0680933E06D80112968C91A0
:10456000882379F110929006CE019057839798F4A2
:1045700084E090E00E9431309093A1048093A004E5
:10458000FE01E150F047E232F10508F025CBEB5691
:10459000FF4C0C944E2DC631BCE7DB0749F58091EA
:1045A0003C068A7A91E009F490E09093F20369E284
:1045B000811165E388EE93E00E94DC060E94B50D50
:1045C000E2CAC631ECE7DE0779F58091F20381118A
:1045D000C0CB89E2EAEEF3E020EF33E0919189135A
:1045E00003C0DF0111971C922E173F07B9F7E6CFE2
:1045F000C737FCE7DF0709F451CCC8372CE7D207EF
:1046000009F459CCC330FCE7DF0709F497CC08F074
:1046100056CCC1153CE7D30709F461CCC130DC4767
:1046200009F0EACB0E94591680913C068272FE0185
:10463000E052F847E531F10508F0D5CBE954FF4CDD
:104640000C944E2D1F93CF93DF9380911804807F9D
:1046500009F04BC080911504882309F446C080916D
:104660004A04C091190440911304509114046091BC
:10467000160470911704D42FD52316E0C817A9F19A
:1046800090E061157105A9F1DF3F99F1189FF001E4
:10469000199FF00D1124DF01A65EBB4F11962C91DE
:1046A0001197251326C02C91241323C012962C9108
:1046B000129721111EC013962D913C91261B370B8A
:1046C00026393105B0F4809118048F708061809391
:1046D0001804E15EFB4F80818F708061808383E1ED
:1046E00094E00E94731D0E94790BDF91CF911F917E
:1046F000089501968770C2CFA1E1B0E0E2E8F3E24D
:104700000C94D02C8C0185E0F801DE011D960190FF
:104710000D928A95E1F7F801E28083E1882E84E02A
:10472000982E40911604509117044115510509F433
:1047300021C19091130420911404892F82238F3F6B
:1047400009F418C1D080C180A380B480F090150412
:10475000B501641B750BFF2009F4F3C080911804A8
:10476000382F307F6639710508F0B7C0311178C035
:10477000FE2C2C1114C09D1112C0E11010C08F70BE
:10478000806180931804C4010E94731D80911804F5
:10479000F80185838F2D6196ECE00C94EC2CA1142C
:1047A000B104C9F18D2D8C218F3FA9F181E08E25B7
:1047B00080FF05C04E2D6C2D8D2D0E94590BA1142C
:1047C000B10459F18D2D8C218F3F39F181E08E2577
:1047D000F82FF170BF2E80FF39C04E2D6C2D8D2D1E
:1047E0000E94590BA82E811131C0DD86CE868D85A1
:1047F0009E850E94B70B292F22952F70243078F4C4
:104800009F702230A8F09923B9F0F8019581907F2C
:1048100099F4FA2CBFCF80E0CBCF80E0D9CF2A5FCC
:104820002F70223068F0C8010E94731DAB2CF1CFAD
:10483000992311F0882369F3805E883050F3F3CF19
:10484000803F38F3815F833070F7E3CFEE2009F4C7
:10485000A1CF80911804816080931804F12C9ACF25
:104860002C1111C09D110FC0E1100DC08583C8012E
:104870000E94731D86E0F801A3E1B4E001900D925F
:104880008A95E1F787CFC8010E94A10C882309F11E
:10489000EE20F9F080911804803270F0209113041A
:1048A0003091140438872F831986BB86AA868C879B
:1048B000CE0107960E94731D86E0F801A3E1B4E0E3
:1048C00001900D928A95E1F70E942223FF24F39430
:1048D00061CFC8010E94731DF9CF31110AC083E175
:1048E00094E00E94731D86E0F40111928A95E9F725
:1048F000B5CF2C110EC09D110CC0E1100AC08583EC
:10490000C8010E94731D86E0F40111928A95E9F7AF
:1049100041CFC8010E94A10C8823D9F2EE20C9F230
:1049200080911804803240F22091130430911404D5
:104930003A8329831B82BD82AC828E83CE0101968D
:10494000B9CF66397105F8F6FE2CEE2011F22C1164
:1049500003C09D1509F48ECFC8010E94A10C8111DE
:10496000ABCF80911804816080931804C8010E9425
:10497000731D10CFEE2009F4ACCFC8010E94A10C2A
:10498000F82E882309F4A5CF86E0F801A3E1B4E06E
:1049900001900D928A95E1F780911304909114048F
:1049A0000E94B70B0E942223F5CEA7E1B0E0EBED09
:1049B000F4E20C94D92C4B8B5C8B6D8B7E8B8F8BA4
:1049C000611110923B061A8A198A85E0FE017396DE
:1049D000DE011D9601900D928A95E1F786E0FE01B9
:1049E0003D96DE01179601900D928A95E1F7CE0172
:1049F00007960E947C23882359F016E080914A0490
:104A000090911904891343C06796E3E00C94F52C48
:104A100086E0FE013796DE01119601900D928A958F
:104A2000E1F78A859B85892B41F38F8198858923BE
:104A30008F3F19F32091190430E0C9010196877066
:104A4000992740914A044817190671F40E94370EBD
:104A50001092190410924A0486E0E3E1F4E0DF01C9
:104A60001D928A95E9F7C9CF96E0929FD001939F56
:104A7000B00D1124A65EBB4FFE01319601900D9240
:104A80009A95E1F7809319040E94790BB6CF819F24
:104A9000C0011124865E9B4F0E947C23882309F469
:104AA000B3CF80914A0490E0019687709927809354
:104AB0004A04A4CFA5E0B0E0E0E6F5E20C94D82CDF
:104AC0000E945E1B8C0180915704909158048017BE
:104AD0009107A1F08FEF89838A831B820E945E1B5E
:104AE0008160782F9D838C8349815A816B818D8170
:104AF0000E94D52410935804009357042596E4E0AF
:104B00000C94F42C1F921FB61F9211248F939F9325
:104B1000AF93BF9380914506811113C080914606E3
:104B200090914706A0914806B09149064196A11D73
:104B3000B11D8093460690934706A0934806B09314
:104B40004906BF91AF919F918F911F901FBE1F90FB
:104B50001895CDB7DEB729970FB6F894DEBF0FBE14
:104B6000CDBF85B7806885BF85B7806885BF84B7AE
:104B7000877F84BF0FB6F894A89580916000886104
:104B800080936000109260000FBE80E890E00FB646
:104B9000F89480936100909361000FBE8AE099E0E1
:104BA0009093E7038093E6030E9472050E94130628
:104BB0008091E20084608093E200789480915706AF
:104BC0008823A1F01091E9001F709091EC00892FCB
:104BD000817090FD80E8182B1092E9008091E80028
:104BE00083FD0E944D0E1F701093E90082E084BD8A
:104BF00093E095BD9AEF97BD80936E00109290045C
:104C00001092910410929204109293040E94BA128E
:104C100080932E010E94BA1281110E94542B809120
:104C20002E0180912E0195E0811190E090939F04D8
:104C300085E0891B80939E0400EB12E0D8018D91E2
:104C40008D018F3F11F00E940C09B2E0053B1B075C
:104C5000A9F705EB12E05BEBE52E52E0F52EF8012B
:104C600081918F018F3F11F00E940C09E016F1062F
:104C7000B1F78AE0E2EAF4E0DF01282F1D922A95DD
:104C8000E9F7E4E9F4E0DF011D928A95E9F790E0A5
:104C900080E00E943130873E9E4F11F00E94AF1994
:104CA00082E090E00E9429308093AC0484E090E0A0
:104CB0000E9431309093A1048093A00483E090E09F
:104CC0000E94293090E00E949C0C109265068FEFA4
:104CD0009FEF90937F0680937E069093810680934A
:104CE0008006909383068093820690938506809336
:104CF0008406909387068093860690938906809316
:104D0000880690938B0680938A0690938D068093F5
:104D10008C06109229059093430580934205909349
:104D200045058093440590934705809346059093ED
:104D300049058093480590934B0580934A059093CD
:104D40004D0580934C0590934F0580934E059093AD
:104D500051058093500590E080E00E943130873EFD
:104D60009E4F21F00E94AF190E94DF1781E08093CF
:104D7000910646E050E06CE170E082E996E00E9426
:104D8000193010929106809192068C7F11F40E9446
:104D9000DF170E94BA1212E0811110E00E94BA12CD
:104DA000811101C012E01093240580E880939806D9
:104DB0000E940E2A6DE070E08FE992E00E94C31617
:104DC000892BE9F58091240563E070E081FDFEC048
:104DD0008CE992E00E94C316892B89F56DE070E0A2
:104DE0008CE892E00E94C316892B49F50E94D006F8
:104DF000605A75418F4F9F4F60933506709336060A
:104E00008093370690933806EBE9F6E080E092E075
:104E1000DF019C011D9221503040E1F7F093A20880
:104E2000E093A1088FEF9FEF90939A0680939906E5
:104E300081E080933A0680933906109225050E94FE
:104E4000BA12811102C00E94572B8FE291E0909319
:104E50004206809341068091570600E112E18530B9
:104E600009F4FFC00E94D51B4DEA242E44E0342EE5
:104E7000E2EAF4E0FF83EE83DF01F10191918D918D
:104E800024E0E73BF20709F4F8C09817B9F30E9451
:104E9000BA1289873BECA32E32E0B32EE12CAE810F
:104EA000BF819D90BF83AE83F10151901F015914C2
:104EB00009F480C0592458862501812C77247394E5
:104EC0008885872109F46BC0F92CF720F985FF2329
:104ED00099F08982EA8281E0F11001C080E08B8341
:104EE0000E945E1B8160782F9D838C8349815A814B
:104EF0006B818D810E94D524F1102CC1D2018C913F
:104F00008F3F09F029C10F2D10E080912905800FF6
:104F1000912F911D09976CF188E0C82ED12CC01AF1
:104F2000D10AB801665D7A4FA6018AE295E00E9437
:104F30006A2DB8016E5C7A4FA60182E395E00E946B
:104F40006A2DA601440F551FB801660F771F6E5BCF
:104F50007A4F82E495E00E946A2DB801665C7A4F30
:104F6000A6018AE395E00E946A2D88E08F1980935C
:104F700029058091290590E0A62DB0E09D01220F22
:104F8000331F295F3C4FAA0FBB1FBD01685F7C4FD9
:104F900041E0480F9F1508F4E3C0809329058394EE
:104FA000770CBFEF4B1A5B0AE6E08E1289CFF10156
:104FB00031979082E394F6E0AF0EB11C2AE0E21242
:104FC0006ECF0E94D006DD24D3945CC089E992E0C4
:104FD00001CF80915706843009F434C00E94301705
:104FE00080915605811105C00E94F31380E00E9454
:104FF000BF0731E0309356050E94ED16109245062A
:1050000088E190E0A0E40FB6F894A8958093600042
:105010000FBEA093600083B7817F846083BF83B796
:10502000816083BF7894889583B78E7F83BF0FB6E6
:10503000F894A89580916000886180936000109238
:1050400060000FBE80915606882359F00E94D51B40
:10505000E2EAF4E081918111CBC1B4E0EC3AFB07C4
:10506000C9F780915706853009F4B3CF0E94370EF7
:105070000E94DD1210925605F5CE981308CF0E94BB
:105080005A25D12C0E94BA128823F1F000913D06D6
:1050900010913E0601151105B9F08091B704909169
:1050A000B8040E944F1B8739910570F03EE0039FC2
:1050B000C0011124FC01E45CFE4F208122FD04C0EC
:1050C000895C9E4F0E940C0E0E94301780913A0618
:1050D000882309F49DC080912605909127050E94A0
:1050E0004F1BC29708F475C00E945E1B9093270562
:1050F000809326058BE996E09093A2088093A108FF
:105100000E94BA12882309F495C08091FE04909100
:10511000FF048430910509F48AC0B8F50097F1F1D5
:1051200062ED71E082309105D9F19F938F938DEEFE
:1051300091E09F938F931F9288E18F9389EB94E086
:105140009F938F930E947A2D0FB6F894DEBF0FBE07
:10515000CDBF2AC0F12CD7CE682EFF24F394D3CE36
:1051600090E0FC01E75DFA4FD9015C915183DB01CE
:105170005C915187618A880F991FFC01E75DFA4FA6
:10518000128E118E91E0842F03CF8830910519F093
:105190008E30910551F66FED71E002C066EB71E063
:1051A00089EB94E00E94732D89EB94E00E94F21148
:1051B00081E00E94830D81ED94E00E94F21181E074
:1051C0000E94830D89EE94E00E94F21181E00E941A
:1051D000830D8091990690919A06892B81F5809193
:1051E00039068823A9F00E94D00600913506109157
:1051F00036062091370630913806601B710B820B02
:10520000930B6F3F7F4F8F4F9F4710F40E94ED1617
:10521000D1100E9408170E94DD129091280589176D
:1052200009F419CE809328050E94D00614CE65ECAF
:1052300071E0B6CF83E591E00E94F211CACF809170
:105240003A06882361F2809125058111C8CF0E941A
:1052500008172091990630919A062115310509F415
:10526000BECF80E0082F10E0EE24E394F12C082E4E
:1052700002C0EE0CFF1C0A94E2F7A701422353235D
:10528000452B11F48F5FEECF9091240590FF97C0CE
:10529000880F880F880F8093960110929901895F7B
:1052A0008093970183E080939A0124E630E047E001
:1052B00050E064E971E088E70E94AE2A892B09F08A
:1052C0008ECFA80125E0440F551F2A95E1F7809164
:1052D000240580FF86C0E4E0F5E080E2DF011D9256
:1052E0008A95E9F78FEB282E82E0382E0BEB12E03F
:1052F00097E0992EF10121911F01D8014D908D0168
:10530000440E552E511CF201E556F94F2F01E22FA4
:10531000F0E0EC5FFA4F30E020E0792C721ACC24F8
:10532000C394022E01C0CC0C0A94EAF7520190E01B
:10533000D5018D915D018C21672D691B6770862ECB
:10534000062E000C770BB82F01C0BB0F8A94EAF72A
:105350008B2E7195619571096770772701C08695CD
:105360006A95EAF7882A8081882A80829F5F983030
:10537000F9F62F5F3F4F31962830310571F6E3EC97
:105380002E16E2E03E0609F0B5CF04E610E020E27A
:1053900030E044E055E060E488E70E94CF2A892BA2
:1053A00009F01DCFE094F0948091990690919A06AF
:1053B000E822F922F0929A06E092990610CF82959F
:1053C000880F8076809396019801369527953695BB
:1053D000279520939901815E8093970110929A01FD
:1053E00064CF4556594F04E610E020E230E0D3CFB9
:1053F00009BD19BD09B400FEFDCF8091D8008F7D95
:105400008093D8008091E00082608093E0008091DA
:10541000E00081FDFCCF0E94370E23CE1092B90030
:105420008CE08093B8000895B0E0A0E0EAE1FAE2F1
:105430000C94D12CB82EEB010E945E1B6C01EE2463
:10544000E394F12CC431D10560F025E0E22EF12C7B
:10545000CF3FDC0731F0CE0164E170E00E94B62C52
:105460007B0184EAA82E94E8992E1092BC00A092A9
:10547000BC000E945E1B8C018091BC0087FF0DC0A8
:105480008091B900887F8830F9F08091B900887FD9
:105490008031D1F00FEF1FEF08C0C8010E944F1BF1
:1054A000E816F90648F70EEF1FEFCF3FDC07E9F2E9
:1054B000C6010E944F1BC817D907B8F6C801CDB75F
:1054C000DEB7EBE00C94ED2CB092BB009092BC00E8
:1054D0000E945E1B8C018091BC0087FF0AC08091F6
:1054E000B900887F883111F08034A1F610E000E027
:1054F000E5CFC8010E944F1BE816F90660F7D3CF2D
:105500000F931F93CF93DF93EB018093BB0084E84D
:105510008093BC000E945E1B8C018091BC0087FFC1
:1055200011C02091B900287F81E090E0283211F469
:1055300090E080E0919581959109DF91CF911F9145
:105540000F910895CF3FDC0741F3C8010E944F1B24
:10555000C817D90710F78EEF9FEFEFCFB0E0A0E0AC
:10556000E4EBFAE20C94D42C6B018A017901B901C5
:105570000E94142AE6010C0D1D1DC017D10711F061
:1055800097FF08C024E92093BC00CDB7DEB7E8E060
:105590000C94F02CB70189910E94802AEECFB0E0E4
:1055A000A0E0E5EDFAE20C94D42CC62F6A01790153
:1055B000B8010E94142A97FD0CC0B8018C2F0E94DC
:1055C000802AE601EC0CFD1CCE15DF0511F097FFDB
:1055D00008C024E92093BC00CDB7DEB7E8E00C9406
:1055E000F02CB80189910E94802AEECF84E9809343
:1055F000BC0008958EE14A9B02C08150E1F74A9BAE
:10560000FECF08955A9880E28A95F1F75A9A089544
:10561000FC013BE03A95F1F798E020E080E031E0D2
:1056200040E14A95F1F7880F4A9B02C08160232729
:1056300042E04A95F1F7000040E14A95F1F79150B8
:1056400079F790E19A95F1F799B132E03A95F1F74F
:10565000000040E14A95F1F792FB992790F99227D3
:105660002081920F90830895A1E0B0E0EAE3FBE28D
:105670000C94D62C19828C017C01E60EF11C0E15BF
:105680001F0541F481E09981911180E02196E6E0C7
:105690000C94F22C0E94FA2ACE0101960E94082B4B
:1056A000F80181938F01EBCF529A5A9A089552983C
:1056B0005A9AEA9AE9E6F0E080818F7C8083089527
:1056C0006150770B91E001C0990F6A95EAF720E0ED
:1056D00031E0911108C0222391F05A9A80E28A9514
:1056E000F1F75A980895492F482339F05A9A2327F9
:1056F00040E24A95F1F79695ECCF5A98F9CF5A982F
:10570000EDCFFF920F931F93CF93DF93EC018C01AA
:10571000060F111DC017D10729F4CDB7DEB7E5E09C
:105720000C94F32CF9900E94022B68E08F2D0E94BC
:10573000602BF0CF1F920F920FB60F9211240F9390
:105740001F932F933F934F935F936F937F938F9309
:105750009F93AF93BF93EF93FF93CF93DF930F92FA
:10576000CDB7DEB719820E94FA2ACE0101960E94B7
:10577000082B082F069506950695282F229525704B
:10578000902F9570290F922F937026952695920F42
:10579000982797708981982B09F05CC0063008F033
:1057A00059C080E18A95F1F75A9A529A82E08A9517
:1057B000F1F700C05A9888E0089F80011124D801B1
:1057C000AA5FBE4F1696ED91FC9117973097A9F0FE
:1057D0006091AE027091AF0214962D913C91159795
:1057E000260F371F11968D919C911297680F791F84
:1057F00013964C9113978C910995F801EA5FFE4F2F
:105800006381662351F02091AE023091AF02848112
:105810009581820F931F0E94812B0E94022B80E1B1
:105820008A95F1F75A9852985A9A80E18A95F1F739
:10583000F801EA5FFE4F6081662351F02091AE02CD
:105840003091AF0281819281820F931F0E94342B8D
:105850000E94FA2A0F90DF91CF91FF91EF91BF91B3
:10586000AF919F918F917F916F915F914F913F91F8
:105870002F911F910F910F900FBE0F901F901895B1
:105880000F931F93CF93DF93EC0106970CF04CC05E
:10589000F894529A5A9885E08A95F1F700009C2F67
:1058A000969595708C2F8570980F892F837096959B
:1058B000969523E0CC0FDD1F2A95E1F7980F8E0116
:1058C000092B0E94022B00C068E0802F0E94602BF1
:1058D00080E18A95F1F752985A9A4A9B1EC087E058
:1058E00090E04A991CC0FE01EA5FFE4F6381662387
:1058F000F9F02091AE023091AF0284819581820F40
:10590000931F0E94342B811113C0529A5A9A789493
:10591000DF91CF911F910F91089500C0DECF0197C5
:1059200029F4529A5A9A789480E0F2CF00C0D9CFE5
:105930000E94FA2A80E28A95F1F75A98529A80E1F9
:105940008A95F1F7CA5FDE4F6881662351F0209196
:10595000AE023091AF0289819A81820F931F0E941B
:10596000812B0E94022B789481E0D2CFAA1BBB1B13
:1059700051E107C0AA1FBB1FA617B70710F0A61B4F
:10598000B70B881F991F5A95A9F780959095BC0170
:10599000CD0108952F923F924F925F926F927F9226
:1059A0008F929F92AF92BF92CF92DF92EF92FF922F
:1059B0000F931F93CF93DF93CDB7DEB7CA1BDB0BDB
:1059C0000FB6F894DEBF0FBECDBF09942A88398880
:1059D00048885F846E847D848C849B84AA84B98487
:1059E000C884DF80EE80FD800C811B81AA81B98193
:1059F000CE0FD11D0FB6F894DEBF0FBECDBFED01A7
:105A00000895991B79E004C0991F961708F0961B1A
:105A1000881F7A95C9F780950895A1E21A2EAA1BCE
:105A2000BB1BFD010DC0AA1FBB1FEE1FFF1FA2174E
:105A3000B307E407F50720F0A21BB30BE40BF50B4B
:105A4000661F771F881F991F1A9469F760957095D4
:105A5000809590959B01AC01BD01CF010895052E65
:105A600097FB1EF400940E94462D57FD07D00E941C
:105A70000D2D07FC03D04EF40C94462D5095409507
:105A8000309521953F4F4F4F5F4F089590958095EA
:105A9000709561957F4F8F4F9F4F0895EE0FFF1FB9
:105AA0000590F491E02D0994FB01DC0102C0059002
:105AB0000D9241505040D8F70895FB01DC0104C01D
:105AC0008D910190801921F441505040C8F7881BF6
:105AD000990B0895FB01DC0102C001900D92415029
