:100000000C947C060C94B4060C94B4060C94862CC8
:100010000C94B4060C94B4060C94B4060C94B40678
:100020000C94B4060C94B4060C942D1A0C94E91993
:100030000C946C250C94B4060C94B4060C94B40681
:100040000C94B4060C94B4060C94B4060C94B40648
:100050000C94B4060C94061B0C94B4060C94B406D1
:100060000C94B4060C94B4060C94B4060C94B40628
:100070000C94B4060C94B4060C94B4060C94B40618
:100080000C94B4060C94B4060C94B4060C94B40608
:100090000C94B4060C94B4060C94B4060C94B406F8
:1000A0000C94B4060C94B4060C94B406504F525100
:1000B0004A4D4B4E2A4C2F30B6B7ABACBBBCA9AAAD
:1000C000BDBE0D0E0B0F1A05080509050718111303
:1000D0000408120C000000000000000000000000F6
:1000E000290014001A000800150017002B21042114
:1000F0001624072209280A00E1001D001B00060043
:100100001900050000000000E30022522C4100000D
:10011000000000000000000000000000797C1300D7
:1001200012000C0018001C002A0033310F340E326C
:100130000D380B00E50038003700360010001100C4
:1001400000000000E70024522843000000000000E7
:10015000000000000000000001000000000000009E
:10016000000000000100E000E200E500E300000004
:10017000010000000000000000000000000000007E
:10018000010001000100000000000000000000006C
:100190000000000001002E00260425042F000000AE
:1001A00001002D0026062506350030000100220240
:1001B000310020041F043400000000000100010091
:1001C000010000000000000000000000000000002E
:1001D00001000000000050064F0600000100E00092
:1001E000E200E500E300300801001D081B080608D6
:1001F00019080000000000000100010001000000DB
:1002000000000000000000000000000001000000ED
:100210004D0052004A004B00010000004F00510009
:1002200050004E000100000000000000000000002F
:1002300000000000010001000100000000000000BB
:10024000000000000000000001001E001F00200050
:1002500021002200010023002400250026002700A1
:1002600001002E0038002E0224023700000000009A
:10027000010001000100000000000000000000007B
:10028000000000000100000000000000000000006D
:100290000100E400E600E500E700000001000000C6
:1002A000000000000000000000000000010001004C
:1002B000010000000000000000000000000000003D
:1002C00001003A003B003C003D003E000100207868
:1002D000237825782778BD000100217824782678B6
:1002E0002878BE00000000000100010001000000AD
:1002F00000000000000000000000000001004300BA
:100300004200410040003F0001004400AB00AE004D
:10031000AC00655201004500AA00A800A900000039
:1003200000000000010001000100000000000000CA
:1003300000000000000000000100010001000100B9
:10034000010001000100040016000700090001007F
:100350000100010001000100010001000000000097
:100360002C000000E300010000000000000000007D
:100370000000000065520000000052000000000074
:10038000000000004F00510050000000000000007D
:10039000000000000000000000000000010000005C
:1003A0002800000000DA0281FFD9F1DB20A4A62E8C
:1003B000AF00A0C0D30000A1C8D30000AED580A874
:1003C0001F408D142000556E6B6E6F776E00476175
:1003D0006D650041646A757374004E554D004E4161
:1003E000560053594D0044656661756C74004C614C
:1003F0007965723A200043617073204C6F636B2003
:100400004F66660043617073204C6F636B204F6EC4
:1004100000000000000000000000000000000000DC
:1004200000000000000000000000000000000000CC
:1004300000000000000000000000000000000000BC
:1004400000000000000000000000000000000000AC
:10045000000000000000000000000000000000009C
:10046000000000000000000000000000000000008C
:10047000000000000000000000000000000000007C
:10048000000000000000000000000000000000006C
:100490000000041EFEFEFEFEFEFEFEFEFEFEFC3C16
:1004A0000C0C3CFCFEFEFEFEFEFEFEFEFEFE1E06EC
:1004B00000F8F00000010303030303030381C0C03D
:1004C000C0C0C0C0C183830303030303010000E075
:1004D000F8033FFFFCF8F8F8F8FCFEFF8783C1E162
:1004E000E0E0E0E0C18387FFFEFEFCF8F8FCFE3FA1
:1004F0000700000003070F1F3F7FFFFFFFFFFFFF05
:10050000FFFFFFFFFFFFFFFFFF7F3F1F070300000D
:1005100000000000000000000000000103030707C6
:100520000F0F0F0F0707030100000000000000007D
:1005300000000000000000000000000000000000BB
:1005400000000000000000000000000000000000AB
:10055000000000000000000000000000000000009B
:10056000000000000000000000000000000000008B
:10057000000000000000000000000000000000007B
:10058000000000000000000000000000000000006B
:10059000000000000000000000000000000000005B
:1005A000000000000000000000000000000000004B
:1005B000004D61676F0000010101010101010101AE
:1005C0000202020202020202020303030303030304
:1005D00003040404040404040505050505060606D1
:1005E0000606070707070708080808090909090A8E
:1005F0000A0A0B0B0B0C0C0C0D0D0D0E0E0E0F0F33
:100600000F101011111112121313141415151616C0
:100610001717181819191A1A1B1B1C1D1D1E1E1F2F
:100620002020212222232424252626272829292A7E
:100630002B2C2D2D2E2F30313232333435363738A6
:10064000393A3B3C3D3E3F404142434445464748A2
:10065000494A4C4D4E4F50515354555658595A5B78
:100660005D5E5F616264656668696B6C6D6F707218
:10067000737577787A7B7D7E8082838587888A8C84
:100680008E8F91939596989A9C9EA0A2A3A5A7A9B8
:10069000ABADAFB1B3B5B7BABCBEC0C2C4C6C9CBAF
:1006A000CDCFD1D4D6D8DBDDDFE2E4E7E9EBEEF065
:1006B000F3F5F8FAFDFF00AF00AE05010980A101D6
:1006C000850319012AB700150126B7009501751099
:1006D0008100C0050C0901A101850419012AA002AD
:1006E000150126A002950175108100C005010906BB
:1006F000A101050719E029E71500250195087501F5
:1007000081029501750881010507190029FF15006F
:1007100026FF0095067508810005081901290515B1
:10072000002501950575019102950175039101C0A0
:1007300009023B00020100A0FA09040000010301C4
:10074000010009211101000122440007058103086D
:10075000000109040100010300000009211101004A
:10076000012232000705820320000112010002006D
:10077000000008D8042EEB00010102000116034C12
:100780000069006C0079003500380020005200320A
:1007900000470000001C034D006500630068006214
:1007A000006F006100720064007300200055004B70
:1007B000000000040309040000000000003E5B4F3D
:1007C0005B3E003E6B4F6B3E001C3E7C3E1C0018A7
:1007D0003C7E3C18001C577D571C001C5E7F5E1C35
:1007E0000000183C180000FFE7C3E7FF00001824D2
:1007F000180000FFE7DBE7FF0030483A060E00264E
:100800002979292600407F05050700407F05253FFF
:10081000005A3CE73C5A007F3E1C1C0800081C1C88
:100820003E7F0014227F2214005F5F005F5F00069E
:10083000097F017F00006689956A006060606060E2
:100840000094A2FFA2940008047E04080010207EF9
:1008500020100008082A1C0800081C2A0808001E8E
:1008600010101010000C1E0C1E0C0030383E3830DA
:1008700000060E3E0E060000000000000000005FB3
:10088000000000000700070000147F147F140024FC
:100890002A7F2A120023130864620036495620502A
:1008A00000000807030000001C2241000000412254
:1008B0001C00002A1C7F1C2A0008083E08080000B3
:1008C0008070300000080808080800000060600020
:1008D000002010080402003E5149453E0000427FBE
:1008E0004000007249494946002141494D330018F2
:1008F00014127F10002745454539003C4A494931CB
:100900000041211109070036494949360046494945
:10091000291E000000140000000040340000000008
:100920000814224100141414141400004122140865
:10093000000201590906003E415D594E007C12112A
:10094000127C007F49494936003E41414122007FE7
:100950004141413E007F49494941007F0909090160
:10096000003E41415173007F0808087F0000417F2D
:100970004100002040413F01007F08142241007FD8
:1009800040404040007F021C027F007F0408107F2F
:10099000003E4141413E007F09090906003E4151A8
:1009A000215E007F09192946002649494932000382
:1009B000017F0103003F4040403F001F2040201FB7
:1009C000003F4038403F006314081463000304787C
:1009D0000403006159494D4300007F414141000239
:1009E0000408102000004141417F0004020102047C
:1009F00000404040404000000307080000205454DD
:100A00007840007F28444438003844444428003863
:100A10004444287F0038545454180000087E0902CA
:100A2000001824241C78007F080404780000447D0A
:100A30004000002040403D00007F1028440000009E
:100A4000417F4000007C04780478007C080404782E
:100A5000003844444438007C182424180018242406
:100A6000187C007C080404080048545454240004F2
:100A7000043F4424003C4040207C001C2040201CBB
:100A8000003C4030403C004428102844004C9090EA
:100A9000907C004464544C4400000836410000003F
:100AA0000077000000004136080000020102040245
:100AB000003C2623263C000000000000808080804F
:100AC000000000000080E070180C1830E08000008A
:100AD00010F8901030783010B8FC3810000000008A
:100AE0000000F8FCF800000000000000000000001A
:100AF00000001C9C1C00000000F8FCF80000000036
:100B000000001CFCF8C000000000000080E0F87C41
:100B10001C000000F0FCFCFC1C1C1C1C1C1C1C1CF5
:100B2000000000000000C0F0F8381C1C1C1C1C1C3D
:100B30003CF8F0E000E0F0F0F0E0ECEEF7F37020CD
:100B4000007C7C7C7E007E7E7E7F7F7F000080C07C
:100B5000E07E5B4F5BFEC00000C000DCD7DEDEDE67
:100B6000D7DC00C000000000000000000000000012
:100B70000000000000000000000000000FBCE08149
:100B80008181838382870C183060C000001FFE9033
:100B9000B9FFBB91983C1811133F110000000000F1
:100BA0000000FFFFFF000000000000000000000048
:100BB0000000FFFFFF00000000FFFFFF000000003B
:100BC00000000000030F7FF8E080F0FC3F0F010001
:100BD000000000003F3F3F1C1C1C1C1C3C78F8F030
:100BE000E08000000000C3E7FF7E3C38787870703A
:100BF000F8FFDF87000F1F3F7F7F7F7F7F3F1E0C47
:100C0000001F1F1F3F003F3F3F7F7F7F00307B7FE4
:100C10007830202030787F3B0003000F7F0F0F0FCC
:100C20007F0F000300000000000000000000000033
:100C300000000000000000183C24666341C1818070
:100C4000808080808081C14162386C4CC681818007
:100C50008080808081C14362361C18000000000043
:100C60000000FFFFFFC0C0C0C0C0C0C0C0C0800047
:100C700000007FFF7F000000007FFFFFC0800000BA
:100C800000E0E0C0C0C0E0F97F1F070000000000E6
:100C90000000000070F0E0E0C0C0C0C0E0F0F87FED
:100CA0003F0F0000000F3F7FF9E0E0C0C0C0C0C0B0
:100CB000E0F97F3F1F00000000000000000000007E
:100CC0000000000000000000000000000000000024
:100CD0000000000000000000000000000000000014
:100CE0000000000000000000000000000000000004
:100CF000000000000000000011241FBECFEFDAE06A
:100D0000DEBFCDBF04B603FE18C08091CD07909121
:100D1000CE07A091CF07B091D0078730904BA74066
:100D2000B04B59F41092CD071092CE071092CF0716
:100D30001092D007E0E0F8E3099512E0A0E0B1E0FE
:100D4000E0EEFDE502C005900D92A23FB107D9F794
:100D500027E0A2EFB2E001C01D92AD3CB207E1F77F
:100D60000E9493250C94B12E0C9400009091BA052A
:100D7000937061F081110BC094609093BA0510924A
:100D800041018091B90581608093B90508958B3048
:100D900010F09862F2CF880F880F982BEECF482F73
:100DA0002091880590913F0559E0291302C080E009
:100DB000089530E0529FF001539FF00D1124E05C44
:100DC000FA4F8181681306C08081481303C0858172
:100DD0008111EECF2F5F3F4F2770E7CFFC01AC01B1
:100DE0004B5F5F4F8FEF91E32191822728E030E046
:100DF00087FF09C0880F892721503109C9F7E417F7
:100E0000F50791F70895880FF7CF9091BA05937081
:100E100071F08093BB056093BC05493708F048E743
:100E20004093BD058091B90581608093B90508950F
:100E3000E8EDF0E080818E7F80831092E2001092D6
:100E4000DA001092E100A0EEB0E08C9181608C930A
:100E500080818F77808319BCA7EDB0E08C918E7F65
:100E60008C9380818F7E8083109227050895209136
:100E7000E4003091E50095E6A9012091EC00822F75
:100E8000817020FF06C08091E80080FF06C080E0EE
:100E900008952091E80022FD1AC08091350588232D
:100EA00089F0853089F08091EB0085FD0FC020919D
:100EB000E4003091E50042175307F9F29150E1F652
:100EC00084E0089582E0089583E0089581E0089524
:100ED0008091370587FF13C08091E80082FF06C02C
:100EE0008091E8008B778093E80004C080913505FD
:100EF0008111F2CF0895809135058823D9F380912F
:100F0000E80080FFF8CF8091E8008E77ECCF982F33
:100F10009093E900242F762F50E0891731F07091DB
:100F2000EC002091ED005091F00021FD07C09F5F83
:100F3000973071F78093E90081E008953091EB00DC
:100F40003E7F3093EB003091ED003D7F3093ED001C
:100F50003091EB0031603093EB007093EC00209304
:100F6000ED005093F0002091EE0027FDE0CF80E0EF
:100F70000895B0E0A0E0EFEBF7E00C94C02DC8EDD1
:100F8000D0E088818F7E8883E7EDF0E0808181600A
:100F9000808384E082BF81E08093270588818E7FF3
:100FA000888302EE10E0F80110821092DA0081EEE0
:100FB000C82ED12CF601108288818F778883888192
:100FC0008068888388818F7D888319BC109235055D
:100FD00010923605109234051092330590EEE92EEA
:100FE000F12CF70180818B7F8083888181608883E9
:100FF00042E060E080E00E948707F60180818E7FFA
:101000008083F80180818160808380818860808313
:10101000F70180818E7F8083888180618883CDB74E
:10102000DEB7E8E00C94DC2DFC0180913D05909149
:101030003E0586179707A0F06115710529F4909178
:10104000E8009E779093E80090E06115710551F4F7
:10105000911108C08091E80082FF34C080E00895BB
:10106000BC01F2CF809135058823C1F18530C1F1F3
:101070008091E80083FD30C08091E80082FDEACFD6
:101080008091E80080FFE1CF8091F3002091F20091
:10109000382F6115710519F02830310558F091E0AD
:1010A0002830310509F090E02091E8002E77209358
:1010B000E800CBCF81918093F100615071092F5FDF
:1010C0003F4FE7CF80913505882341F0853041F0CF
:1010D0008091E80083FFBECF81E0089582E008950B
:1010E00083E008950895089580912A0508952FB703
:1010F000F8946091230570912405809125059091C5
:1011000026052FBF0895A3E0B0E0E9E8F8E00C94CD
:10111000C62D209120053091210528173907A1F00F
:101120009093210580932005E0911E05F0911F0505
:10113000309751F024E029839B838A830084F185D2
:10114000E02DCE01019609952396E2E00C94E22D64
:10115000A3E0B0E0EEEAF8E00C94C62D20911C0567
:1011600030911D0528173907A1F090931D05809334
:101170001C05E0911E05F0911F05309751F023E00A
:1011800029839B838A830084F185E02DCE0101961B
:1011900009952396E2E00C94E22D80911A058823AC
:1011A00059F0E0911E05F0911F05309729F001904C
:1011B000F081E02D0995089580E00895DC0130E08C
:1011C00020E0FD01E20FF31FE491E41307C0E1E02A
:1011D000E227EA0FFB2FF11D849108952F5F3F4F07
:1011E000261778F380E008959091190589029001FF
:1011F000112437FF03C08093190508952F37310557
:101200001CF4980F909319050895CF93DF932091C4
:10121000CB073091CC07255C3540A901460F571FFD
:101220004130524020F060E072E0621B730B40914D
:10123000C3055091C405FC01C901620F731FC1E0D1
:10124000D0E08617970738F05093C4054093C30544
:10125000DF91CF9108952491DC01AB53BA4F3C91BB
:10126000321781F02C939C01A5E036952795AA951D
:10127000E1F7DE0102C0AA0FBB1F2A95E2F79D012C
:101280004A2B532B01963196DCCFFA01811101C014
:10129000FB010995089530911B05311123C085325A
:1012A00091051CF18597FC01EE0FFF1FDF01A80FD0
:1012B000B91FAF5CBB4F11963C911197361307C015
:1012C0003C91341304C012963C91321771F031E016
:1012D00030933004E80FF91FEF5CFB4F61834083CC
:1012E000228303C085329105F4F2089510923004F0
:1012F0000895EAEBF5E0248130E1231B08F420E0B7
:1013000024838091B90581608093B9050895EAEB43
:10131000F5E0248130E1230F08F42FEF248380913E
:10132000B90581608093B9050895EAEBF5E0438142
:1013300020E1421B08F440E08181628190E00E943C
:1013400005070895EAEBF5E0438120E1420F08F438
:101350004FEF8181628190E00E9405070895EAEBDA
:10136000F5E0628120E1621B08F460E08181438145
:1013700090E00E9405070895EAEBF5E0628120E124
:10138000620F08F46FEF8181438190E00E940507AE
:101390000895EAEBF5E08181438162818850990BE1
:1013A0000E9405070895EAEBF5E0818190E0438112
:1013B000628108960E94050708958091BA05869576
:1013C0008695815009F48AE00E94B60608958091BE
:1013D000BA05869586958F5F8B3008F081E00E9474
:1013E000B60608959FE0899F802D1124980F9B34A5
:1013F00008F09AE420911B05222321F0963228F070
:1014000095E20895853208F485E2089580933C01C1
:101410008091BA05837080933B010E94B31683E0EC
:10142000809341010895409520E4429F412D11246D
:10143000640F08954095282F429F412D1124842F39
:101440000895E42FF0E0EE0FFF1FED5EFD4F908159
:10145000921B97FD9195292F38E1239F212D11246F
:10146000620F0895322F50E0FA01EE0FFF1FE9528C
:10147000FE4F95AD905297FD9195440F551FFA017F
:10148000ED5EFD4F2081231B330B290F311D97FD8E
:101490003A95620F08950E944B090895FF920F93A9
:1014A0001F93CF93DF93182F062FF42ED0E0C0E0C8
:1014B0002F2D402F612FCE010E944B0A2196CA3456
:1014C000D105B1F7CDB7DEB7E5E00C94DF2D0F9372
:1014D0001F93522F10E0F801EE0FFF1FE952FE4F4D
:1014E000A5ADA052BB0B9D015203F001539FF00D1F
:1014F0001124000F111FD801AD5EBD4F0C91005794
:10150000110B40039001419F300D11242E0F3F1FFE
:1015100037FF02C0215C3F4F96E0359527959A959D
:10152000E1F7620F1F910F910895E82F86FDE09576
:101530002E2F2F7086FD2F5FE695E695E695E670D7
:10154000F0E0E153FE4F9181929F902D212D1124C7
:1015500092959F702295207F922B2081920F87FD7C
:10156000919580E8890F089530E020E0869F212D35
:10157000969F200D311D1124C9010895982F809147
:101580001B05882329F081E0953228F080E003C014
:1015900081E09A34D8F70895AF92BF92CF92DF924C
:1015A000FF920F931F93CF93DF93362F472FE82F90
:1015B000F0E0EA54FA4F71110FC0E4918E2F2E2FF4
:1015C0006E2F722FDF91CF911F910F91FF90DF90BF
:1015D000CF90BF90AF900895C72FD0E02491F22E06
:1015E000022F10E056E0659FC0011124EFEFF0E0FC
:1015F000BF010E94A22D832F90E0880F991F35E52F
:10160000369FD001379FB00D11248A1B9B0B982F5A
:10161000990F980F6F01CC1ADD0AC09ED001C19EB0
:10162000B00DD09EB00D11248B2F499FA001112425
:10163000452F55276F01C41AD50AC09EA001C19E2F
:10164000500DD09E500D11245F01A91AB108AC9E17
:101650006001AD9ED00CBC9ED00C1124CD2CDD249D
:10166000EC19FD09E09FE001E19FD00DF09FD00D46
:101670001124ED2F62307105A1F050F46115710550
:1016800009F49ECF6130710581F0EB2F852F98CF43
:101690006430710569F080F06630710509F490CF0F
:1016A000F4CFE22F2B2F8D2F8BCFE22F252F88CF3A
:1016B000EB2F822F2D2F84CF2B2F8F2DE52F80CF37
:1016C000B0E0A0E0E6E6FBE00C94C12D8C01809137
:1016D0003E010E94F209C82FD92E2091BE0531E0AB
:1016E000230F08F42FEF30E050E040E06FEF7FEF82
:1016F00080E090E00E941B2E7901D0E02C2FCD15C8
:1017000040F08D2D0E94BE0ACDB7DEB7E7E00C9405
:10171000DD2DFE01E955FD4F808190913F01892328
:1017200011F140918D054150042E000C550B47FFDF
:101730001CC0C7016091BE0521E0620F08F46FEF85
:101740000E94B40AAC016091BB057091BC05809108
:10175000BD05F80109950E94CC0A462F282F672F56
:10176000CE010E944B0A2196C9CFFA01E357FA4FE6
:10177000818982130AC0FA01EE0FFF1FE357FA4F67
:10178000818D928D8E159F05A8F241505109CFCFC2
:10179000EF92FF920F931F93CF93DF937C01809181
:1017A0003E010E94F209C82F192F6091BE0566956F
:1017B000669521E0620F08F46FEF809189059091A2
:1017C0008A050E94B40A082FD0E0C11740F0812F8B
:1017D0000E94BE0ACDB7DEB7E6E00C94DE2DFE0116
:1017E000E955FD4F808190913F01892391F06091EF
:1017F000BB057091BC058091BD05202F4C2FF701D2
:1018000009950E94CC0A462F282F672FCE010E94EF
:101810004B0A2196DACFB0E0A0E0E1E1FCE00C94C5
:10182000BE2D182F80913C01811323C09091BA05E1
:10183000937020913B0130E081E09217130609F488
:1018400080E08170809340018091BF0590913F01BD
:10185000981739F080933F0140E060E080E00E94FB
:101860004E0A1B3090F4E12FF0E0ED54F14D0C9452
:101870003A2E81E0E6CF80914001882309F479C0B7
:1018800040E060E080E00E944E0A80E072C08091FB
:101890003E010E94F209C82F092F6091BB0570918B
:1018A000BC058091BD050E94CC0AF62EE72ED82EED
:1018B000D0E0C01710F0802F5AC0FE01E955FD4F4F
:1018C000808190913F01892331F02D2D4F2D6E2D78
:1018D000CE010E944B0A2196ECCF80913E010E94DE
:1018E000F209C82F092FE090BC05F090BD05D091FA
:1018F000BB056D2F7E2D8F2D0E94CC0AD62EC72EB4
:10190000B82E6091BE056D0F7E2D8F2D0E94CC0AE2
:10191000F62EE72EA82ED0E0C01768F6FE01E95596
:10192000FD4F908180913F01892359F02A2D4F2D41
:101930006E2D90FD03C02B2D4D2D6C2DCE010E94E0
:101940004B0A2196E9CF80913E010E94F209F92EBF
:10195000E090BC05D090BD052091BE0500E4029F3B
:10196000012D1124C82FD0E0CF15D8F08F2D0E9463
:10197000BE0A90913E019F5F90933E0181110CC081
:1019800082E08093410180914001811105C01111D5
:1019900003C083E080934101CDB7DEB7EAE00C9449
:1019A000DA2DFE01E955FD4F808190913F01892399
:1019B000B9F0FE01EE0FFF1FE952FE4F85AD829593
:1019C0008F706091BB05809F600D11247E2D8D2D41
:1019D0000E94CC0A462F282F672FCE010E944B0A67
:1019E0002196C2CF80913E010E94F209F92EE0902B
:1019F000BC05D090BD052091BE0500E4029F012DDD
:101A00001124C82FD0E0CF1508F0B0CFFE01E95562
:101A1000FD4F808190913F018923D9F0FE01EE0FA7
:101A2000FF1FE952FE4F64AD069FB001112445E04F
:101A3000759567954A95E1F78091BB05680F7E2DF6
:101A40008D2D0E94CC0A462F282F672FCE010E9491
:101A50004B0A2196D8CF80913E010E94F209C82FEF
:101A6000092FF090BB05D091BC05E090BD056091B9
:101A7000BE056695669566958091890590918A0563
:101A80000E94B40A0E94950A805887FD8195880FAC
:101A9000382F2E2D329F312D1124832F6F2D7D2F26
:101AA0000E94CC0AF62EE72ED82ED0E0C01708F000
:101AB00002CFFE01E955FD4F808190913F018923BE
:101AC00031F02D2D4F2D6E2DCE010E944B0A219607
:101AD000EDCF82E39AE00E94C80B4BCF80913E018C
:101AE0000E94F209C82FD92E6091BE0566956695B1
:101AF0008091890590918A050E94B40AF82E80E4AD
:101B00008F0D0E94950A90E8C92EC80E8F2D0E9455
:101B1000950A20E8B22EB80ED0E0CD1510F08D2D2C
:101B200026CFFE01E955FD4F808190913F01892329
:101B3000A1F06091BB057091BC058091BD05EF2CB3
:101B40000C2F2B2D4C2D0E94670A0E94CC0A462F89
:101B5000282F672FCE010E944B0A2196DECF81E20B
:101B60009AE0B9CF8AE19AE00E94600B02CF83E14C
:101B70009AE0FACF80E00895F894E82FE295EF70AC
:101B8000F0E031A1282F2F7081E090E001C0880F94
:101B90002A95EAF7982F9095932391A392A1892BE8
:101BA00082A3789408950F931F9380911A05882338
:101BB00029F00E9477081F910F9108950E947708DD
:101BC0000091830310918403209185033091860353
:101BD000600F711F821F931FEECFCF92DF92EF92A3
:101BE000FF926B017C0180911A058823A1F02FB729
:101BF000F8946091230570912405809125059091BA
:101C000026052FBF6C197D098E099F09FF90EF9063
:101C1000DF90CF9008950E94D30DF4CF909194035C
:101C200092FF10C041E0282F2471243009F040E0D9
:101C300031E0282F2871283009F030E0431711F0E7
:101C40002CE0822793FF10C041E0282F247124311B
:101C500009F040E031E0282F2871283109F030E008
:101C6000431711F02CE082273091950330FF10C00C
:101C700051E0282F2171213009F050E041E0282F58
:101C80002871283009F040E0541711F029E082272C
:101C900031FF10C041E0282F2171213109F040E0CF
:101CA00031E0282F2871283109F030E0431711F076
:101CB00029E0822794FD877E089582389105B9F145
:101CC000B0F48133910509F47DC048F4893291055F
:101CD00009F46DC08A32910509F47BC008958533FB
:101CE000910509F45FC08933910509F10895833E98
:101CF0009105D9F138F4803E910529F1823E910594
:101D000079F10895863E9105D9F1873E910509F450
:101D10003EC0843E910541F52091950321FF24C0EA
:101D20008091940384FD19C087EE90E0089520917E
:101D30009403237009F05AC02091950323FF14C027
:101D400089E290E008952091940320FD38C03091FD
:101D5000950330FF09C024FF43C090E080E0089560
:101D60002091940322FDF7CF08952091940322FD42
:101D70003AC03091950330FD39C024FFF5CFEDCF47
:101D80002091940323FFF0CF24FDE7CFCDCF209106
:101D9000940323FD2EC03091950331FFEECF84EEE6
:101DA00090E008952091940325FFDECFC9CF2091C4
:101DB000940325FD21C02091950323FFD5CF89E30E
:101DC00090E0D2CF2091940326FFCECF8AE290E01C
:101DD00008952091940326FFC7CF81E390E00895F2
:101DE00083EE90E0089582EE90E0089580EE90E01A
:101DF000089586EE90E0089585E390E00895972F8A
:101E00007A30B8F46630A8F48630B0F470E026E09A
:101E1000929F600D711D1124FB019CE3899FE00DD1
:101E2000F11D1124EE0FFF1FEC52FF4F859194918D
:101E3000089580E090E0089581E0FCCF1F93CF9358
:101E4000DF930E945D0EEC01C11580E5D807F0F527
:101E5000C11580E4D80708F09CC0C03ED10520F52C
:101E6000CD3CD10508F082C0C83AD10578F4C53A16
:101E7000D10508F073C0C130D10519F1209709F1DF
:101E8000C430D105F0F4D0E0C0E01BC0C33CD105A4
:101E9000D0F7C85AD0E0CC0FDD1FCC57DE4F0990E9
:101EA000D881C02DD4640DC0C11580E2D80708F0D8
:101EB000D1C0C11581E0D80708F05AC0C83ED1058D
:101EC00010F7CE01DF91CF911F910895C03682E5C2
:101ED000D80718F5C03482E5D80708F06BC0C032C7
:101EE00082E5D80708F05FC0C11582E5D80708F47D
:101EF00097C02C2F2695269580E2289F90011124CB
:101F00008C2F8370C1E0D0E002C0CC0FDD1F8A951A
:101F1000E2F7C22BD32BDD68D4CFC03A82E5D807D5
:101F200060F4C03882E5D80708F459C0CF71D0E01A
:101F3000DC2FCC27C46FD06AC4CFC03C82E5D80761
:101F400008F462C0C03E82E5D80708F09CCFDC2FC1
:101F5000CC27CC27DF71C06FD06AB3CFC55AD0E091
:101F6000CF57DE4FC881D0E0D064ABCFD065A9CFCA
:101F70008D2F0E940E0E182FCE0199270E945D0E04
:101F8000C12FD0E0DC2FCC27CC27DF71C82BD92B79
:101F900098CFCE0199270E945D0ECC27DF70C82B09
:101FA000D92BD06A8ECFCF71D0E0DC2FCC27C16F78
:101FB000D06A87CF2C2F26952695277080E2289F00
:101FC000900111248C2F8370C1E0D0E002C0CC0FAF
:101FD000DD1F8A95E2F7C22BD32BDC6872CF2C2F42
:101FE00026952695277080E2289F900111248C2F3A
:101FF0008370C1E0D0E002C0CC0FDD1F8A95E2F70C
:10200000C22BD32BDA685DCF8C2F8F710E940E0EFE
:10201000C82FD0E0DC2FCC27CC27DF71D06251CF86
:102020008C2F8F710E940E0E55E0D695C7955A954C
:10203000E1F7CF70D0E0DC2FCC27282F30E084FFF1
:1020400005C044E0220F331F4A95E1F7C22BD32B82
:10205000D06937CF8D2F8F710E940E0E182FCE01B1
:1020600099270E945D0EC12FD0E0DC2FCC27CC2712
:10207000DF71C82BD92BD2CF8091480381111092E8
:1020800048030895809590912805982390932805FA
:1020900008958091880590913F05981301C0089597
:1020A0008F5F8770FACFCF92DF92FF920F931F93CB
:1020B000CF93DF936C010091D80380919303082B99
:1020C000C7E0D0E010E0FC2EC8010C2E02C09595B0
:1020D00087950A94E2F780FD0CC02197A0F7F12CB8
:1020E0008F2DDF91CF911F910F91FF90DF90CF90B7
:1020F0000895B6018C2F0E94FF0E0E941E0F0197BB
:1021000061F3EECFCF93DF93EC010E945310BE0139
:102110000E94FF0E0E941E0FDF91CF910895292F7C
:102120009A3078F5863068F590E036E0239F800D90
:10213000911D1124682F677023E0969587952A9545
:10214000E1F7FC01EE0FFF1FE80FF91FE25EFC4F05
:1021500050E040E080E0219130E0062E02C036954C
:1021600027950A94E2F721703327042E01C0220F2D
:102170000A94EAF7822B4F5F5F4F4330510559F7BE
:10218000089580E00895292F9A3098F5863088F5D3
:1021900090E036E0239F800D911D1124282F277099
:1021A00041E001C0440F2A95EAF723E09695879510
:1021B0002A95E1F7FC01EE0FFF1FE80FF91FE25E21
:1021C000FC4F30E020E070E05191DF011197CB012E
:1021D000022E02C0969587950A94E2F78170819548
:1021E0008527842385278C932F5F3F4F233031052C
:1021F00059F708958093D80308959091D80321E06A
:1022000030E0F90101C0EE0F8A95EAF7D90102C06A
:10221000AA0FBB1F6A95E2F7EA2B01C0220F4A956D
:10222000EAF7892F8E23E81305C0292B822F0E94FD
:10223000FA10089520952923F9CF21E030E001C05C
:10224000220F8A95EAF720958091D80382230E9475
:10225000FA10089590913F038095892380933F035E
:10226000282F277069F4891759F09091950392FFF0
:1022700007C08695869586950E941D1110923F0392
:10228000089521E030E001C0220F8A95EAF780919D
:10229000D803822B0E94FA10089580939303089527
:1022A000FC0184818823F9F087819085009791F063
:1022B0000E941E0F92959F709630B9F080F4925F45
:1022C0009F70923080F4803F19F058F4883E58F4A3
:1022D00081E00895808191810E948210EBCF9A5F06
:1022E000EFCF843FA9F380E00895883E88F3813FD3
:1022F000D1F7EECF982F92959F7011F0892F94E02F
:10230000282F2695269511F09E5F822F869509F03D
:102310009F5F892F0895A6E0B0E0E1E9F1E10C9418
:10232000C52D9C01FC01878190850097E1F486E032
:10233000DE01119601900D928A95E1F7F901258150
:1023400089819A81222399F0662389F00E94531093
:10235000182F682F89819A810E94C31069817A8120
:10236000812F0E94FF0E2696E3E00C94E12D0E943F
:102370008F10182FF3CFCF93DF93682F81E06A304F
:1023800019F06D3031F480E00E944912DF91CF9155
:1023900008958091CB079091CC0726E0FC01A5EC35
:1023A000B7E001900D922A95E1F7603E08F458C01D
:1023B00026E0FC0111922A95E9F7C091CB07D09154
:1023C000CC0746E050E0BE0185EC97E00E94492E24
:1023D0009E01255C3540892B41F1C90145E0969568
:1023E00087954A95E1F741E050E0BA0102C0660FD7
:1023F000771F8A95E2F7CB016091C3057091C40500
:10240000862B972BB9016B5F7F4FE5E0769567953B
:10241000EA95E1F702C0440F551F6A95E2F7842B55
:10242000952B9093C4058093C3052A5F3F4F40913D
:10243000C205642F70E0C9010E94A22D481B4630DE
:1024400010F4240F311D211572E0370710F030E031
:1024500020E02B533A4F3093CC072093CB0796CFF5
:10246000F6E06F9FB00111246954784F46E050E0C8
:102470000E94402EA2CFCF93DF93EC01FE01849106
:10248000811103C0DF91CF9108950E94BB11219665
:10249000F5CFCF93382FE091CB07F091CC07E55CD7
:1024A000F5402091C205622F70E0CF010E94A22D5D
:1024B000281B822F332361F066E00E94ED2DC82F88
:1024C000C15010F4CF91089580E20E94BB11F8CF63
:1024D0009F01280F311D2115324018F080E0F0E0F7
:1024E000E0E08E0F9F2F911D8B539A4F9093CC0756
:1024F0008093CB07E7CF0E943B1281E00E944912F4
:102500000895CF93C091280580911705C82B80911D
:102510004803882381F0C82B20E086EF92E0FC017D
:102520003191CF0131112F5FF2E08C3F9F07B9F756
:1025300021110E943C10C093F40248E050E060E496
:1025400073E084EF92E00E94492E892BA9F088E085
:10255000E4EFF2E0A0E4B3E001900D928A95E1F798
:10256000E0911E05F0911F05309731F00280F38154
:10257000E02D84EF92E00995CF910895E6EFF2E027
:1025800086E0DF011D928A95E9F790E080E00E94E5
:10259000A80890E080E00E948308109217050E942E
:1025A00081120895AAE2B0E0E8EDF2E10C94C52DA5
:1025B00087E395E02091F100FC012193CF01F5E044
:1025C0008F339F07B9F780913805833009F470C0C5
:1025D000B8F4813009F447C0823009F4B3C0809167
:1025E000E80083FF80C280913705909138059A30CA
:1025F00008F079C2E92FF0E0E254F14D0C943A2E44
:102600008A3009F48EC08B3009F46FC0893039F7F5
:1026100080913705813219F780913B0590913C05F7
:102620000297E8F68091E800877F8093E800809128
:10263000E80082FF38C09091F3008091F200029789
:1026400031F48091F100813011F0863021F48091D5
:10265000F10080932A058091E8008B778093E80051
:102660000E946807BCCF80913705813A09F0B7CF47
:102670008091E800877F8093E80080913B059091EE
:102680003C05892B61F468E08BE295E070E00E94E4
:1026900014088091E8008B778093E800A0CF60E079
:1026A00090E080E0F3CF809135058111C0CF97CFC6
:1026B00080913705813A09F092CF80913B05909146
:1026C0003C05892B09F08BCF8091E800877F8093B0
:1026D000E8008091E80080FFFCCF80913D0180936D
:1026E000F1008091E8008E77B9CF80913705813273
:1026F00009F075CF80913B0590913C05892B09F03D
:102700006ECF8091E800877F8093E8000E94680781
:102710008091390580933D01109228050E94BE12D8
:102720005ECF80913705813209F059CF8091E80062
:10273000877F8093E8000E94680780913A05809324
:1027400029054DCF80913705813A09F048CF809116
:10275000E800877F8093E8008091E80080FFFCCF4D
:1027600080912905BCCF803899F0823809F0BBC12F
:1027700080913B058F70873008F0B5C18093E900E8
:102780008091EB0085FB882780F91092E90006C054
:102790008091330590913405911182609091E80009
:1027A000977F9093E8008093F1001092F100809160
:1027B000E8008E7794C1882309F482C1823009F041
:1027C00092C180913905811185C180913B058F703F
:1027D0002FEF280F263008F086C18093E900209162
:1027E000EB0020FF77C1933031F48091EB008062E1
:1027F0008093EB006FC19091EB0090619093EB00A0
:1028000021E030E001C0220F8A95EAF72093EA0028
:102810001092EA008091EB008860EACF811163C1D9
:10282000109139051F778091E3008078812B809388
:10283000E3008091E800877F8093E8000E946807AA
:102840008091E80080FFFCCF8091E3008068809356
:10285000E30082E0111183E08093350544C1805884
:10286000823008F040C18091390590913A058C3D45
:1028700023E09207A1F583E08A838AE289834FB738
:10288000F894DE01139620E03EE051E2E32FF0E001
:1028900050935700E49120FF03C0E295EF703F5F33
:1028A000EF708E2F90E0EA30C0F0C7968D939D9325
:1028B0002F5F243159F74FBF8091E800877F8093C5
:1028C000E8006AE270E0CE0101960E94140880914F
:1028D000E8008B778093E80006C1C096E7CF40916F
:1028E0003B0550913C05292F33272330310509F44E
:1028F00044C078F52130310509F46FC08BE390E0D6
:10290000E0E3F7E02230310509F0EDC02091E80066
:10291000277F2093E80020913D0530913E058217E6
:10292000930708F49C0140E02115310509F064C0CB
:10293000411162C08091E80082FDC9CF80913505C8
:10294000882329F2853019F28091E80083FFF2CFC5
:10295000BECF21323105A9F12232310509F0C3C0C1
:102960004115510509F443C04130510509F0BBC080
:1029700082E390E0EAEBF6E0C9CF99278130910538
:10298000C1F0009759F0029709F0ADC0EDE7F7E00C
:10299000E4918E2F90E0EDE7F7E007C0E3EBF7E07E
:1029A000E4918E2F90E0E3EBF7E0009709F49BC0F1
:1029B000ADCFE5E9F7E0E4918E2F90E0E5E9F7E0AF
:1029C000F4CF4115510571F04130510509F08BC02C
:1029D00089E090E0EBE5F7E099CF82E190E0EBE66B
:1029E000F7E094CF89E090E0E2E4F7E08FCF84E471
:1029F00090E0ECEEF6E08ACF80913505882309F46B
:102A000066CF853009F463CF8091E80083FD5FCF06
:102A10008091E80082FD8ECF8091E80080FF84CF16
:102A20009091F3008091F2002115310519F0883062
:102A3000910550F041E0089709F040E08091E800EE
:102A40008E778093E80070CF44914093F1003196E7
:102A5000215031090196E8CF803809F044C08091B7
:102A6000E800877F8093E800809136058093F1002D
:102A70009ECE811138C0109139051230A0F5809199
:102A8000E800877F8093E800109336050E9468076E
:102A9000112311F084E005C08091E30087FDFACF97
:102AA00081E08093350542E061EC81E00E94870778
:102AB00042E261EC82E00E9487078091350513C0F5
:102AC00080913905813079F481E0933009F080E01C
:102AD000809334051092E9008091E800877F80930D
:102AE000E8000E9468078091E80083FF0AC0809197
:102AF000E800877F8093E8008091EB0080628093FC
:102B0000EB00AA96E3E00C94E12D80911805882350
:102B100049F0809117058D7D809317050E948112E1
:102B2000109218050895882321F00E9442100E94F7
:102B300081120895882339F090912805982B90935D
:102B400028050E9481120895882391F19CEF980F27
:102B5000913A80F4E6EFF2E02CEF32E091918913A4
:102B600003C0DF0111971C922E173F07B9F70E948F
:102B70008112089590E2980F983050F4877091E098
:102B800001C0990F8A95EAF7892F0E944210EFCF72
:102B90009BE5980F933028F490E080E00E94A8080D
:102BA0000895885A8B3120F490E080E00E948308D9
:102BB00008950F931F93CF93C82F882349F18CEF6B
:102BC0008C0F813AB8F506EF12E08CEF92E0F80135
:102BD0002191C21709F122E0EC3FF207C9F7EFEFAC
:102BE00080E0D8019D918D01C91781F0EF3F19F464
:102BF000911101C0E82F8F5F863099F7EF3F31F0D8
:102C00000E2E000CFF0BEC50FD4FC2830E94811270
:102C1000CF911F910F910895E6EFF2E02191C21339
:102C200003C0DF0111971C928E179F07B9F70E940E
:102C30008112D5CF80E28C0F883068F4C77021E014
:102C400030E001C0220FCA95EAF780912805822B57
:102C500080932805DBCFEBE5EC0FE33040F4F0E0A8
:102C6000EF57FE4F808190E00E94A808D1CFC85A4C
:102C7000CB3170F6EC2FF0E0EE0FFF1FEC57FE4F5C
:102C8000808191810E948308C3CF0F931F93CF93BC
:102C9000DF93EC01FC0101900020E9F78F01015066
:102CA0001109C017D10728F0DF91CF911F910F9123
:102CB000089589910E94BB11F4CF0F931F93CF9376
:102CC000DF938B01EA0190913505943061F5809393
:102CD000E9008FEF9091E800815095FD06C095EDD9
:102CE0009A95F1F700008111F5CF8091E80085FFFA
:102CF0001AC00E943707811111C08091E80085FD3C
:102D000006C08091E8008E778093E800F2CFF8014A
:102D100081918F018093F100219779F78091E800EC
:102D20008E778093E800DF91CF911F910F910895E6
:102D300043E050E0BC0182E00E945D160895CF930D
:102D4000DF93EC0148E050E0BC0181E00E945D1699
:102D500088E0FE01ABE2B5E001900D928A95E1F7C3
:102D6000DF91CF91089580913004882341F1539AE7
:102D70003BB1377F2BB128604FB7F89481E394E0E3
:102D8000FC015191CF0168E02BB9000000C057FF52
:102D90003BB9550F000000C000C000C03BB900C0E7
:102DA0006A9591F7F5E08F309F0751F74FBF8FE598
:102DB00094E00197F1F700C00000109230040895EC
:102DC000B0E0A0E0E6EEF6E10C94BE2D7C015B01E4
:102DD0006A018091820301E010E08A3010F40AE079
:102DE00010E0C1E0D0E0B501C701F60109958111FD
:102DF00004C021960C171D072CF4CDB7DEB7EAE00E
:102E00000C94DA2DCC9F9001CD9F300D300D112404
:102E100090E080E045E34A95F1F7000001968217C3
:102E20009307C1F7E0CF109228050E94BE122FEF42
:102E300084E39CE0215080409040E1F700C0000016
:102E400088E19CE00FB6F894A895809360000FBECF
:102E500090936000FFCFAB0124E630E0BC0188E72F
:102E60000E94562B21E0892B09F020E0822F089543
:102E70008091130590911405911103C091E0892769
:102E80000895882369F062E070E088EB96E00E9484
:102E90002B17811103C0809113050895109213051B
:102EA00080911305EBCFCF93C0911305809114054A
:102EB0008823D1F00E947708605A75418F4F9F4F49
:102EC00060930F0570931005809311059093120580
:102ED000C11108C062E070E086EB96E00E942B17FB
:102EE000811105C0C09113058C2FCF91089581E009
:102EF00080931305F7CF4F925F926F927F928F92DC
:102F00009F92AF92BF92CF92DF92EF92FF92CF93B8
:102F100060912B0470912C0480912D0490912E04CB
:102F20000E94ED0D6B017C010E94D30D4B015C01F1
:102F300080922B0490922C04A0922D04B0922E0427
:102F4000A0910204E2E0F4E08A2F90E04FEF5FEFFF
:102F500060E070E04C195D096E097F09A9132AC071
:102F60008093020480912F04C0E0811108C08091F9
:102F7000BA05C82FC37019F0C82FC695C6958091A1
:102F80004101813009F440C0882339F1823009F4CD
:102F900046C0833009F447C0CF91FF90EF90DF9097
:102FA000CF90BF90AF909F908F907F906F905F90E9
:102FB0004F900895218D328D2901712C612C44157B
:102FC00055056605770520F481509F5F3296C6CF80
:102FD0002C0D3D1D328F218FF8CF10923E01809233
:102FE000890590928A05A0928B05B0928C0589E2A2
:102FF000E2E0F4E0ADE8B5E001900D928A95E1F7EA
:1030000081E080934101C8CF8C2F0E940B0CCC2310
:1030100019F280913E0181500E94F209BDCF8C2FA0
:103020000E94060AB9CF8091B905882351F048E083
:1030300050E068E170E08AEB95E00E947D2E1092EE
:10304000B9056091890570918A0580918B059091F1
:103050008C050E94ED0D603171058105910508F424
:103060009BCF1092410198CF9091950392FB22271C
:1030700020F9281779F080FB92F9909395036091DD
:1030800094037091950384E090E00E94AB2E82E05F
:103090000E942A110895A4E0B0E0E1E5F8E10C9463
:1030A000C52D40917A0350917B0360917C03709110
:1030B0007D032FB7F8948091230590912405A0916A
:1030C0002505B09126052FBF841B950BA60BB70BCA
:1030D00011E084369105A105B10570F10E94D30D70
:1030E0006E5F7F4F8F4F9F4F69837A838B839C8363
:1030F0008091190190911A018E599C4F40911801AD
:1031000050E04530510510F044E050E0BE016F5FE3
:103110007F4F0E94562E83E090E00E942C2D182FA6
:10312000882351F00E94770860937A0370937B03A1
:1031300080937C0390937D03812F2496E3E00C948D
:10314000E12DEF92FF921F93CF93DF9300D000D039
:1031500000D0CDB7DEB77B0190E080E00E942C2D3F
:10316000182F882309F480C04091030150E04115D5
:10317000510511F041E050E06091040170910501AA
:103180006E597C4FCE0106960E94562E40915A03EE
:1031900050915B0360915C0370915D032FB7F894CD
:1031A0008091230590912405A0912505B0912605D5
:1031B0002FBF841B950BA60BB70B84369105A10579
:1031C000B10540F483E693E00E94EE069E818917E4
:1031D00009F44AC081E090E00E942C2D811116C0B4
:1031E00010E085E0E5E5F3E0D70101900D928A95C6
:1031F000E1F7812F26960FB6F894DEBF0FBECDBF44
:10320000DF91CF911F91FF90EF90089540910B01B6
:1032100050E04630510510F045E050E060910C015F
:1032200070910D016E597C4FCE0101960E94562E71
:1032300083E693E00E94EE069E818913D1CF0E941F
:10324000770860935A0370935B0380935C039093B9
:103250005D0385E0FE013196A5E5B3E001900D9296
:103260008A95E1F711E0BDCF85E0E3E6F3E0DE010A
:10327000119601900D928A95E1F71111EACFB1CF25
:103280004F925F926F927F928F929F92AF92BF9276
:10329000EF92FF920F931F93CF93DF937B01FB017C
:1032A00040805180628073809FB7F894809023059E
:1032B00090902405A0902505B09026059FBF841806
:1032C0009508A608B708F4E68F169104A104B10486
:1032D00018F4C1E0442329F1C82F880FDD0BFE014B
:1032E00083E0EE0FFF1F8A95E1F7E050FF4F8181E9
:1032F00092818E599C4F408150E00417150708F4C5
:10330000A801B9010E94562ECE010E942C2DC82F73
:10331000882339F00E947708F701608371838283E4
:1033200093838C2FDF91CF911F910F91FF90EF909E
:10333000BF90AF909F908F907F906F905F904F90D5
:103340000895A9E0B0E0E7EAF9E10C94C42D88E023
:10335000EAEBF5E0DE01119601900D928A95E1F716
:1033600080912F04898749E050E061E773E0CE0146
:1033700001960E94492E41E0892B09F440E009E0C2
:1033800010E09E012F5F3F4F6EE773E084E00E94E4
:1033900040192996E4E00C94E02D0F931F93CF93EE
:1033A000DF93EC0145E050E068E673E00E94492EAF
:1033B00041E0892B09F440E005E010E09E016EE554
:1033C00073E082E00E944019DF91CF911F910F912D
:1033D00008951F920F920FB60F9211242F933F93CF
:1033E0004F935F936F937F938F939F93AF93BF930D
:1033F000CF93DF93EF93FF93D091E900DF7080913B
:10340000EC00C82FC17080FDC0E81092E9008091E7
:10341000F000877F8093F00078940E94D21210927F
:10342000E9008091F00088608093F000CD2BCF7090
:10343000C093E900FF91EF91DF91CF91BF91AF91E0
:103440009F918F917F916F915F914F913F912F91BC
:103450000F900FBE0F901F9018951F920F920FB6EE
:103460000F9211242F933F934F935F936F937F930A
:103470008F939F93AF93BF93EF93FF938091E1005E
:1034800082FF09C08091E20082FF05C08091E100C7
:103490008B7F8093E1008091DA0080FF24C08091CF
:1034A000D80080FF20C08091DA008E7F8093DA0000
:1034B0008091D90080FF9DC080E189BD82E189BDF6
:1034C00009B400FEFDCF81E080933505809127058A
:1034D000811109C00E9418070E94B9078091E2007B
:1034E00084608093E2008091E10080FF17C08091AA
:1034F000E20080FF13C08091E2008E7F8093E200A3
:103500008091E20080618093E2008091D800806227
:103510008093D80019BC85E0809335058091E10047
:1035200084FF2BC08091E20084FF27C080E189BD29
:1035300082E189BD89B5982F917080FFFBCF809182
:10354000D8008F7D8093D8008091E1008F7E80939A
:10355000E1008091E2008F7E8093E2008091E200A2
:1035600081608093E20080913605882309F447C08A
:1035700084E080933505809135058091E10083FFDB
:1035800027C08091E20083FF23C08091E100877F04
:103590008093E10082E0809335051092360580919A
:1035A000E1008E7F8093E1008091E2008E7F809326
:1035B000E2008091E20080618093E20042E060E0FE
:1035C00080E00E9487078091F00088608093F0007F
:1035D000FF91EF91BF91AF919F918F917F916F91EB
:1035E0005F914F913F912F910F900FBE0F901F90C1
:1035F000189519BC109235051092270574CF80914B
:10360000E30087FD93E090933505B5CF78941F9242
:103610001FB61F9211248F939F93AF93BF938091F6
:10362000230590912405A0912505B09126050196CA
:10363000A11DB11D8093230590932405A09325051A
:10364000B0932605BF91AF919F918F911F901FBEA0
:103650001F9018959C014FB7F89480912305909185
:103660002405A0912505B09126054FBF821B930B21
:1036700008952FB7F8948091230590912405A09187
:103680002505B09126052FBF08950F931F93CF9363
:10369000DF93C62FD42F022FFC0185818823A9F048
:1036A0006093B8050E94391B9093B7058093B605C7
:1036B000C77081E001C0880FCA95EAF70E949A1589
:1036C000DF91CF911F910F9108958091B8056813F4
:1036D00035C08091B6059091B7050E942A1B843BA6
:1036E000910560F510E21D0FCD17B9F080E28C0F47
:1036F000883040F4C77081E001C0880FCA95EAF7AE
:103700000E949315183048F481E09D2F977001C0F6
:10371000880F9A95EAF70E949A15802F0E94D91572
:10372000802F0E94A415183058F6D77081E001C090
:10373000880FDA95EAF70E949315C2CFC77081E02F
:1037400001C0880FCA95EAF7F6CF8091180581115C
:103750000FC0109228050E943C100E94391B885708
:103760009C4E909316058093150581E08093180573
:103770000895AFE0B0E0EFEBFBE10C94BB2D8E01C0
:103780000F5F1F4F8AE0F80111928A95E9F78CEBE1
:10379000C82E81E0D82EF12CE12CAA24A394B12CC0
:1037A00027EC822E21E0922EF60181916F018F3F4E
:1037B00009F442C0F894E82FE295EF70F0E021A1FF
:1037C0008F70A50102C0440F551F8A95E2F7CA0108
:1037D000922F982B91A392A18095892382A378940C
:1037E00000C0E1ECF1E0712C31E021912F3F09F4B0
:1037F0009EC0A22FA295AF70B0E090968C9190E001
:103800002F7002C0959587952A95E2F780FD8FC0AD
:10381000832F782A330F8E169F0639F7F6013197DA
:1038200080818F3F11F00E94BC0D50EA5A95F1F74C
:10383000F801EE0DFF1D70828FEFE81AF80A95E08F
:10384000E916F10409F0B0CF4AE050E0B80187E88A
:1038500093E00E94492E009741F02AE0F801A7E882
:10386000B3E001900D922A95E1F70091920310E0E8
:103870000A561C4F892B09F45CC081E080934D03EC
:103880000E94391B90934C0380934B03D12CC09022
:103890001A05CC2009F4A4C07E01EBE0EE0EF11C69
:1038A00085E0F70111928A95E9F7809182038A30C9
:1038B00008F063C041EA58E1B701C8010E94E01670
:1038C000882309F47CC04DEC59E1B701C8010E947E
:1038D000E016882309F473C04BE458E1B701C8012E
:1038E0000E94E016882309F46AC041EA59E1B70151
:1038F000C8010E94E016882309F461C01092820377
:103900008091910390E045E050E0B7018A569C4FCA
:103910000E94492E21E020935403892B09F042C0D4
:10392000C12C8C2D8D292F96EDE00C94D72D80E0A5
:1039300070CFD0904D03DD2009F4A8CF80914B03C8
:1039400090914C030E942A1B059708F49FCF45E0F5
:1039500050E067E873E0C8010E94492E892B59F0B6
:1039600085E0E7E8F3E0D80101900D928A95E1F750
:1039700010924D038CCFD12CFBCF80914E039091B0
:103980004F030E942A1B843F914008F093CF8091FF
:103990005403882329F285E0F70111928A95E9F70B
:1039A00010925403A0919103B0E0AA56BC4F85E059
:1039B000FE013B9601900D928A95E1F7B2CF80917E
:1039C00082038F3F31F08F5F809382038A3008F447
:1039D00097CF0E94391B90934F0380934E03D7CF0C
:1039E000E0909103F12CA7014A565C4F7A0185E0E3
:1039F000F801A3E6B3E001900D928A95E1F783E622
:103A000093E00E94EE068093620385E0E8E6F3E02F
:103A1000D70101900D928A95E1F780906D03909007
:103A20006E03A0906F03B09070038091500390914B
:103A30005103A0915203B091530388169906AA0628
:103A4000BB06B1F08092500390925103A0925203B2
:103A5000B09253030E947708861A970AA80AB90AF7
:103A60008092830390928403A0928503B092860390
:103A700088E0E1E7F3E0AAEBB5E001900D928A95CA
:103A8000E1F710917903112349F080912F048111FE
:103A900005C00E940B0C80E00E94060A10932F04C0
:103AA00040CFB0E0A0E0E7E5FDE10C94BF2D8C0134
:103AB000DC0114968C91882309F462C061E0C8018E
:103AC0000E948B11EC0190911A03911154C5F801D9
:103AD00085818823B9F0C115F0E5DF0708F093C0B0
:103AE000C11520E2D20708F0A6C0C11537E0D30700
:103AF00049F008F04AC09E01205E310928303105A6
:103B000008F048C0C937BCE7DB0709F09AC020912C
:103B10000E0330910F03232B21F1811158C086E051
:103B2000F801ADEFB2E001900D928A95E1F7809136
:103B3000FC0280931A038DEF92E00E94511D1092B7
:103B40001A03F801858181110CC080910603882336
:103B500041F08095909117058923809317050E9465
:103B6000811280913F03877059F0F8018581882385
:103B700039F08091950382FF03C082E00E942A11F0
:103B8000CDB7DEB7E9E00C94DB2DC115BFE0DB0754
:103B900009F4B8CF4091280580911705309148036A
:103BA00029E0F801A7E0B3E001900D922A95E1F732
:103BB000D0930F03C0930E0310921905842B832B0F
:103BC00080930603C937BCE7DB0709F0CFC481E067
:103BD0000E94F40890910603992339F0809117050B
:103BE000892B809317050E94811289E0E7E0F3E0BA
:103BF000ADEFB2E001900D928A95E1F78091190541
:103C00008093FC028CCFC03EE2E5DE0760F4C03654
:103C1000F2E5DF0708F076CF9E01325520343105FA
:103C200008F0B8CF6FCF9E0127573C4724303105AD
:103C300008F0B0CF67CFD80116962C91207F09F0FD
:103C4000A9CFCA37FCE7DF0709F095C4882381F1C3
:103C500080910603282F207F09F090E140910E0308
:103C600050910F03C82FC295CF70C82BCF70C92BAE
:103C7000411520E4520708F040C0411530E25307D7
:103C800008F03FC0411581E0580708F053C04F3F8E
:103C90005105C1F1B8F190E080E027E0E1E1F3E007
:103CA000DF011D922A95E9F7909319038093180379
:103CB0008091180390911903892B09F452CFF801D0
:103CC0008581882339F08FEF0E94F40880911905CF
:103CD0008093100386E0F801A1E1B3E001900D921A
:103CE0008A95E1F78091100380931A0381E193E0B4
:103CF0000E94511D10921A0334CF411590E55907C7
:103D000030F65527D42F8C2F8D70B1F06AE08AECF5
:103D100090E00E94DE0890E0009751F44D2F66E19C
:103D20008CEA90E00E94DE0890E0009709F4B3CF9F
:103D30009C2BB3CFC52BE5CF68E082EC90E0E9CFB8
:103D4000CC33D10508F030C4FE01EB5BFE4F80811F
:103D50008093330129C4D0931C03C0931B033FC439
:103D60000E94A51BFECE0E94391B88579C4E909343
:103D7000160580931505D80115968C91882309F4B2
:103D8000DEC38F2D8D7909F05DC0C034B2E5DB074D
:103D900078F5C115E2E5DE0708F0D1C3C115F0E4FE
:103DA000DF0758F4C11520E2D20708F03FC0C63E35
:103DB000D10509F4C4C3CE010BC0C11530E5D3074A
:103DC000D0F7F8018681807F09F4B9C3CE01992725
:103DD000109217058832910508F03FC08E31910589
:103DE00008F041C0049770F182E0809317053BC052
:103DF000C03E82E5D807A0F4C03C92E5D90708F0A0
:103E00009EC3C036A2E5DA07B0F2C03AB2E5DB07DE
:103E100008F495C3C43BE2E5DE0709F490C3CBCFB9
:103E2000CE0187579C47029730F689C3D801169672
:103E30008C91807F59F68D2F8F71823159F028F443
:103E4000823041F00E9485157AC3843109F477C32A
:103E50008631C1F710921705F5CF8D32910521F209
:103E600028F48A9779F70E94811269C38C349105EE
:103E7000D1F38D329240B9F3E5CF26E241EE61EE07
:103E8000C8010E94451B6DCE27E245EE65EEF8CFD6
:103E900026E241EE60EEF4CF27E245EE64EEF0CF8D
:103EA00026E241EE62EEECCF27E245EE66EEE8CF89
:103EB00028E241E0EBCFD80115968C91882309F4D4
:103EC0001BC31092B805C737BCE7DB0709F4B0C0C5
:103ED00082E0C837ECE7DE0709F4ABC0C3303CE74B
:103EE000D30709F4F5C008F0B2C0C1159CE7D907A3
:103EF00009F4BDC0C130DC4709F053C00E9413175C
:103F00008091BA0591E089278093BA05109241010A
:103F10008091B90581608093B90523CE4DED59E0BC
:103F200067EE79E00E9445091CCE47EE59E06DED41
:103F300079E0F8CF49EC59E063ED79E0F3CF43ED58
:103F400059E069EC79E0EECF4FEA59E06CEB79E0AB
:103F5000E9CF4CEB59E06FEA79E0E4CF45E959E06D
:103F600062EA79E0DFCF42EA59E065E979E0DACF49
:103F700049E759E067E879E0D5CF47E859E069E7D4
:103F800079E0D0CF81E00E94B606EBCD85E0FBCF93
:103F9000C737FCE7DF0709F454C0C837DC4709F42A
:103FA00054C0D80117968D919C91009709F4A3C035
:103FB0000E941E0FD82FC92FD8011596BC901597B7
:103FC0001696EC90E2943FE0E32280913F038770E5
:103FD00001F1DB2CBB20F1F0892F807F803461F070
:103FE00080E28D0F8830A8F0892F807E803221F406
:103FF000D23078F0EE2069F08091950382FF09C0FD
:1040000082E00E942A1180913F038770DD24D394BF
:104010008111D12CCC2EC2942FE0C222BBE0BC1562
:1040200008F4E1C0EC2DF0E0E853F14D0C943A2E89
:1040300081E00E94411143E062E081E00E94FD10B6
:1040400090CD81E00E941D11F6CF82E0FBCFCB35F1
:10405000BCE7DB0709F44DC0CC35ECE7DE0709F41B
:104060003EC0CA35DC4709F09CCF81E03FC01092CA
:1040700028050E94BE122FEF34E38CE0215030401F
:104080008040E1F700C0000081E08093E00080E222
:104090008093D8001092C900AFE1BEE41197F1F708
:1040A00000C0000087E090EBDC018093CD07909387
:1040B000CE07A093CF07B093D00788E19CE00FB65E
:1040C000F894A895809360000FBE90936000FFCF96
:1040D0006FEF7FEF90E080E00E94AB2E0FCF8091DA
:1040E000950382FB882780F991E089270E94341884
:1040F00058CF80E0FBCFF8018581C081D181882332
:1041000069F0CE010E945310F82E682FCE010E9454
:10411000C310BE018F2D0E94FF0E4ACFCE010E9418
:104120008F10F82EF6CFEC2FEF70FE2EC07F19F017
:10413000F29490EFF922BB20B9F0FF2069F080E201
:104140008D0F883010F0D11109C080912805F82A10
:10415000F09228050E9481128D2F43C0809117058F
:10416000F82AF0921705F6CF8D2F0E94A415FF2094
:10417000D1F180E28D0F883010F0D11104C08F2D65
:104180000E94421006C0F09480911705F822F09228
:1041900017050E94811227C0FC2FFF70FF2EC07FE1
:1041A000C03219F0F29480EFF822DD2351F0D130C3
:1041B00009F472C0BB2009F47EC0EE2009F441C0AE
:1041C000CBCF8091950382FD38C0BB2081F1FF20C9
:1041D00039F080912805F82AF09228050E94811272
:1041E00080E00E94D915EC2DE850FF0B349710F4B5
:1041F0000E94CD08DD20B1F080913F0380FD12C008
:10420000D80115961C928695869586950E94411137
:10421000C8010E94511D80913F0386958695869521
:104220000E941D1160E0C8010E948B11A9CC80E0A2
:104230000E94A415FF20B9F2A2CFBB2099F0E11093
:1042400004C08F2D0E949A15CECF21E0E212CBCF71
:10425000809148039F2D9823F91629F2F82AF092AD
:104260004803C1CFE110BFCF8F2D0E9493159091CD
:1042700048038F2D892329F08F2D809589238093E2
:10428000480380911D039F2D982309F4ACCFF0942F
:10429000F822F0921D03A7CFBB2029F035E03E1590
:1042A00008F4A1CFCECF84E08E1508F49CCF8F2DDB
:1042B0000E94931598CFEE20D1F3D93349F49FEFA4
:1042C000A7EEB3E09150A040B040E1F700C000007D
:1042D0008D2F0E94A41587CF8C2F8695869583708D
:1042E00069F0813009F07FCF8D2F9C2F9370B11032
:1042F00002C080E090E00E94830875CF8D2F9C2F34
:104300009370B11002C080E090E00E94A8086BCFCB
:104310008C2F837089F5B11066CF4D2F429546954D
:104320004770440F440F8D2F8F70042E01C0880FEB
:104330000A94EAF72D2F2071D4FF07C02FE030E058
:1043400001C0220F4A95EAF72095C695C695C3701D
:10435000C23069F050F430919303C13029F0822BC0
:1043600083230E944D113FCF832B822BFACF282B22
:10437000809193038227F5CF8695BB2011F08C2F77
:104380008170882309F42FCF4D2F429546954770B1
:10439000440F440F8D2F8F70042E01C0880F0A9494
:1043A000EAF72D2F2071D4FF07C02FE030E001C0C5
:1043B000220F4A95EAF72095C695C695C370C2307C
:1043C00069F050F43091D803C13029F0822B832357
:1043D0000E94FA1008CF832B822BFACF282B8091D2
:1043E000D8038227F5CFCF70BB2029F08C2F0E94F5
:1043F00041118D2F27CF8D2F0E9493158C2F0E9456
:104400001D11F1CED23F81F160F4D03FB9F0D13F20
:1044100081F0BB2009F458C0E1109ECE8C2F8F7123
:1044200027C0D33F41F1D43FA1F78091950382FD8E
:104430002DC08C2F8F71BB2011F31AC0BB2079F0D7
:10444000E4E0EE1508F4CFCECF7181E090E001C03A
:10445000880FCA95EAF79091D8038927B9CFF5E07C
:10446000FE1508F4C0CEF0CF8C2F8F71B110C7CFDE
:104470000E944111B8CE80E0BB2009F4A9CFCF71D2
:1044800081E001C0880FCA95EAF7A2CFBB2089F06E
:10449000CF718C2F0E9441118091950382FF07C03C
:1044A00028E0C29FC0011124836080933F038C2FBA
:1044B000DFCF81E00E942A1131E03E1508F093CE53
:1044C00082E00E942A118FCEEE2059F0D93309F0F4
:1044D000FFCE8FEF97EEA3E081509040A040E1F730
:1044E000F5CE8C2F8F718BCFCA32D10599F4809184
:1044F0001B030E94A41535CB809128058272FE0112
:10450000E052F847E531F10508F042CDEC52F14DAB
:104510000C943A2EC337ECE7DE0709F422CBF09077
:10452000480380912805F82A8091180581111BCC39
:10453000F2E2FF1204C00E94A51B1092B805FE0112
:10454000E851FC47E730F10508F0B5CCE751F14DF3
:104550000C943A2EC337FCE7DF0709F78091180562
:10456000882309F4FDCB0E948515FBCACA372CE7C6
:10457000D20709F46DCBD80115968C91882309F4E4
:10458000B3CF80E280933301D093DA03C093D90391
:10459000CE0190528115904308F0D2CBCE019927DD
:1045A0009093DA038093D903F80181818093DC032F
:1045B00080818093DB03CA32D10561F6F090280533
:1045C0008F2D827209F4C7CB2CE430E030931C03AA
:1045D00020931B03823219F082E20E94931580918E
:1045E0001B030E94D915F0922805BBCACF93DF9315
:1045F00080913C03807F09F04DC080913B0388236C
:1046000009F448C0E091880550913F05C0913703F7
:10461000D0913603609138037091390349E05E17F9
:10462000C9F18E2F90E0E49FF0011124E05CFA4F75
:104630002481222391F1489FF001499FF00D11241C
:10464000DF01A05CBA4F11962C9111972C1325C055
:104650002C912D1322C015962C91159721111DC058
:1046600012962D913C91261B370B243B3105A8F463
:1046700080913C038F70806180933C03EA5BFA4F2A
:1046800080818F708061808386E393E00E94511D5A
:104690000E944910DF91CF910895FC013196E77097
:1046A000BECFA8E1B0E0E7E5F3E20C94BC2D8C01AD
:1046B00086E0F801DE01539601900D928A95E1F7AC
:1046C000D80114968C9114971596EC90159796E353
:1046D000A92E93E0B92E90913A03911128C0882316
:1046E00019F1EE20F1F0C8010E945011F82E882334
:1046F000C1F089E0F801D50101900D928A95E1F7AA
:1047000080913A03813031F48091360390913703E0
:104710000E9482100E94F6228F2D6896ECE00C9485
:10472000D82DC8010E94511DFF24F394F5CFF80144
:10473000D080C18082809380F0903B032091380329
:1047400030913903A401421B530BFF2009F4F5C03B
:10475000443B510508F0A6C08823F1F2909137033D
:1047600080913C03282F207F09F057C0C91215C043
:1047700090913603D91211C0E11049C08F70806149
:1047800080933C0386E393E00E94511D80913C039B
:10479000D80116968C93F12CBFCFE11038C06C2D48
:1047A0008D2D0E94CF066C2D8D2D0E94CF06E82EF8
:1047B0008111F1CFDB8ACC8A8B899C890E9482107F
:1047C000292F22952F70243058F49F70223088F0C2
:1047D000992399F0F8019681907F79F4FE2C9CCF73
:1047E0002A5F2F70223068F0C8010E94511DEF2C03
:1047F000F5CF992311F0882389F3805E883070F318
:10480000F3CF803F58F3815F833070F7E7CF80911B
:104810003C03816080933C03BECFC91214C09091C9
:104820003603D91210C0E1100EC016968C93C80141
:104830000E94511D89E0F801A6E3B3E001900D92BA
:104840008A95E1F769CFC8010E945011882309F4C5
:1048500068CFEE2009F465CF80913C038032B8F038
:10486000FE013E9695E0DF011D929A95E9F72091B1
:104870003603309137033B872A879D868C8690913B
:104880003A039E87888BCE010A960E94511D89E0CB
:10489000F801A6E3B3E001900D928A95E1F70E943A
:1048A000F62242CF90913C03292F207F51F486E3DA
:1048B00093E00E94511D89E0F50111928A95E9F774
:1048C0006ACF882309F428CF809137038C1111C057
:1048D00080913603D8120DC0E1100BC016969C9340
:1048E000C8010E94511D89E0F50111928A95E9F7EE
:1048F00013CFC8010E945011882309F412CFEE2073
:1049000009F40FCF80913C03803208F4C0CFFE0140
:10491000359695E0DF011D929A95E9F720913603CF
:10492000309137033A8329839C828B8290913A039A
:104930009D838F83CE010196A8CF443B510598F605
:10494000882309F4F1CEFE2CEE2009F4EACE809102
:1049500037038C1105C080913603D81609F46ACF4D
:10496000C8010E945011811192CF80913C03816057
:1049700080933C03C8010E94511DCECEA1E2B0E05D
:10498000E4ECF4E20C94C52D4C8F5D8F6E8F7F8F1D
:1049900088A399A3911110921705198E1A8E1B8E58
:1049A00086E0FE017C96DE01539601900D928A9579
:1049B000E1F78F89882329F061E0CE0143960E94B8
:1049C0008B1189E0FE017396DE011A9601900D921B
:1049D0008A95E1F7CE010A960E94512381110CC0FD
:1049E00089E0FE013A96DE01119601900D928A95BA
:1049F000E1F78E8581110BC019E0809188059091B7
:104A00003F05891333C0A196E3E00C94E12D20917A
:104A10003F0530E0C90101968770992740918805CC
:104A20004817190699F099E0929FD001939FB00D15
:104A30001124A05CBA4FFE01319601900D929A9517
:104A4000E1F780933F050E944910D6CF10922805C8
:104A50000E94BE1210923F051092880589E0E6E39D
:104A6000F3E0DF011D928A95E9F7C6CF819FC0016F
:104A70001124805C9A4F0E945123882321F2809157
:104A8000880590E001968770992780938805B5CFB7
:104A9000A6E0B0E0EEE4F5E20C94C42D0E94391BD0
:104AA0008C018091490390914A038017910781F00E
:104AB00019821A820E94391B682F49815A81792FE5
:104AC00080E090E00E94BE2410934A0300934903C3
:104AD0002696E4E00C94E02D1F921FB61F9211243D
:104AE0008F939F93AF93BF9380912205811113C041
:104AF0008091230590912405A0912505B09126056C
:104B00004196A11DB11D8093230590932405A09388
:104B10002505B0932605BF91AF919F918F911F906E
:104B20001FBE1F901895CDB7DEB72C970FB6F8941F
:104B3000DEBF0FBECDBF85B7806885BF85B78068F3
:104B400085BF84B7877F84BF0FB6F894A8958091FE
:104B50006000886180936000109260000FBE80E862
:104B600090E00FB6F89480936100909361000FBEBF
:104B70008AEB9DE09093F3028093F2020E94180763
:104B80000E94B9078091E20084608093E2007894EB
:104B9000809135058823A1F01091E9001F70909154
:104BA000EC00892F817090FD80E8182B1092E900AD
:104BB0008091E80083FD0E94D2121F701093E900DB
:104BC00082E084BD93E095BD9AEF97BD80936E001F
:104BD000109283031092840310928503109286032F
:104BE0008091D80080618093D8002AE12A95F1F75E
:104BF00000C08091D900182F117080FD04C00E9460
:104C000018071092350510931A0510931B05109381
:104C1000280111110E94402C8091280180912801C7
:104C200095E0811190E09093920385E0891B809339
:104C300091030CEB11E0D8018D918D018F3F11F0A4
:104C40000E94BC0DB1E0013C1B07A9F701EC11E08B
:104C500057ECE52E51E0F52EF80181918F018F3F41
:104C600011F00E94BC0DE016F106B1F78AE0E6E90A
:104C7000F3E0DF01282F1D922A95E9F7E7E8F3E03A
:104C8000DF011D928A95E9F790E080E00E94772E7F
:104C9000863E9E4F09F463C066EE7EEF90E080E0B2
:104CA0000E94AB2E60E082E090E00E948D2E81E0B9
:104CB0008093930361E083E090E00E948D2E60E09A
:104CC00074E184E090E00E94AB2E60E086E090E02A
:104CD0000E948D2E60E087E090E00E948D2E40E0E3
:104CE00050E0BA0188E090E00E949F2E60E084E2EC
:104CF00090E00E948D2E60E087E190E00E948D2E72
:104D000060E08CE090E00E948D2E60E08DE090E00D
:104D10000E948D2E19821A821B821C821D821E8285
:104D20001F82188648E050E068E170E0CE010196ED
:104D30000E947D2E40E050E0BA0180E290E00E94A7
:104D40009F2E40E050E0BA018FE090E00E949F2E3D
:104D500040E050E0BA0183E190E00E949F2E82E0A3
:104D600090E00E946F2E8093A00384E090E00E9468
:104D7000772E909395038093940383E090E00E94B4
:104D80006F2E0E944D110E94760910928D058FEFB3
:104D90009FEF9093A7058093A6059093A905809314
:104DA000A8059093AB058093AA059093AD058093D9
:104DB000AC059093AF058093AE059093B1058093B9
:104DC000B0059093B3058093B2059093B505809399
:104DD000B4051092020490931C0480931B049093DA
:104DE0001E0480931D049093200480931F049093CD
:104DF00022048093210490932404809323049093AD
:104E0000260480932504909328048093270490938C
:104E10002A048093290481E08093B90548E050E09A
:104E200068E170E08AEB95E00E945F2E1092B90570
:104E30008091BA058C7FF9F485E08093BA05809162
:104E4000420190914301A09144018093BB0590934E
:104E5000BC05A093BD058FE78093BE058FEF8093BF
:104E6000BF0548E050E068E170E08AEB95E00E9401
:104E70007D2E1092B90580911A05882309F417C177
:104E800080E08093FD0380FD14C180E88093C2051B
:104E90000E94DE2A6BE070E08BEB93E00E942B1700
:104EA0008823E9F18091FD0365E070E081FD03C195
:104EB00086EB93E00E942B17882389F16DE070E068
:104EC00084EA93E00E942B17882349F10E94770817
:104ED000605A75418F4F9F4F60930F057093100577
:104EE0008093110590931205E5ECF5E080E092E0E7
:104EF000DF019C011D9221503040E1F7F093CC0777
:104F0000E093CB078FEF9FEF9093C4058093C30589
:104F100081E080931405809313051092FE03809125
:104F20001A05811102C00E94432C89E291E09093FE
:104F30001F0580931E058091350500E112E1853043
:104F400009F404C10E94B91B41EA242E43E0342E27
:104F5000E6E9F3E0FA87E987DF01F10191918D91AC
:104F600023E0EB3AF20709F4FFC09817B9F3309148
:104F70001A053C8737EDA32E31E0B32EE12CA9852D
:104F8000BA859D90BA87A987F10151901F015914E4
:104F900009F481C059245B862501812C7724739400
:104FA0008B85872109F46CC0F92CF720FC85FF2341
:104FB000A1F08982EA820E94391B9C838B8321E0C5
:104FC0002D8391E0F11001C090E09E8349815A81C8
:104FD0006B817C818D810E94BE24F11014C1D201AD
:104FE0008C918F3F09F011C10F2D10E080910204C8
:104FF000800F912F911D09976CF188E0C82ED12C5C
:10500000C01AD10AB8016D5F7B4FA60183E094E01E
:105010000E94562EB801655F7B4FA6018BE094E09D
:105020000E94562EA601440F551FB801660F771F28
:10503000655E7B4F8BE194E00E94562EB8016D5E59
:105040007B4FA60183E194E00E94562E88E08F19E1
:10505000809302048091020490E0A62DB0E09D01AF
:10506000220F331F2D5E3D4FAA0FBB1FBD016C5E8B
:105070007D4F41E0480F9F1508F4CBC08093020498
:105080008394770CBFEF4B1A5B0AE6E08E1288CF51
:10509000F10131979082E394F6E0AF0EB11C2AE063
:1050A000E2126DCF0E94D30DDD24D39462C083E061
:1050B000E8CE80E2EBCE81EB93E0FCCE809135052B
:1050C000843009F434C00E947B1780912F04811131
:1050D00005C00E940B0C80E00E94060A31E030936C
:1050E0002F040E9438171092220588E190E0A0E476
:1050F0000FB6F894A895809360000FBEA09360004F
:1051000083B7817F846083BF83B7816083BF7894D6
:10511000889583B78E7F83BF0FB6F894A89580914A
:105120006000886180936000109260000FBE8091E3
:105130003405882359F00E94B91BE6E9F3E0819118
:105140008111D2C1B3E0E03AFB07C9F78091350580
:10515000853009F4B3CF109228050E94BE120E9438
:10516000CD0810922F04EECE981301CF0E9448254F
:10517000D12C80911A05882389F080911805882305
:1051800069F00E94391B2091150530911605821B8C
:10519000930B8F3F9F4710F40E9485150E947B1749
:1051A00080911405882309F496C08091FF039091A3
:1051B00000040E942A1BC29708F46DC00E94391B8C
:1051C000909300048093FF0385EC95E09093CC07C7
:1051D0008093CB0780911A05882309F49AC08EEE3C
:1051E00093E00E943B128091D8030E947A11823092
:1051F00009F483C018F5882359F1813009F47AC085
:1052000086EC93E027C0F12CEFCE682EFF24F394B8
:10521000EBCE90E0FC01EE5FFB4FD9015C91518336
:10522000DB015C915187618A880F991FFC01EE5F59
:10523000FB4F128E118E91E0842F1BCF843009F426
:1052400062C008F45DC08530D9F68EEC93E002C0F0
:1052500086EE93E00E947B128091C20590E08B5312
:105260009A4F9093CC078093CB070E94CD0881FD85
:105270004DC086EF93E00E943B128BEA93E00E94C0
:10528000451681E00E94491283EC93E00E94451686
:1052900081E00E9449128091C3059091C405892B39
:1052A00009F042C0809113058823A9F00E94770875
:1052B00000910F05109110052091110530911205F4
:1052C000601B710B820B930B6F3F7F4F8F4F9F477C
:1052D00010F40E943817D1100E9453170E94CD0875
:1052E00090910104891709F426CE809301040E944D
:1052F000770821CE82EE93E0ADCF8EED93E0AACF7A
:105300008AED93E0A7CF83ED93E0A4CF84E094E00F
:10531000B2CF81EB95E00E947B1260EA71E081E1FF
:1053200094E00E940509B7CF80911405882309F401
:10533000B9CF8091FE038111B5CF0E945317209100
:10534000C3053091C4052115310509F4ABCF80E0C8
:10535000082F10E0EE24E394F12C082E02C0EE0C8E
:10536000FF1C0A94E2F7A70142235323452B11F4B3
:105370008F5FEECF9091FD0390FF9DC0880F880F47
:10538000880F8093360110923901895F809337012D
:1053900083E080933A0124E630E047E050E064E3A4
:1053A00071E088E70E94122B892B09F07BCFA801BE
:1053B00025E0440F551F2A95E1F78091FD0380FFFA
:1053C0008CC0EDEDF3E080E2DF011D928A95E9F7F4
:1053D000EBECF1E0FA87E98707EC11E08FEC282E7F
:1053E00081E0382E97E0992EA985BA852D91BA874C
:1053F000A987F80141908F01440E552E511CC2011E
:105400008B539A4F2C01E22FF0E0E352FC4F30E037
:1054100020E0792C721ACC24C394022E01C0CC0C4B
:105420000A94EAF7520190E0D5018D915D018C213B
:10543000672D691B6770862E062E000C770BB82F20
:1054400001C0BB0F8A94EAF78B2E719561957109A3
:105450006770772701C086956A95EAF7882A808168
:10546000882A80829F5F9830F9F62F5F3F4F3196F0
:105470002830310571F6E985FA852E163F0609F0C8
:10548000B3CF04E610E020E230E04DED53E060E4FD
:1054900088E70E949C2B892B09F004CFE094F094BC
:1054A0008091C3059091C405E822F922F092C405C9
:1054B000E092C305F7CE8295880F807680933601FF
:1054C0009801369527953695279520933901815E69
:1054D0008093370120933A015ECF4B535A4F04E635
:1054E00010E020E230E0D3CF09BD19BD09B400FEC1
:1054F000FDCF8091D8008F7D8093D8008091E0000F
:1055000082608093E0008091E00081FDFCCF1092EA
:1055100028050E94BE121ACEEF92FF920F931F939E
:10552000CF93DF93182FEB011092BC0084EA809395
:10553000BC000E94391B7C018091BC0087FF27C002
:105540008091B900887F883029F08091B900887FE8
:10555000803189F51093BB0084E88093BC000E94E1
:10556000391B8C018091BC0087FF1EC02091B900BF
:10557000287F90E080E0283191F081E090E02034B5
:1055800011F490E080E091958195910908C0C701E0
:105590000E942A1BC817D90778F68EEF9FEFCDB768
:1055A000DEB7E6E00C94DE2DC8010E942A1BC81766
:1055B000D907C0F6F2CF8FEF9FEFF1CF1092B9006D
:1055C0008CE08093B80008950F931F93CF93DF93DF
:1055D000EB018093BB0084E88093BC000E94391BE0
:1055E0008C018091BC0087FF11C02091B900287FF9
:1055F00081E090E0283211F490E080E0919581956F
:105600009109DF91CF911F910F910895CF3FDC0752
:1056100041F3C8010E942A1BC817D90710F78EEF63
:105620009FEFEFCFB0E0A0E0E8E1FBE20C94BB2DF0
:10563000782E5B016A0189010E94391B4C01C1E08F
:10564000D0E00431110558F0C5E0D0E00F3F10075D
:1056500031F0C80164E170E00E94A22DEB01BE01AF
:10566000872D0E948C2A7C0197FF09C00F3F1007ED
:10567000B1F3C4010E942A1B0817190780F7E5013E
:10568000CA0CDB1CCC15DD0511F0F7FE09C084E95E
:105690008093BC00C701CDB7DEB7EDE00C94D72DE9
:1056A000B80189910E94E42A7C01ECCFB0E0A0E02F
:1056B000ECE5FBE20C94BB2D782E5B016A018901BD
:1056C0000E94391B4C01C1E0D0E00431110558F0B3
:1056D000C5E0D0E00F3F100731F0C80164E170E091
:1056E0000E94A22DEB01BE01872D0E948C2A7C0115
:1056F00097FF09C00F3F1007B1F3C4010E942A1B96
:105700000817190780F7E501CA0CDB1CCC15DD056D
:1057100011F0F7FE09C084E98093BC00C701CDB742
:10572000DEB7EDE00C94D72DFE018491B8010E9404
:10573000E42A7C012196EACFB0E0A0E0E2EAFBE2B5
:105740000C94BA2D682E762E5A0169010E94391BDD
:105750004C01C1E0D0E00431110558F0C5E0D0E0C3
:105760000F3F100731F0C80164E170E00E94A22DE4
:10577000EB01BE01862D0E948C2A7C0197FF1DC083
:105780000F3F1007B1F3C4010E942A1B0817190725
:1057900080F784E98093BC00C701CDB7DEB7EEE0A7
:1057A0000C94D62DB80189910E94E42A7C01CC1674
:1057B000DD0679F3F7FEF6CFECCFB801872D0E9416
:1057C000E42A7C01E501CA0CDB1CF1CF8EE14A9B87
:1057D00002C08150E1F74A9BFECF08955A9880E2BB
:1057E0008A95F1F75A9A0895FC013BE03A95F1F752
:1057F00098E020E080E031E040E14A95F1F7880F41
:105800004A9B02C08160232742E04A95F1F70000DD
:1058100040E14A95F1F7915079F790E19A95F1F7C7
:1058200099B132E03A95F1F7000040E14A95F1F77D
:1058300092FB992790F992272081920F90830895E7
:10584000A1E0B0E0E6E2FCE20C94C22D19828C01EA
:105850007C01E60EF11C0E151F0541F481E09981D3
:10586000911180E02196E6E00C94DE2D0E94E62B5B
:10587000CE0101960E94F42BF80181938F01EBCFAA
:10588000529A5A9A089552985A9AEA9AE9E6F0E09A
:1058900080818F7C808308956150770B91E001C0F7
:1058A000990F6A95EAF720E031E0911108C02223B0
:1058B00091F05A9A80E28A95F1F75A980895492F03
:1058C000482339F05A9A232740E24A95F1F79695F2
:1058D000ECCF5A98F9CF5A98EDCFFF920F931F93C0
:1058E000CF93DF93EC018C01060F111DC017D10778
:1058F00029F4CDB7DEB7E5E00C94DF2DF9900E94D6
:10590000EE2B68E08F2D0E944C2CF0CF1F920F924F
:105910000FB60F9211240F931F932F933F934F9322
:105920005F936F937F938F939F93AF93BF93EF9307
:10593000FF93CF93DF930F92CDB7DEB719820E940A
:10594000E62BCE0101960E94F42B082F06950695B2
:105950000695282F22952570902F9570290F922F4C
:10596000937026952695920F982797708981982B8A
:1059700009F05CC0063008F059C080E18A95F1F763
:105980005A9A529A82E08A95F1F700C05A9888E0B4
:10599000089F80011124D801A050BF4F1696ED91A9
:1059A000FC9117973097A9F06091BA017091BB01F3
:1059B00014962D913C911597260F371F11968D91B6
:1059C0009C911297680F791F13964C9113978C91A5
:1059D0000995F801E050FF4F6381662351F0209153
:1059E000BA013091BB0184819581820F931F0E947F
:1059F0006D2C0E94EE2B80E18A95F1F75A9852980F
:105A00005A9A80E18A95F1F7F801E050FF4F6081E2
:105A1000662351F02091BA013091BB0181819281BE
:105A2000820F931F0E94202C0E94E62B0F90DF9183
:105A3000CF91FF91EF91BF91AF919F918F917F9106
:105A40006F915F914F913F912F911F910F910F9007
:105A50000FBE0F901F9018950F931F93CF93DF9356
:105A6000EC0106970CF04CC0F894529A5A9885E0D5
:105A70008A95F1F700009C2F969595708C2F857074
:105A8000980F892F83709695969523E0CC0FDD1F94
:105A90002A95E1F7980F8E01092B0E94EE2B00C08A
:105AA00068E0802F0E944C2C80E18A95F1F7529893
:105AB0005A9A4A9B1EC087E090E04A991CC0FE019A
:105AC000E050FF4F63816623F9F02091BA013091D5
:105AD000BB0184819581820F931F0E94202C81112C
